{
  "contractName": "ChallengeContract",
  "abi": [
    {
      "anonymous": false,
      "inputs": [
        {
          "indexed": true,
          "internalType": "address",
          "name": "owner",
          "type": "address"
        },
        {
          "indexed": true,
          "internalType": "address",
          "name": "spender",
          "type": "address"
        },
        {
          "indexed": false,
          "internalType": "uint256",
          "name": "value",
          "type": "uint256"
        }
      ],
      "name": "Approval",
      "type": "event"
    },
    {
      "anonymous": false,
      "inputs": [
        {
          "indexed": true,
          "internalType": "address",
          "name": "from",
          "type": "address"
        },
        {
          "indexed": true,
          "internalType": "address",
          "name": "to",
          "type": "address"
        },
        {
          "indexed": false,
          "internalType": "uint256",
          "name": "value",
          "type": "uint256"
        }
      ],
      "name": "Transfer",
      "type": "event"
    },
    {
      "anonymous": false,
      "inputs": [
        {
          "indexed": false,
          "internalType": "uint256",
          "name": "challengeId",
          "type": "uint256"
        }
      ],
      "name": "returnChallengeId",
      "type": "event"
    },
    {
      "inputs": [
        {
          "components": [
            {
              "internalType": "uint256",
              "name": "id",
              "type": "uint256"
            },
            {
              "internalType": "string",
              "name": "name",
              "type": "string"
            },
            {
              "internalType": "address",
              "name": "donationAddress",
              "type": "address"
            },
            {
              "internalType": "string",
              "name": "donationURL",
              "type": "string"
            }
          ],
          "internalType": "struct DonationContract.Donation",
          "name": "donation",
          "type": "tuple"
        }
      ],
      "name": "addDonation",
      "outputs": [],
      "stateMutability": "nonpayable",
      "type": "function"
    },
    {
      "inputs": [
        {
          "internalType": "address",
          "name": "owner",
          "type": "address"
        },
        {
          "internalType": "address",
          "name": "delegate",
          "type": "address"
        }
      ],
      "name": "allowance",
      "outputs": [
        {
          "internalType": "uint256",
          "name": "",
          "type": "uint256"
        }
      ],
      "stateMutability": "view",
      "type": "function",
      "constant": true
    },
    {
      "inputs": [
        {
          "internalType": "uint256",
          "name": "challengeId",
          "type": "uint256"
        },
        {
          "internalType": "uint256",
          "name": "userId",
          "type": "uint256"
        },
        {
          "internalType": "uint256",
          "name": "challengerId",
          "type": "uint256"
        },
        {
          "internalType": "uint256",
          "name": "userIdIndex",
          "type": "uint256"
        },
        {
          "internalType": "uint256",
          "name": "challengeIdIndex",
          "type": "uint256"
        }
      ],
      "name": "applyVoteResult",
      "outputs": [],
      "stateMutability": "nonpayable",
      "type": "function"
    },
    {
      "inputs": [
        {
          "internalType": "address",
          "name": "delegate",
          "type": "address"
        },
        {
          "internalType": "uint256",
          "name": "numTokens",
          "type": "uint256"
        }
      ],
      "name": "approve",
      "outputs": [
        {
          "internalType": "bool",
          "name": "",
          "type": "bool"
        }
      ],
      "stateMutability": "nonpayable",
      "type": "function"
    },
    {
      "inputs": [
        {
          "internalType": "address",
          "name": "tokenOwner",
          "type": "address"
        }
      ],
      "name": "balanceOf",
      "outputs": [
        {
          "internalType": "uint256",
          "name": "",
          "type": "uint256"
        }
      ],
      "stateMutability": "view",
      "type": "function",
      "constant": true
    },
    {
      "inputs": [
        {
          "components": [
            {
              "internalType": "uint256",
              "name": "challengeId",
              "type": "uint256"
            },
            {
              "internalType": "uint256",
              "name": "interestId",
              "type": "uint256"
            },
            {
              "internalType": "uint256",
              "name": "ownerId",
              "type": "uint256"
            },
            {
              "internalType": "string",
              "name": "name",
              "type": "string"
            },
            {
              "internalType": "string",
              "name": "desc",
              "type": "string"
            },
            {
              "internalType": "string",
              "name": "mainPicURL",
              "type": "string"
            },
            {
              "internalType": "string",
              "name": "goodPicURL",
              "type": "string"
            },
            {
              "internalType": "string",
              "name": "badPicURL",
              "type": "string"
            },
            {
              "internalType": "uint256",
              "name": "authTotalTimes",
              "type": "uint256"
            },
            {
              "internalType": "uint256",
              "name": "authDayTimes",
              "type": "uint256"
            },
            {
              "internalType": "int256",
              "name": "startTime",
              "type": "int256"
            },
            {
              "internalType": "int256",
              "name": "endTime",
              "type": "int256"
            },
            {
              "internalType": "string",
              "name": "startDate",
              "type": "string"
            },
            {
              "internalType": "string",
              "name": "endDate",
              "type": "string"
            },
            {
              "internalType": "uint256",
              "name": "personnel",
              "type": "uint256"
            },
            {
              "internalType": "uint256",
              "name": "deposit",
              "type": "uint256"
            },
            {
              "internalType": "uint256",
              "name": "totalDeposit",
              "type": "uint256"
            },
            {
              "internalType": "bool",
              "name": "complete",
              "type": "bool"
            }
          ],
          "internalType": "struct DailyChallengeContract.DailyChallenge",
          "name": "dailyChallenge",
          "type": "tuple"
        }
      ],
      "name": "createDailyChallenge",
      "outputs": [],
      "stateMutability": "payable",
      "type": "function",
      "payable": true
    },
    {
      "inputs": [
        {
          "components": [
            {
              "internalType": "uint256",
              "name": "challengeId",
              "type": "uint256"
            },
            {
              "internalType": "uint256",
              "name": "interestId",
              "type": "uint256"
            },
            {
              "internalType": "uint256",
              "name": "ownerId",
              "type": "uint256"
            },
            {
              "internalType": "uint256",
              "name": "donationId",
              "type": "uint256"
            },
            {
              "internalType": "string",
              "name": "name",
              "type": "string"
            },
            {
              "internalType": "string",
              "name": "desc",
              "type": "string"
            },
            {
              "internalType": "uint256",
              "name": "setDonation",
              "type": "uint256"
            },
            {
              "internalType": "string",
              "name": "mainPicURL",
              "type": "string"
            },
            {
              "internalType": "string",
              "name": "goodPicURL",
              "type": "string"
            },
            {
              "internalType": "string",
              "name": "badPicURL",
              "type": "string"
            },
            {
              "internalType": "uint256",
              "name": "authTotalTimes",
              "type": "uint256"
            },
            {
              "internalType": "uint256",
              "name": "authDayTimes",
              "type": "uint256"
            },
            {
              "internalType": "uint256",
              "name": "startTime",
              "type": "uint256"
            },
            {
              "internalType": "uint256",
              "name": "endTime",
              "type": "uint256"
            },
            {
              "internalType": "string",
              "name": "startDate",
              "type": "string"
            },
            {
              "internalType": "string",
              "name": "endDate",
              "type": "string"
            },
            {
              "internalType": "uint256",
              "name": "personnel",
              "type": "uint256"
            },
            {
              "internalType": "uint256",
              "name": "totalDonation",
              "type": "uint256"
            },
            {
              "internalType": "bool",
              "name": "complete",
              "type": "bool"
            },
            {
              "internalType": "bool",
              "name": "success",
              "type": "bool"
            }
          ],
          "internalType": "struct DonationChallengeContract.DonationChallenge",
          "name": "donationChallenge",
          "type": "tuple"
        }
      ],
      "name": "createDonationChallenge",
      "outputs": [],
      "stateMutability": "payable",
      "type": "function",
      "payable": true
    },
    {
      "inputs": [],
      "name": "decimals",
      "outputs": [
        {
          "internalType": "uint8",
          "name": "",
          "type": "uint8"
        }
      ],
      "stateMutability": "view",
      "type": "function",
      "constant": true
    },
    {
      "inputs": [
        {
          "internalType": "uint256",
          "name": "challengeId",
          "type": "uint256"
        }
      ],
      "name": "endDailyChallenge",
      "outputs": [],
      "stateMutability": "nonpayable",
      "type": "function"
    },
    {
      "inputs": [
        {
          "internalType": "uint256",
          "name": "challengeId",
          "type": "uint256"
        }
      ],
      "name": "endDonationChallenge",
      "outputs": [],
      "stateMutability": "payable",
      "type": "function",
      "payable": true
    },
    {
      "inputs": [
        {
          "internalType": "uint256",
          "name": "challengerId",
          "type": "uint256"
        }
      ],
      "name": "findByChallengerId",
      "outputs": [
        {
          "components": [
            {
              "internalType": "uint256",
              "name": "id",
              "type": "uint256"
            },
            {
              "internalType": "uint256",
              "name": "userId",
              "type": "uint256"
            },
            {
              "internalType": "uint256",
              "name": "challengeId",
              "type": "uint256"
            },
            {
              "internalType": "address",
              "name": "userAddress",
              "type": "address"
            },
            {
              "internalType": "string",
              "name": "today",
              "type": "string"
            },
            {
              "internalType": "uint256",
              "name": "totalCount",
              "type": "uint256"
            },
            {
              "internalType": "uint256",
              "name": "dailyCount",
              "type": "uint256"
            },
            {
              "internalType": "uint256",
              "name": "userDeposit",
              "type": "uint256"
            },
            {
              "internalType": "uint256",
              "name": "reward",
              "type": "uint256"
            }
          ],
          "internalType": "struct ChallengerContract.Challenger",
          "name": "",
          "type": "tuple"
        }
      ],
      "stateMutability": "view",
      "type": "function",
      "constant": true
    },
    {
      "inputs": [],
      "name": "getAllDonation",
      "outputs": [
        {
          "components": [
            {
              "internalType": "uint256",
              "name": "id",
              "type": "uint256"
            },
            {
              "internalType": "string",
              "name": "name",
              "type": "string"
            },
            {
              "internalType": "address",
              "name": "donationAddress",
              "type": "address"
            },
            {
              "internalType": "string",
              "name": "donationURL",
              "type": "string"
            }
          ],
          "internalType": "struct DonationContract.Donation[]",
          "name": "",
          "type": "tuple[]"
        }
      ],
      "stateMutability": "view",
      "type": "function",
      "constant": true
    },
    {
      "inputs": [],
      "name": "name",
      "outputs": [
        {
          "internalType": "string",
          "name": "",
          "type": "string"
        }
      ],
      "stateMutability": "view",
      "type": "function",
      "constant": true
    },
    {
      "inputs": [
        {
          "internalType": "uint256[]",
          "name": "userIdList",
          "type": "uint256[]"
        },
        {
          "internalType": "uint256",
          "name": "challengeId",
          "type": "uint256"
        }
      ],
      "name": "receivePasscoin",
      "outputs": [],
      "stateMutability": "nonpayable",
      "type": "function"
    },
    {
      "inputs": [
        {
          "internalType": "uint256",
          "name": "challengerId",
          "type": "uint256"
        }
      ],
      "name": "refund",
      "outputs": [],
      "stateMutability": "payable",
      "type": "function",
      "payable": true
    },
    {
      "inputs": [],
      "name": "symbol",
      "outputs": [
        {
          "internalType": "string",
          "name": "",
          "type": "string"
        }
      ],
      "stateMutability": "view",
      "type": "function",
      "constant": true
    },
    {
      "inputs": [],
      "name": "totalSupply",
      "outputs": [
        {
          "internalType": "uint256",
          "name": "",
          "type": "uint256"
        }
      ],
      "stateMutability": "view",
      "type": "function",
      "constant": true
    },
    {
      "inputs": [
        {
          "internalType": "address",
          "name": "receiver",
          "type": "address"
        },
        {
          "internalType": "uint256",
          "name": "numTokens",
          "type": "uint256"
        }
      ],
      "name": "transfer",
      "outputs": [
        {
          "internalType": "bool",
          "name": "",
          "type": "bool"
        }
      ],
      "stateMutability": "nonpayable",
      "type": "function"
    },
    {
      "inputs": [
        {
          "internalType": "address",
          "name": "owner",
          "type": "address"
        },
        {
          "internalType": "address",
          "name": "buyer",
          "type": "address"
        },
        {
          "internalType": "uint256",
          "name": "numTokens",
          "type": "uint256"
        }
      ],
      "name": "transferFrom",
      "outputs": [
        {
          "internalType": "bool",
          "name": "",
          "type": "bool"
        }
      ],
      "stateMutability": "nonpayable",
      "type": "function"
    },
    {
      "inputs": [
        {
          "internalType": "address",
          "name": "user",
          "type": "address"
        },
        {
          "internalType": "uint256",
          "name": "numTokens",
          "type": "uint256"
        }
      ],
      "name": "useCoin",
      "outputs": [],
      "stateMutability": "nonpayable",
      "type": "function"
    },
    {
      "inputs": [
        {
          "internalType": "uint256",
          "name": "challengeId",
          "type": "uint256"
        },
        {
          "internalType": "uint256",
          "name": "userId",
          "type": "uint256"
        },
        {
          "internalType": "uint256",
          "name": "challengerId",
          "type": "uint256"
        },
        {
          "internalType": "uint256",
          "name": "userIdIndex",
          "type": "uint256"
        },
        {
          "internalType": "uint256",
          "name": "challengeIdIndex",
          "type": "uint256"
        }
      ],
      "name": "usePasscoin",
      "outputs": [],
      "stateMutability": "nonpayable",
      "type": "function"
    },
    {
      "inputs": [],
      "name": "getAllChallenge",
      "outputs": [
        {
          "internalType": "uint256[]",
          "name": "",
          "type": "uint256[]"
        },
        {
          "internalType": "uint256[]",
          "name": "",
          "type": "uint256[]"
        },
        {
          "components": [
            {
              "internalType": "uint256",
              "name": "challengeId",
              "type": "uint256"
            },
            {
              "internalType": "uint256",
              "name": "interestId",
              "type": "uint256"
            },
            {
              "internalType": "uint256",
              "name": "ownerId",
              "type": "uint256"
            },
            {
              "internalType": "string",
              "name": "name",
              "type": "string"
            },
            {
              "internalType": "string",
              "name": "desc",
              "type": "string"
            },
            {
              "internalType": "string",
              "name": "mainPicURL",
              "type": "string"
            },
            {
              "internalType": "string",
              "name": "goodPicURL",
              "type": "string"
            },
            {
              "internalType": "string",
              "name": "badPicURL",
              "type": "string"
            },
            {
              "internalType": "uint256",
              "name": "authTotalTimes",
              "type": "uint256"
            },
            {
              "internalType": "uint256",
              "name": "authDayTimes",
              "type": "uint256"
            },
            {
              "internalType": "int256",
              "name": "startTime",
              "type": "int256"
            },
            {
              "internalType": "int256",
              "name": "endTime",
              "type": "int256"
            },
            {
              "internalType": "string",
              "name": "startDate",
              "type": "string"
            },
            {
              "internalType": "string",
              "name": "endDate",
              "type": "string"
            },
            {
              "internalType": "uint256",
              "name": "personnel",
              "type": "uint256"
            },
            {
              "internalType": "uint256",
              "name": "deposit",
              "type": "uint256"
            },
            {
              "internalType": "uint256",
              "name": "totalDeposit",
              "type": "uint256"
            },
            {
              "internalType": "bool",
              "name": "complete",
              "type": "bool"
            }
          ],
          "internalType": "struct DailyChallengeContract.DailyChallenge[]",
          "name": "",
          "type": "tuple[]"
        },
        {
          "components": [
            {
              "internalType": "uint256",
              "name": "challengeId",
              "type": "uint256"
            },
            {
              "internalType": "uint256",
              "name": "interestId",
              "type": "uint256"
            },
            {
              "internalType": "uint256",
              "name": "ownerId",
              "type": "uint256"
            },
            {
              "internalType": "uint256",
              "name": "donationId",
              "type": "uint256"
            },
            {
              "internalType": "string",
              "name": "name",
              "type": "string"
            },
            {
              "internalType": "string",
              "name": "desc",
              "type": "string"
            },
            {
              "internalType": "uint256",
              "name": "setDonation",
              "type": "uint256"
            },
            {
              "internalType": "string",
              "name": "mainPicURL",
              "type": "string"
            },
            {
              "internalType": "string",
              "name": "goodPicURL",
              "type": "string"
            },
            {
              "internalType": "string",
              "name": "badPicURL",
              "type": "string"
            },
            {
              "internalType": "uint256",
              "name": "authTotalTimes",
              "type": "uint256"
            },
            {
              "internalType": "uint256",
              "name": "authDayTimes",
              "type": "uint256"
            },
            {
              "internalType": "uint256",
              "name": "startTime",
              "type": "uint256"
            },
            {
              "internalType": "uint256",
              "name": "endTime",
              "type": "uint256"
            },
            {
              "internalType": "string",
              "name": "startDate",
              "type": "string"
            },
            {
              "internalType": "string",
              "name": "endDate",
              "type": "string"
            },
            {
              "internalType": "uint256",
              "name": "personnel",
              "type": "uint256"
            },
            {
              "internalType": "uint256",
              "name": "totalDonation",
              "type": "uint256"
            },
            {
              "internalType": "bool",
              "name": "complete",
              "type": "bool"
            },
            {
              "internalType": "bool",
              "name": "success",
              "type": "bool"
            }
          ],
          "internalType": "struct DonationChallengeContract.DonationChallenge[]",
          "name": "",
          "type": "tuple[]"
        }
      ],
      "stateMutability": "nonpayable",
      "type": "function"
    },
    {
      "inputs": [
        {
          "internalType": "uint256",
          "name": "challengeId",
          "type": "uint256"
        },
        {
          "internalType": "uint256",
          "name": "userId",
          "type": "uint256"
        },
        {
          "internalType": "string",
          "name": "today",
          "type": "string"
        }
      ],
      "name": "joinChallenge",
      "outputs": [],
      "stateMutability": "payable",
      "type": "function",
      "payable": true
    },
    {
      "inputs": [
        {
          "internalType": "uint256",
          "name": "userId",
          "type": "uint256"
        }
      ],
      "name": "getMyChallenge",
      "outputs": [
        {
          "internalType": "uint256[]",
          "name": "",
          "type": "uint256[]"
        },
        {
          "internalType": "uint256[]",
          "name": "",
          "type": "uint256[]"
        }
      ],
      "stateMutability": "view",
      "type": "function",
      "constant": true
    },
    {
      "inputs": [
        {
          "internalType": "uint256",
          "name": "challengeId",
          "type": "uint256"
        },
        {
          "internalType": "uint256",
          "name": "userId",
          "type": "uint256"
        }
      ],
      "name": "findingChallenger",
      "outputs": [
        {
          "internalType": "uint256",
          "name": "",
          "type": "uint256"
        },
        {
          "internalType": "uint256",
          "name": "",
          "type": "uint256"
        },
        {
          "internalType": "uint256",
          "name": "",
          "type": "uint256"
        }
      ],
      "stateMutability": "view",
      "type": "function",
      "constant": true
    },
    {
      "inputs": [
        {
          "internalType": "uint256",
          "name": "challengeId",
          "type": "uint256"
        },
        {
          "internalType": "uint256",
          "name": "userId",
          "type": "uint256"
        }
      ],
      "name": "checkChallenger",
      "outputs": [
        {
          "internalType": "bool",
          "name": "",
          "type": "bool"
        }
      ],
      "stateMutability": "view",
      "type": "function",
      "constant": true
    },
    {
      "inputs": [
        {
          "internalType": "uint256",
          "name": "challengeId",
          "type": "uint256"
        },
        {
          "internalType": "uint256",
          "name": "userId",
          "type": "uint256"
        },
        {
          "internalType": "uint256",
          "name": "challengerId",
          "type": "uint256"
        },
        {
          "internalType": "uint256",
          "name": "userIdIndex",
          "type": "uint256"
        },
        {
          "internalType": "uint256",
          "name": "challengeIdIndex",
          "type": "uint256"
        },
        {
          "internalType": "string",
          "name": "today",
          "type": "string"
        }
      ],
      "name": "authenticate",
      "outputs": [],
      "stateMutability": "nonpayable",
      "type": "function"
    },
    {
      "inputs": [
        {
          "internalType": "uint256",
          "name": "challengeId",
          "type": "uint256"
        }
      ],
      "name": "getChallengers",
      "outputs": [
        {
          "components": [
            {
              "internalType": "uint256",
              "name": "id",
              "type": "uint256"
            },
            {
              "internalType": "uint256",
              "name": "userId",
              "type": "uint256"
            },
            {
              "internalType": "uint256",
              "name": "challengeId",
              "type": "uint256"
            },
            {
              "internalType": "address",
              "name": "userAddress",
              "type": "address"
            },
            {
              "internalType": "string",
              "name": "today",
              "type": "string"
            },
            {
              "internalType": "uint256",
              "name": "totalCount",
              "type": "uint256"
            },
            {
              "internalType": "uint256",
              "name": "dailyCount",
              "type": "uint256"
            },
            {
              "internalType": "uint256",
              "name": "userDeposit",
              "type": "uint256"
            },
            {
              "internalType": "uint256",
              "name": "reward",
              "type": "uint256"
            }
          ],
          "internalType": "struct ChallengerContract.Challenger[]",
          "name": "",
          "type": "tuple[]"
        }
      ],
      "stateMutability": "view",
      "type": "function",
      "constant": true
    },
    {
      "inputs": [
        {
          "internalType": "uint256",
          "name": "userId",
          "type": "uint256"
        }
      ],
      "name": "getChallengersByUserId",
      "outputs": [
        {
          "components": [
            {
              "internalType": "uint256",
              "name": "id",
              "type": "uint256"
            },
            {
              "internalType": "uint256",
              "name": "userId",
              "type": "uint256"
            },
            {
              "internalType": "uint256",
              "name": "challengeId",
              "type": "uint256"
            },
            {
              "internalType": "address",
              "name": "userAddress",
              "type": "address"
            },
            {
              "internalType": "string",
              "name": "today",
              "type": "string"
            },
            {
              "internalType": "uint256",
              "name": "totalCount",
              "type": "uint256"
            },
            {
              "internalType": "uint256",
              "name": "dailyCount",
              "type": "uint256"
            },
            {
              "internalType": "uint256",
              "name": "userDeposit",
              "type": "uint256"
            },
            {
              "internalType": "uint256",
              "name": "reward",
              "type": "uint256"
            }
          ],
          "internalType": "struct ChallengerContract.Challenger[]",
          "name": "",
          "type": "tuple[]"
        }
      ],
      "stateMutability": "view",
      "type": "function",
      "constant": true
    }
  ],
  "bytecode": "0x60806040526305f5e100600255600160035560016007556001600a5534801561002757600080fd5b506002543360009081526020819052604090205561590c806200004b6000396000f3fe6080604052600436106101c25760003560e01c8063740c162a116100f7578063a9059cbb11610095578063d60cdc2911610064578063d60cdc2914610565578063dd62ed3e14610585578063e76ba251146105cb578063f5a80245146105de57600080fd5b8063a9059cbb146104f2578063b098d41a14610512578063bc38036414610525578063c78a57b91461054557600080fd5b806395d89b41116100d157806395d89b411461045557806398e3a3e9146104855780639d4e1c1c146104b2578063a5e56ec4146104d257600080fd5b8063740c162a146103e7578063767449801461040757806385d0dd601461043557600080fd5b80633f7118511161016457806352e9a1a01161013e57806352e9a1a01461034f5780635b77573b146103715780636a5e4c9e1461039e57806370a08231146103b157600080fd5b80633f711851146102cf5780634a91c578146102ef5780634babd3661461031457600080fd5b80631dc834a7116101a05780631dc834a71461026057806323b872dd14610275578063278ecde114610295578063313ce567146102a857600080fd5b806306fdde03146101c7578063095ea7b31461021157806318160ddd14610241575b600080fd5b3480156101d357600080fd5b506101fb604051806040016040528060088152602001672830b9b9a1b7b4b760c11b81525081565b604051610208919061496d565b60405180910390f35b34801561021d57600080fd5b5061023161022c3660046149a3565b6105fe565b6040519015158152602001610208565b34801561024d57600080fd5b506002545b604051908152602001610208565b61027361026e366004614b00565b61066b565b005b34801561028157600080fd5b50610231610290366004614cef565b610a2c565b6102736102a3366004614d2b565b610b77565b3480156102b457600080fd5b506102bd600081565b60405160ff9091168152602001610208565b3480156102db57600080fd5b506102736102ea3660046149a3565b610cdc565b3480156102fb57600080fd5b50610304610d60565b6040516102089493929190614f28565b34801561032057600080fd5b5061033461032f3660046150f8565b611cbf565b60408051938452602084019290925290820152606001610208565b34801561035b57600080fd5b50610364611dd1565b604051610208919061511a565b34801561037d57600080fd5b5061039161038c366004614d2b565b61201f565b604051610208919061523d565b6102736103ac366004615250565b612189565b3480156103bd57600080fd5b506102526103cc36600461540d565b6001600160a01b031660009081526020819052604090205490565b3480156103f357600080fd5b50610273610402366004615428565b61239d565b34801561041357600080fd5b50610427610422366004614d2b565b6126d3565b604051610208929190615463565b34801561044157600080fd5b50610273610450366004615491565b6129c9565b34801561046157600080fd5b506101fb604051806040016040528060048152602001635041535360e01b81525081565b34801561049157600080fd5b506104a56104a0366004614d2b565b612bd5565b604051610208919061553c565b3480156104be57600080fd5b506102736104cd36600461559e565b612d37565b3480156104de57600080fd5b506102316104ed3660046150f8565b613137565b3480156104fe57600080fd5b5061023161050d3660046149a3565b6131b1565b610273610520366004614d2b565b613263565b34801561053157600080fd5b506104a5610540366004614d2b565b61366a565b34801561055157600080fd5b50610273610560366004614d2b565b6137c1565b34801561057157600080fd5b50610273610580366004615609565b61416f565b34801561059157600080fd5b506102526105a03660046156b4565b6001600160a01b03918216600090815260016020908152604080832093909416825291909152205490565b6102736105d93660046156e7565b6141fd565b3480156105ea57600080fd5b506102736105f9366004615428565b614440565b3360008181526001602090815260408083206001600160a01b038716808552925280832085905551919290917f8c5be1e5ebec7d5bd14f71427d1e84f3dd0314c0f7b2291e5b200ac8c7c3b925906106599086815260200190565b60405180910390a35060015b92915050565b600780548083523460c084018190526102208401528291600c91600091826106928361574c565b9190505581526020019081526020016000206000820151816000015560208201518160010155604082015181600201556060820151816003015560808201518160040190805190602001906106e8929190614801565b5060a08201518051610704916005840191602090910190614801565b5060c0820151600682015560e0820151805161072a916007840191602090910190614801565b506101008201518051610747916008840191602090910190614801565b506101208201518051610764916009840191602090910190614801565b50610140820151600a820155610160820151600b820155610180820151600c8201556101a0820151600d8201556101c082015180516107ad91600e840191602090910190614801565b506101e082015180516107ca91600f840191602090910190614801565b5061020082015160108201556102208201516011820155610240820151601290910180546102609093015115156101000261ff00199215159290921661ffff199093169290921717905580516040517f76fbc58aaedcbb39f7190db541de17575eeaaf17cf3facf5bd11ad55ca479ed1916108489190815260200190565b60405180910390a1600380546000818152600460208181526040928390209384559185015160018401558451600284015592820180546001600160a01b031916331790556101c0840151805192936108a893908501929190910190614801565b5034600782015560408083015160009081526005602090815291812080546001818101835591835292909120835460099093020191825580830154908201556002808301549082015560038083015490820180546001600160a01b0319166001600160a01b03909216919091179055600480830180548493928301919061092e90615765565b610939929190614885565b5060058281015490820155600680830154818301556007808401549083015560089283015492909101919091558251600090815260209182526040812080546001818101835591835292909120835460099093020191825580830154908201556002808301549082015560038083015490820180546001600160a01b0319166001600160a01b0390921691909117905560048083018054849392830191906109e090615765565b6109eb929190614885565b5060058281015490820155600680830154908201556007808301549082015560089182015491015560038054906000610a238361574c565b91905055505050565b6001600160a01b038316600090815260208190526040812054821115610a5157600080fd5b6001600160a01b0384166000908152600160209081526040808320338452909152902054821115610a8157600080fd5b6001600160a01b038416600090815260208190526040902054610aa5908390615799565b6001600160a01b038516600090815260208181526040808320939093556001815282822033835290522054610adb908390615799565b6001600160a01b0380861660009081526001602090815260408083203384528252808320949094559186168152908190522054610b199083906157b0565b6001600160a01b038481166000818152602081815260409182902094909455518581529092918716917fddf252ad1be2c89b69c2b068fc378daa952ba7f163c4a11628f55a4df523b3ef910160405180910390a35060019392505050565b60008181526004602081815260408084208151610120810183528154815260018201549381019390935260028101549183019190915260038101546001600160a01b031660608301529182018054919291608084019190610bd790615765565b80601f0160208091040260200160405190810160405280929190818152602001828054610c0390615765565b8015610c505780601f10610c2557610100808354040283529160200191610c50565b820191906000526020600020905b815481529060010190602001808311610c3357829003601f168201915b505050505081526020016005820154815260200160068201548152602001600782015481526020016008820154815250509050600081606001519050806001600160a01b03166108fc8361010001518460e00151610cae91906157b0565b6040518115909202916000818181858888f19350505050158015610cd6573d6000803e3d6000fd5b50505050565b33600090815260208190526040902054811115610cf857600080fd5b33600090815260208190526040902054610d139082906157b0565b33600090815260208190526040808220929092556001600160a01b03841681522054610d40908290615799565b6001600160a01b0390921660009081526020819052604090209190915550565b606080808060015b600754811161124857610d7a8161477e565b15610fad57600e805460018181019092557fbb7b4a454dc3493923482f07822329ed19e8244eff582cc204f8554c3620c3fd0182905560008281526008602052604081206009805480850182559252805460129092027f6e1540171b6c0c960b71a7020d9f60077f6af931a8bbf590da0223dacf75c7af8101928355928101547f6e1540171b6c0c960b71a7020d9f60077f6af931a8bbf590da0223dacf75c7b084015560028101547f6e1540171b6c0c960b71a7020d9f60077f6af931a8bbf590da0223dacf75c7b184015560038101805491937f6e1540171b6c0c960b71a7020d9f60077f6af931a8bbf590da0223dacf75c7b20191610e7b90615765565b610e86929190614885565b506004820181600401908054610e9b90615765565b610ea6929190614885565b506005820181600501908054610ebb90615765565b610ec6929190614885565b506006820181600601908054610edb90615765565b610ee6929190614885565b506007820181600701908054610efb90615765565b610f06929190614885565b506008820154816008015560098201548160090155600a82015481600a0155600b82015481600b0155600c820181600c01908054610f4390615765565b610f4e929190614885565b50600d820181600d01908054610f6390615765565b610f6e929190614885565b50600e8281015490820155600f8083015490820155601080830154908201556011918201549101805460ff191660ff9092161515919091179055611236565b610fb6816147cf565b1561123657600f805460018181019092557f8d1108e10bcb7c27dddfc02ed9d693a074039d026cf4ea4240b40f7d581ac802018290556000828152600c60205260408120600d805480850182559252805460139092027fd7b6990105719101dabeb77144f2a3385c8033acd3af97e9423a695e81ad1eb58101928355928101547fd7b6990105719101dabeb77144f2a3385c8033acd3af97e9423a695e81ad1eb684015560028101547fd7b6990105719101dabeb77144f2a3385c8033acd3af97e9423a695e81ad1eb784015560038101547fd7b6990105719101dabeb77144f2a3385c8033acd3af97e9423a695e81ad1eb884015560048101805491937fd7b6990105719101dabeb77144f2a3385c8033acd3af97e9423a695e81ad1eb901916110e090615765565b6110eb929190614885565b50600582018160050190805461110090615765565b61110b929190614885565b5060068201548160060155600782018160070190805461112a90615765565b611135929190614885565b50600882018160080190805461114a90615765565b611155929190614885565b50600982018160090190805461116a90615765565b611175929190614885565b50600a82015481600a0155600b82015481600b0155600c82015481600c0155600d82015481600d0155600e820181600e019080546111b290615765565b6111bd929190614885565b50600f820181600f019080546111d290615765565b6111dd929190614885565b5060108281015490820155601180830154908201556012918201805492909101805460ff938416151560ff19821681178355925461010090819004909416151590930261ff001990921661ffff19909316929092171790555b806112408161574c565b915050610d68565b50600e600f6009600d8380548060200260200160405190810160405280929190818152602001828054801561129c57602002820191906000526020600020905b815481526020019060010190808311611288575b50505050509350828054806020026020016040519081016040528092919081815260200182805480156112ee57602002820191906000526020600020905b8154815260200190600101908083116112da575b5050505050925081805480602002602001604051908101604052809291908181526020016000905b828210156117c057838290600052602060002090601202016040518061024001604052908160008201548152602001600182015481526020016002820154815260200160038201805461136890615765565b80601f016020809104026020016040519081016040528092919081815260200182805461139490615765565b80156113e15780601f106113b6576101008083540402835291602001916113e1565b820191906000526020600020905b8154815290600101906020018083116113c457829003601f168201915b505050505081526020016004820180546113fa90615765565b80601f016020809104026020016040519081016040528092919081815260200182805461142690615765565b80156114735780601f1061144857610100808354040283529160200191611473565b820191906000526020600020905b81548152906001019060200180831161145657829003601f168201915b5050505050815260200160058201805461148c90615765565b80601f01602080910402602001604051908101604052809291908181526020018280546114b890615765565b80156115055780601f106114da57610100808354040283529160200191611505565b820191906000526020600020905b8154815290600101906020018083116114e857829003601f168201915b5050505050815260200160068201805461151e90615765565b80601f016020809104026020016040519081016040528092919081815260200182805461154a90615765565b80156115975780601f1061156c57610100808354040283529160200191611597565b820191906000526020600020905b81548152906001019060200180831161157a57829003601f168201915b505050505081526020016007820180546115b090615765565b80601f01602080910402602001604051908101604052809291908181526020018280546115dc90615765565b80156116295780601f106115fe57610100808354040283529160200191611629565b820191906000526020600020905b81548152906001019060200180831161160c57829003601f168201915b505050505081526020016008820154815260200160098201548152602001600a8201548152602001600b8201548152602001600c8201805461166a90615765565b80601f016020809104026020016040519081016040528092919081815260200182805461169690615765565b80156116e35780601f106116b8576101008083540402835291602001916116e3565b820191906000526020600020905b8154815290600101906020018083116116c657829003601f168201915b50505050508152602001600d820180546116fc90615765565b80601f016020809104026020016040519081016040528092919081815260200182805461172890615765565b80156117755780601f1061174a57610100808354040283529160200191611775565b820191906000526020600020905b81548152906001019060200180831161175857829003601f168201915b5050509183525050600e820154602080830191909152600f83015460408301526010830154606083015260119092015460ff1615156080909101529082526001929092019101611316565b50505050915080805480602002602001604051908101604052809291908181526020016000905b82821015611cab5783829060005260206000209060130201604051806102800160405290816000820154815260200160018201548152602001600282015481526020016003820154815260200160048201805461184390615765565b80601f016020809104026020016040519081016040528092919081815260200182805461186f90615765565b80156118bc5780601f10611891576101008083540402835291602001916118bc565b820191906000526020600020905b81548152906001019060200180831161189f57829003601f168201915b505050505081526020016005820180546118d590615765565b80601f016020809104026020016040519081016040528092919081815260200182805461190190615765565b801561194e5780601f106119235761010080835404028352916020019161194e565b820191906000526020600020905b81548152906001019060200180831161193157829003601f168201915b505050505081526020016006820154815260200160078201805461197190615765565b80601f016020809104026020016040519081016040528092919081815260200182805461199d90615765565b80156119ea5780601f106119bf576101008083540402835291602001916119ea565b820191906000526020600020905b8154815290600101906020018083116119cd57829003601f168201915b50505050508152602001600882018054611a0390615765565b80601f0160208091040260200160405190810160405280929190818152602001828054611a2f90615765565b8015611a7c5780601f10611a5157610100808354040283529160200191611a7c565b820191906000526020600020905b815481529060010190602001808311611a5f57829003601f168201915b50505050508152602001600982018054611a9590615765565b80601f0160208091040260200160405190810160405280929190818152602001828054611ac190615765565b8015611b0e5780601f10611ae357610100808354040283529160200191611b0e565b820191906000526020600020905b815481529060010190602001808311611af157829003601f168201915b50505050508152602001600a8201548152602001600b8201548152602001600c8201548152602001600d8201548152602001600e82018054611b4f90615765565b80601f0160208091040260200160405190810160405280929190818152602001828054611b7b90615765565b8015611bc85780601f10611b9d57610100808354040283529160200191611bc8565b820191906000526020600020905b815481529060010190602001808311611bab57829003601f168201915b50505050508152602001600f82018054611be190615765565b80601f0160208091040260200160405190810160405280929190818152602001828054611c0d90615765565b8015611c5a5780601f10611c2f57610100808354040283529160200191611c5a565b820191906000526020600020905b815481529060010190602001808311611c3d57829003601f168201915b505050918352505060108201546020808301919091526011830154604083015260129092015460ff8082161515606084015261010090910416151560809091015290825260019290920191016117e7565b505050509050935093509350935090919293565b6000808080805b60008781526006602052604090205481108015611d1657506000878152600660205260409020805487919083908110611d0157611d016157c8565b90600052602060002090600902016001015414155b15611d2d5780611d258161574c565b915050611cc6565b60008681526005602052604090205482108015611d7d57506000868152600560205260409020805488919084908110611d6857611d686157c8565b90600052602060002090600902016002015414155b15611d945781611d8c8161574c565b925050611d2d565b6000868152600560205260409020805483908110611db457611db46157c8565b600091825260209091206009909102015497919650945092505050565b606060006001600a54611de49190615799565b6001600160401b03811115611dfb57611dfb6149cd565b604051908082528060200260200182016040528015611e6057816020015b611e4d6040518060800160405280600081526020016060815260200160006001600160a01b03168152602001606081525090565b815260200190600190039081611e195790505b50905060005b6001600a54611e759190615799565b81101561201957600b6000611e8b8360016157b0565b815260200190815260200160002060405180608001604052908160008201548152602001600182018054611ebe90615765565b80601f0160208091040260200160405190810160405280929190818152602001828054611eea90615765565b8015611f375780601f10611f0c57610100808354040283529160200191611f37565b820191906000526020600020905b815481529060010190602001808311611f1a57829003601f168201915b505050918352505060028201546001600160a01b03166020820152600382018054604090920191611f6790615765565b80601f0160208091040260200160405190810160405280929190818152602001828054611f9390615765565b8015611fe05780601f10611fb557610100808354040283529160200191611fe0565b820191906000526020600020905b815481529060010190602001808311611fc357829003601f168201915b505050505081525050828281518110611ffb57611ffb6157c8565b602002602001018190525080806120119061574c565b915050611e66565b50919050565b61207760405180610120016040528060008152602001600081526020016000815260200160006001600160a01b0316815260200160608152602001600081526020016000815260200160008152602001600081525090565b6000828152600460208181526040928390208351610120810185528154815260018201549281019290925260028101549382019390935260038301546001600160a01b0316606082015290820180549192916080840191906120d890615765565b80601f016020809104026020016040519081016040528092919081815260200182805461210490615765565b80156121515780601f1061212657610100808354040283529160200191612151565b820191906000526020600020905b81548152906001019060200180831161213457829003601f168201915b505050505081526020016005820154815260200160068201548152602001600782015481526020016008820154815250509050919050565b60078054808352346101e084018190526102008401528291600891600091826121b18361574c565b91905055815260200190815260200160002060008201518160000155602082015181600101556040820151816002015560608201518160030190805190602001906121fd929190614801565b5060808201518051612219916004840191602090910190614801565b5060a08201518051612235916005840191602090910190614801565b5060c08201518051612251916006840191602090910190614801565b5060e0820151805161226d916007840191602090910190614801565b5061010082015160088201556101208201516009820155610140820151600a820155610160820151600b82015561018082015180516122b691600c840191602090910190614801565b506101a082015180516122d391600d840191602090910190614801565b506101c0820151600e8201556101e0820151600f8201556102008201516010820155610220909101516011909101805460ff191691151591909117905580516040519081527f76fbc58aaedcbb39f7190db541de17575eeaaf17cf3facf5bd11ad55ca479ed19060200160405180910390a1600380546000818152600460208181526040928390209384559185015160018401558451600284015592820180546001600160a01b03191633179055610180840151805192936108a893908501929190910190614801565b60008381526004602081815260408084208151610120810183528154815260018201549381019390935260028101549183019190915260038101546001600160a01b0316606083015291820180549192916080840191906123fd90615765565b80601f016020809104026020016040519081016040528092919081815260200182805461242990615765565b80156124765780601f1061244b57610100808354040283529160200191612476565b820191906000526020600020905b81548152906001019060200180831161245957829003601f168201915b50505050508152602001600582015481526020016006820154815260200160078201548152602001600882015481525050905060018160a0018181516124bc9190615799565b90525060008581526005602052604090208054829190859081106124e2576124e26157c8565b60009182526020918290208351600992909202019081558282015160018201556040830151600282015560608301516003820180546001600160a01b0319166001600160a01b0390921691909117905560808301518051919261254d92600485019290910190614801565b5060a0820151816005015560c0820151816006015560e0820151816007015561010082015181600801559050508060066000888152602001908152602001600020838154811061259f5761259f6157c8565b60009182526020918290208351600992909202019081558282015160018201556040830151600282015560608301516003820180546001600160a01b0319166001600160a01b0390921691909117905560808301518051919261260a92600485019290910190614801565b5060a0820151600582015560c0820151600682015560e082015160078201556101009091015160089091015580516000908152600460208181526040928390208451815581850151600182015592840151600284015560608401516003840180546001600160a01b0319166001600160a01b039092169190911790556080840151805185949361269f93908501920190614801565b5060a0820151600582015560c0820151600682015560e0820151600782015561010090910151600890910155505050505050565b606080600060056000858152602001908152602001600020805480602002602001604051908101604052809291908181526020016000905b8282101561282d5760008481526020908190206040805161012081018252600986029092018054835260018101549383019390935260028301549082015260038201546001600160a01b0316606082015260048201805491929160808401919061277490615765565b80601f01602080910402602001604051908101604052809291908181526020018280546127a090615765565b80156127ed5780601f106127c2576101008083540402835291602001916127ed565b820191906000526020600020905b8154815290600101906020018083116127d057829003601f168201915b505050505081526020016005820154815260200160068201548152602001600782015481526020016008820154815250508152602001906001019061270b565b505050509050600081516001600160401b0381111561284e5761284e6149cd565b604051908082528060200260200182016040528015612877578160200160208202803683370190505b5090506000805b60075481101561291a576128918161477e565b80156128ad575060008181526008602052604090206002015487145b806128d857506128bc816147cf565b80156128d857506000818152600c602052604090206002015487145b15612908578083836128e98161574c565b9450815181106128fb576128fb6157c8565b6020026020010181815250505b806129128161574c565b91505061287e565b50600083516001600160401b03811115612936576129366149cd565b60405190808252806020026020018201604052801561295f578160200160208202803683370190505b50905060005b84518110156129bb57848181518110612980576129806157c8565b60200260200101516040015182828151811061299e5761299e6157c8565b6020908102919091010152806129b38161574c565b915050612965565b509196919550909350505050565b60005b8251811015612bd0576000600560008584815181106129ed576129ed6157c8565b60200260200101518152602001908152602001600020805480602002602001604051908101604052809291908181526020016000905b82821015612b455760008481526020908190206040805161012081018252600986029092018054835260018101549383019390935260028301549082015260038201546001600160a01b03166060820152600482018054919291608084019190612a8c90615765565b80601f0160208091040260200160405190810160405280929190818152602001828054612ab890615765565b8015612b055780601f10612ada57610100808354040283529160200191612b05565b820191906000526020600020905b815481529060010190602001808311612ae857829003601f168201915b5050505050815260200160058201548152602001600682015481526020016007820154815260200160088201548152505081526020019060010190612a23565b50505050905060005b8151811015612bbb5783828281518110612b6a57612b6a6157c8565b60200260200101516040015103612ba957612ba3828281518110612b9057612b906157c8565b60200260200101516060015160016131b1565b50612bbb565b80612bb38161574c565b915050612b4e565b50508080612bc89061574c565b9150506129cc565b505050565b606060056000838152602001908152602001600020805480602002602001604051908101604052809291908181526020016000905b82821015612d2c5760008481526020908190206040805161012081018252600986029092018054835260018101549383019390935260028301549082015260038201546001600160a01b03166060820152600482018054919291608084019190612c7390615765565b80601f0160208091040260200160405190810160405280929190818152602001828054612c9f90615765565b8015612cec5780601f10612cc157610100808354040283529160200191612cec565b820191906000526020600020905b815481529060010190602001808311612ccf57829003601f168201915b5050505050815260200160058201548152602001600682015481526020016007820154815260200160088201548152505081526020019060010190612c0a565b505050509050919050565b60008481526004602081815260408084208151610120810183528154815260018201549381019390935260028101549183019190915260038101546001600160a01b031660608301529182018054919291608084019190612d9790615765565b80601f0160208091040260200160405190810160405280929190818152602001828054612dc390615765565b8015612e105780601f10612de557610100808354040283529160200191612e10565b820191906000526020600020905b815481529060010190602001808311612df357829003601f168201915b5050505050815260200160058201548152602001600682015481526020016007820154815260200160088201548152505090506000612e4e8861477e565b15612e6b5750600087815260086020526040902060090154612e8d565b612e74886147cf565b15612e8d57506000878152600c60205260409020600b01545b82604051602001612e9e91906157de565b604051602081830303815290604052805190602001208260800151604051602001612ec991906157de565b6040516020818303038152906040528051906020012014612ef357600060c0830152608082018390525b60018260c001818151612f0691906157b0565b90525060a08201805160019190612f1e9083906157b0565b9052506000878152600560205260409020805483919087908110612f4457612f446157c8565b60009182526020918290208351600992909202019081558282015160018201556040830151600282015560608301516003820180546001600160a01b0319166001600160a01b03909216919091179055608083015180519192612faf92600485019290910190614801565b5060a0820151816005015560c0820151816006015560e08201518160070155610100820151816008015590505081600660008a81526020019081526020016000208581548110613001576130016157c8565b60009182526020918290208351600992909202019081558282015160018201556040830151600282015560608301516003820180546001600160a01b0319166001600160a01b0390921691909117905560808301518051919261306c92600485019290910190614801565b5060a0820151600582015560c0820151600682015560e082015160078201556101009091015160089091015581516000908152600460208181526040928390208551815581860151600182015592850151600284015560608501516003840180546001600160a01b0319166001600160a01b039092169190911790556080850151805186949361310193908501920190614801565b5060a0820151600582015560c0820151600682015560e08201516007820155610100909101516008909101555050505050505050565b6000805b6000848152600660205260409020548110156131a7576000848152600660205260409020805484919083908110613174576131746157c8565b90600052602060002090600902016001015403613195576001915050610665565b8061319f8161574c565b91505061313b565b5060009392505050565b336000908152602081905260408120548211156131cd57600080fd5b336000908152602081905260409020546131e8908390615799565b33600090815260208190526040808220929092556001600160a01b038516815220546132159083906157b0565b6001600160a01b038416600081815260208181526040918290209390935551848152909133917fddf252ad1be2c89b69c2b068fc378daa952ba7f163c4a11628f55a4df523b3ef9101610659565b6000818152600c60209081526040808320600683528184208054835181860281018601909452808452919493909190849084015b828210156133b95760008481526020908190206040805161012081018252600986029092018054835260018101549383019390935260028301549082015260038201546001600160a01b0316606082015260048201805491929160808401919061330090615765565b80601f016020809104026020016040519081016040528092919081815260200182805461332c90615765565b80156133795780601f1061334e57610100808354040283529160200191613379565b820191906000526020600020905b81548152906001019060200180831161335c57829003601f168201915b5050505050815260200160058201548152602001600682015481526020016007820154815260200160088201548152505081526020019060010190613297565b50505060128401805460ff191660011790555090506000805b825181101561344157600084600a01548483815181106133f4576133f46157c8565b602002602001015160a00151606461340c91906157fa565b6134169190615819565b90506050811061342e578261342a8161574c565b9350505b50806134398161574c565b9150506133d2565b5081516050906134528360646157fa565b61345c9190615819565b10610cd6576000600b6000856003015481526020019081526020016000206040518060800160405290816000820154815260200160018201805461349f90615765565b80601f01602080910402602001604051908101604052809291908181526020018280546134cb90615765565b80156135185780601f106134ed57610100808354040283529160200191613518565b820191906000526020600020905b8154815290600101906020018083116134fb57829003601f168201915b505050918352505060028201546001600160a01b0316602082015260038201805460409092019161354890615765565b80601f016020809104026020016040519081016040528092919081815260200182805461357490615765565b80156135c15780601f10613596576101008083540402835291602001916135c1565b820191906000526020600020905b8154815290600101906020018083116135a457829003601f168201915b5050509190925250505060128501805461ff001916610100179055905060005b835181101561361f5760008482815181106135fe576135fe6157c8565b602090810291909101015160e00152806136178161574c565b9150506135e1565b506040808201516011860154915190916001600160a01b0383169181156108fc0291906000818181858888f19350505050158015613661573d6000803e3d6000fd5b50505050505050565b606060066000838152602001908152602001600020805480602002602001604051908101604052809291908181526020016000905b82821015612d2c5760008481526020908190206040805161012081018252600986029092018054835260018101549383019390935260028301549082015260038201546001600160a01b0316606082015260048201805491929160808401919061370890615765565b80601f016020809104026020016040519081016040528092919081815260200182805461373490615765565b80156137815780601f1061375657610100808354040283529160200191613781565b820191906000526020600020905b81548152906001019060200180831161376457829003601f168201915b505050505081526020016005820154815260200160068201548152602001600782015481526020016008820154815250508152602001906001019061369f565b6000818152600860209081526040808320600683528184208054835181860281018601909452808452919493909190849084015b828210156139175760008481526020908190206040805161012081018252600986029092018054835260018101549383019390935260028301549082015260038201546001600160a01b0316606082015260048201805491929160808401919061385e90615765565b80601f016020809104026020016040519081016040528092919081815260200182805461388a90615765565b80156138d75780601f106138ac576101008083540402835291602001916138d7565b820191906000526020600020905b8154815290600101906020018083116138ba57829003601f168201915b50505050508152602001600582015481526020016006820154815260200160078201548152602001600882015481525050815260200190600101906137f5565b50505060118401805460ff19166001179055509050600080805b8351811015613ddf5760008560080154858381518110613953576139536157c8565b602002602001015160a00151606461396b91906157fa565b6139759190615819565b9050848281518110613989576139896157c8565b602002602001015160a001518660080154036139b157826139a98161574c565b935050613ab4565b605081106139e35760008583815181106139cd576139cd6157c8565b6020026020010151610100018181525050613ab4565b60288110613a7e5760648187600f01546139fd91906157fa565b613a079190615819565b858381518110613a1957613a196157c8565b602002602001015160e00151613a2f9190615799565b613a3990856157b0565b935060648187600f0154613a4d91906157fa565b613a579190615819565b858381518110613a6957613a696157c8565b602002602001015160e0018181525050613ab4565b600f860154613a8d90856157b0565b93506000858381518110613aa357613aa36157c8565b602002602001015160e00181815250505b848281518110613ac657613ac66157c8565b6020026020010151600660008981526020019081526020016000208381548110613af257613af26157c8565b60009182526020918290208351600992909202019081558282015160018201556040830151600282015560608301516003820180546001600160a01b0319166001600160a01b03909216919091179055608083015180519192613b5d92600485019290910190614801565b5060a0820151816005015560c0820151816006015560e082015181600701556101008201518160080155905050848281518110613b9c57613b9c6157c8565b602002602001015160046000878581518110613bba57613bba6157c8565b602002602001015160000151815260200190815260200160002060008201518160000155602082015181600101556040820151816002015560608201518160030160006101000a8154816001600160a01b0302191690836001600160a01b031602179055506080820151816004019080519060200190613c3b929190614801565b5060a0820151816005015560c0820151816006015560e0820151816007015561010082015181600801559050506000858381518110613c7c57613c7c6157c8565b602002602001015160200151905060005b600082815260056020526040902054811015613dc957600082815260056020526040902080548a919083908110613cc657613cc66157c8565b90600052602060002090600902016002015403613db757868481518110613cef57613cef6157c8565b6020026020010151600560008481526020019081526020016000208281548110613d1b57613d1b6157c8565b60009182526020918290208351600992909202019081558282015160018201556040830151600282015560608301516003820180546001600160a01b0319166001600160a01b03909216919091179055608083015180519192613d8692600485019290910190614801565b5060a0820151600582015560c0820151600682015560e0820151600782015561010090910151600890910155613dc9565b80613dc18161574c565b915050613c8d565b5050508080613dd79061574c565b915050613931565b5060005b835181101561416757838181518110613dfe57613dfe6157c8565b602002602001015160a0015185600801540361415557613e1e8284615819565b848281518110613e3057613e306157c8565b6020026020010151610100018181525050838181518110613e5357613e536157c8565b6020026020010151600660008881526020019081526020016000208281548110613e7f57613e7f6157c8565b60009182526020918290208351600992909202019081558282015160018201556040830151600282015560608301516003820180546001600160a01b0319166001600160a01b03909216919091179055608083015180519192613eea92600485019290910190614801565b5060a0820151816005015560c0820151816006015560e082015181600701556101008201518160080155905050838181518110613f2957613f296157c8565b602002602001015160046000868481518110613f4757613f476157c8565b602002602001015160000151815260200190815260200160002060008201518160000155602082015181600101556040820151816002015560608201518160030160006101000a8154816001600160a01b0302191690836001600160a01b031602179055506080820151816004019080519060200190613fc8929190614801565b5060a0820151816005015560c0820151816006015560e0820151816007015561010082015181600801559050506000848281518110614009576140096157c8565b602002602001015160200151905060005b600082815260056020526040902054811015614152576000828152600560205260409020805489919083908110614053576140536157c8565b906000526020600020906009020160020154036141405785838151811061407c5761407c6157c8565b60200260200101516005600084815260200190815260200160002082815481106140a8576140a86157c8565b60009182526020918290208351600992909202019081558282015160018201556040830151600282015560608301516003820180546001600160a01b0319166001600160a01b0390921691909117905560808301518051919261411392600485019290910190614801565b5060a0820151600582015560c0820151600682015560e08201516007820155610100909101516008909101555b8061414a8161574c565b91505061401a565b50505b8061415f8161574c565b915050613de3565b505050505050565b600a80548083528291600b91600091826141888361574c565b9091555081526020808201929092526040016000208251815582820151805191926141bb92600185019290910190614801565b5060408201516002820180546001600160a01b0319166001600160a01b0390921691909117905560608201518051610cd6916003840191602090910190614801565b600380546000818152600460208181526040909220928355600183018690556002830187905592820180546001600160a01b031916331790558351919261424a9290840191850190614801565b503460078201556000838152600560209081526040822080546001818101835591845291909220835460099092020190815581830154918101919091556002808301549082015560038083015490820180546001600160a01b0319166001600160a01b0390921691909117905560048083018054849392830191906142ce90615765565b6142d9929190614885565b506005828101549082015560068083015481830155600780840154908301556008928301549290910191909155600085815260209182526040812080546001818101835591835292909120835460099093020191825580830154908201556002808301549082015560038083015490820180546001600160a01b0319166001600160a01b03909216919091179055600480830180548493928301919061437e90615765565b614389929190614885565b50600582810154908201556006808301549082015560078083015490820155600891820154910155600380549060006143c18361574c565b91905055506143cf8461477e565b15614403576000848152600860205260408120601081018054919234926143f79084906157b0565b90915550610cd6915050565b61440c846147cf565b15610cd6576000848152600c60205260408120601181018054919234926144349084906157b0565b90915550505050505050565b60008381526004602081815260408084208151610120810183528154815260018201549381019390935260028101549183019190915260038101546001600160a01b0316606083015291820180549192916080840191906144a090615765565b80601f01602080910402602001604051908101604052809291908181526020018280546144cc90615765565b80156145195780601f106144ee57610100808354040283529160200191614519565b820191906000526020600020905b8154815290600101906020018083116144fc57829003601f168201915b50505050508152602001600582015481526020016006820154815260200160078201548152602001600882015481525050905060018160a00181815161455f91906157b0565b9052506000858152600560205260409020805482919085908110614585576145856157c8565b60009182526020918290208351600992909202019081558282015160018201556040830151600282015560608301516003820180546001600160a01b0319166001600160a01b039092169190911790556080830151805191926145f092600485019290910190614801565b5060a0820151816005015560c0820151816006015560e08201518160070155610100820151816008015590505080600660008881526020019081526020016000208381548110614642576146426157c8565b60009182526020918290208351600992909202019081558282015160018201556040830151600282015560608301516003820180546001600160a01b0319166001600160a01b039092169190911790556080830151805191926146ad92600485019290910190614801565b5060a0820151600582015560c0820151600682015560e082015160078201556101009091015160089091015580516000908152600460208181526040928390208451815581850151600182015592840151600284015560608401516003840180546001600160a01b0319166001600160a01b039092169190911790556080840151805185949361474293908501920190614801565b5060a0820151600582015560c0820151600682015560e08201516007820155610100909101516008909101556060810151613661816001610cdc565b6040805160008082526020808301808552835190208583526008909152838220919390926147b092600301910161583b565b6040516020818303038152906040528051906020012014159050919050565b604080516000808252602080830180855283519020858352600c909152838220919390926147b092600401910161583b565b82805461480d90615765565b90600052602060002090601f01602090048101928261482f5760008555614875565b82601f1061484857805160ff1916838001178555614875565b82800160010185558215614875579182015b8281111561487557825182559160200191906001019061485a565b50614881929150614900565b5090565b82805461489190615765565b90600052602060002090601f0160209004810192826148b35760008555614875565b82601f106148c45780548555614875565b8280016001018555821561487557600052602060002091601f016020900482015b828111156148755782548255916001019190600101906148e5565b5b808211156148815760008155600101614901565b60005b83811015614930578181015183820152602001614918565b83811115610cd65750506000910152565b60008151808452614959816020860160208601614915565b601f01601f19169290920160200192915050565b6020815260006149806020830184614941565b9392505050565b80356001600160a01b038116811461499e57600080fd5b919050565b600080604083850312156149b657600080fd5b6149bf83614987565b946020939093013593505050565b634e487b7160e01b600052604160045260246000fd5b60405161028081016001600160401b0381118282101715614a0657614a066149cd565b60405290565b60405161024081016001600160401b0381118282101715614a0657614a066149cd565b604051608081016001600160401b0381118282101715614a0657614a066149cd565b604051601f8201601f191681016001600160401b0381118282101715614a7957614a796149cd565b604052919050565b600082601f830112614a9257600080fd5b81356001600160401b03811115614aab57614aab6149cd565b614abe601f8201601f1916602001614a51565b818152846020838601011115614ad357600080fd5b816020850160208301376000918101602001919091529392505050565b8035801515811461499e57600080fd5b600060208284031215614b1257600080fd5b81356001600160401b0380821115614b2957600080fd5b908301906102808286031215614b3e57600080fd5b614b466149e3565b82358152602083013560208201526040830135604082015260608301356060820152608083013582811115614b7a57600080fd5b614b8687828601614a81565b60808301525060a083013582811115614b9e57600080fd5b614baa87828601614a81565b60a08301525060c083013560c082015260e083013582811115614bcc57600080fd5b614bd887828601614a81565b60e0830152506101008084013583811115614bf257600080fd5b614bfe88828701614a81565b8284015250506101208084013583811115614c1857600080fd5b614c2488828701614a81565b91830191909152506101408381013590820152610160808401359082015261018080840135908201526101a080840135908201526101c08084013583811115614c6c57600080fd5b614c7888828701614a81565b8284015250506101e08084013583811115614c9257600080fd5b614c9e88828701614a81565b9183019190915250610200838101359082015261022080840135908201526102409150614ccc828401614af0565b828201526102609150614ce0828401614af0565b91810191909152949350505050565b600080600060608486031215614d0457600080fd5b614d0d84614987565b9250614d1b60208501614987565b9150604084013590509250925092565b600060208284031215614d3d57600080fd5b5035919050565b600081518084526020808501945080840160005b83811015614d7457815187529582019590820190600101614d58565b509495945050505050565b600081518084526020808501808196508360051b8101915082860160005b85811015614f1b5782840389528151610280815186528682015187870152604080830151818801525060608083015181880152506080808301518282890152614de883890182614941565b9250505060a08083015187830382890152614e038382614941565b9250505060c080830151818801525060e08083015187830382890152614e298382614941565b925050506101008083015187830382890152614e458382614941565b925050506101208083015187830382890152614e618382614941565b61014085810151908a015261016080860151908a015261018080860151908a01526101a080860151908a01526101c0808601518a8303828c015291945092509050614eac8382614941565b925050506101e08083015187830382890152614ec88382614941565b9250505061020080830151818801525061022080830151818801525061024080830151614ef88289018215159052565b505061026091820151151595909101949094529784019790840190600101614d9d565b5091979650505050505050565b60006080808352614f3b81840188614d44565b602084820381860152614f4e8289614d44565b91506040858303818701528288518085528385019150838160051b860101848b0160005b838110156150d357601f19888403018552815161024081518552888201518986015287820151888601526060808301518282880152614fb383880182614941565b925050508a8201518582038c870152614fcc8282614941565b91505060a08083015186830382880152614fe68382614941565b9250505060c080830151868303828801526150018382614941565b9250505060e0808301518683038288015261501c8382614941565b610100858101519089015261012080860151908901526101408086015190890152610160808601519089015261018080860151898303828b0152919450925090506150678382614941565b925050506101a080830151868303828801526150838382614941565b6101c085810151908901526101e08086015190890152610200808601519089015261022094850151801515868a01529490935091506150bf9050565b509588019593505090860190600101614f72565b505088810360608a01526150e7818b614d7f565b9d9c50505050505050505050505050565b6000806040838503121561510b57600080fd5b50508035926020909101359150565b60006020808301818452808551808352604092508286019150828160051b87010184880160005b838110156151b257603f19898403018552815160808151855288820151818a87015261516f82870182614941565b838a01516001600160a01b0316878b015260609384015187820394880194909452915061519e90508183614941565b968901969450505090860190600101615141565b509098975050505050505050565b600061012082518452602083015160208501526040830151604085015260018060a01b036060840151166060850152608083015181608086015261520682860182614941565b91505060a083015160a085015260c083015160c085015260e083015160e08501526101008084015181860152508091505092915050565b60208152600061498060208301846151c0565b60006020828403121561526257600080fd5b81356001600160401b038082111561527957600080fd5b90830190610240828603121561528e57600080fd5b615296614a0c565b8235815260208301356020820152604083013560408201526060830135828111156152c057600080fd5b6152cc87828601614a81565b6060830152506080830135828111156152e457600080fd5b6152f087828601614a81565b60808301525060a08301358281111561530857600080fd5b61531487828601614a81565b60a08301525060c08301358281111561532c57600080fd5b61533887828601614a81565b60c08301525060e08301358281111561535057600080fd5b61535c87828601614a81565b60e083015250610100838101359082015261012080840135908201526101408084013590820152610160808401359082015261018080840135838111156153a257600080fd5b6153ae88828701614a81565b8284015250506101a080840135838111156153c857600080fd5b6153d488828701614a81565b91830191909152506101c083810135908201526101e0808401359082015261020080840135908201526102209150614ce0828401614af0565b60006020828403121561541f57600080fd5b61498082614987565b600080600080600060a0868803121561544057600080fd5b505083359560208501359550604085013594606081013594506080013592509050565b6040815260006154766040830185614d44565b82810360208401526154888185614d44565b95945050505050565b600080604083850312156154a457600080fd5b82356001600160401b03808211156154bb57600080fd5b818501915085601f8301126154cf57600080fd5b81356020828211156154e3576154e36149cd565b8160051b92506154f4818401614a51565b828152928401810192818101908985111561550e57600080fd5b948201945b8486101561552c57853582529482019490820190615513565b9997909101359750505050505050565b6000602080830181845280855180835260408601915060408160051b870101925083870160005b8281101561559157603f1988860301845261557f8583516151c0565b94509285019290850190600101615563565b5092979650505050505050565b60008060008060008060c087890312156155b757600080fd5b863595506020870135945060408701359350606087013592506080870135915060a08701356001600160401b038111156155f057600080fd5b6155fc89828a01614a81565b9150509295509295509295565b60006020828403121561561b57600080fd5b81356001600160401b038082111561563257600080fd5b908301906080828603121561564657600080fd5b61564e614a2f565b8235815260208301358281111561566457600080fd5b61567087828601614a81565b60208301525061568260408401614987565b604082015260608301358281111561569957600080fd5b6156a587828601614a81565b60608301525095945050505050565b600080604083850312156156c757600080fd5b6156d083614987565b91506156de60208401614987565b90509250929050565b6000806000606084860312156156fc57600080fd5b833592506020840135915060408401356001600160401b0381111561572057600080fd5b61572c86828701614a81565b9150509250925092565b634e487b7160e01b600052601160045260246000fd5b60006001820161575e5761575e615736565b5060010190565b600181811c9082168061577957607f821691505b60208210810361201957634e487b7160e01b600052602260045260246000fd5b6000828210156157ab576157ab615736565b500390565b600082198211156157c3576157c3615736565b500190565b634e487b7160e01b600052603260045260246000fd5b600082516157f0818460208701614915565b9190910192915050565b600081600019048311821515161561581457615814615736565b500290565b60008261583657634e487b7160e01b600052601260045260246000fd5b500490565b600080835481600182811c91508083168061585757607f831692505b6020808410820361587657634e487b7160e01b86526022600452602486fd5b81801561588a576001811461589b576158c8565b60ff198616895284890196506158c8565b60008a81526020902060005b868110156158c05781548b8201529085019083016158a7565b505084890196505b50949897505050505050505056fea2646970667358221220ac953f1b8996bf3eb3db769fce1a2f7128dbe60bcc38e51fb6be247b8edb1db464736f6c634300080e0033",
  "immutableReferences": {},
  "source": "// SPDX-License-Identifier: MIT\r\npragma solidity ^0.8.0;\r\npragma abicoder v2;\r\n\r\nimport \"./DonationChallengeContract.sol\";\r\n\r\ncontract ChallengeContract is DonationChallengeContract{\r\n    uint[] dailyChallengeIds;\r\n    uint[] donationChallengeIds;\r\n\r\n    //     \r\n    function isDailyChallenge(uint challengeId) private view returns(bool){\r\n        return keccak256(abi.encodePacked(dailyChallengeMap[challengeId].name)) != keccak256(abi.encodePacked(\"\"));\r\n    }\r\n\r\n    function isDonationChallenge(uint challengeId) private view returns(bool){\r\n        return keccak256(abi.encodePacked(donationChallengeMap[challengeId].name)) != keccak256(abi.encodePacked(\"\"));\r\n    }\r\n\r\n    //   \r\n    function getAllChallenge() public returns(uint[] memory,uint[] memory,DailyChallenge[] memory,DonationChallenge[] memory){\r\n        \r\n        for(uint i=1;i<=challengeSequence;i++){\r\n            if(isDailyChallenge(i)){\r\n                dailyChallengeIds.push(i);\r\n                dailyChallenges.push(dailyChallengeMap[i]);\r\n            }\r\n\r\n            else if(isDonationChallenge(i)){\r\n                donationChallengeIds.push(i);\r\n                donationChallenges.push(donationChallengeMap[i]);\r\n            }\r\n        }\r\n        return (dailyChallengeIds,donationChallengeIds,dailyChallenges,donationChallenges);\r\n    }\r\n\r\n    //   \r\n    function joinChallenge(uint challengeId,uint userId,string memory today) public payable{\r\n    \r\n        //  \r\n        Challenger storage challenger=challengerMap[challengerSequence];\r\n        challenger.id=challengerSequence;\r\n        challenger.userId=userId;\r\n        challenger.challengeId=challengeId;\r\n        challenger.userAddress=msg.sender;\r\n        challenger.today=today;\r\n        challenger.userDeposit=msg.value;\r\n\r\n        //    \r\n        findByUserIdChallenger[userId].push(challenger);\r\n        findByChallengeIdChallenger[challengeId].push(challenger);\r\n        challengerSequence++;\r\n\r\n        //        \r\n        if(isDailyChallenge(challengeId)){\r\n            DailyChallenge storage challenge=dailyChallengeMap[challengeId];\r\n            challenge.totalDeposit+=msg.value; \r\n        }\r\n\r\n        else if(isDonationChallenge(challengeId)){\r\n            DonationChallenge storage challenge=donationChallengeMap[challengeId];\r\n            challenge.totalDonation+=msg.value;\r\n        }\r\n    }\r\n\r\n    //   \r\n    function getMyChallenge(uint userId) public view returns(uint[] memory,uint[] memory){\r\n        Challenger[] memory challengers=findByUserIdChallenger[userId];\r\n        //   \r\n        uint[] memory challengesByMe=new uint[](challengers.length);\r\n        \r\n        uint myChallengeIndex = 0;\r\n        //     ownerId userId   \r\n        for(uint challengeId=0;challengeId<challengeSequence;challengeId++){\r\n            if((isDailyChallenge(challengeId) && dailyChallengeMap[challengeId].ownerId==userId) ||\r\n            (isDonationChallenge(challengeId) && donationChallengeMap[challengeId].ownerId==userId)){\r\n                challengesByMe[myChallengeIndex++] = challengeId;\r\n            }\r\n        }\r\n\r\n        //   \r\n        uint[] memory myChallenges=new uint[](challengers.length);\r\n        for(uint index=0;index<challengers.length;index++){\r\n            myChallenges[index]=challengers[index].challengeId;\r\n        }\r\n        return(challengesByMe,myChallenges);\r\n    }\r\n\r\n    //   (,,)\r\n    function findingChallenger(uint challengeId,uint userId)public view returns(uint,uint,uint){       \r\n        uint userIdIndex=0;\r\n        uint challengeIdIndex=0;\r\n        //  \r\n        while(findByChallengeIdChallenger[challengeId].length>challengeIdIndex&&\r\n            findByChallengeIdChallenger[challengeId][challengeIdIndex].userId!=userId) challengeIdIndex++;\r\n        while(findByUserIdChallenger[userId].length>userIdIndex&&\r\n        findByUserIdChallenger[userId][userIdIndex].challengeId!=challengeId) userIdIndex++;\r\n        \r\n        return(findByUserIdChallenger[userId][userIdIndex].id,userIdIndex,challengeIdIndex);\r\n    }\r\n    function checkChallenger(uint challengeId,uint userId)public view returns(bool){       \r\n        for(uint challengeIdIndex=0;challengeIdIndex<findByChallengeIdChallenger[challengeId].length;challengeIdIndex++){\r\n            if(findByChallengeIdChallenger[challengeId][challengeIdIndex].userId==userId) return true;\r\n        }\r\n        return false;\r\n    }\r\n\r\n    //    \r\n    function authenticate(uint challengeId,uint userId, uint challengerId,uint userIdIndex,uint challengeIdIndex, string memory today) public {\r\n        Challenger memory findChallenger=challengerMap[challengerId];\r\n        \r\n        uint authDayTimes;\r\n        if(isDailyChallenge(challengeId)) authDayTimes=dailyChallengeMap[challengeId].authDayTimes;\r\n        else if(isDonationChallenge(challengeId)) authDayTimes=donationChallengeMap[challengeId].authDayTimes;\r\n        \r\n        //    \r\n        if(keccak256(abi.encodePacked(findChallenger.today)) != keccak256(abi.encodePacked(today))){\r\n            findChallenger.dailyCount=0;\r\n            findChallenger.today=today;\r\n        }\r\n        findChallenger.dailyCount+=1;\r\n        findChallenger.totalCount+=1;\r\n        \r\n        //  \r\n        findByUserIdChallenger[userId][userIdIndex]=findChallenger;\r\n        findByChallengeIdChallenger[challengeId][challengeIdIndex]=findChallenger;\r\n        challengerMap[findChallenger.id]=findChallenger;\r\n    }\r\n    \r\n    //      \r\n    function getChallengers(uint challengeId) public view returns(Challenger[] memory){\r\n        return(findByChallengeIdChallenger[challengeId]);\r\n    }\r\n\r\n    //     \r\n    function getChallengersByUserId(uint userId) public view returns(Challenger[] memory){\r\n        return(findByUserIdChallenger[userId]);\r\n    }\r\n}\r\n",
  "sourcePath": "c:\\Users\\multicampus\\Desktop\\ssafy\\S07P22B106\\truffle\\contracts\\ChallengeContract.sol",
  "compiler": {
    "name": "solc",
    "version": "0.8.14+commit.80d49f37.Emscripten.clang"
  },
  "schemaVersion": "3.4.10",
  "updatedAt": "2022-09-30T08:43:58.603Z",
  "networkType": "ethereum",
  "devdoc": {
    "kind": "dev",
    "methods": {},
    "version": 1
  },
  "userdoc": {
    "kind": "user",
    "methods": {},
    "version": 1
  }
}