{
  "contractName": "ChallengerContract",
  "abi": [
    {
      "anonymous": false,
      "inputs": [
        {
          "indexed": true,
          "internalType": "address",
          "name": "owner",
          "type": "address"
        },
        {
          "indexed": true,
          "internalType": "address",
          "name": "spender",
          "type": "address"
        },
        {
          "indexed": false,
          "internalType": "uint256",
          "name": "value",
          "type": "uint256"
        }
      ],
      "name": "Approval",
      "type": "event"
    },
    {
      "anonymous": false,
      "inputs": [
        {
          "indexed": true,
          "internalType": "address",
          "name": "from",
          "type": "address"
        },
        {
          "indexed": true,
          "internalType": "address",
          "name": "to",
          "type": "address"
        },
        {
          "indexed": false,
          "internalType": "uint256",
          "name": "value",
          "type": "uint256"
        }
      ],
      "name": "Transfer",
      "type": "event"
    },
    {
      "inputs": [
        {
          "internalType": "address",
          "name": "owner",
          "type": "address"
        },
        {
          "internalType": "address",
          "name": "delegate",
          "type": "address"
        }
      ],
      "name": "allowance",
      "outputs": [
        {
          "internalType": "uint256",
          "name": "",
          "type": "uint256"
        }
      ],
      "stateMutability": "view",
      "type": "function"
    },
    {
      "inputs": [
        {
          "internalType": "address",
          "name": "delegate",
          "type": "address"
        },
        {
          "internalType": "uint256",
          "name": "numTokens",
          "type": "uint256"
        }
      ],
      "name": "approve",
      "outputs": [
        {
          "internalType": "bool",
          "name": "",
          "type": "bool"
        }
      ],
      "stateMutability": "nonpayable",
      "type": "function"
    },
    {
      "inputs": [
        {
          "internalType": "address",
          "name": "tokenOwner",
          "type": "address"
        }
      ],
      "name": "balanceOf",
      "outputs": [
        {
          "internalType": "uint256",
          "name": "",
          "type": "uint256"
        }
      ],
      "stateMutability": "view",
      "type": "function"
    },
    {
      "inputs": [],
      "name": "decimals",
      "outputs": [
        {
          "internalType": "uint8",
          "name": "",
          "type": "uint8"
        }
      ],
      "stateMutability": "view",
      "type": "function"
    },
    {
      "inputs": [],
      "name": "name",
      "outputs": [
        {
          "internalType": "string",
          "name": "",
          "type": "string"
        }
      ],
      "stateMutability": "view",
      "type": "function"
    },
    {
      "inputs": [],
      "name": "symbol",
      "outputs": [
        {
          "internalType": "string",
          "name": "",
          "type": "string"
        }
      ],
      "stateMutability": "view",
      "type": "function"
    },
    {
      "inputs": [],
      "name": "totalSupply",
      "outputs": [
        {
          "internalType": "uint256",
          "name": "",
          "type": "uint256"
        }
      ],
      "stateMutability": "view",
      "type": "function"
    },
    {
      "inputs": [
        {
          "internalType": "address",
          "name": "receiver",
          "type": "address"
        },
        {
          "internalType": "uint256",
          "name": "numTokens",
          "type": "uint256"
        }
      ],
      "name": "transfer",
      "outputs": [
        {
          "internalType": "bool",
          "name": "",
          "type": "bool"
        }
      ],
      "stateMutability": "nonpayable",
      "type": "function"
    },
    {
      "inputs": [
        {
          "internalType": "address",
          "name": "owner",
          "type": "address"
        },
        {
          "internalType": "address",
          "name": "buyer",
          "type": "address"
        },
        {
          "internalType": "uint256",
          "name": "numTokens",
          "type": "uint256"
        }
      ],
      "name": "transferFrom",
      "outputs": [
        {
          "internalType": "bool",
          "name": "",
          "type": "bool"
        }
      ],
      "stateMutability": "nonpayable",
      "type": "function"
    },
    {
      "inputs": [
        {
          "internalType": "address",
          "name": "user",
          "type": "address"
        },
        {
          "internalType": "uint256",
          "name": "numTokens",
          "type": "uint256"
        }
      ],
      "name": "useCoin",
      "outputs": [],
      "stateMutability": "nonpayable",
      "type": "function"
    },
    {
      "inputs": [
        {
          "internalType": "uint256",
          "name": "challengerId",
          "type": "uint256"
        }
      ],
      "name": "findByChallengerId",
      "outputs": [
        {
          "components": [
            {
              "internalType": "uint256",
              "name": "id",
              "type": "uint256"
            },
            {
              "internalType": "uint256",
              "name": "userId",
              "type": "uint256"
            },
            {
              "internalType": "uint256",
              "name": "challengeId",
              "type": "uint256"
            },
            {
              "internalType": "address",
              "name": "userAddress",
              "type": "address"
            },
            {
              "internalType": "uint256",
              "name": "today",
              "type": "uint256"
            },
            {
              "internalType": "uint256",
              "name": "totalCount",
              "type": "uint256"
            },
            {
              "internalType": "uint256",
              "name": "weekCount",
              "type": "uint256"
            },
            {
              "internalType": "uint256",
              "name": "dailyCount",
              "type": "uint256"
            },
            {
              "internalType": "uint256",
              "name": "userDeposit",
              "type": "uint256"
            },
            {
              "internalType": "uint256",
              "name": "reward",
              "type": "uint256"
            },
            {
              "internalType": "bool",
              "name": "receiveRefund",
              "type": "bool"
            }
          ],
          "internalType": "struct ChallengerContract.Challenger",
          "name": "",
          "type": "tuple"
        }
      ],
      "stateMutability": "view",
      "type": "function"
    },
    {
      "inputs": [
        {
          "internalType": "uint256",
          "name": "challengeId",
          "type": "uint256"
        },
        {
          "internalType": "uint256",
          "name": "userId",
          "type": "uint256"
        },
        {
          "internalType": "uint256",
          "name": "challengerId",
          "type": "uint256"
        },
        {
          "internalType": "uint256",
          "name": "userIdIndex",
          "type": "uint256"
        },
        {
          "internalType": "uint256",
          "name": "challengeIdIndex",
          "type": "uint256"
        }
      ],
      "name": "refund",
      "outputs": [],
      "stateMutability": "payable",
      "type": "function"
    },
    {
      "inputs": [
        {
          "internalType": "uint256",
          "name": "challengeId",
          "type": "uint256"
        },
        {
          "internalType": "uint256",
          "name": "userId",
          "type": "uint256"
        },
        {
          "internalType": "uint256",
          "name": "challengerId",
          "type": "uint256"
        },
        {
          "internalType": "uint256",
          "name": "userIdIndex",
          "type": "uint256"
        },
        {
          "internalType": "uint256",
          "name": "challengeIdIndex",
          "type": "uint256"
        }
      ],
      "name": "usePasscoin",
      "outputs": [],
      "stateMutability": "nonpayable",
      "type": "function"
    },
    {
      "inputs": [
        {
          "internalType": "uint256",
          "name": "challengeId",
          "type": "uint256"
        },
        {
          "internalType": "uint256",
          "name": "userId",
          "type": "uint256"
        },
        {
          "internalType": "uint256",
          "name": "challengerId",
          "type": "uint256"
        },
        {
          "internalType": "uint256",
          "name": "userIdIndex",
          "type": "uint256"
        },
        {
          "internalType": "uint256",
          "name": "challengeIdIndex",
          "type": "uint256"
        }
      ],
      "name": "applyVoteResult",
      "outputs": [],
      "stateMutability": "nonpayable",
      "type": "function"
    },
    {
      "inputs": [
        {
          "internalType": "uint256[]",
          "name": "userIdList",
          "type": "uint256[]"
        },
        {
          "internalType": "uint256",
          "name": "challengeId",
          "type": "uint256"
        }
      ],
      "name": "receivePasscoin",
      "outputs": [],
      "stateMutability": "nonpayable",
      "type": "function"
    }
  ],
  "bytecode": "0x60806040526305f5e100600255600160035534801561001d57600080fd5b506002543360009081526020819052604090205561162a806100406000396000f3fe6080604052600436106100e85760003560e01c80635b77573b1161008a57806395d89b411161005957806395d89b41146102a5578063a9059cbb146102d5578063dd62ed3e146102f5578063f5a802451461033b57600080fd5b80635b77573b1461020257806370a082311461022f578063740c162a1461026557806385d0dd601461028557600080fd5b806318160ddd116100c657806318160ddd1461017c57806323b872dd1461019b578063313ce567146101bb5780633f711851146101e257600080fd5b80630303f2e0146100ed57806306fdde0314610102578063095ea7b31461014c575b600080fd5b6101006100fb36600461128e565b61035b565b005b34801561010e57600080fd5b50610136604051806040016040528060088152602001672830b9b9a1b7b4b760c11b81525081565b60405161014391906112c9565b60405180910390f35b34801561015857600080fd5b5061016c61016736600461133a565b6106ae565b6040519015158152602001610143565b34801561018857600080fd5b506002545b604051908152602001610143565b3480156101a757600080fd5b5061016c6101b6366004611364565b61071a565b3480156101c757600080fd5b506101d0600081565b60405160ff9091168152602001610143565b3480156101ee57600080fd5b506101006101fd36600461133a565b610865565b34801561020e57600080fd5b5061022261021d3660046113a0565b6108e9565b60405161014391906113b9565b34801561023b57600080fd5b5061018d61024a366004611451565b6001600160a01b031660009081526020819052604090205490565b34801561027157600080fd5b5061010061028036600461128e565b6109ed565b34801561029157600080fd5b506101006102a0366004611489565b610d0f565b3480156102b157600080fd5b50610136604051806040016040528060048152602001635041535360e01b81525081565b3480156102e157600080fd5b5061016c6102f036600461133a565b610ea5565b34801561030157600080fd5b5061018d61031036600461154d565b6001600160a01b03918216600090815260016020908152604080832093909416825291909152205490565b34801561034757600080fd5b5061010061035636600461128e565b610f57565b6000838152600460208181526040808420815161016081018352815481526001808301548286015260028301548285015260038301546001600160a01b0316606083015294820154608082015260058083015460a0830152600683015460c0830152600783015460e0830152600883015461010083015260099092015461012082015261014081019490945288855290915290912080548291908590811061040557610405611580565b600091825260208083208451600b9390930201918255838101516001830155604080850151600284015560608501516003840180546001600160a01b0319166001600160a01b039092169190911790556080850151600484015560a0850151600584015560c085015160068085019190915560e086015160078501556101008601516008850155610120860151600985015561014090950151600a909301805460ff19169315159390931790925589835292909252208054829190849081106104d0576104d0611580565b90600052602060002090600b020160008201518160000155602082015181600101556040820151816002015560608201518160030160006101000a8154816001600160a01b0302191690836001600160a01b031602179055506080820151816004015560a0820151816005015560c0820151816006015560e082015181600701556101008201518160080155610120820151816009015561014082015181600a0160006101000a81548160ff02191690831515021790555090505080600460008360000151815260200190815260200160002060008201518160000155602082015181600101556040820151816002015560608201518160030160006101000a8154816001600160a01b0302191690836001600160a01b031602179055506080820151816004015560a0820151816005015560c0820151816006015560e082015181600701556101008201518160080155610120820151816009015561014082015181600a0160006101000a81548160ff021916908315150217905550905050600081606001519050806001600160a01b03166108fc83610120015184610100015161067c91906115ac565b6040518115909202916000818181858888f193505050501580156106a4573d6000803e3d6000fd5b5050505050505050565b3360008181526001602090815260408083206001600160a01b038716808552925280832085905551919290917f8c5be1e5ebec7d5bd14f71427d1e84f3dd0314c0f7b2291e5b200ac8c7c3b925906107099086815260200190565b60405180910390a350600192915050565b6001600160a01b03831660009081526020819052604081205482111561073f57600080fd5b6001600160a01b038416600090815260016020908152604080832033845290915290205482111561076f57600080fd5b6001600160a01b0384166000908152602081905260409020546107939083906115c4565b6001600160a01b0385166000908152602081815260408083209390935560018152828220338352905220546107c99083906115c4565b6001600160a01b03808616600090815260016020908152604080832033845282528083209490945591861681529081905220546108079083906115ac565b6001600160a01b038481166000818152602081815260409182902094909455518581529092918716917fddf252ad1be2c89b69c2b068fc378daa952ba7f163c4a11628f55a4df523b3ef910160405180910390a35060019392505050565b3360009081526020819052604090205481111561088157600080fd5b3360009081526020819052604090205461089c9082906115ac565b33600090815260208190526040808220929092556001600160a01b038416815220546108c99082906115c4565b6001600160a01b0390921660009081526020819052604090209190915550565b61095160405180610160016040528060008152602001600081526020016000815260200160006001600160a01b031681526020016000815260200160008152602001600081526020016000815260200160008152602001600081526020016000151581525090565b506000908152600460208181526040928390208351610160810185528154815260018201549281019290925260028101549382019390935260038301546001600160a01b03166060820152908201546080820152600582015460a0820152600682015460c0820152600782015460e082015260088201546101008201526009820154610120820152600a9091015460ff16151561014082015290565b600083815260046020818152604092839020835161016081018552815481526001808301549382019390935260028201549481019490945260038101546001600160a01b03166060850152918201546080840152600582015460a08401818152600684015460c0860152600784015460e086015260088401546101008601526009840154610120860152600a9093015460ff161515610140850152909190610a969083906115c4565b9052506000858152600560205260409020805482919085908110610abc57610abc611580565b600091825260208083208451600b9390930201918255838101516001830155604080850151600284015560608501516003840180546001600160a01b0319166001600160a01b039092169190911790556080850151600484015560a0850151600584015560c085015160068085019190915560e086015160078501556101008601516008850155610120860151600985015561014090950151600a909301805460ff1916931515939093179092558983529290925220805482919084908110610b8757610b87611580565b90600052602060002090600b020160008201518160000155602082015181600101556040820151816002015560608201518160030160006101000a8154816001600160a01b0302191690836001600160a01b031602179055506080820151816004015560a0820151816005015560c0820151816006015560e082015181600701556101008201518160080155610120820151816009015561014082015181600a0160006101000a81548160ff02191690831515021790555090505080600460008360000151815260200190815260200160002060008201518160000155602082015181600101556040820151816002015560608201518160030160006101000a8154816001600160a01b0302191690836001600160a01b031602179055506080820151816004015560a0820151816005015560c0820151816006015560e082015181600701556101008201518160080155610120820151816009015561014082015181600a0160006101000a81548160ff021916908315150217905550905050505050505050565b60005b8251811015610ea057600060056000858481518110610d3357610d33611580565b60200260200101518152602001908152602001600020805480602002602001604051908101604052809291908181526020016000905b82821015610e155760008481526020908190206040805161016081018252600b8602909201805483526001808201548486015260028201549284019290925260038101546001600160a01b0316606084015260048101546080840152600581015460a0840152600681015460c0840152600781015460e084015260088101546101008401526009810154610120840152600a015460ff1615156101408301529083529092019101610d69565b50505050905060005b8151811015610e8b5783828281518110610e3a57610e3a611580565b60200260200101516040015103610e7957610e73828281518110610e6057610e60611580565b6020026020010151606001516001610ea5565b50610e8b565b80610e83816115db565b915050610e1e565b50508080610e98906115db565b915050610d12565b505050565b33600090815260208190526040812054821115610ec157600080fd5b33600090815260208190526040902054610edc9083906115c4565b33600090815260208190526040808220929092556001600160a01b03851681522054610f099083906115ac565b6001600160a01b038416600081815260208181526040918290209390935551848152909133917fddf252ad1be2c89b69c2b068fc378daa952ba7f163c4a11628f55a4df523b3ef9101610709565b600083815260046020818152604092839020835161016081018552815481526001808301549382019390935260028201549481019490945260038101546001600160a01b03166060850152918201546080840152600582015460a08401818152600684015460c0860152600784015460e086015260088401546101008601526009840154610120860152600a9093015460ff1615156101408501529091906110009083906115ac565b905250600085815260056020526040902080548291908590811061102657611026611580565b600091825260208083208451600b9390930201918255838101516001830155604080850151600284015560608501516003840180546001600160a01b0319166001600160a01b039092169190911790556080850151600484015560a0850151600584015560c085015160068085019190915560e086015160078501556101008601516008850155610120860151600985015561014090950151600a909301805460ff19169315159390931790925589835292909252208054829190849081106110f1576110f1611580565b90600052602060002090600b020160008201518160000155602082015181600101556040820151816002015560608201518160030160006101000a8154816001600160a01b0302191690836001600160a01b031602179055506080820151816004015560a0820151816005015560c0820151816006015560e082015181600701556101008201518160080155610120820151816009015561014082015181600a0160006101000a81548160ff02191690831515021790555090505080600460008360000151815260200190815260200160002060008201518160000155602082015181600101556040820151816002015560608201518160030160006101000a8154816001600160a01b0302191690836001600160a01b031602179055506080820151816004015560a0820151816005015560c0820151816006015560e082015181600701556101008201518160080155610120820151816009015561014082015181600a0160006101000a81548160ff021916908315150217905550905050600081606001519050611285816001610865565b50505050505050565b600080600080600060a086880312156112a657600080fd5b505083359560208501359550604085013594606081013594506080013592509050565b600060208083528351808285015260005b818110156112f6578581018301518582016040015282016112da565b81811115611308576000604083870101525b50601f01601f1916929092016040019392505050565b80356001600160a01b038116811461133557600080fd5b919050565b6000806040838503121561134d57600080fd5b6113568361131e565b946020939093013593505050565b60008060006060848603121561137957600080fd5b6113828461131e565b92506113906020850161131e565b9150604084013590509250925092565b6000602082840312156113b257600080fd5b5035919050565b60006101608201905082518252602083015160208301526040830151604083015260608301516113f460608401826001600160a01b03169052565b506080830151608083015260a083015160a083015260c083015160c083015260e083015160e0830152610100808401518184015250610120808401518184015250610140808401516114498285018215159052565b505092915050565b60006020828403121561146357600080fd5b61146c8261131e565b9392505050565b634e487b7160e01b600052604160045260246000fd5b6000806040838503121561149c57600080fd5b823567ffffffffffffffff808211156114b457600080fd5b818501915085601f8301126114c857600080fd5b81356020828211156114dc576114dc611473565b8160051b604051601f19603f8301168101818110868211171561150157611501611473565b60405292835281830193508481018201928984111561151f57600080fd5b948201945b8386101561153d57853585529482019493820193611524565b9997909101359750505050505050565b6000806040838503121561156057600080fd5b6115698361131e565b91506115776020840161131e565b90509250929050565b634e487b7160e01b600052603260045260246000fd5b634e487b7160e01b600052601160045260246000fd5b600082198211156115bf576115bf611596565b500190565b6000828210156115d6576115d6611596565b500390565b6000600182016115ed576115ed611596565b506001019056fea26469706673582212208775add77ba1f1a2240172864b5890d79d93f5e9b2a1a5bcdbbf6af336deee3c64736f6c634300080e0033",
  "immutableReferences": {},
  "source": "// SPDX-License-Identifier: MIT\r\npragma solidity ^0.8.0;\r\npragma abicoder v2;\r\n\r\nimport \"./PassCoinContract.sol\";\r\n\r\ncontract ChallengerContract is PassCoinContract{\r\n    struct Challenger {\r\n        // pk\r\n        uint id;\r\n        // , fk\r\n        uint userId;\r\n        uint challengeId;\r\n\r\n        //  \r\n        address userAddress;\r\n\r\n        //       \r\n        uint today;\r\n\r\n        //  ,  \r\n        uint totalCount;\r\n        uint weekCount;\r\n        uint dailyCount;\r\n\r\n        //  \r\n        uint userDeposit;\r\n\r\n        // \r\n        uint reward;\r\n\r\n        // \r\n        bool receiveRefund;\r\n\r\n    }\r\n\r\n    uint challengerSequence=1;\r\n    mapping(uint => Challenger) challengerMap;\r\n\r\n    //  \r\n    mapping(uint => Challenger[]) findByUserIdChallenger;\r\n    mapping(uint => Challenger[]) findByChallengeIdChallenger;\r\n\r\n    function findByChallengerId(uint challengerId) public view returns(Challenger memory){\r\n        return challengerMap[challengerId];\r\n    }\r\n    \r\n    // \r\n    function refund(uint challengeId,uint userId,uint challengerId,uint userIdIndex,uint challengeIdIndex) public payable{\r\n        Challenger memory challenger=challengerMap[challengerId];\r\n        challenger.receiveRefund=true;\r\n\r\n        //  \r\n        findByUserIdChallenger[userId][userIdIndex]=challenger;\r\n        findByChallengeIdChallenger[challengeId][challengeIdIndex]=challenger;\r\n        challengerMap[challenger.id]=challenger;\r\n\r\n        //  \r\n        address userAddress=challenger.userAddress;\r\n        payable(userAddress).transfer(challenger.userDeposit+challenger.reward);\r\n    }\r\n\r\n    //   \r\n    function usePasscoin(uint challengeId,uint userId,uint challengerId,uint userIdIndex,uint challengeIdIndex) public{\r\n        Challenger memory findChallenger=challengerMap[challengerId];\r\n\r\n        findChallenger.totalCount+=1;\r\n\r\n        //  \r\n        findByUserIdChallenger[userId][userIdIndex]=findChallenger;\r\n        findByChallengeIdChallenger[challengeId][challengeIdIndex]=findChallenger;\r\n        challengerMap[findChallenger.id]=findChallenger;\r\n\r\n        address userAddress=findChallenger.userAddress;\r\n        useCoin(userAddress,1);\r\n    }\r\n    \r\n\r\n    // \r\n    function applyVoteResult(uint challengeId,uint userId,uint challengerId,uint userIdIndex,uint challengeIdIndex) public{\r\n \r\n        Challenger memory findChallenger=challengerMap[challengerId];\r\n\r\n        findChallenger.totalCount-=1;\r\n\r\n        //  \r\n        findByUserIdChallenger[userId][userIdIndex]=findChallenger;\r\n        findByChallengeIdChallenger[challengeId][challengeIdIndex]=findChallenger;\r\n        challengerMap[findChallenger.id]=findChallenger;\r\n    }\r\n    //  \r\n    function receivePasscoin(uint[] memory userIdList,uint challengeId) public{\r\n        /*    */\r\n        for (uint256 i = 0; i < userIdList.length; i++) {\r\n            Challenger[] memory challengers = findByUserIdChallenger[userIdList[i]];            \r\n            for(uint j=0;j<challengers.length;j++){\r\n                if(challengers[j].challengeId==challengeId){\r\n                    transfer(challengers[j].userAddress, 1);\r\n                    break;\r\n                }\r\n            }\r\n        }\r\n    }\r\n}\r\n",
  "sourcePath": "c:\\Users\\multicampus\\Desktop\\Git\\S07P22B106\\truffle\\contracts\\ChallengerContract.sol",
  "compiler": {
    "name": "solc",
    "version": "0.8.14+commit.80d49f37.Emscripten.clang"
  },
  "schemaVersion": "3.4.9",
  "updatedAt": "2022-10-03T07:02:13.301Z",
  "devdoc": {
    "kind": "dev",
    "methods": {},
    "version": 1
  },
  "userdoc": {
    "kind": "user",
    "methods": {},
    "version": 1
  }
}