{
  "contractName": "ChallengeContract",
  "abi": [
    {
      "anonymous": false,
      "inputs": [
        {
          "indexed": true,
          "internalType": "address",
          "name": "owner",
          "type": "address"
        },
        {
          "indexed": true,
          "internalType": "address",
          "name": "spender",
          "type": "address"
        },
        {
          "indexed": false,
          "internalType": "uint256",
          "name": "value",
          "type": "uint256"
        }
      ],
      "name": "Approval",
      "type": "event"
    },
    {
      "anonymous": false,
      "inputs": [
        {
          "indexed": true,
          "internalType": "address",
          "name": "from",
          "type": "address"
        },
        {
          "indexed": true,
          "internalType": "address",
          "name": "to",
          "type": "address"
        },
        {
          "indexed": false,
          "internalType": "uint256",
          "name": "value",
          "type": "uint256"
        }
      ],
      "name": "Transfer",
      "type": "event"
    },
    {
      "anonymous": false,
      "inputs": [
        {
          "indexed": false,
          "internalType": "uint256",
          "name": "challengeId",
          "type": "uint256"
        }
      ],
      "name": "returnChallengeId",
      "type": "event"
    },
    {
      "inputs": [
        {
          "components": [
            {
              "internalType": "uint256",
              "name": "id",
              "type": "uint256"
            },
            {
              "internalType": "string",
              "name": "name",
              "type": "string"
            },
            {
              "internalType": "address",
              "name": "donationAddress",
              "type": "address"
            },
            {
              "internalType": "string",
              "name": "donationURL",
              "type": "string"
            }
          ],
          "internalType": "struct DonationContract.Donation",
          "name": "donation",
          "type": "tuple"
        }
      ],
      "name": "addDonation",
      "outputs": [],
      "stateMutability": "nonpayable",
      "type": "function"
    },
    {
      "inputs": [
        {
          "internalType": "address",
          "name": "owner",
          "type": "address"
        },
        {
          "internalType": "address",
          "name": "delegate",
          "type": "address"
        }
      ],
      "name": "allowance",
      "outputs": [
        {
          "internalType": "uint256",
          "name": "",
          "type": "uint256"
        }
      ],
      "stateMutability": "view",
      "type": "function",
      "constant": true
    },
    {
      "inputs": [
        {
          "internalType": "uint256",
          "name": "challengeId",
          "type": "uint256"
        },
        {
          "internalType": "uint256",
          "name": "userId",
          "type": "uint256"
        },
        {
          "internalType": "uint256",
          "name": "challengerId",
          "type": "uint256"
        },
        {
          "internalType": "uint256",
          "name": "userIdIndex",
          "type": "uint256"
        },
        {
          "internalType": "uint256",
          "name": "challengeIdIndex",
          "type": "uint256"
        }
      ],
      "name": "applyVoteResult",
      "outputs": [],
      "stateMutability": "nonpayable",
      "type": "function"
    },
    {
      "inputs": [
        {
          "internalType": "address",
          "name": "delegate",
          "type": "address"
        },
        {
          "internalType": "uint256",
          "name": "numTokens",
          "type": "uint256"
        }
      ],
      "name": "approve",
      "outputs": [
        {
          "internalType": "bool",
          "name": "",
          "type": "bool"
        }
      ],
      "stateMutability": "nonpayable",
      "type": "function"
    },
    {
      "inputs": [
        {
          "internalType": "address",
          "name": "tokenOwner",
          "type": "address"
        }
      ],
      "name": "balanceOf",
      "outputs": [
        {
          "internalType": "uint256",
          "name": "",
          "type": "uint256"
        }
      ],
      "stateMutability": "view",
      "type": "function",
      "constant": true
    },
    {
      "inputs": [
        {
          "components": [
            {
              "internalType": "uint256",
              "name": "challengeId",
              "type": "uint256"
            },
            {
              "internalType": "uint256",
              "name": "interestId",
              "type": "uint256"
            },
            {
              "internalType": "uint256",
              "name": "ownerId",
              "type": "uint256"
            },
            {
              "internalType": "string",
              "name": "name",
              "type": "string"
            },
            {
              "internalType": "string",
              "name": "desc",
              "type": "string"
            },
            {
              "internalType": "string",
              "name": "mainPicURL",
              "type": "string"
            },
            {
              "internalType": "string",
              "name": "goodPicURL",
              "type": "string"
            },
            {
              "internalType": "string",
              "name": "badPicURL",
              "type": "string"
            },
            {
              "internalType": "uint256",
              "name": "authTotalTimes",
              "type": "uint256"
            },
            {
              "internalType": "uint256",
              "name": "authWeekTimes",
              "type": "uint256"
            },
            {
              "internalType": "uint256",
              "name": "authDayTimes",
              "type": "uint256"
            },
            {
              "internalType": "int256",
              "name": "startTime",
              "type": "int256"
            },
            {
              "internalType": "int256",
              "name": "endTime",
              "type": "int256"
            },
            {
              "internalType": "string",
              "name": "startDate",
              "type": "string"
            },
            {
              "internalType": "string",
              "name": "endDate",
              "type": "string"
            },
            {
              "internalType": "uint256",
              "name": "personnel",
              "type": "uint256"
            },
            {
              "internalType": "uint256",
              "name": "deposit",
              "type": "uint256"
            },
            {
              "internalType": "uint256",
              "name": "totalDeposit",
              "type": "uint256"
            },
            {
              "internalType": "bool",
              "name": "complete",
              "type": "bool"
            }
          ],
          "internalType": "struct DailyChallengeContract.DailyChallenge",
          "name": "dailyChallenge",
          "type": "tuple"
        }
      ],
      "name": "createDailyChallenge",
      "outputs": [],
      "stateMutability": "payable",
      "type": "function",
      "payable": true
    },
    {
      "inputs": [
        {
          "components": [
            {
              "internalType": "uint256",
              "name": "challengeId",
              "type": "uint256"
            },
            {
              "internalType": "uint256",
              "name": "interestId",
              "type": "uint256"
            },
            {
              "internalType": "uint256",
              "name": "ownerId",
              "type": "uint256"
            },
            {
              "internalType": "uint256",
              "name": "donationId",
              "type": "uint256"
            },
            {
              "internalType": "string",
              "name": "name",
              "type": "string"
            },
            {
              "internalType": "string",
              "name": "desc",
              "type": "string"
            },
            {
              "internalType": "uint256",
              "name": "setDonation",
              "type": "uint256"
            },
            {
              "internalType": "string",
              "name": "mainPicURL",
              "type": "string"
            },
            {
              "internalType": "string",
              "name": "goodPicURL",
              "type": "string"
            },
            {
              "internalType": "string",
              "name": "badPicURL",
              "type": "string"
            },
            {
              "internalType": "uint256",
              "name": "authTotalTimes",
              "type": "uint256"
            },
            {
              "internalType": "uint256",
              "name": "authWeekTimes",
              "type": "uint256"
            },
            {
              "internalType": "uint256",
              "name": "authDayTimes",
              "type": "uint256"
            },
            {
              "internalType": "uint256",
              "name": "startTime",
              "type": "uint256"
            },
            {
              "internalType": "uint256",
              "name": "endTime",
              "type": "uint256"
            },
            {
              "internalType": "string",
              "name": "startDate",
              "type": "string"
            },
            {
              "internalType": "string",
              "name": "endDate",
              "type": "string"
            },
            {
              "internalType": "uint256",
              "name": "personnel",
              "type": "uint256"
            },
            {
              "internalType": "uint256",
              "name": "totalDonation",
              "type": "uint256"
            },
            {
              "internalType": "bool",
              "name": "complete",
              "type": "bool"
            },
            {
              "internalType": "bool",
              "name": "success",
              "type": "bool"
            }
          ],
          "internalType": "struct DonationChallengeContract.DonationChallenge",
          "name": "donationChallenge",
          "type": "tuple"
        }
      ],
      "name": "createDonationChallenge",
      "outputs": [],
      "stateMutability": "payable",
      "type": "function",
      "payable": true
    },
    {
      "inputs": [],
      "name": "decimals",
      "outputs": [
        {
          "internalType": "uint8",
          "name": "",
          "type": "uint8"
        }
      ],
      "stateMutability": "view",
      "type": "function",
      "constant": true
    },
    {
      "inputs": [
        {
          "internalType": "uint256",
          "name": "challengeId",
          "type": "uint256"
        }
      ],
      "name": "endDailyChallenge",
      "outputs": [],
      "stateMutability": "nonpayable",
      "type": "function"
    },
    {
      "inputs": [
        {
          "internalType": "uint256",
          "name": "challengeId",
          "type": "uint256"
        }
      ],
      "name": "endDonationChallenge",
      "outputs": [],
      "stateMutability": "payable",
      "type": "function",
      "payable": true
    },
    {
      "inputs": [
        {
          "internalType": "uint256",
          "name": "challengerId",
          "type": "uint256"
        }
      ],
      "name": "findByChallengerId",
      "outputs": [
        {
          "components": [
            {
              "internalType": "uint256",
              "name": "id",
              "type": "uint256"
            },
            {
              "internalType": "uint256",
              "name": "userId",
              "type": "uint256"
            },
            {
              "internalType": "uint256",
              "name": "challengeId",
              "type": "uint256"
            },
            {
              "internalType": "address",
              "name": "userAddress",
              "type": "address"
            },
            {
              "internalType": "uint256",
              "name": "today",
              "type": "uint256"
            },
            {
              "internalType": "uint256",
              "name": "totalCount",
              "type": "uint256"
            },
            {
              "internalType": "uint256",
              "name": "weekCount",
              "type": "uint256"
            },
            {
              "internalType": "uint256",
              "name": "dailyCount",
              "type": "uint256"
            },
            {
              "internalType": "uint256",
              "name": "userDeposit",
              "type": "uint256"
            },
            {
              "internalType": "uint256",
              "name": "reward",
              "type": "uint256"
            },
            {
              "internalType": "bool",
              "name": "receiveRefund",
              "type": "bool"
            }
          ],
          "internalType": "struct ChallengerContract.Challenger",
          "name": "",
          "type": "tuple"
        }
      ],
      "stateMutability": "view",
      "type": "function",
      "constant": true
    },
    {
      "inputs": [],
      "name": "getAllDonation",
      "outputs": [
        {
          "components": [
            {
              "internalType": "uint256",
              "name": "id",
              "type": "uint256"
            },
            {
              "internalType": "string",
              "name": "name",
              "type": "string"
            },
            {
              "internalType": "address",
              "name": "donationAddress",
              "type": "address"
            },
            {
              "internalType": "string",
              "name": "donationURL",
              "type": "string"
            }
          ],
          "internalType": "struct DonationContract.Donation[]",
          "name": "",
          "type": "tuple[]"
        }
      ],
      "stateMutability": "view",
      "type": "function",
      "constant": true
    },
    {
      "inputs": [],
      "name": "name",
      "outputs": [
        {
          "internalType": "string",
          "name": "",
          "type": "string"
        }
      ],
      "stateMutability": "view",
      "type": "function",
      "constant": true
    },
    {
      "inputs": [
        {
          "internalType": "uint256[]",
          "name": "userIdList",
          "type": "uint256[]"
        },
        {
          "internalType": "uint256",
          "name": "challengeId",
          "type": "uint256"
        }
      ],
      "name": "receivePasscoin",
      "outputs": [],
      "stateMutability": "nonpayable",
      "type": "function"
    },
    {
      "inputs": [
        {
          "internalType": "uint256",
          "name": "challengeId",
          "type": "uint256"
        },
        {
          "internalType": "uint256",
          "name": "userId",
          "type": "uint256"
        },
        {
          "internalType": "uint256",
          "name": "challengerId",
          "type": "uint256"
        },
        {
          "internalType": "uint256",
          "name": "userIdIndex",
          "type": "uint256"
        },
        {
          "internalType": "uint256",
          "name": "challengeIdIndex",
          "type": "uint256"
        }
      ],
      "name": "refund",
      "outputs": [],
      "stateMutability": "payable",
      "type": "function",
      "payable": true
    },
    {
      "inputs": [],
      "name": "symbol",
      "outputs": [
        {
          "internalType": "string",
          "name": "",
          "type": "string"
        }
      ],
      "stateMutability": "view",
      "type": "function",
      "constant": true
    },
    {
      "inputs": [],
      "name": "totalSupply",
      "outputs": [
        {
          "internalType": "uint256",
          "name": "",
          "type": "uint256"
        }
      ],
      "stateMutability": "view",
      "type": "function",
      "constant": true
    },
    {
      "inputs": [
        {
          "internalType": "address",
          "name": "receiver",
          "type": "address"
        },
        {
          "internalType": "uint256",
          "name": "numTokens",
          "type": "uint256"
        }
      ],
      "name": "transfer",
      "outputs": [
        {
          "internalType": "bool",
          "name": "",
          "type": "bool"
        }
      ],
      "stateMutability": "nonpayable",
      "type": "function"
    },
    {
      "inputs": [
        {
          "internalType": "address",
          "name": "owner",
          "type": "address"
        },
        {
          "internalType": "address",
          "name": "buyer",
          "type": "address"
        },
        {
          "internalType": "uint256",
          "name": "numTokens",
          "type": "uint256"
        }
      ],
      "name": "transferFrom",
      "outputs": [
        {
          "internalType": "bool",
          "name": "",
          "type": "bool"
        }
      ],
      "stateMutability": "nonpayable",
      "type": "function"
    },
    {
      "inputs": [
        {
          "internalType": "address",
          "name": "user",
          "type": "address"
        },
        {
          "internalType": "uint256",
          "name": "numTokens",
          "type": "uint256"
        }
      ],
      "name": "useCoin",
      "outputs": [],
      "stateMutability": "nonpayable",
      "type": "function"
    },
    {
      "inputs": [
        {
          "internalType": "uint256",
          "name": "challengeId",
          "type": "uint256"
        },
        {
          "internalType": "uint256",
          "name": "userId",
          "type": "uint256"
        },
        {
          "internalType": "uint256",
          "name": "challengerId",
          "type": "uint256"
        },
        {
          "internalType": "uint256",
          "name": "userIdIndex",
          "type": "uint256"
        },
        {
          "internalType": "uint256",
          "name": "challengeIdIndex",
          "type": "uint256"
        }
      ],
      "name": "usePasscoin",
      "outputs": [],
      "stateMutability": "nonpayable",
      "type": "function"
    },
    {
      "inputs": [],
      "name": "getAllChallenge",
      "outputs": [
        {
          "internalType": "uint256[]",
          "name": "",
          "type": "uint256[]"
        },
        {
          "internalType": "uint256[]",
          "name": "",
          "type": "uint256[]"
        },
        {
          "components": [
            {
              "internalType": "uint256",
              "name": "challengeId",
              "type": "uint256"
            },
            {
              "internalType": "uint256",
              "name": "interestId",
              "type": "uint256"
            },
            {
              "internalType": "uint256",
              "name": "ownerId",
              "type": "uint256"
            },
            {
              "internalType": "string",
              "name": "name",
              "type": "string"
            },
            {
              "internalType": "string",
              "name": "desc",
              "type": "string"
            },
            {
              "internalType": "string",
              "name": "mainPicURL",
              "type": "string"
            },
            {
              "internalType": "string",
              "name": "goodPicURL",
              "type": "string"
            },
            {
              "internalType": "string",
              "name": "badPicURL",
              "type": "string"
            },
            {
              "internalType": "uint256",
              "name": "authTotalTimes",
              "type": "uint256"
            },
            {
              "internalType": "uint256",
              "name": "authWeekTimes",
              "type": "uint256"
            },
            {
              "internalType": "uint256",
              "name": "authDayTimes",
              "type": "uint256"
            },
            {
              "internalType": "int256",
              "name": "startTime",
              "type": "int256"
            },
            {
              "internalType": "int256",
              "name": "endTime",
              "type": "int256"
            },
            {
              "internalType": "string",
              "name": "startDate",
              "type": "string"
            },
            {
              "internalType": "string",
              "name": "endDate",
              "type": "string"
            },
            {
              "internalType": "uint256",
              "name": "personnel",
              "type": "uint256"
            },
            {
              "internalType": "uint256",
              "name": "deposit",
              "type": "uint256"
            },
            {
              "internalType": "uint256",
              "name": "totalDeposit",
              "type": "uint256"
            },
            {
              "internalType": "bool",
              "name": "complete",
              "type": "bool"
            }
          ],
          "internalType": "struct DailyChallengeContract.DailyChallenge[]",
          "name": "",
          "type": "tuple[]"
        },
        {
          "components": [
            {
              "internalType": "uint256",
              "name": "challengeId",
              "type": "uint256"
            },
            {
              "internalType": "uint256",
              "name": "interestId",
              "type": "uint256"
            },
            {
              "internalType": "uint256",
              "name": "ownerId",
              "type": "uint256"
            },
            {
              "internalType": "uint256",
              "name": "donationId",
              "type": "uint256"
            },
            {
              "internalType": "string",
              "name": "name",
              "type": "string"
            },
            {
              "internalType": "string",
              "name": "desc",
              "type": "string"
            },
            {
              "internalType": "uint256",
              "name": "setDonation",
              "type": "uint256"
            },
            {
              "internalType": "string",
              "name": "mainPicURL",
              "type": "string"
            },
            {
              "internalType": "string",
              "name": "goodPicURL",
              "type": "string"
            },
            {
              "internalType": "string",
              "name": "badPicURL",
              "type": "string"
            },
            {
              "internalType": "uint256",
              "name": "authTotalTimes",
              "type": "uint256"
            },
            {
              "internalType": "uint256",
              "name": "authWeekTimes",
              "type": "uint256"
            },
            {
              "internalType": "uint256",
              "name": "authDayTimes",
              "type": "uint256"
            },
            {
              "internalType": "uint256",
              "name": "startTime",
              "type": "uint256"
            },
            {
              "internalType": "uint256",
              "name": "endTime",
              "type": "uint256"
            },
            {
              "internalType": "string",
              "name": "startDate",
              "type": "string"
            },
            {
              "internalType": "string",
              "name": "endDate",
              "type": "string"
            },
            {
              "internalType": "uint256",
              "name": "personnel",
              "type": "uint256"
            },
            {
              "internalType": "uint256",
              "name": "totalDonation",
              "type": "uint256"
            },
            {
              "internalType": "bool",
              "name": "complete",
              "type": "bool"
            },
            {
              "internalType": "bool",
              "name": "success",
              "type": "bool"
            }
          ],
          "internalType": "struct DonationChallengeContract.DonationChallenge[]",
          "name": "",
          "type": "tuple[]"
        }
      ],
      "stateMutability": "nonpayable",
      "type": "function"
    },
    {
      "inputs": [
        {
          "internalType": "uint256",
          "name": "challengeId",
          "type": "uint256"
        },
        {
          "internalType": "uint256",
          "name": "userId",
          "type": "uint256"
        },
        {
          "internalType": "uint256",
          "name": "today",
          "type": "uint256"
        }
      ],
      "name": "joinChallenge",
      "outputs": [],
      "stateMutability": "payable",
      "type": "function",
      "payable": true
    },
    {
      "inputs": [
        {
          "internalType": "uint256",
          "name": "userId",
          "type": "uint256"
        }
      ],
      "name": "getMyChallenge",
      "outputs": [
        {
          "internalType": "uint256[]",
          "name": "",
          "type": "uint256[]"
        },
        {
          "internalType": "uint256[]",
          "name": "",
          "type": "uint256[]"
        }
      ],
      "stateMutability": "view",
      "type": "function",
      "constant": true
    },
    {
      "inputs": [
        {
          "internalType": "uint256",
          "name": "challengeId",
          "type": "uint256"
        },
        {
          "internalType": "uint256",
          "name": "userId",
          "type": "uint256"
        }
      ],
      "name": "findingChallenger",
      "outputs": [
        {
          "internalType": "uint256",
          "name": "",
          "type": "uint256"
        },
        {
          "internalType": "uint256",
          "name": "",
          "type": "uint256"
        },
        {
          "internalType": "uint256",
          "name": "",
          "type": "uint256"
        }
      ],
      "stateMutability": "view",
      "type": "function",
      "constant": true
    },
    {
      "inputs": [
        {
          "internalType": "uint256",
          "name": "challengeId",
          "type": "uint256"
        },
        {
          "internalType": "uint256",
          "name": "userId",
          "type": "uint256"
        }
      ],
      "name": "checkChallenger",
      "outputs": [
        {
          "internalType": "bool",
          "name": "",
          "type": "bool"
        }
      ],
      "stateMutability": "view",
      "type": "function",
      "constant": true
    },
    {
      "inputs": [
        {
          "internalType": "uint256",
          "name": "challengeId",
          "type": "uint256"
        },
        {
          "internalType": "uint256",
          "name": "userId",
          "type": "uint256"
        },
        {
          "internalType": "uint256",
          "name": "challengerId",
          "type": "uint256"
        },
        {
          "internalType": "uint256",
          "name": "userIdIndex",
          "type": "uint256"
        },
        {
          "internalType": "uint256",
          "name": "challengeIdIndex",
          "type": "uint256"
        },
        {
          "internalType": "uint256",
          "name": "today",
          "type": "uint256"
        }
      ],
      "name": "authenticate",
      "outputs": [],
      "stateMutability": "nonpayable",
      "type": "function"
    },
    {
      "inputs": [
        {
          "internalType": "uint256",
          "name": "challengeId",
          "type": "uint256"
        }
      ],
      "name": "getChallengers",
      "outputs": [
        {
          "components": [
            {
              "internalType": "uint256",
              "name": "id",
              "type": "uint256"
            },
            {
              "internalType": "uint256",
              "name": "userId",
              "type": "uint256"
            },
            {
              "internalType": "uint256",
              "name": "challengeId",
              "type": "uint256"
            },
            {
              "internalType": "address",
              "name": "userAddress",
              "type": "address"
            },
            {
              "internalType": "uint256",
              "name": "today",
              "type": "uint256"
            },
            {
              "internalType": "uint256",
              "name": "totalCount",
              "type": "uint256"
            },
            {
              "internalType": "uint256",
              "name": "weekCount",
              "type": "uint256"
            },
            {
              "internalType": "uint256",
              "name": "dailyCount",
              "type": "uint256"
            },
            {
              "internalType": "uint256",
              "name": "userDeposit",
              "type": "uint256"
            },
            {
              "internalType": "uint256",
              "name": "reward",
              "type": "uint256"
            },
            {
              "internalType": "bool",
              "name": "receiveRefund",
              "type": "bool"
            }
          ],
          "internalType": "struct ChallengerContract.Challenger[]",
          "name": "",
          "type": "tuple[]"
        }
      ],
      "stateMutability": "view",
      "type": "function",
      "constant": true
    },
    {
      "inputs": [
        {
          "internalType": "uint256",
          "name": "userId",
          "type": "uint256"
        }
      ],
      "name": "getChallengersByUserId",
      "outputs": [
        {
          "components": [
            {
              "internalType": "uint256",
              "name": "id",
              "type": "uint256"
            },
            {
              "internalType": "uint256",
              "name": "userId",
              "type": "uint256"
            },
            {
              "internalType": "uint256",
              "name": "challengeId",
              "type": "uint256"
            },
            {
              "internalType": "address",
              "name": "userAddress",
              "type": "address"
            },
            {
              "internalType": "uint256",
              "name": "today",
              "type": "uint256"
            },
            {
              "internalType": "uint256",
              "name": "totalCount",
              "type": "uint256"
            },
            {
              "internalType": "uint256",
              "name": "weekCount",
              "type": "uint256"
            },
            {
              "internalType": "uint256",
              "name": "dailyCount",
              "type": "uint256"
            },
            {
              "internalType": "uint256",
              "name": "userDeposit",
              "type": "uint256"
            },
            {
              "internalType": "uint256",
              "name": "reward",
              "type": "uint256"
            },
            {
              "internalType": "bool",
              "name": "receiveRefund",
              "type": "bool"
            }
          ],
          "internalType": "struct ChallengerContract.Challenger[]",
          "name": "",
          "type": "tuple[]"
        }
      ],
      "stateMutability": "view",
      "type": "function",
      "constant": true
    }
  ],
  "bytecode": "0x60806040526305f5e100600255600160035560016007556001600a5534801561002757600080fd5b506002543360009081526020819052604090205561592c806200004b6000396000f3fe6080604052600436106101c25760003560e01c8063740c162a116100f7578063b098d41a11610095578063d60cdc2911610064578063d60cdc2914610565578063dd62ed3e14610585578063f5a80245146105cb578063fb81a8a9146105eb57600080fd5b8063b098d41a146104ff578063bc38036414610512578063c688459514610532578063c78a57b91461054557600080fd5b806395d89b41116100d157806395d89b411461046257806398e3a3e914610492578063a5e56ec4146104bf578063a9059cbb146104df57600080fd5b8063740c162a146103f4578063767449801461041457806385d0dd601461044257600080fd5b80633f7118511161016457806352e9a1a01161013e57806352e9a1a01461034f5780635b77573b1461037157806369e2809e1461039e57806370a08231146103be57600080fd5b80633f711851146102cf5780634a91c578146102ef5780634babd3661461031457600080fd5b806318160ddd116101a057806318160ddd146102565780631d41860d1461027557806323b872dd14610288578063313ce567146102a857600080fd5b80630303f2e0146101c757806306fdde03146101dc578063095ea7b314610226575b600080fd5b6101da6101d5366004614963565b6105fe565b005b3480156101e857600080fd5b50610210604051806040016040528060088152602001672830b9b9a1b7b4b760c11b81525081565b60405161021d91906149eb565b60405180910390f35b34801561023257600080fd5b50610246610241366004614a21565b610951565b604051901515815260200161021d565b34801561026257600080fd5b506002545b60405190815260200161021d565b6101da610283366004614b83565b6109be565b34801561029457600080fd5b506102466102a3366004614d5b565b610e26565b3480156102b457600080fd5b506102bd600081565b60405160ff909116815260200161021d565b3480156102db57600080fd5b506101da6102ea366004614a21565b610f71565b3480156102fb57600080fd5b50610304610ff5565b60405161021d9493929190614f86565b34801561032057600080fd5b5061033461032f366004615161565b611f7c565b6040805193845260208401929092529082015260600161021d565b34801561035b57600080fd5b5061036461208e565b60405161021d9190615183565b34801561037d57600080fd5b5061039161038c366004615229565b6122dd565b60405161021d91906152c9565b3480156103aa57600080fd5b506101da6103b93660046152d8565b6123e1565b3480156103ca57600080fd5b506102676103d936600461531b565b6001600160a01b031660009081526020819052604090205490565b34801561040057600080fd5b506101da61040f366004614963565b6127ca565b34801561042057600080fd5b5061043461042f366004615229565b612aec565b60405161021d929190615336565b34801561044e57600080fd5b506101da61045d366004615364565b612d6e565b34801561046e57600080fd5b50610210604051806040016040528060048152602001635041535360e01b81525081565b34801561049e57600080fd5b506104b26104ad366004615229565b612f04565b60405161021d9190615410565b3480156104cb57600080fd5b506102466104da366004615161565b612ff0565b3480156104eb57600080fd5b506102466104fa366004614a21565b61306a565b6101da61050d366004615229565b61311c565b34801561051e57600080fd5b506104b261052d366004615229565b6134af565b6101da61054036600461545f565b613586565b34801561055157600080fd5b506101da610560366004615229565b613895565b34801561057157600080fd5b506101da61058036600461548b565b614228565b34801561059157600080fd5b506102676105a0366004615537565b6001600160a01b03918216600090815260016020908152604080832093909416825291909152205490565b3480156105d757600080fd5b506101da6105e6366004614963565b6142b6565b6101da6105f936600461556a565b6145e4565b6000838152600460208181526040808420815161016081018352815481526001808301548286015260028301548285015260038301546001600160a01b0316606083015294820154608082015260058083015460a0830152600683015460c0830152600783015460e083015260088301546101008301526009909201546101208201526101408101949094528885529091529091208054829190859081106106a8576106a8615756565b600091825260208083208451600b9390930201918255838101516001830155604080850151600284015560608501516003840180546001600160a01b0319166001600160a01b039092169190911790556080850151600484015560a0850151600584015560c085015160068085019190915560e086015160078501556101008601516008850155610120860151600985015561014090950151600a909301805460ff191693151593909317909255898352929092522080548291908490811061077357610773615756565b90600052602060002090600b020160008201518160000155602082015181600101556040820151816002015560608201518160030160006101000a8154816001600160a01b0302191690836001600160a01b031602179055506080820151816004015560a0820151816005015560c0820151816006015560e082015181600701556101008201518160080155610120820151816009015561014082015181600a0160006101000a81548160ff02191690831515021790555090505080600460008360000151815260200190815260200160002060008201518160000155602082015181600101556040820151816002015560608201518160030160006101000a8154816001600160a01b0302191690836001600160a01b031602179055506080820151816004015560a0820151816005015560c0820151816006015560e082015181600701556101008201518160080155610120820151816009015561014082015181600a0160006101000a81548160ff021916908315150217905550905050600081606001519050806001600160a01b03166108fc83610120015184610100015161091f9190615782565b6040518115909202916000818181858888f19350505050158015610947573d6000803e3d6000fd5b5050505050505050565b3360008181526001602090815260408083206001600160a01b038716808552925280832085905551919290917f8c5be1e5ebec7d5bd14f71427d1e84f3dd0314c0f7b2291e5b200ac8c7c3b925906109ac9086815260200190565b60405180910390a35060015b92915050565b600780548083523461020084018190526102208401528291600891600091826109e68361579a565b9190505581526020019081526020016000206000820151816000015560208201518160010155604082015181600201556060820151816003019080519060200190610a3292919061484f565b5060808201518051610a4e91600484019160209091019061484f565b5060a08201518051610a6a91600584019160209091019061484f565b5060c08201518051610a8691600684019160209091019061484f565b5060e08201518051610aa291600784019160209091019061484f565b5061010082015160088201556101208201516009820155610140820151600a820155610160820151600b820155610180820151600c8201556101a08201518051610af691600d84019160209091019061484f565b506101c08201518051610b1391600e84019160209091019061484f565b506101e0820151600f82015561020082015160108201556102208201516011820155610240909101516012909101805460ff191691151591909117905580516040519081527f76fbc58aaedcbb39f7190db541de17575eeaaf17cf3facf5bd11ad55ca479ed1906020015b60405180910390a16000600460006003548152602001908152602001600020905060035481600001819055508160400151816001018190555081600001518160020181905550338160030160006101000a8154816001600160a01b0302191690836001600160a01b0316021790555034816008018190555060056000836040015181526020019081526020016000208190806001815401808255809150506001900390600052602060002090600b02016000909190919091506000820154816000015560018201548160010155600282015481600201556003820160009054906101000a90046001600160a01b03168160030160006101000a8154816001600160a01b0302191690836001600160a01b03160217905550600482015481600401556005820154816005015560068201548160060155600782015481600701556008820154816008015560098201548160090155600a820160009054906101000a900460ff1681600a0160006101000a81548160ff021916908315150217905550505060066000836000015181526020019081526020016000208190806001815401808255809150506001900390600052602060002090600b02016000909190919091506000820154816000015560018201548160010155600282015481600201556003820160009054906101000a90046001600160a01b03168160030160006101000a8154816001600160a01b0302191690836001600160a01b03160217905550600482015481600401556005820154816005015560068201548160060155600782015481600701556008820154816008015560098201548160090155600a820160009054906101000a900460ff1681600a0160006101000a81548160ff021916908315150217905550505060036000815480929190610e1d9061579a565b91905055505050565b6001600160a01b038316600090815260208190526040812054821115610e4b57600080fd5b6001600160a01b0384166000908152600160209081526040808320338452909152902054821115610e7b57600080fd5b6001600160a01b038416600090815260208190526040902054610e9f9083906157b3565b6001600160a01b038516600090815260208181526040808320939093556001815282822033835290522054610ed59083906157b3565b6001600160a01b0380861660009081526001602090815260408083203384528252808320949094559186168152908190522054610f13908390615782565b6001600160a01b038481166000818152602081815260409182902094909455518581529092918716917fddf252ad1be2c89b69c2b068fc378daa952ba7f163c4a11628f55a4df523b3ef910160405180910390a35060019392505050565b33600090815260208190526040902054811115610f8d57600080fd5b33600090815260208190526040902054610fa8908290615782565b33600090815260208190526040808220929092556001600160a01b03841681522054610fd59082906157b3565b6001600160a01b0390921660009081526020819052604090209190915550565b606080808060015b60075481116114f15761100f816147cc565b1561124c57600e805460018181019092557fbb7b4a454dc3493923482f07822329ed19e8244eff582cc204f8554c3620c3fd0182905560008281526008602052604081206009805480850182559252805460139092027f6e1540171b6c0c960b71a7020d9f60077f6af931a8bbf590da0223dacf75c7af8101928355928101547f6e1540171b6c0c960b71a7020d9f60077f6af931a8bbf590da0223dacf75c7b084015560028101547f6e1540171b6c0c960b71a7020d9f60077f6af931a8bbf590da0223dacf75c7b184015560038101805491937f6e1540171b6c0c960b71a7020d9f60077f6af931a8bbf590da0223dacf75c7b20191611110906157ca565b61111b9291906148d3565b506004820181600401908054611130906157ca565b61113b9291906148d3565b506005820181600501908054611150906157ca565b61115b9291906148d3565b506006820181600601908054611170906157ca565b61117b9291906148d3565b506007820181600701908054611190906157ca565b61119b9291906148d3565b506008820154816008015560098201548160090155600a82015481600a0155600b82015481600b0155600c82015481600c0155600d820181600d019080546111e2906157ca565b6111ed9291906148d3565b50600e820181600e01908054611202906157ca565b61120d9291906148d3565b50600f828101549082015560108083015490820155601180830154908201556012918201549101805460ff191660ff90921615159190911790556114df565b6112558161481d565b156114df57600f805460018181019092557f8d1108e10bcb7c27dddfc02ed9d693a074039d026cf4ea4240b40f7d581ac802018290556000828152600c60205260408120600d805480850182559252805460149092027fd7b6990105719101dabeb77144f2a3385c8033acd3af97e9423a695e81ad1eb58101928355928101547fd7b6990105719101dabeb77144f2a3385c8033acd3af97e9423a695e81ad1eb684015560028101547fd7b6990105719101dabeb77144f2a3385c8033acd3af97e9423a695e81ad1eb784015560038101547fd7b6990105719101dabeb77144f2a3385c8033acd3af97e9423a695e81ad1eb884015560048101805491937fd7b6990105719101dabeb77144f2a3385c8033acd3af97e9423a695e81ad1eb9019161137f906157ca565b61138a9291906148d3565b50600582018160050190805461139f906157ca565b6113aa9291906148d3565b506006820154816006015560078201816007019080546113c9906157ca565b6113d49291906148d3565b5060088201816008019080546113e9906157ca565b6113f49291906148d3565b506009820181600901908054611409906157ca565b6114149291906148d3565b50600a82015481600a0155600b82015481600b0155600c82015481600c0155600d82015481600d0155600e82015481600e0155600f820181600f0190805461145b906157ca565b6114669291906148d3565b50601082018160100190805461147b906157ca565b6114869291906148d3565b5060118281015490820155601280830154908201556013918201805492909101805460ff938416151560ff19821681178355925461010090819004909416151590930261ff001990921661ffff19909316929092171790555b806114e98161579a565b915050610ffd565b50600e600f6009600d8380548060200260200160405190810160405280929190818152602001828054801561154557602002820191906000526020600020905b815481526020019060010190808311611531575b505050505093508280548060200260200160405190810160405280929190818152602001828054801561159757602002820191906000526020600020905b815481526020019060010190808311611583575b5050505050925081805480602002602001604051908101604052809291908181526020016000905b82821015611a73578382906000526020600020906013020160405180610260016040529081600082015481526020016001820154815260200160028201548152602001600382018054611611906157ca565b80601f016020809104026020016040519081016040528092919081815260200182805461163d906157ca565b801561168a5780601f1061165f5761010080835404028352916020019161168a565b820191906000526020600020905b81548152906001019060200180831161166d57829003601f168201915b505050505081526020016004820180546116a3906157ca565b80601f01602080910402602001604051908101604052809291908181526020018280546116cf906157ca565b801561171c5780601f106116f15761010080835404028352916020019161171c565b820191906000526020600020905b8154815290600101906020018083116116ff57829003601f168201915b50505050508152602001600582018054611735906157ca565b80601f0160208091040260200160405190810160405280929190818152602001828054611761906157ca565b80156117ae5780601f10611783576101008083540402835291602001916117ae565b820191906000526020600020905b81548152906001019060200180831161179157829003601f168201915b505050505081526020016006820180546117c7906157ca565b80601f01602080910402602001604051908101604052809291908181526020018280546117f3906157ca565b80156118405780601f1061181557610100808354040283529160200191611840565b820191906000526020600020905b81548152906001019060200180831161182357829003601f168201915b50505050508152602001600782018054611859906157ca565b80601f0160208091040260200160405190810160405280929190818152602001828054611885906157ca565b80156118d25780601f106118a7576101008083540402835291602001916118d2565b820191906000526020600020905b8154815290600101906020018083116118b557829003601f168201915b505050505081526020016008820154815260200160098201548152602001600a8201548152602001600b8201548152602001600c8201548152602001600d8201805461191d906157ca565b80601f0160208091040260200160405190810160405280929190818152602001828054611949906157ca565b80156119965780601f1061196b57610100808354040283529160200191611996565b820191906000526020600020905b81548152906001019060200180831161197957829003601f168201915b50505050508152602001600e820180546119af906157ca565b80601f01602080910402602001604051908101604052809291908181526020018280546119db906157ca565b8015611a285780601f106119fd57610100808354040283529160200191611a28565b820191906000526020600020905b815481529060010190602001808311611a0b57829003601f168201915b5050509183525050600f820154602080830191909152601083015460408301526011830154606083015260129092015460ff16151560809091015290825260019290920191016115bf565b50505050915080805480602002602001604051908101604052809291908181526020016000905b82821015611f685783829060005260206000209060140201604051806102a001604052908160008201548152602001600182015481526020016002820154815260200160038201548152602001600482018054611af6906157ca565b80601f0160208091040260200160405190810160405280929190818152602001828054611b22906157ca565b8015611b6f5780601f10611b4457610100808354040283529160200191611b6f565b820191906000526020600020905b815481529060010190602001808311611b5257829003601f168201915b50505050508152602001600582018054611b88906157ca565b80601f0160208091040260200160405190810160405280929190818152602001828054611bb4906157ca565b8015611c015780601f10611bd657610100808354040283529160200191611c01565b820191906000526020600020905b815481529060010190602001808311611be457829003601f168201915b5050505050815260200160068201548152602001600782018054611c24906157ca565b80601f0160208091040260200160405190810160405280929190818152602001828054611c50906157ca565b8015611c9d5780601f10611c7257610100808354040283529160200191611c9d565b820191906000526020600020905b815481529060010190602001808311611c8057829003601f168201915b50505050508152602001600882018054611cb6906157ca565b80601f0160208091040260200160405190810160405280929190818152602001828054611ce2906157ca565b8015611d2f5780601f10611d0457610100808354040283529160200191611d2f565b820191906000526020600020905b815481529060010190602001808311611d1257829003601f168201915b50505050508152602001600982018054611d48906157ca565b80601f0160208091040260200160405190810160405280929190818152602001828054611d74906157ca565b8015611dc15780601f10611d9657610100808354040283529160200191611dc1565b820191906000526020600020905b815481529060010190602001808311611da457829003601f168201915b50505050508152602001600a8201548152602001600b8201548152602001600c8201548152602001600d8201548152602001600e8201548152602001600f82018054611e0c906157ca565b80601f0160208091040260200160405190810160405280929190818152602001828054611e38906157ca565b8015611e855780601f10611e5a57610100808354040283529160200191611e85565b820191906000526020600020905b815481529060010190602001808311611e6857829003601f168201915b50505050508152602001601082018054611e9e906157ca565b80601f0160208091040260200160405190810160405280929190818152602001828054611eca906157ca565b8015611f175780601f10611eec57610100808354040283529160200191611f17565b820191906000526020600020905b815481529060010190602001808311611efa57829003601f168201915b505050918352505060118201546020808301919091526012830154604083015260139092015460ff808216151560608401526101009091041615156080909101529082526001929092019101611a9a565b505050509050935093509350935090919293565b6000808080805b60008781526006602052604090205481108015611fd357506000878152600660205260409020805487919083908110611fbe57611fbe615756565b90600052602060002090600b02016001015414155b15611fea5780611fe28161579a565b915050611f83565b6000868152600560205260409020548210801561203a5750600086815260056020526040902080548891908490811061202557612025615756565b90600052602060002090600b02016002015414155b1561205157816120498161579a565b925050611fea565b600086815260056020526040902080548390811061207157612071615756565b60009182526020909120600b909102015497919650945092505050565b606060006001600a546120a191906157b3565b67ffffffffffffffff8111156120b9576120b9614a4b565b60405190808252806020026020018201604052801561211e57816020015b61210b6040518060800160405280600081526020016060815260200160006001600160a01b03168152602001606081525090565b8152602001906001900390816120d75790505b50905060005b6001600a5461213391906157b3565b8110156122d757600b6000612149836001615782565b81526020019081526020016000206040518060800160405290816000820154815260200160018201805461217c906157ca565b80601f01602080910402602001604051908101604052809291908181526020018280546121a8906157ca565b80156121f55780601f106121ca576101008083540402835291602001916121f5565b820191906000526020600020905b8154815290600101906020018083116121d857829003601f168201915b505050918352505060028201546001600160a01b03166020820152600382018054604090920191612225906157ca565b80601f0160208091040260200160405190810160405280929190818152602001828054612251906157ca565b801561229e5780601f106122735761010080835404028352916020019161229e565b820191906000526020600020905b81548152906001019060200180831161228157829003601f168201915b5050505050815250508282815181106122b9576122b9615756565b602002602001018190525080806122cf9061579a565b915050612124565b50919050565b61234560405180610160016040528060008152602001600081526020016000815260200160006001600160a01b031681526020016000815260200160008152602001600081526020016000815260200160008152602001600081526020016000151581525090565b506000908152600460208181526040928390208351610160810185528154815260018201549281019290925260028101549382019390935260038301546001600160a01b03166060820152908201546080820152600582015460a0820152600682015460c0820152600782015460e082015260088201546101008201526009820154610120820152600a9091015460ff16151561014082015290565b60008481526004602081815260408084208151610160810183528154815260018201549381019390935260028101549183019190915260038101546001600160a01b03166060830152918201546080820152600582015460a0820152600682015460c0820152600782015460e082015260088201546101008201526009820154610120820152600a9091015460ff16151561014082015290612482886147cc565b1561249f57506000878152600860205260409020600a01546124c2565b6124a88861481d565b156124c257506000878152600c6020819052604090912001545b828260800151146124dc57600060e0830152608082018390525b6124e7600784615814565b600783608001516124f89190615814565b1461250c57600060c0830152608082018390525b60018260e00181815161251f9190615782565b90525060c08201805160019190612537908390615782565b90525060a0820180516001919061254f908390615782565b905250600087815260056020526040902080548391908790811061257557612575615756565b600091825260208083208451600b9390930201918255838101516001830155604080850151600284015560608501516003840180546001600160a01b0319166001600160a01b039092169190911790556080850151600484015560a0850151600584015560c085015160068085019190915560e086015160078501556101008601516008850155610120860151600985015561014090950151600a909301805460ff1916931515939093179092558b8352929092522080548391908690811061264057612640615756565b90600052602060002090600b020160008201518160000155602082015181600101556040820151816002015560608201518160030160006101000a8154816001600160a01b0302191690836001600160a01b031602179055506080820151816004015560a0820151816005015560c0820151816006015560e082015181600701556101008201518160080155610120820151816009015561014082015181600a0160006101000a81548160ff02191690831515021790555090505081600460008460000151815260200190815260200160002060008201518160000155602082015181600101556040820151816002015560608201518160030160006101000a8154816001600160a01b0302191690836001600160a01b031602179055506080820151816004015560a0820151816005015560c0820151816006015560e082015181600701556101008201518160080155610120820151816009015561014082015181600a0160006101000a81548160ff0219169083151502179055509050505050505050505050565b600083815260046020818152604092839020835161016081018552815481526001808301549382019390935260028201549481019490945260038101546001600160a01b03166060850152918201546080840152600582015460a08401818152600684015460c0860152600784015460e086015260088401546101008601526009840154610120860152600a9093015460ff1615156101408501529091906128739083906157b3565b905250600085815260056020526040902080548291908590811061289957612899615756565b600091825260208083208451600b9390930201918255838101516001830155604080850151600284015560608501516003840180546001600160a01b0319166001600160a01b039092169190911790556080850151600484015560a0850151600584015560c085015160068085019190915560e086015160078501556101008601516008850155610120860151600985015561014090950151600a909301805460ff191693151593909317909255898352929092522080548291908490811061296457612964615756565b90600052602060002090600b020160008201518160000155602082015181600101556040820151816002015560608201518160030160006101000a8154816001600160a01b0302191690836001600160a01b031602179055506080820151816004015560a0820151816005015560c0820151816006015560e082015181600701556101008201518160080155610120820151816009015561014082015181600a0160006101000a81548160ff02191690831515021790555090505080600460008360000151815260200190815260200160002060008201518160000155602082015181600101556040820151816002015560608201518160030160006101000a8154816001600160a01b0302191690836001600160a01b031602179055506080820151816004015560a0820151816005015560c0820151816006015560e082015181600701556101008201518160080155610120820151816009015561014082015181600a0160006101000a81548160ff021916908315150217905550905050505050505050565b606080600060056000858152602001908152602001600020805480602002602001604051908101604052809291908181526020016000905b82821015612bd05760008481526020908190206040805161016081018252600b8602909201805483526001808201548486015260028201549284019290925260038101546001600160a01b0316606084015260048101546080840152600581015460a0840152600681015460c0840152600781015460e084015260088101546101008401526009810154610120840152600a015460ff1615156101408301529083529092019101612b24565b5050505090506000815167ffffffffffffffff811115612bf257612bf2614a4b565b604051908082528060200260200182016040528015612c1b578160200160208202803683370190505b5090506000805b600754811015612cbe57612c35816147cc565b8015612c51575060008181526008602052604090206002015487145b80612c7c5750612c608161481d565b8015612c7c57506000818152600c602052604090206002015487145b15612cac57808383612c8d8161579a565b945081518110612c9f57612c9f615756565b6020026020010181815250505b80612cb68161579a565b915050612c22565b506000835167ffffffffffffffff811115612cdb57612cdb614a4b565b604051908082528060200260200182016040528015612d04578160200160208202803683370190505b50905060005b8451811015612d6057848181518110612d2557612d25615756565b602002602001015160400151828281518110612d4357612d43615756565b602090810291909101015280612d588161579a565b915050612d0a565b509196919550909350505050565b60005b8251811015612eff57600060056000858481518110612d9257612d92615756565b60200260200101518152602001908152602001600020805480602002602001604051908101604052809291908181526020016000905b82821015612e745760008481526020908190206040805161016081018252600b8602909201805483526001808201548486015260028201549284019290925260038101546001600160a01b0316606084015260048101546080840152600581015460a0840152600681015460c0840152600781015460e084015260088101546101008401526009810154610120840152600a015460ff1615156101408301529083529092019101612dc8565b50505050905060005b8151811015612eea5783828281518110612e9957612e99615756565b60200260200101516040015103612ed857612ed2828281518110612ebf57612ebf615756565b602002602001015160600151600161306a565b50612eea565b80612ee28161579a565b915050612e7d565b50508080612ef79061579a565b915050612d71565b505050565b606060056000838152602001908152602001600020805480602002602001604051908101604052809291908181526020016000905b82821015612fe55760008481526020908190206040805161016081018252600b8602909201805483526001808201548486015260028201549284019290925260038101546001600160a01b0316606084015260048101546080840152600581015460a0840152600681015460c0840152600781015460e084015260088101546101008401526009810154610120840152600a015460ff1615156101408301529083529092019101612f39565b505050509050919050565b6000805b60008481526006602052604090205481101561306057600084815260066020526040902080548491908390811061302d5761302d615756565b90600052602060002090600b0201600101540361304e5760019150506109b8565b806130588161579a565b915050612ff4565b5060009392505050565b3360009081526020819052604081205482111561308657600080fd5b336000908152602081905260409020546130a19083906157b3565b33600090815260208190526040808220929092556001600160a01b038516815220546130ce908390615782565b6001600160a01b038416600081815260208181526040918290209390935551848152909133917fddf252ad1be2c89b69c2b068fc378daa952ba7f163c4a11628f55a4df523b3ef91016109ac565b6000818152600c60209081526040808320600683528184208054835181860281018601909452808452919493909190849084015b828210156131fc5760008481526020908190206040805161016081018252600b8602909201805483526001808201548486015260028201549284019290925260038101546001600160a01b0316606084015260048101546080840152600581015460a0840152600681015460c0840152600781015460e084015260088101546101008401526009810154610120840152600a015460ff1615156101408301529083529092019101613150565b50505060138401805460ff191660011790555090506000805b825181101561328457600084600a015484838151811061323757613237615756565b602002602001015160a00151606461324f9190615828565b6132599190615847565b905060508110613271578261326d8161579a565b9350505b508061327c8161579a565b915050613215565b508151605090613295836064615828565b61329f9190615847565b106134a9576000600b600085600301548152602001908152602001600020604051806080016040529081600082015481526020016001820180546132e2906157ca565b80601f016020809104026020016040519081016040528092919081815260200182805461330e906157ca565b801561335b5780601f106133305761010080835404028352916020019161335b565b820191906000526020600020905b81548152906001019060200180831161333e57829003601f168201915b505050918352505060028201546001600160a01b0316602082015260038201805460409092019161338b906157ca565b80601f01602080910402602001604051908101604052809291908181526020018280546133b7906157ca565b80156134045780601f106133d957610100808354040283529160200191613404565b820191906000526020600020905b8154815290600101906020018083116133e757829003601f168201915b5050509190925250505060138501805461ff001916610100179055905060005b835181101561346357600084828151811061344157613441615756565b602090810291909101015161010001528061345b8161579a565b915050613424565b506040808201516012860154915190916001600160a01b0383169181156108fc0291906000818181858888f193505050501580156134a5573d6000803e3d6000fd5b5050505b50505050565b6000818152600660209081526040808320805482518185028101850190935280835260609492939192909184018215612fe55760008481526020908190206040805161016081018252600b8602909201805483526001808201548486015260028201549284019290925260038101546001600160a01b0316606084015260048101546080840152600581015460a0840152600681015460c0840152600781015460e084015260088101546101008401526009810154610120840152600a015460ff1615156101408301529083529092019101612f39565b600060046000600354815260200190815260200160002090506003548160000181905550828160010181905550838160020181905550338160030160006101000a8154816001600160a01b0302191690836001600160a01b03160217905550818160040181905550348160080181905550600560008481526020019081526020016000208190806001815401808255809150506001900390600052602060002090600b02016000909190919091506000820154816000015560018201548160010155600282015481600201556003820160009054906101000a90046001600160a01b03168160030160006101000a8154816001600160a01b0302191690836001600160a01b03160217905550600482015481600401556005820154816005015560068201548160060155600782015481600701556008820154816008015560098201548160090155600a820160009054906101000a900460ff1681600a0160006101000a81548160ff0219169083151502179055505050600660008581526020019081526020016000208190806001815401808255809150506001900390600052602060002090600b02016000909190919091506000820154816000015560018201548160010155600282015481600201556003820160009054906101000a90046001600160a01b03168160030160006101000a8154816001600160a01b0302191690836001600160a01b03160217905550600482015481600401556005820154816005015560068201548160060155600782015481600701556008820154816008015560098201548160090155600a820160009054906101000a900460ff1681600a0160006101000a81548160ff0219169083151502179055505050600360008154809291906138169061579a565b9190505550613824846147cc565b156138585760008481526008602052604081206011810180549192349261384c908490615782565b909155506134a9915050565b6138618461481d565b156134a9576000848152600c6020526040812060128101805491923492613889908490615782565b90915550505050505050565b6000818152600860209081526040808320600683528184208054835181860281018601909452808452919493909190849084015b828210156139755760008481526020908190206040805161016081018252600b8602909201805483526001808201548486015260028201549284019290925260038101546001600160a01b0316606084015260048101546080840152600581015460a0840152600681015460c0840152600781015460e084015260088101546101008401526009810154610120840152600a015460ff16151561014083015290835290920191016138c9565b50505060128401805460ff19166001179055509050600080805b8351811015613e6c57600085600801548583815181106139b1576139b1615756565b602002602001015160a0015160646139c99190615828565b6139d39190615847565b90508482815181106139e7576139e7615756565b602002602001015160a00151866008015403613a0f5782613a078161579a565b935050613b15565b60508110613a41576000858381518110613a2b57613a2b615756565b6020026020010151610120018181525050613b15565b60288110613ade576064818760100154613a5b9190615828565b613a659190615847565b858381518110613a7757613a77615756565b60200260200101516101000151613a8e91906157b3565b613a989085615782565b93506064818760100154613aac9190615828565b613ab69190615847565b858381518110613ac857613ac8615756565b6020026020010151610100018181525050613b15565b6010860154613aed9085615782565b93506000858381518110613b0357613b03615756565b60200260200101516101000181815250505b848281518110613b2757613b27615756565b6020026020010151600660008981526020019081526020016000208381548110613b5357613b53615756565b60009182526020918290208351600b92909202019081559082015160018201556040820151600282015560608201516003820180546001600160a01b0319166001600160a01b039092169190911790556080820151600482015560a0820151600582015560c0820151600682015560e082015160078201556101008201516008820155610120820151600982015561014090910151600a909101805460ff19169115159190911790558451859083908110613c1057613c10615756565b602002602001015160046000878581518110613c2e57613c2e615756565b60209081029190910181015151825281810192909252604090810160009081208451815592840151600184015590830151600283015560608301516003830180546001600160a01b0319166001600160a01b039092169190911790556080830151600483015560a0830151600583015560c0830151600683015560e083015160078301556101008301516008830155610120830151600983015561014090920151600a909101805460ff19169115159190911790558551869084908110613cf757613cf7615756565b602002602001015160200151905060005b600082815260056020526040902054811015613e5657600082815260056020526040902080548a919083908110613d4157613d41615756565b90600052602060002090600b02016002015403613e4457868481518110613d6a57613d6a615756565b6020026020010151600560008481526020019081526020016000208281548110613d9657613d96615756565b60009182526020918290208351600b92909202019081559082015160018201556040820151600282015560608201516003820180546001600160a01b0319166001600160a01b039092169190911790556080820151600482015560a0820151600582015560c0820151600682015560e082015160078201556101008201516008820155610120820151600982015561014090910151600a909101805460ff1916911515919091179055613e56565b80613e4e8161579a565b915050613d08565b5050508080613e649061579a565b91505061398f565b5060005b835181101561422057838181518110613e8b57613e8b615756565b602002602001015160a0015185600801540361420e57613eab8284615847565b848281518110613ebd57613ebd615756565b6020026020010151610120018181525050838181518110613ee057613ee0615756565b6020026020010151600660008881526020019081526020016000208281548110613f0c57613f0c615756565b60009182526020918290208351600b92909202019081559082015160018201556040820151600282015560608201516003820180546001600160a01b0319166001600160a01b039092169190911790556080820151600482015560a0820151600582015560c0820151600682015560e082015160078201556101008201516008820155610120820151600982015561014090910151600a909101805460ff19169115159190911790558351849082908110613fc957613fc9615756565b602002602001015160046000868481518110613fe757613fe7615756565b60209081029190910181015151825281810192909252604090810160009081208451815592840151600184015590830151600283015560608301516003830180546001600160a01b0319166001600160a01b039092169190911790556080830151600483015560a0830151600583015560c0830151600683015560e083015160078301556101008301516008830155610120830151600983015561014090920151600a909101805460ff191691151591909117905584518590839081106140b0576140b0615756565b602002602001015160200151905060005b60008281526005602052604090205481101561420b5760008281526005602052604090208054899190839081106140fa576140fa615756565b90600052602060002090600b020160020154036141f95785838151811061412357614123615756565b602002602001015160056000848152602001908152602001600020828154811061414f5761414f615756565b60009182526020918290208351600b92909202019081559082015160018201556040820151600282015560608201516003820180546001600160a01b0319166001600160a01b039092169190911790556080820151600482015560a0820151600582015560c0820151600682015560e082015160078201556101008201516008820155610120820151600982015561014090910151600a909101805460ff19169115159190911790555b806142038161579a565b9150506140c1565b50505b806142188161579a565b915050613e70565b505050505050565b600a80548083528291600b91600091826142418361579a565b9091555081526020808201929092526040016000208251815582820151805191926142749260018501929091019061484f565b5060408201516002820180546001600160a01b0319166001600160a01b03909216919091179055606082015180516134a991600384019160209091019061484f565b600083815260046020818152604092839020835161016081018552815481526001808301549382019390935260028201549481019490945260038101546001600160a01b03166060850152918201546080840152600582015460a08401818152600684015460c0860152600784015460e086015260088401546101008601526009840154610120860152600a9093015460ff16151561014085015290919061435f908390615782565b905250600085815260056020526040902080548291908590811061438557614385615756565b600091825260208083208451600b9390930201918255838101516001830155604080850151600284015560608501516003840180546001600160a01b0319166001600160a01b039092169190911790556080850151600484015560a0850151600584015560c085015160068085019190915560e086015160078501556101008601516008850155610120860151600985015561014090950151600a909301805460ff191693151593909317909255898352929092522080548291908490811061445057614450615756565b90600052602060002090600b020160008201518160000155602082015181600101556040820151816002015560608201518160030160006101000a8154816001600160a01b0302191690836001600160a01b031602179055506080820151816004015560a0820151816005015560c0820151816006015560e082015181600701556101008201518160080155610120820151816009015561014082015181600a0160006101000a81548160ff02191690831515021790555090505080600460008360000151815260200190815260200160002060008201518160000155602082015181600101556040820151816002015560608201518160030160006101000a8154816001600160a01b0302191690836001600160a01b031602179055506080820151816004015560a0820151816005015560c0820151816006015560e082015181600701556101008201518160080155610120820151816009015561014082015181600a0160006101000a81548160ff0219169083151502179055509050506000816060015190506134a5816001610f71565b600780548083523460c084018190526102408401528291600c916000918261460b8361579a565b91905055815260200190815260200160002060008201518160000155602082015181600101556040820151816002015560608201518160030155608082015181600401908051906020019061466192919061484f565b5060a0820151805161467d91600584019160209091019061484f565b5060c0820151600682015560e082015180516146a391600784019160209091019061484f565b5061010082015180516146c091600884019160209091019061484f565b5061012082015180516146dd91600984019160209091019061484f565b50610140820151600a820155610160820151600b820155610180820151600c8201556101a0820151600d8201556101c0820151600e8201556101e0820151805161473191600f84019160209091019061484f565b50610200820151805161474e91601084019160209091019061484f565b5061022082015160118201556102408201516012820155610260820151601390910180546102809093015115156101000261ff00199215159290921661ffff199093169290921717905580516040517f76fbc58aaedcbb39f7190db541de17575eeaaf17cf3facf5bd11ad55ca479ed191610b7e9190815260200190565b6040805160008082526020808301808552835190208583526008909152838220919390926147fe92600301910161585b565b6040516020818303038152906040528051906020012014159050919050565b604080516000808252602080830180855283519020858352600c909152838220919390926147fe92600401910161585b565b82805461485b906157ca565b90600052602060002090601f01602090048101928261487d57600085556148c3565b82601f1061489657805160ff19168380011785556148c3565b828001600101855582156148c3579182015b828111156148c35782518255916020019190600101906148a8565b506148cf92915061494e565b5090565b8280546148df906157ca565b90600052602060002090601f01602090048101928261490157600085556148c3565b82601f1061491257805485556148c3565b828001600101855582156148c357600052602060002091601f016020900482015b828111156148c3578254825591600101919060010190614933565b5b808211156148cf576000815560010161494f565b600080600080600060a0868803121561497b57600080fd5b505083359560208501359550604085013594606081013594506080013592509050565b6000815180845260005b818110156149c4576020818501810151868301820152016149a8565b818111156149d6576000602083870101525b50601f01601f19169290920160200192915050565b6020815260006149fe602083018461499e565b9392505050565b80356001600160a01b0381168114614a1c57600080fd5b919050565b60008060408385031215614a3457600080fd5b614a3d83614a05565b946020939093013593505050565b634e487b7160e01b600052604160045260246000fd5b604051610260810167ffffffffffffffff81118282101715614a8557614a85614a4b565b60405290565b6040516080810167ffffffffffffffff81118282101715614a8557614a85614a4b565b6040516102a0810167ffffffffffffffff81118282101715614a8557614a85614a4b565b604051601f8201601f1916810167ffffffffffffffff81118282101715614afb57614afb614a4b565b604052919050565b600082601f830112614b1457600080fd5b813567ffffffffffffffff811115614b2e57614b2e614a4b565b614b41601f8201601f1916602001614ad2565b818152846020838601011115614b5657600080fd5b816020850160208301376000918101602001919091529392505050565b80358015158114614a1c57600080fd5b600060208284031215614b9557600080fd5b813567ffffffffffffffff80821115614bad57600080fd5b908301906102608286031215614bc257600080fd5b614bca614a61565b823581526020830135602082015260408301356040820152606083013582811115614bf457600080fd5b614c0087828601614b03565b606083015250608083013582811115614c1857600080fd5b614c2487828601614b03565b60808301525060a083013582811115614c3c57600080fd5b614c4887828601614b03565b60a08301525060c083013582811115614c6057600080fd5b614c6c87828601614b03565b60c08301525060e083013582811115614c8457600080fd5b614c9087828601614b03565b60e083015250610100838101359082015261012080840135908201526101408084013590820152610160808401359082015261018080840135908201526101a08084013583811115614ce157600080fd5b614ced88828701614b03565b8284015250506101c08084013583811115614d0757600080fd5b614d1388828701614b03565b91830191909152506101e08381013590820152610200808401359082015261022080840135908201526102409150614d4c828401614b73565b91810191909152949350505050565b600080600060608486031215614d7057600080fd5b614d7984614a05565b9250614d8760208501614a05565b9150604084013590509250925092565b600081518084526020808501945080840160005b83811015614dc757815187529582019590820190600101614dab565b509495945050505050565b600081518084526020808501808196508360051b8101915082860160005b85811015614f7957828403895281516102a0815186528682015187870152604080830151818801525060608083015181880152506080808301518282890152614e3b8389018261499e565b9250505060a08083015187830382890152614e56838261499e565b9250505060c080830151818801525060e08083015187830382890152614e7c838261499e565b925050506101008083015187830382890152614e98838261499e565b925050506101208083015187830382890152614eb4838261499e565b61014085810151908a015261016080860151908a015261018080860151908a01526101a080860151908a01526101c080860151908a01526101e0808601518a8303828c015291945092509050614f0a838261499e565b925050506102008083015187830382890152614f26838261499e565b9250505061022080830151818801525061024080830151818801525061026080830151614f568289018215159052565b505061028091820151151595909101949094529784019790840190600101614df0565b5091979650505050505050565b60006080808352614f9981840188614d97565b602084820381860152614fac8289614d97565b91506040858303818701528288518085528385019150838160051b860101848b0160005b8381101561513c57601f198884030185528151610260815185528882015189860152878201518886015260608083015182828801526150118388018261499e565b925050508a8201518582038c87015261502a828261499e565b91505060a08083015186830382880152615044838261499e565b9250505060c0808301518683038288015261505f838261499e565b9250505060e0808301518683038288015261507a838261499e565b610100858101519089015261012080860151908901526101408086015190890152610160808601519089015261018080860151908901526101a080860151898303828b0152919450925090506150d0838261499e565b925050506101c080830151868303828801526150ec838261499e565b6101e085810151908901526102008086015190890152610220808601519089015261024094850151801515868a01529490935091506151289050565b509588019593505090860190600101614fd0565b505088810360608a0152615150818b614dd2565b9d9c50505050505050505050505050565b6000806040838503121561517457600080fd5b50508035926020909101359150565b60006020808301818452808551808352604092508286019150828160051b87010184880160005b8381101561521b57603f19898403018552815160808151855288820151818a8701526151d88287018261499e565b838a01516001600160a01b0316878b01526060938401518782039488019490945291506152079050818361499e565b9689019694505050908601906001016151aa565b509098975050505050505050565b60006020828403121561523b57600080fd5b5035919050565b805182526020810151602083015260408101516040830152606081015161527460608401826001600160a01b03169052565b506080810151608083015260a081015160a083015260c081015160c083015260e081015160e0830152610100808201518184015250610120808201518184015250610140808201516134a98285018215159052565b61016081016109b88284615242565b60008060008060008060c087890312156152f157600080fd5b505084359660208601359650604086013595606081013595506080810135945060a0013592509050565b60006020828403121561532d57600080fd5b6149fe82614a05565b6040815260006153496040830185614d97565b828103602084015261535b8185614d97565b95945050505050565b6000806040838503121561537757600080fd5b823567ffffffffffffffff8082111561538f57600080fd5b818501915085601f8301126153a357600080fd5b81356020828211156153b7576153b7614a4b565b8160051b92506153c8818401614ad2565b82815292840181019281810190898511156153e257600080fd5b948201945b84861015615400578535825294820194908201906153e7565b9997909101359750505050505050565b6020808252825182820181905260009190848201906040850190845b818110156154535761543f838551615242565b92840192610160929092019160010161542c565b50909695505050505050565b60008060006060848603121561547457600080fd5b505081359360208301359350604090920135919050565b60006020828403121561549d57600080fd5b813567ffffffffffffffff808211156154b557600080fd5b90830190608082860312156154c957600080fd5b6154d1614a8b565b823581526020830135828111156154e757600080fd5b6154f387828601614b03565b60208301525061550560408401614a05565b604082015260608301358281111561551c57600080fd5b61552887828601614b03565b60608301525095945050505050565b6000806040838503121561554a57600080fd5b61555383614a05565b915061556160208401614a05565b90509250929050565b60006020828403121561557c57600080fd5b813567ffffffffffffffff8082111561559457600080fd5b908301906102a082860312156155a957600080fd5b6155b1614aae565b823581526020830135602082015260408301356040820152606083013560608201526080830135828111156155e557600080fd5b6155f187828601614b03565b60808301525060a08301358281111561560957600080fd5b61561587828601614b03565b60a08301525060c083013560c082015260e08301358281111561563757600080fd5b61564387828601614b03565b60e083015250610100808401358381111561565d57600080fd5b61566988828701614b03565b828401525050610120808401358381111561568357600080fd5b61568f88828701614b03565b91830191909152506101408381013590820152610160808401359082015261018080840135908201526101a080840135908201526101c080840135908201526101e080840135838111156156e257600080fd5b6156ee88828701614b03565b828401525050610200808401358381111561570857600080fd5b61571488828701614b03565b9183019190915250610220838101359082015261024080840135908201526102609150615742828401614b73565b828201526102809150614d4c828401614b73565b634e487b7160e01b600052603260045260246000fd5b634e487b7160e01b600052601160045260246000fd5b600082198211156157955761579561576c565b500190565b6000600182016157ac576157ac61576c565b5060010190565b6000828210156157c5576157c561576c565b500390565b600181811c908216806157de57607f821691505b6020821081036122d757634e487b7160e01b600052602260045260246000fd5b634e487b7160e01b600052601260045260246000fd5b600082615823576158236157fe565b500690565b60008160001904831182151516156158425761584261576c565b500290565b600082615856576158566157fe565b500490565b600080835481600182811c91508083168061587757607f831692505b6020808410820361589657634e487b7160e01b86526022600452602486fd5b8180156158aa57600181146158bb576158e8565b60ff198616895284890196506158e8565b60008a81526020902060005b868110156158e05781548b8201529085019083016158c7565b505084890196505b50949897505050505050505056fea2646970667358221220073fb78851fdbe281b16749e0e6012da9d1e80bab05d3470f9d940cc98a8e39a64736f6c634300080e0033",
  "immutableReferences": {},
  "source": "// SPDX-License-Identifier: MIT\r\npragma solidity ^0.8.0;\r\npragma abicoder v2;\r\n\r\nimport \"./DonationChallengeContract.sol\";\r\n\r\ncontract ChallengeContract is DonationChallengeContract{\r\n    uint[] dailyChallengeIds;\r\n    uint[] donationChallengeIds;\r\n\r\n    //     \r\n    function isDailyChallenge(uint challengeId) private view returns(bool){\r\n        return keccak256(abi.encodePacked(dailyChallengeMap[challengeId].name)) != keccak256(abi.encodePacked(\"\"));\r\n    }\r\n\r\n    function isDonationChallenge(uint challengeId) private view returns(bool){\r\n        return keccak256(abi.encodePacked(donationChallengeMap[challengeId].name)) != keccak256(abi.encodePacked(\"\"));\r\n    }\r\n\r\n    //   \r\n    function getAllChallenge() public returns(uint[] memory,uint[] memory,DailyChallenge[] memory,DonationChallenge[] memory){\r\n        \r\n        for(uint i=1;i<=challengeSequence;i++){\r\n            if(isDailyChallenge(i)){\r\n                dailyChallengeIds.push(i);\r\n                dailyChallenges.push(dailyChallengeMap[i]);\r\n            }\r\n\r\n            else if(isDonationChallenge(i)){\r\n                donationChallengeIds.push(i);\r\n                donationChallenges.push(donationChallengeMap[i]);\r\n            }\r\n        }\r\n        return (dailyChallengeIds,donationChallengeIds,dailyChallenges,donationChallenges);\r\n    }\r\n\r\n    //   \r\n    function joinChallenge(uint challengeId,uint userId,uint today) public payable{\r\n    \r\n        //  \r\n        Challenger storage challenger=challengerMap[challengerSequence];\r\n        challenger.id=challengerSequence;\r\n        challenger.userId=userId;\r\n        challenger.challengeId=challengeId;\r\n        challenger.userAddress=msg.sender;\r\n        challenger.today=today;\r\n        challenger.userDeposit=msg.value;\r\n\r\n        //    \r\n        findByUserIdChallenger[userId].push(challenger);\r\n        findByChallengeIdChallenger[challengeId].push(challenger);\r\n        challengerSequence++;\r\n\r\n        //        \r\n        if(isDailyChallenge(challengeId)){\r\n            DailyChallenge storage challenge=dailyChallengeMap[challengeId];\r\n            challenge.totalDeposit+=msg.value; \r\n        }\r\n\r\n        else if(isDonationChallenge(challengeId)){\r\n            DonationChallenge storage challenge=donationChallengeMap[challengeId];\r\n            challenge.totalDonation+=msg.value;\r\n        }\r\n    }\r\n\r\n    //   \r\n    function getMyChallenge(uint userId) public view returns(uint[] memory,uint[] memory){\r\n        Challenger[] memory challengers=findByUserIdChallenger[userId];\r\n        //   \r\n        uint[] memory challengesByMe=new uint[](challengers.length);\r\n        \r\n        uint myChallengeIndex = 0;\r\n        //     ownerId userId   \r\n        for(uint challengeId=0;challengeId<challengeSequence;challengeId++){\r\n            if((isDailyChallenge(challengeId) && dailyChallengeMap[challengeId].ownerId==userId) ||\r\n            (isDonationChallenge(challengeId) && donationChallengeMap[challengeId].ownerId==userId)){\r\n                challengesByMe[myChallengeIndex++] = challengeId;\r\n            }\r\n        }\r\n\r\n        //   \r\n        uint[] memory myChallenges=new uint[](challengers.length);\r\n        for(uint index=0;index<challengers.length;index++){\r\n            myChallenges[index]=challengers[index].challengeId;\r\n        }\r\n        return(challengesByMe,myChallenges);\r\n    }\r\n\r\n    //   (,,)\r\n    function findingChallenger(uint challengeId,uint userId)public view returns(uint,uint,uint){       \r\n        uint userIdIndex=0;\r\n        uint challengeIdIndex=0;\r\n        //  \r\n        while(findByChallengeIdChallenger[challengeId].length>challengeIdIndex&&\r\n            findByChallengeIdChallenger[challengeId][challengeIdIndex].userId!=userId) challengeIdIndex++;\r\n        while(findByUserIdChallenger[userId].length>userIdIndex&&\r\n        findByUserIdChallenger[userId][userIdIndex].challengeId!=challengeId) userIdIndex++;\r\n        \r\n        return(findByUserIdChallenger[userId][userIdIndex].id,userIdIndex,challengeIdIndex);\r\n    }\r\n    function checkChallenger(uint challengeId,uint userId)public view returns(bool){       \r\n        for(uint challengeIdIndex=0;challengeIdIndex<findByChallengeIdChallenger[challengeId].length;challengeIdIndex++){\r\n            if(findByChallengeIdChallenger[challengeId][challengeIdIndex].userId==userId) return true;\r\n        }\r\n        return false;\r\n    }\r\n\r\n    //    \r\n    function authenticate(uint challengeId,uint userId, uint challengerId,uint userIdIndex,uint challengeIdIndex, uint today) public {\r\n        Challenger memory findChallenger=challengerMap[challengerId];\r\n        \r\n        uint authDayTimes;\r\n        if(isDailyChallenge(challengeId)) authDayTimes=dailyChallengeMap[challengeId].authDayTimes;\r\n        else if(isDonationChallenge(challengeId)) authDayTimes=donationChallengeMap[challengeId].authDayTimes;\r\n        \r\n        //    \r\n        if(findChallenger.today != today){\r\n            findChallenger.dailyCount=0;\r\n            findChallenger.today=today;\r\n        }\r\n        if(findChallenger.today%7!=today%7){\r\n            findChallenger.weekCount=0;\r\n            findChallenger.today=today;\r\n        }\r\n        findChallenger.dailyCount+=1;\r\n        findChallenger.weekCount+=1;\r\n        findChallenger.totalCount+=1;\r\n        \r\n        //  \r\n        findByUserIdChallenger[userId][userIdIndex]=findChallenger;\r\n        findByChallengeIdChallenger[challengeId][challengeIdIndex]=findChallenger;\r\n        challengerMap[findChallenger.id]=findChallenger;\r\n    }\r\n    \r\n    //      \r\n    function getChallengers(uint challengeId) public view returns(Challenger[] memory){\r\n        return(findByChallengeIdChallenger[challengeId]);\r\n    }\r\n\r\n    //     \r\n    function getChallengersByUserId(uint userId) public view returns(Challenger[] memory){\r\n        return(findByUserIdChallenger[userId]);\r\n    }\r\n}\r\n",
  "sourcePath": "c:\\Users\\multicampus\\Desktop\\ssafy\\S07P22B106\\truffle\\contracts\\ChallengeContract.sol",
  "compiler": {
    "name": "solc",
    "version": "0.8.14+commit.80d49f37.Emscripten.clang"
  },
  "schemaVersion": "3.4.10",
  "updatedAt": "2022-10-02T11:11:32.074Z",
  "networkType": "ethereum",
  "devdoc": {
    "kind": "dev",
    "methods": {},
    "version": 1
  },
  "userdoc": {
    "kind": "user",
    "methods": {},
    "version": 1
  }
}