{
  "contractName": "ChallengerContract",
  "abi": [
    {
      "anonymous": false,
      "inputs": [
        {
          "indexed": true,
          "internalType": "address",
          "name": "owner",
          "type": "address"
        },
        {
          "indexed": true,
          "internalType": "address",
          "name": "spender",
          "type": "address"
        },
        {
          "indexed": false,
          "internalType": "uint256",
          "name": "value",
          "type": "uint256"
        }
      ],
      "name": "Approval",
      "type": "event"
    },
    {
      "anonymous": false,
      "inputs": [
        {
          "indexed": true,
          "internalType": "address",
          "name": "from",
          "type": "address"
        },
        {
          "indexed": true,
          "internalType": "address",
          "name": "to",
          "type": "address"
        },
        {
          "indexed": false,
          "internalType": "uint256",
          "name": "value",
          "type": "uint256"
        }
      ],
      "name": "Transfer",
      "type": "event"
    },
    {
      "inputs": [
        {
          "internalType": "address",
          "name": "owner",
          "type": "address"
        },
        {
          "internalType": "address",
          "name": "delegate",
          "type": "address"
        }
      ],
      "name": "allowance",
      "outputs": [
        {
          "internalType": "uint256",
          "name": "",
          "type": "uint256"
        }
      ],
      "stateMutability": "view",
      "type": "function"
    },
    {
      "inputs": [
        {
          "internalType": "address",
          "name": "delegate",
          "type": "address"
        },
        {
          "internalType": "uint256",
          "name": "numTokens",
          "type": "uint256"
        }
      ],
      "name": "approve",
      "outputs": [
        {
          "internalType": "bool",
          "name": "",
          "type": "bool"
        }
      ],
      "stateMutability": "nonpayable",
      "type": "function"
    },
    {
      "inputs": [
        {
          "internalType": "address",
          "name": "tokenOwner",
          "type": "address"
        }
      ],
      "name": "balanceOf",
      "outputs": [
        {
          "internalType": "uint256",
          "name": "",
          "type": "uint256"
        }
      ],
      "stateMutability": "view",
      "type": "function"
    },
    {
      "inputs": [],
      "name": "decimals",
      "outputs": [
        {
          "internalType": "uint8",
          "name": "",
          "type": "uint8"
        }
      ],
      "stateMutability": "view",
      "type": "function"
    },
    {
      "inputs": [],
      "name": "name",
      "outputs": [
        {
          "internalType": "string",
          "name": "",
          "type": "string"
        }
      ],
      "stateMutability": "view",
      "type": "function"
    },
    {
      "inputs": [],
      "name": "symbol",
      "outputs": [
        {
          "internalType": "string",
          "name": "",
          "type": "string"
        }
      ],
      "stateMutability": "view",
      "type": "function"
    },
    {
      "inputs": [],
      "name": "totalSupply",
      "outputs": [
        {
          "internalType": "uint256",
          "name": "",
          "type": "uint256"
        }
      ],
      "stateMutability": "view",
      "type": "function"
    },
    {
      "inputs": [
        {
          "internalType": "address",
          "name": "receiver",
          "type": "address"
        },
        {
          "internalType": "uint256",
          "name": "numTokens",
          "type": "uint256"
        }
      ],
      "name": "transfer",
      "outputs": [
        {
          "internalType": "bool",
          "name": "",
          "type": "bool"
        }
      ],
      "stateMutability": "nonpayable",
      "type": "function"
    },
    {
      "inputs": [
        {
          "internalType": "address",
          "name": "owner",
          "type": "address"
        },
        {
          "internalType": "address",
          "name": "buyer",
          "type": "address"
        },
        {
          "internalType": "uint256",
          "name": "numTokens",
          "type": "uint256"
        }
      ],
      "name": "transferFrom",
      "outputs": [
        {
          "internalType": "bool",
          "name": "",
          "type": "bool"
        }
      ],
      "stateMutability": "nonpayable",
      "type": "function"
    },
    {
      "inputs": [
        {
          "internalType": "address",
          "name": "user",
          "type": "address"
        },
        {
          "internalType": "uint256",
          "name": "numTokens",
          "type": "uint256"
        }
      ],
      "name": "useCoin",
      "outputs": [],
      "stateMutability": "nonpayable",
      "type": "function"
    },
    {
      "inputs": [
        {
          "internalType": "uint256",
          "name": "challengerId",
          "type": "uint256"
        }
      ],
      "name": "findByChallengerId",
      "outputs": [
        {
          "components": [
            {
              "internalType": "uint256",
              "name": "id",
              "type": "uint256"
            },
            {
              "internalType": "uint256",
              "name": "userId",
              "type": "uint256"
            },
            {
              "internalType": "uint256",
              "name": "challengeId",
              "type": "uint256"
            },
            {
              "internalType": "address",
              "name": "userAddress",
              "type": "address"
            },
            {
              "internalType": "string",
              "name": "today",
              "type": "string"
            },
            {
              "internalType": "uint256",
              "name": "totalCount",
              "type": "uint256"
            },
            {
              "internalType": "uint256",
              "name": "dailyCount",
              "type": "uint256"
            },
            {
              "internalType": "uint256",
              "name": "userDeposit",
              "type": "uint256"
            },
            {
              "internalType": "uint256",
              "name": "reward",
              "type": "uint256"
            }
          ],
          "internalType": "struct ChallengerContract.Challenger",
          "name": "",
          "type": "tuple"
        }
      ],
      "stateMutability": "view",
      "type": "function"
    },
    {
      "inputs": [
        {
          "internalType": "uint256",
          "name": "challengerId",
          "type": "uint256"
        }
      ],
      "name": "refund",
      "outputs": [],
      "stateMutability": "payable",
      "type": "function"
    },
    {
      "inputs": [
        {
          "internalType": "uint256",
          "name": "challengeId",
          "type": "uint256"
        },
        {
          "internalType": "uint256",
          "name": "userId",
          "type": "uint256"
        },
        {
          "internalType": "uint256",
          "name": "challengerId",
          "type": "uint256"
        },
        {
          "internalType": "uint256",
          "name": "userIdIndex",
          "type": "uint256"
        },
        {
          "internalType": "uint256",
          "name": "challengeIdIndex",
          "type": "uint256"
        }
      ],
      "name": "usePasscoin",
      "outputs": [],
      "stateMutability": "nonpayable",
      "type": "function"
    },
    {
      "inputs": [
        {
          "internalType": "uint256",
          "name": "challengeId",
          "type": "uint256"
        },
        {
          "internalType": "uint256",
          "name": "userId",
          "type": "uint256"
        },
        {
          "internalType": "uint256",
          "name": "challengerId",
          "type": "uint256"
        },
        {
          "internalType": "uint256",
          "name": "userIdIndex",
          "type": "uint256"
        },
        {
          "internalType": "uint256",
          "name": "challengeIdIndex",
          "type": "uint256"
        }
      ],
      "name": "applyVoteResult",
      "outputs": [],
      "stateMutability": "nonpayable",
      "type": "function"
    },
    {
      "inputs": [
        {
          "internalType": "uint256[]",
          "name": "userIdList",
          "type": "uint256[]"
        },
        {
          "internalType": "uint256",
          "name": "challengeId",
          "type": "uint256"
        }
      ],
      "name": "receivePasscoin",
      "outputs": [],
      "stateMutability": "nonpayable",
      "type": "function"
    }
  ],
  "bytecode": "0x60806040526305f5e100600255600160035534801561001d57600080fd5b5060025433600090815260208190526040902055611612806100406000396000f3fe6080604052600436106100e85760003560e01c80635b77573b1161008a57806395d89b411161005957806395d89b41146102a5578063a9059cbb146102d5578063dd62ed3e146102f5578063f5a802451461033b57600080fd5b80635b77573b1461020257806370a082311461022f578063740c162a1461026557806385d0dd601461028557600080fd5b806323b872dd116100c657806323b872dd14610186578063278ecde1146101a6578063313ce567146101bb5780633f711851146101e257600080fd5b806306fdde03146100ed578063095ea7b31461013757806318160ddd14610167575b600080fd5b3480156100f957600080fd5b50610121604051806040016040528060088152602001672830b9b9a1b7b4b760c11b81525081565b60405161012e9190611286565b60405180910390f35b34801561014357600080fd5b506101576101523660046112bc565b61035b565b604051901515815260200161012e565b34801561017357600080fd5b506002545b60405190815260200161012e565b34801561019257600080fd5b506101576101a13660046112e6565b6103c7565b6101b96101b4366004611322565b610512565b005b3480156101c757600080fd5b506101d0600081565b60405160ff909116815260200161012e565b3480156101ee57600080fd5b506101b96101fd3660046112bc565b610677565b34801561020e57600080fd5b5061022261021d366004611322565b6106fb565b60405161012e919061133b565b34801561023b57600080fd5b5061017861024a3660046113cb565b6001600160a01b031660009081526020819052604090205490565b34801561027157600080fd5b506101b96102803660046113e6565b610865565b34801561029157600080fd5b506101b96102a0366004611437565b610b9b565b3480156102b157600080fd5b50610121604051806040016040528060048152602001635041535360e01b81525081565b3480156102e157600080fd5b506101576102f03660046112bc565b610da7565b34801561030157600080fd5b506101786103103660046114fb565b6001600160a01b03918216600090815260016020908152604080832093909416825291909152205490565b34801561034757600080fd5b506101b96103563660046113e6565b610e59565b3360008181526001602090815260408083206001600160a01b038716808552925280832085905551919290917f8c5be1e5ebec7d5bd14f71427d1e84f3dd0314c0f7b2291e5b200ac8c7c3b925906103b69086815260200190565b60405180910390a350600192915050565b6001600160a01b0383166000908152602081905260408120548211156103ec57600080fd5b6001600160a01b038416600090815260016020908152604080832033845290915290205482111561041c57600080fd5b6001600160a01b038416600090815260208190526040902054610440908390611544565b6001600160a01b038516600090815260208181526040808320939093556001815282822033835290522054610476908390611544565b6001600160a01b03808616600090815260016020908152604080832033845282528083209490945591861681529081905220546104b490839061155b565b6001600160a01b038481166000818152602081815260409182902094909455518581529092918716917fddf252ad1be2c89b69c2b068fc378daa952ba7f163c4a11628f55a4df523b3ef910160405180910390a35060019392505050565b60008181526004602081815260408084208151610120810183528154815260018201549381019390935260028101549183019190915260038101546001600160a01b03166060830152918201805491929160808401919061057290611573565b80601f016020809104026020016040519081016040528092919081815260200182805461059e90611573565b80156105eb5780601f106105c0576101008083540402835291602001916105eb565b820191906000526020600020905b8154815290600101906020018083116105ce57829003601f168201915b505050505081526020016005820154815260200160068201548152602001600782015481526020016008820154815250509050600081606001519050806001600160a01b03166108fc8361010001518460e00151610649919061155b565b6040518115909202916000818181858888f19350505050158015610671573d6000803e3d6000fd5b50505050565b3360009081526020819052604090205481111561069357600080fd5b336000908152602081905260409020546106ae90829061155b565b33600090815260208190526040808220929092556001600160a01b038416815220546106db908290611544565b6001600160a01b0390921660009081526020819052604090209190915550565b61075360405180610120016040528060008152602001600081526020016000815260200160006001600160a01b0316815260200160608152602001600081526020016000815260200160008152602001600081525090565b6000828152600460208181526040928390208351610120810185528154815260018201549281019290925260028101549382019390935260038301546001600160a01b0316606082015290820180549192916080840191906107b490611573565b80601f01602080910402602001604051908101604052809291908181526020018280546107e090611573565b801561082d5780601f106108025761010080835404028352916020019161082d565b820191906000526020600020905b81548152906001019060200180831161081057829003601f168201915b505050505081526020016005820154815260200160068201548152602001600782015481526020016008820154815250509050919050565b60008381526004602081815260408084208151610120810183528154815260018201549381019390935260028101549183019190915260038101546001600160a01b0316606083015291820180549192916080840191906108c590611573565b80601f01602080910402602001604051908101604052809291908181526020018280546108f190611573565b801561093e5780601f106109135761010080835404028352916020019161093e565b820191906000526020600020905b81548152906001019060200180831161092157829003601f168201915b50505050508152602001600582015481526020016006820154815260200160078201548152602001600882015481525050905060018160a0018181516109849190611544565b90525060008581526005602052604090208054829190859081106109aa576109aa6115ad565b60009182526020918290208351600992909202019081558282015160018201556040830151600282015560608301516003820180546001600160a01b0319166001600160a01b03909216919091179055608083015180519192610a15926004850192909101906111a0565b5060a0820151816005015560c0820151816006015560e08201518160070155610100820151816008015590505080600660008881526020019081526020016000208381548110610a6757610a676115ad565b60009182526020918290208351600992909202019081558282015160018201556040830151600282015560608301516003820180546001600160a01b0319166001600160a01b03909216919091179055608083015180519192610ad2926004850192909101906111a0565b5060a0820151600582015560c0820151600682015560e082015160078201556101009091015160089091015580516000908152600460208181526040928390208451815581850151600182015592840151600284015560608401516003840180546001600160a01b0319166001600160a01b0390921691909117905560808401518051859493610b67939085019201906111a0565b5060a0820151600582015560c0820151600682015560e0820151600782015561010090910151600890910155505050505050565b60005b8251811015610da257600060056000858481518110610bbf57610bbf6115ad565b60200260200101518152602001908152602001600020805480602002602001604051908101604052809291908181526020016000905b82821015610d175760008481526020908190206040805161012081018252600986029092018054835260018101549383019390935260028301549082015260038201546001600160a01b03166060820152600482018054919291608084019190610c5e90611573565b80601f0160208091040260200160405190810160405280929190818152602001828054610c8a90611573565b8015610cd75780601f10610cac57610100808354040283529160200191610cd7565b820191906000526020600020905b815481529060010190602001808311610cba57829003601f168201915b5050505050815260200160058201548152602001600682015481526020016007820154815260200160088201548152505081526020019060010190610bf5565b50505050905060005b8151811015610d8d5783828281518110610d3c57610d3c6115ad565b60200260200101516040015103610d7b57610d75828281518110610d6257610d626115ad565b6020026020010151606001516001610da7565b50610d8d565b80610d85816115c3565b915050610d20565b50508080610d9a906115c3565b915050610b9e565b505050565b33600090815260208190526040812054821115610dc357600080fd5b33600090815260208190526040902054610dde908390611544565b33600090815260208190526040808220929092556001600160a01b03851681522054610e0b90839061155b565b6001600160a01b038416600081815260208181526040918290209390935551848152909133917fddf252ad1be2c89b69c2b068fc378daa952ba7f163c4a11628f55a4df523b3ef91016103b6565b60008381526004602081815260408084208151610120810183528154815260018201549381019390935260028101549183019190915260038101546001600160a01b031660608301529182018054919291608084019190610eb990611573565b80601f0160208091040260200160405190810160405280929190818152602001828054610ee590611573565b8015610f325780601f10610f0757610100808354040283529160200191610f32565b820191906000526020600020905b815481529060010190602001808311610f1557829003601f168201915b50505050508152602001600582015481526020016006820154815260200160078201548152602001600882015481525050905060018160a001818151610f78919061155b565b9052506000858152600560205260409020805482919085908110610f9e57610f9e6115ad565b60009182526020918290208351600992909202019081558282015160018201556040830151600282015560608301516003820180546001600160a01b0319166001600160a01b03909216919091179055608083015180519192611009926004850192909101906111a0565b5060a0820151816005015560c0820151816006015560e0820151816007015561010082015181600801559050508060066000888152602001908152602001600020838154811061105b5761105b6115ad565b60009182526020918290208351600992909202019081558282015160018201556040830151600282015560608301516003820180546001600160a01b0319166001600160a01b039092169190911790556080830151805191926110c6926004850192909101906111a0565b5060a0820151600582015560c0820151600682015560e082015160078201556101009091015160089091015580516000908152600460208181526040928390208451815581850151600182015592840151600284015560608401516003840180546001600160a01b0319166001600160a01b039092169190911790556080840151805185949361115b939085019201906111a0565b5060a0820151600582015560c0820151600682015560e08201516007820155610100909101516008909101556060810151611197816001610677565b50505050505050565b8280546111ac90611573565b90600052602060002090601f0160209004810192826111ce5760008555611214565b82601f106111e757805160ff1916838001178555611214565b82800160010185558215611214579182015b828111156112145782518255916020019190600101906111f9565b50611220929150611224565b5090565b5b808211156112205760008155600101611225565b6000815180845260005b8181101561125f57602081850181015186830182015201611243565b81811115611271576000602083870101525b50601f01601f19169290920160200192915050565b6020815260006112996020830184611239565b9392505050565b80356001600160a01b03811681146112b757600080fd5b919050565b600080604083850312156112cf57600080fd5b6112d8836112a0565b946020939093013593505050565b6000806000606084860312156112fb57600080fd5b611304846112a0565b9250611312602085016112a0565b9150604084013590509250925092565b60006020828403121561133457600080fd5b5035919050565b602081528151602082015260208201516040820152604082015160608201526000606083015161137660808401826001600160a01b03169052565b5060808301516101208060a0850152611393610140850183611239565b915060a085015160c085015260c085015160e085015260e0850151610100818187015280870151838701525050508091505092915050565b6000602082840312156113dd57600080fd5b611299826112a0565b600080600080600060a086880312156113fe57600080fd5b505083359560208501359550604085013594606081013594506080013592509050565b634e487b7160e01b600052604160045260246000fd5b6000806040838503121561144a57600080fd5b823567ffffffffffffffff8082111561146257600080fd5b818501915085601f83011261147657600080fd5b813560208282111561148a5761148a611421565b8160051b604051601f19603f830116810181811086821117156114af576114af611421565b6040529283528183019350848101820192898411156114cd57600080fd5b948201945b838610156114eb578535855294820194938201936114d2565b9997909101359750505050505050565b6000806040838503121561150e57600080fd5b611517836112a0565b9150611525602084016112a0565b90509250929050565b634e487b7160e01b600052601160045260246000fd5b6000828210156115565761155661152e565b500390565b6000821982111561156e5761156e61152e565b500190565b600181811c9082168061158757607f821691505b6020821081036115a757634e487b7160e01b600052602260045260246000fd5b50919050565b634e487b7160e01b600052603260045260246000fd5b6000600182016115d5576115d561152e565b506001019056fea26469706673582212205ab208e09cbef87b88546c814ad5207af8ca31c546eecdd198e3fe3e6279047864736f6c634300080e0033",
  "immutableReferences": {},
  "source": "// SPDX-License-Identifier: MIT\r\npragma solidity ^0.8.0;\r\npragma abicoder v2;\r\n\r\nimport \"./PassCoinContract.sol\";\r\n\r\ncontract ChallengerContract is PassCoinContract{\r\n    struct Challenger {\r\n        // pk\r\n        uint id;\r\n        // , fk\r\n        uint userId;\r\n        uint challengeId;\r\n\r\n        //  \r\n        address userAddress;\r\n\r\n        //       \r\n        string today;\r\n\r\n        //  ,  \r\n        uint totalCount;\r\n        uint dailyCount;\r\n\r\n        //  \r\n        uint userDeposit;\r\n\r\n        // \r\n        uint reward;\r\n    }\r\n\r\n    uint challengerSequence=1;\r\n    mapping(uint => Challenger) challengerMap;\r\n\r\n    //  \r\n    mapping(uint => Challenger[]) findByUserIdChallenger;\r\n    mapping(uint => Challenger[]) findByChallengeIdChallenger;\r\n\r\n    function findByChallengerId(uint challengerId) public view returns(Challenger memory){\r\n        return challengerMap[challengerId];\r\n    }\r\n    \r\n    // \r\n    function refund(uint challengerId) public payable{\r\n        Challenger memory challenger=challengerMap[challengerId];\r\n       \r\n        address userAddress=challenger.userAddress;\r\n        payable(userAddress).transfer(challenger.userDeposit+challenger.reward);\r\n    }\r\n\r\n    //   \r\n    function usePasscoin(uint challengeId,uint userId,uint challengerId,uint userIdIndex,uint challengeIdIndex) public{\r\n        Challenger memory findChallenger=challengerMap[challengerId];\r\n\r\n        findChallenger.totalCount+=1;\r\n\r\n        //  \r\n        findByUserIdChallenger[userId][userIdIndex]=findChallenger;\r\n        findByChallengeIdChallenger[challengeId][challengeIdIndex]=findChallenger;\r\n        challengerMap[findChallenger.id]=findChallenger;\r\n\r\n        address userAddress=findChallenger.userAddress;\r\n        useCoin(userAddress,1);\r\n    }\r\n    \r\n\r\n    // \r\n    function applyVoteResult(uint challengeId,uint userId,uint challengerId,uint userIdIndex,uint challengeIdIndex) public{\r\n \r\n        Challenger memory findChallenger=challengerMap[challengerId];\r\n\r\n        findChallenger.totalCount-=1;\r\n\r\n        //  \r\n        findByUserIdChallenger[userId][userIdIndex]=findChallenger;\r\n        findByChallengeIdChallenger[challengeId][challengeIdIndex]=findChallenger;\r\n        challengerMap[findChallenger.id]=findChallenger;\r\n    }\r\n    //  \r\n    function receivePasscoin(uint[] memory userIdList,uint challengeId) public{\r\n        /*    */\r\n        for (uint256 i = 0; i < userIdList.length; i++) {\r\n            Challenger[] memory challengers = findByUserIdChallenger[userIdList[i]];            \r\n            for(uint j=0;j<challengers.length;j++){\r\n                if(challengers[j].challengeId==challengeId){\r\n                    transfer(challengers[j].userAddress, 1);\r\n                    break;\r\n                }\r\n            }\r\n        }\r\n    }\r\n}\r\n",
  "sourcePath": "c:\\Users\\multicampus\\Desktop\\ssafy\\S07P22B106\\truffle\\contracts\\ChallengerContract.sol",
  "compiler": {
    "name": "solc",
    "version": "0.8.14+commit.80d49f37.Emscripten.clang"
  },
  "schemaVersion": "3.4.10",
  "updatedAt": "2022-09-30T07:13:34.947Z",
  "devdoc": {
    "kind": "dev",
    "methods": {},
    "version": 1
  },
  "userdoc": {
    "kind": "user",
    "methods": {},
    "version": 1
  }
}