{
  "contractName": "ChallengeContract",
  "abi": [
    {
      "anonymous": false,
      "inputs": [
        {
          "indexed": true,
          "internalType": "address",
          "name": "owner",
          "type": "address"
        },
        {
          "indexed": true,
          "internalType": "address",
          "name": "spender",
          "type": "address"
        },
        {
          "indexed": false,
          "internalType": "uint256",
          "name": "value",
          "type": "uint256"
        }
      ],
      "name": "Approval",
      "type": "event"
    },
    {
      "anonymous": false,
      "inputs": [
        {
          "indexed": true,
          "internalType": "address",
          "name": "from",
          "type": "address"
        },
        {
          "indexed": true,
          "internalType": "address",
          "name": "to",
          "type": "address"
        },
        {
          "indexed": false,
          "internalType": "uint256",
          "name": "value",
          "type": "uint256"
        }
      ],
      "name": "Transfer",
      "type": "event"
    },
    {
      "inputs": [
        {
          "components": [
            {
              "internalType": "uint256",
              "name": "id",
              "type": "uint256"
            },
            {
              "internalType": "string",
              "name": "name",
              "type": "string"
            },
            {
              "internalType": "address",
              "name": "donationAddress",
              "type": "address"
            },
            {
              "internalType": "string",
              "name": "donationURL",
              "type": "string"
            }
          ],
          "internalType": "struct DonationContract.Donation",
          "name": "donation",
          "type": "tuple"
        }
      ],
      "name": "addDonation",
      "outputs": [],
      "stateMutability": "nonpayable",
      "type": "function"
    },
    {
      "inputs": [
        {
          "internalType": "address",
          "name": "owner",
          "type": "address"
        },
        {
          "internalType": "address",
          "name": "delegate",
          "type": "address"
        }
      ],
      "name": "allowance",
      "outputs": [
        {
          "internalType": "uint256",
          "name": "",
          "type": "uint256"
        }
      ],
      "stateMutability": "view",
      "type": "function",
      "constant": true
    },
    {
      "inputs": [
        {
          "internalType": "uint256",
          "name": "challengeId",
          "type": "uint256"
        },
        {
          "internalType": "uint256",
          "name": "userId",
          "type": "uint256"
        },
        {
          "internalType": "uint256",
          "name": "challengerId",
          "type": "uint256"
        },
        {
          "internalType": "uint256",
          "name": "userIdIndex",
          "type": "uint256"
        },
        {
          "internalType": "uint256",
          "name": "challengeIdIndex",
          "type": "uint256"
        }
      ],
      "name": "applyVoteResult",
      "outputs": [],
      "stateMutability": "nonpayable",
      "type": "function"
    },
    {
      "inputs": [
        {
          "internalType": "address",
          "name": "delegate",
          "type": "address"
        },
        {
          "internalType": "uint256",
          "name": "numTokens",
          "type": "uint256"
        }
      ],
      "name": "approve",
      "outputs": [
        {
          "internalType": "bool",
          "name": "",
          "type": "bool"
        }
      ],
      "stateMutability": "nonpayable",
      "type": "function"
    },
    {
      "inputs": [
        {
          "internalType": "address",
          "name": "tokenOwner",
          "type": "address"
        }
      ],
      "name": "balanceOf",
      "outputs": [
        {
          "internalType": "uint256",
          "name": "",
          "type": "uint256"
        }
      ],
      "stateMutability": "view",
      "type": "function",
      "constant": true
    },
    {
      "inputs": [
        {
          "components": [
            {
              "internalType": "uint256",
              "name": "challengeId",
              "type": "uint256"
            },
            {
              "internalType": "uint256",
              "name": "interestId",
              "type": "uint256"
            },
            {
              "internalType": "uint256",
              "name": "ownerId",
              "type": "uint256"
            },
            {
              "internalType": "string",
              "name": "name",
              "type": "string"
            },
            {
              "internalType": "string",
              "name": "desc",
              "type": "string"
            },
            {
              "internalType": "string",
              "name": "mainPicURL",
              "type": "string"
            },
            {
              "internalType": "string",
              "name": "goodPicURL",
              "type": "string"
            },
            {
              "internalType": "string",
              "name": "badPicURL",
              "type": "string"
            },
            {
              "internalType": "uint256",
              "name": "authTotalTimes",
              "type": "uint256"
            },
            {
              "internalType": "uint256",
              "name": "authDayTimes",
              "type": "uint256"
            },
            {
              "internalType": "int256",
              "name": "startTime",
              "type": "int256"
            },
            {
              "internalType": "int256",
              "name": "endTime",
              "type": "int256"
            },
            {
              "internalType": "string",
              "name": "startDate",
              "type": "string"
            },
            {
              "internalType": "string",
              "name": "endDate",
              "type": "string"
            },
            {
              "internalType": "uint256",
              "name": "personnel",
              "type": "uint256"
            },
            {
              "internalType": "uint256",
              "name": "deposit",
              "type": "uint256"
            },
            {
              "internalType": "uint256",
              "name": "totalDeposit",
              "type": "uint256"
            },
            {
              "internalType": "bool",
              "name": "complete",
              "type": "bool"
            }
          ],
          "internalType": "struct DailyChallengeContract.DailyChallenge",
          "name": "dailyChallenge",
          "type": "tuple"
        }
      ],
      "name": "createDailyChallenge",
      "outputs": [],
      "stateMutability": "payable",
      "type": "function",
      "payable": true
    },
    {
      "inputs": [
        {
          "components": [
            {
              "internalType": "uint256",
              "name": "challengeId",
              "type": "uint256"
            },
            {
              "internalType": "uint256",
              "name": "interestId",
              "type": "uint256"
            },
            {
              "internalType": "uint256",
              "name": "ownerId",
              "type": "uint256"
            },
            {
              "internalType": "uint256",
              "name": "donationId",
              "type": "uint256"
            },
            {
              "internalType": "string",
              "name": "name",
              "type": "string"
            },
            {
              "internalType": "string",
              "name": "desc",
              "type": "string"
            },
            {
              "internalType": "uint256",
              "name": "setDonaion",
              "type": "uint256"
            },
            {
              "internalType": "string",
              "name": "mainPicURL",
              "type": "string"
            },
            {
              "internalType": "string",
              "name": "goodPicURL",
              "type": "string"
            },
            {
              "internalType": "string",
              "name": "badPicURL",
              "type": "string"
            },
            {
              "internalType": "uint256",
              "name": "authTotalTimes",
              "type": "uint256"
            },
            {
              "internalType": "uint256",
              "name": "authDayTimes",
              "type": "uint256"
            },
            {
              "internalType": "uint256",
              "name": "startTime",
              "type": "uint256"
            },
            {
              "internalType": "uint256",
              "name": "endTime",
              "type": "uint256"
            },
            {
              "internalType": "string",
              "name": "startDate",
              "type": "string"
            },
            {
              "internalType": "string",
              "name": "endDate",
              "type": "string"
            },
            {
              "internalType": "uint256",
              "name": "personnel",
              "type": "uint256"
            },
            {
              "internalType": "uint256",
              "name": "totalDonation",
              "type": "uint256"
            },
            {
              "internalType": "bool",
              "name": "complete",
              "type": "bool"
            },
            {
              "internalType": "bool",
              "name": "success",
              "type": "bool"
            }
          ],
          "internalType": "struct DonationChallengeContract.DonationChallenge",
          "name": "donationChallenge",
          "type": "tuple"
        }
      ],
      "name": "createDonationChallenge",
      "outputs": [],
      "stateMutability": "payable",
      "type": "function",
      "payable": true
    },
    {
      "inputs": [],
      "name": "decimals",
      "outputs": [
        {
          "internalType": "uint8",
          "name": "",
          "type": "uint8"
        }
      ],
      "stateMutability": "view",
      "type": "function",
      "constant": true
    },
    {
      "inputs": [
        {
          "internalType": "uint256",
          "name": "challengeId",
          "type": "uint256"
        }
      ],
      "name": "endDailyChallenge",
      "outputs": [],
      "stateMutability": "nonpayable",
      "type": "function"
    },
    {
      "inputs": [
        {
          "internalType": "uint256",
          "name": "challengeId",
          "type": "uint256"
        }
      ],
      "name": "endDonationChallenge",
      "outputs": [],
      "stateMutability": "payable",
      "type": "function",
      "payable": true
    },
    {
      "inputs": [],
      "name": "getAllDonation",
      "outputs": [
        {
          "components": [
            {
              "internalType": "uint256",
              "name": "id",
              "type": "uint256"
            },
            {
              "internalType": "string",
              "name": "name",
              "type": "string"
            },
            {
              "internalType": "address",
              "name": "donationAddress",
              "type": "address"
            },
            {
              "internalType": "string",
              "name": "donationURL",
              "type": "string"
            }
          ],
          "internalType": "struct DonationContract.Donation[]",
          "name": "",
          "type": "tuple[]"
        }
      ],
      "stateMutability": "view",
      "type": "function",
      "constant": true
    },
    {
      "inputs": [],
      "name": "name",
      "outputs": [
        {
          "internalType": "string",
          "name": "",
          "type": "string"
        }
      ],
      "stateMutability": "view",
      "type": "function",
      "constant": true
    },
    {
      "inputs": [
        {
          "internalType": "uint256[]",
          "name": "userIdList",
          "type": "uint256[]"
        }
      ],
      "name": "receivePasscoin",
      "outputs": [],
      "stateMutability": "nonpayable",
      "type": "function"
    },
    {
      "inputs": [
        {
          "internalType": "uint256",
          "name": "challengerId",
          "type": "uint256"
        }
      ],
      "name": "refund",
      "outputs": [],
      "stateMutability": "payable",
      "type": "function",
      "payable": true
    },
    {
      "inputs": [],
      "name": "symbol",
      "outputs": [
        {
          "internalType": "string",
          "name": "",
          "type": "string"
        }
      ],
      "stateMutability": "view",
      "type": "function",
      "constant": true
    },
    {
      "inputs": [],
      "name": "totalSupply",
      "outputs": [
        {
          "internalType": "uint256",
          "name": "",
          "type": "uint256"
        }
      ],
      "stateMutability": "view",
      "type": "function",
      "constant": true
    },
    {
      "inputs": [
        {
          "internalType": "address",
          "name": "receiver",
          "type": "address"
        },
        {
          "internalType": "uint256",
          "name": "numTokens",
          "type": "uint256"
        }
      ],
      "name": "transfer",
      "outputs": [
        {
          "internalType": "bool",
          "name": "",
          "type": "bool"
        }
      ],
      "stateMutability": "nonpayable",
      "type": "function"
    },
    {
      "inputs": [
        {
          "internalType": "address",
          "name": "owner",
          "type": "address"
        },
        {
          "internalType": "address",
          "name": "buyer",
          "type": "address"
        },
        {
          "internalType": "uint256",
          "name": "numTokens",
          "type": "uint256"
        }
      ],
      "name": "transferFrom",
      "outputs": [
        {
          "internalType": "bool",
          "name": "",
          "type": "bool"
        }
      ],
      "stateMutability": "nonpayable",
      "type": "function"
    },
    {
      "inputs": [
        {
          "internalType": "address",
          "name": "user",
          "type": "address"
        },
        {
          "internalType": "uint256",
          "name": "numTokens",
          "type": "uint256"
        }
      ],
      "name": "useCoin",
      "outputs": [],
      "stateMutability": "nonpayable",
      "type": "function"
    },
    {
      "inputs": [
        {
          "internalType": "uint256",
          "name": "challengeId",
          "type": "uint256"
        },
        {
          "internalType": "uint256",
          "name": "userId",
          "type": "uint256"
        },
        {
          "internalType": "uint256",
          "name": "challengerId",
          "type": "uint256"
        },
        {
          "internalType": "uint256",
          "name": "userIdIndex",
          "type": "uint256"
        },
        {
          "internalType": "uint256",
          "name": "challengeIdIndex",
          "type": "uint256"
        }
      ],
      "name": "usePasscoin",
      "outputs": [],
      "stateMutability": "nonpayable",
      "type": "function"
    },
    {
      "inputs": [],
      "name": "getAllChallenge",
      "outputs": [
        {
          "internalType": "uint256[]",
          "name": "",
          "type": "uint256[]"
        },
        {
          "internalType": "uint256[]",
          "name": "",
          "type": "uint256[]"
        },
        {
          "components": [
            {
              "internalType": "uint256",
              "name": "challengeId",
              "type": "uint256"
            },
            {
              "internalType": "uint256",
              "name": "interestId",
              "type": "uint256"
            },
            {
              "internalType": "uint256",
              "name": "ownerId",
              "type": "uint256"
            },
            {
              "internalType": "string",
              "name": "name",
              "type": "string"
            },
            {
              "internalType": "string",
              "name": "desc",
              "type": "string"
            },
            {
              "internalType": "string",
              "name": "mainPicURL",
              "type": "string"
            },
            {
              "internalType": "string",
              "name": "goodPicURL",
              "type": "string"
            },
            {
              "internalType": "string",
              "name": "badPicURL",
              "type": "string"
            },
            {
              "internalType": "uint256",
              "name": "authTotalTimes",
              "type": "uint256"
            },
            {
              "internalType": "uint256",
              "name": "authDayTimes",
              "type": "uint256"
            },
            {
              "internalType": "int256",
              "name": "startTime",
              "type": "int256"
            },
            {
              "internalType": "int256",
              "name": "endTime",
              "type": "int256"
            },
            {
              "internalType": "string",
              "name": "startDate",
              "type": "string"
            },
            {
              "internalType": "string",
              "name": "endDate",
              "type": "string"
            },
            {
              "internalType": "uint256",
              "name": "personnel",
              "type": "uint256"
            },
            {
              "internalType": "uint256",
              "name": "deposit",
              "type": "uint256"
            },
            {
              "internalType": "uint256",
              "name": "totalDeposit",
              "type": "uint256"
            },
            {
              "internalType": "bool",
              "name": "complete",
              "type": "bool"
            }
          ],
          "internalType": "struct DailyChallengeContract.DailyChallenge[]",
          "name": "",
          "type": "tuple[]"
        },
        {
          "components": [
            {
              "internalType": "uint256",
              "name": "challengeId",
              "type": "uint256"
            },
            {
              "internalType": "uint256",
              "name": "interestId",
              "type": "uint256"
            },
            {
              "internalType": "uint256",
              "name": "ownerId",
              "type": "uint256"
            },
            {
              "internalType": "uint256",
              "name": "donationId",
              "type": "uint256"
            },
            {
              "internalType": "string",
              "name": "name",
              "type": "string"
            },
            {
              "internalType": "string",
              "name": "desc",
              "type": "string"
            },
            {
              "internalType": "uint256",
              "name": "setDonaion",
              "type": "uint256"
            },
            {
              "internalType": "string",
              "name": "mainPicURL",
              "type": "string"
            },
            {
              "internalType": "string",
              "name": "goodPicURL",
              "type": "string"
            },
            {
              "internalType": "string",
              "name": "badPicURL",
              "type": "string"
            },
            {
              "internalType": "uint256",
              "name": "authTotalTimes",
              "type": "uint256"
            },
            {
              "internalType": "uint256",
              "name": "authDayTimes",
              "type": "uint256"
            },
            {
              "internalType": "uint256",
              "name": "startTime",
              "type": "uint256"
            },
            {
              "internalType": "uint256",
              "name": "endTime",
              "type": "uint256"
            },
            {
              "internalType": "string",
              "name": "startDate",
              "type": "string"
            },
            {
              "internalType": "string",
              "name": "endDate",
              "type": "string"
            },
            {
              "internalType": "uint256",
              "name": "personnel",
              "type": "uint256"
            },
            {
              "internalType": "uint256",
              "name": "totalDonation",
              "type": "uint256"
            },
            {
              "internalType": "bool",
              "name": "complete",
              "type": "bool"
            },
            {
              "internalType": "bool",
              "name": "success",
              "type": "bool"
            }
          ],
          "internalType": "struct DonationChallengeContract.DonationChallenge[]",
          "name": "",
          "type": "tuple[]"
        }
      ],
      "stateMutability": "nonpayable",
      "type": "function"
    },
    {
      "inputs": [
        {
          "internalType": "uint256",
          "name": "challengeId",
          "type": "uint256"
        },
        {
          "internalType": "uint256",
          "name": "userId",
          "type": "uint256"
        },
        {
          "internalType": "string",
          "name": "today",
          "type": "string"
        }
      ],
      "name": "joinChallenge",
      "outputs": [],
      "stateMutability": "payable",
      "type": "function",
      "payable": true
    },
    {
      "inputs": [
        {
          "internalType": "uint256",
          "name": "userId",
          "type": "uint256"
        }
      ],
      "name": "getMyChallenge",
      "outputs": [
        {
          "internalType": "uint256[]",
          "name": "",
          "type": "uint256[]"
        },
        {
          "internalType": "uint256[]",
          "name": "",
          "type": "uint256[]"
        }
      ],
      "stateMutability": "view",
      "type": "function",
      "constant": true
    },
    {
      "inputs": [
        {
          "internalType": "uint256",
          "name": "challengeId",
          "type": "uint256"
        },
        {
          "internalType": "uint256",
          "name": "userId",
          "type": "uint256"
        }
      ],
      "name": "findingChallenger",
      "outputs": [
        {
          "internalType": "uint256",
          "name": "",
          "type": "uint256"
        },
        {
          "internalType": "uint256",
          "name": "",
          "type": "uint256"
        },
        {
          "internalType": "uint256",
          "name": "",
          "type": "uint256"
        }
      ],
      "stateMutability": "view",
      "type": "function",
      "constant": true
    },
    {
      "inputs": [
        {
          "internalType": "uint256",
          "name": "challengeId",
          "type": "uint256"
        },
        {
          "internalType": "uint256",
          "name": "userId",
          "type": "uint256"
        },
        {
          "internalType": "uint256",
          "name": "challengerId",
          "type": "uint256"
        },
        {
          "internalType": "uint256",
          "name": "userIdIndex",
          "type": "uint256"
        },
        {
          "internalType": "uint256",
          "name": "challengeIdIndex",
          "type": "uint256"
        },
        {
          "internalType": "string",
          "name": "today",
          "type": "string"
        }
      ],
      "name": "authenticate",
      "outputs": [],
      "stateMutability": "nonpayable",
      "type": "function"
    },
    {
      "inputs": [
        {
          "internalType": "uint256",
          "name": "challengeId",
          "type": "uint256"
        }
      ],
      "name": "getChallengers",
      "outputs": [
        {
          "components": [
            {
              "internalType": "uint256",
              "name": "id",
              "type": "uint256"
            },
            {
              "internalType": "uint256",
              "name": "userId",
              "type": "uint256"
            },
            {
              "internalType": "uint256",
              "name": "challengeId",
              "type": "uint256"
            },
            {
              "internalType": "address",
              "name": "userAddress",
              "type": "address"
            },
            {
              "internalType": "string",
              "name": "today",
              "type": "string"
            },
            {
              "internalType": "uint256",
              "name": "totalCount",
              "type": "uint256"
            },
            {
              "internalType": "uint256",
              "name": "dailyCount",
              "type": "uint256"
            },
            {
              "internalType": "uint256",
              "name": "userDeposit",
              "type": "uint256"
            },
            {
              "internalType": "uint256",
              "name": "reward",
              "type": "uint256"
            }
          ],
          "internalType": "struct ChallengerContract.Challenger[]",
          "name": "",
          "type": "tuple[]"
        }
      ],
      "stateMutability": "view",
      "type": "function",
      "constant": true
    },
    {
      "inputs": [
        {
          "internalType": "uint256",
          "name": "userId",
          "type": "uint256"
        }
      ],
      "name": "getChallengersByUserId",
      "outputs": [
        {
          "components": [
            {
              "internalType": "uint256",
              "name": "id",
              "type": "uint256"
            },
            {
              "internalType": "uint256",
              "name": "userId",
              "type": "uint256"
            },
            {
              "internalType": "uint256",
              "name": "challengeId",
              "type": "uint256"
            },
            {
              "internalType": "address",
              "name": "userAddress",
              "type": "address"
            },
            {
              "internalType": "string",
              "name": "today",
              "type": "string"
            },
            {
              "internalType": "uint256",
              "name": "totalCount",
              "type": "uint256"
            },
            {
              "internalType": "uint256",
              "name": "dailyCount",
              "type": "uint256"
            },
            {
              "internalType": "uint256",
              "name": "userDeposit",
              "type": "uint256"
            },
            {
              "internalType": "uint256",
              "name": "reward",
              "type": "uint256"
            }
          ],
          "internalType": "struct ChallengerContract.Challenger[]",
          "name": "",
          "type": "tuple[]"
        }
      ],
      "stateMutability": "view",
      "type": "function",
      "constant": true
    }
  ],
  "bytecode": "0x60806040526305f5e100600255600160035560016007556001600a5534801561002757600080fd5b50600254336000908152602081905260409020556155cc806200004b6000396000f3fe60806040526004361061019c5760003560e01c8063740c162a116100ec578063b098d41a1161008a578063d60cdc2911610064578063d60cdc29146104f2578063dd62ed3e14610512578063e76ba25114610558578063f5a802451461056b57600080fd5b8063b098d41a1461049f578063bc380364146104b2578063c78a57b9146104d257600080fd5b806398e3a3e9116100c657806398e3a3e9146104125780639d4e1c1c1461043f578063a8cfc2661461045f578063a9059cbb1461047f57600080fd5b8063740c162a1461039457806376744980146103b457806395d89b41146103e257600080fd5b8063313ce567116101595780634babd366116101335780634babd366146102ee57806352e9a1a0146103295780636a5e4c9e1461034b57806370a082311461035e57600080fd5b8063313ce567146102825780633f711851146102a95780634a91c578146102c957600080fd5b806306fdde03146101a1578063095ea7b3146101eb57806318160ddd1461021b5780631dc834a71461023a57806323b872dd1461024f578063278ecde11461026f575b600080fd5b3480156101ad57600080fd5b506101d5604051806040016040528060088152602001672830b9b9a1b7b4b760c11b81525081565b6040516101e29190614661565b60405180910390f35b3480156101f757600080fd5b5061020b610206366004614697565b61058b565b60405190151581526020016101e2565b34801561022757600080fd5b506002545b6040519081526020016101e2565b61024d6102483660046147f4565b6105f7565b005b34801561025b57600080fd5b5061020b61026a3660046149e3565b6109af565b61024d61027d366004614a1f565b610afa565b34801561028e57600080fd5b50610297600081565b60405160ff90911681526020016101e2565b3480156102b557600080fd5b5061024d6102c4366004614697565b610c5f565b3480156102d557600080fd5b506102de610ce3565b6040516101e29493929190614c1c565b3480156102fa57600080fd5b5061030e610309366004614dec565b611c42565b604080519384526020840192909252908201526060016101e2565b34801561033557600080fd5b5061033e611d1e565b6040516101e29190614e0e565b61024d610359366004614eb4565b611f6c565b34801561036a57600080fd5b5061022c610379366004615071565b6001600160a01b031660009081526020819052604090205490565b3480156103a057600080fd5b5061024d6103af36600461508c565b612180565b3480156103c057600080fd5b506103d46103cf366004614a1f565b6124b6565b6040516101e29291906150c7565b3480156103ee57600080fd5b506101d5604051806040016040528060048152602001635041535360e01b81525081565b34801561041e57600080fd5b5061043261042d366004614a1f565b6127ac565b6040516101e291906150f5565b34801561044b57600080fd5b5061024d61045a3660046151b9565b61290e565b34801561046b57600080fd5b5061024d61047a366004615224565b612d0e565b34801561048b57600080fd5b5061020b61049a366004614697565b612ea5565b61024d6104ad366004614a1f565b612f57565b3480156104be57600080fd5b506104326104cd366004614a1f565b61335e565b3480156104de57600080fd5b5061024d6104ed366004614a1f565b6134b5565b3480156104fe57600080fd5b5061024d61050d3660046152c9565b613e63565b34801561051e57600080fd5b5061022c61052d366004615374565b6001600160a01b03918216600090815260016020908152604080832093909416825291909152205490565b61024d6105663660046153a7565b613ef1565b34801561057757600080fd5b5061024d61058636600461508c565b614134565b3360008181526001602090815260408083206001600160a01b038716808552925280832085905551919290917f8c5be1e5ebec7d5bd14f71427d1e84f3dd0314c0f7b2291e5b200ac8c7c3b925906105e69086815260200190565b60405180910390a350600192915050565b600754815260c081018051670de0b6b3a7640000919061061890839061540c565b90525061022081018051670de0b6b3a7640000919061063890839061540c565b905250600780548291600c91600091826106518361542b565b9190505581526020019081526020016000206000820151816000015560208201518160010155604082015181600201556060820151816003015560808201518160040190805190602001906106a79291906144f5565b5060a082015180516106c39160058401916020909101906144f5565b5060c0820151600682015560e082015180516106e99160078401916020909101906144f5565b5061010082015180516107069160088401916020909101906144f5565b5061012082015180516107239160098401916020909101906144f5565b50610140820151600a820155610160820151600b820155610180820151600c8201556101a0820151600d8201556101c0820151805161076c91600e8401916020909101906144f5565b506101e0820151805161078991600f8401916020909101906144f5565b5061020082015160108201556102208201516011820155610240820151601290910180546102609093015115156101000261ff00199215159290921661ffff1990931692909217179055600380546000818152600460208181526040928390209384559185015160018401558451600284015592820180546001600160a01b031916331790556101c08401518051929361082b939085019291909101906144f5565b5034600782015560408083015160009081526005602090815291812080546001818101835591835292909120835460099093020191825580830154908201556002808301549082015560038083015490820180546001600160a01b0319166001600160a01b0390921691909117905560048083018054849392830191906108b190615444565b6108bc929190614579565b5060058281015490820155600680830154818301556007808401549083015560089283015492909101919091558251600090815260209182526040812080546001818101835591835292909120835460099093020191825580830154908201556002808301549082015560038083015490820180546001600160a01b0319166001600160a01b03909216919091179055600480830180548493928301919061096390615444565b61096e929190614579565b50600582810154908201556006808301549082015560078083015490820155600891820154910155600380549060006109a68361542b565b91905055505050565b6001600160a01b0383166000908152602081905260408120548211156109d457600080fd5b6001600160a01b0384166000908152600160209081526040808320338452909152902054821115610a0457600080fd5b6001600160a01b038416600090815260208190526040902054610a28908390615478565b6001600160a01b038516600090815260208181526040808320939093556001815282822033835290522054610a5e908390615478565b6001600160a01b0380861660009081526001602090815260408083203384528252808320949094559186168152908190522054610a9c90839061548f565b6001600160a01b038481166000818152602081815260409182902094909455518581529092918716917fddf252ad1be2c89b69c2b068fc378daa952ba7f163c4a11628f55a4df523b3ef910160405180910390a35060019392505050565b60008181526004602081815260408084208151610120810183528154815260018201549381019390935260028101549183019190915260038101546001600160a01b031660608301529182018054919291608084019190610b5a90615444565b80601f0160208091040260200160405190810160405280929190818152602001828054610b8690615444565b8015610bd35780601f10610ba857610100808354040283529160200191610bd3565b820191906000526020600020905b815481529060010190602001808311610bb657829003601f168201915b505050505081526020016005820154815260200160068201548152602001600782015481526020016008820154815250509050600081606001519050806001600160a01b03166108fc8361010001518460e00151610c31919061548f565b6040518115909202916000818181858888f19350505050158015610c59573d6000803e3d6000fd5b50505050565b33600090815260208190526040902054811115610c7b57600080fd5b33600090815260208190526040902054610c9690829061548f565b33600090815260208190526040808220929092556001600160a01b03841681522054610cc3908290615478565b6001600160a01b0390921660009081526020819052604090209190915550565b606080808060015b60075481116111cb57610cfd81614472565b15610f3057600e805460018181019092557fbb7b4a454dc3493923482f07822329ed19e8244eff582cc204f8554c3620c3fd0182905560008281526008602052604081206009805480850182559252805460129092027f6e1540171b6c0c960b71a7020d9f60077f6af931a8bbf590da0223dacf75c7af8101928355928101547f6e1540171b6c0c960b71a7020d9f60077f6af931a8bbf590da0223dacf75c7b084015560028101547f6e1540171b6c0c960b71a7020d9f60077f6af931a8bbf590da0223dacf75c7b184015560038101805491937f6e1540171b6c0c960b71a7020d9f60077f6af931a8bbf590da0223dacf75c7b20191610dfe90615444565b610e09929190614579565b506004820181600401908054610e1e90615444565b610e29929190614579565b506005820181600501908054610e3e90615444565b610e49929190614579565b506006820181600601908054610e5e90615444565b610e69929190614579565b506007820181600701908054610e7e90615444565b610e89929190614579565b506008820154816008015560098201548160090155600a82015481600a0155600b82015481600b0155600c820181600c01908054610ec690615444565b610ed1929190614579565b50600d820181600d01908054610ee690615444565b610ef1929190614579565b50600e8281015490820155600f8083015490820155601080830154908201556011918201549101805460ff191660ff90921615159190911790556111b9565b610f39816144c3565b156111b957600f805460018181019092557f8d1108e10bcb7c27dddfc02ed9d693a074039d026cf4ea4240b40f7d581ac802018290556000828152600c60205260408120600d805480850182559252805460139092027fd7b6990105719101dabeb77144f2a3385c8033acd3af97e9423a695e81ad1eb58101928355928101547fd7b6990105719101dabeb77144f2a3385c8033acd3af97e9423a695e81ad1eb684015560028101547fd7b6990105719101dabeb77144f2a3385c8033acd3af97e9423a695e81ad1eb784015560038101547fd7b6990105719101dabeb77144f2a3385c8033acd3af97e9423a695e81ad1eb884015560048101805491937fd7b6990105719101dabeb77144f2a3385c8033acd3af97e9423a695e81ad1eb9019161106390615444565b61106e929190614579565b50600582018160050190805461108390615444565b61108e929190614579565b506006820154816006015560078201816007019080546110ad90615444565b6110b8929190614579565b5060088201816008019080546110cd90615444565b6110d8929190614579565b5060098201816009019080546110ed90615444565b6110f8929190614579565b50600a82015481600a0155600b82015481600b0155600c82015481600c0155600d82015481600d0155600e820181600e0190805461113590615444565b611140929190614579565b50600f820181600f0190805461115590615444565b611160929190614579565b5060108281015490820155601180830154908201556012918201805492909101805460ff938416151560ff19821681178355925461010090819004909416151590930261ff001990921661ffff19909316929092171790555b806111c38161542b565b915050610ceb565b50600e600f6009600d8380548060200260200160405190810160405280929190818152602001828054801561121f57602002820191906000526020600020905b81548152602001906001019080831161120b575b505050505093508280548060200260200160405190810160405280929190818152602001828054801561127157602002820191906000526020600020905b81548152602001906001019080831161125d575b5050505050925081805480602002602001604051908101604052809291908181526020016000905b828210156117435783829060005260206000209060120201604051806102400160405290816000820154815260200160018201548152602001600282015481526020016003820180546112eb90615444565b80601f016020809104026020016040519081016040528092919081815260200182805461131790615444565b80156113645780601f1061133957610100808354040283529160200191611364565b820191906000526020600020905b81548152906001019060200180831161134757829003601f168201915b5050505050815260200160048201805461137d90615444565b80601f01602080910402602001604051908101604052809291908181526020018280546113a990615444565b80156113f65780601f106113cb576101008083540402835291602001916113f6565b820191906000526020600020905b8154815290600101906020018083116113d957829003601f168201915b5050505050815260200160058201805461140f90615444565b80601f016020809104026020016040519081016040528092919081815260200182805461143b90615444565b80156114885780601f1061145d57610100808354040283529160200191611488565b820191906000526020600020905b81548152906001019060200180831161146b57829003601f168201915b505050505081526020016006820180546114a190615444565b80601f01602080910402602001604051908101604052809291908181526020018280546114cd90615444565b801561151a5780601f106114ef5761010080835404028352916020019161151a565b820191906000526020600020905b8154815290600101906020018083116114fd57829003601f168201915b5050505050815260200160078201805461153390615444565b80601f016020809104026020016040519081016040528092919081815260200182805461155f90615444565b80156115ac5780601f10611581576101008083540402835291602001916115ac565b820191906000526020600020905b81548152906001019060200180831161158f57829003601f168201915b505050505081526020016008820154815260200160098201548152602001600a8201548152602001600b8201548152602001600c820180546115ed90615444565b80601f016020809104026020016040519081016040528092919081815260200182805461161990615444565b80156116665780601f1061163b57610100808354040283529160200191611666565b820191906000526020600020905b81548152906001019060200180831161164957829003601f168201915b50505050508152602001600d8201805461167f90615444565b80601f01602080910402602001604051908101604052809291908181526020018280546116ab90615444565b80156116f85780601f106116cd576101008083540402835291602001916116f8565b820191906000526020600020905b8154815290600101906020018083116116db57829003601f168201915b5050509183525050600e820154602080830191909152600f83015460408301526010830154606083015260119092015460ff1615156080909101529082526001929092019101611299565b50505050915080805480602002602001604051908101604052809291908181526020016000905b82821015611c2e578382906000526020600020906013020160405180610280016040529081600082015481526020016001820154815260200160028201548152602001600382015481526020016004820180546117c690615444565b80601f01602080910402602001604051908101604052809291908181526020018280546117f290615444565b801561183f5780601f106118145761010080835404028352916020019161183f565b820191906000526020600020905b81548152906001019060200180831161182257829003601f168201915b5050505050815260200160058201805461185890615444565b80601f016020809104026020016040519081016040528092919081815260200182805461188490615444565b80156118d15780601f106118a6576101008083540402835291602001916118d1565b820191906000526020600020905b8154815290600101906020018083116118b457829003601f168201915b50505050508152602001600682015481526020016007820180546118f490615444565b80601f016020809104026020016040519081016040528092919081815260200182805461192090615444565b801561196d5780601f106119425761010080835404028352916020019161196d565b820191906000526020600020905b81548152906001019060200180831161195057829003601f168201915b5050505050815260200160088201805461198690615444565b80601f01602080910402602001604051908101604052809291908181526020018280546119b290615444565b80156119ff5780601f106119d4576101008083540402835291602001916119ff565b820191906000526020600020905b8154815290600101906020018083116119e257829003601f168201915b50505050508152602001600982018054611a1890615444565b80601f0160208091040260200160405190810160405280929190818152602001828054611a4490615444565b8015611a915780601f10611a6657610100808354040283529160200191611a91565b820191906000526020600020905b815481529060010190602001808311611a7457829003601f168201915b50505050508152602001600a8201548152602001600b8201548152602001600c8201548152602001600d8201548152602001600e82018054611ad290615444565b80601f0160208091040260200160405190810160405280929190818152602001828054611afe90615444565b8015611b4b5780601f10611b2057610100808354040283529160200191611b4b565b820191906000526020600020905b815481529060010190602001808311611b2e57829003601f168201915b50505050508152602001600f82018054611b6490615444565b80601f0160208091040260200160405190810160405280929190818152602001828054611b9090615444565b8015611bdd5780601f10611bb257610100808354040283529160200191611bdd565b820191906000526020600020905b815481529060010190602001808311611bc057829003601f168201915b505050918352505060108201546020808301919091526011830154604083015260129092015460ff80821615156060840152610100909104161515608090910152908252600192909201910161176a565b505050509050935093509350935090919293565b6000808080805b6000878152600660205260409020805487919083908110611c6c57611c6c6154a7565b90600052602060002090600902016001015414611c955780611c8d8161542b565b915050611c49565b6000868152600560205260409020805488919084908110611cb857611cb86154a7565b90600052602060002090600902016002015414611ce15781611cd98161542b565b925050611c95565b6000868152600560205260409020805483908110611d0157611d016154a7565b600091825260209091206009909102015497919650945092505050565b606060006001600a54611d319190615478565b6001600160401b03811115611d4857611d486146c1565b604051908082528060200260200182016040528015611dad57816020015b611d9a6040518060800160405280600081526020016060815260200160006001600160a01b03168152602001606081525090565b815260200190600190039081611d665790505b50905060005b6001600a54611dc29190615478565b811015611f6657600b6000611dd883600161548f565b815260200190815260200160002060405180608001604052908160008201548152602001600182018054611e0b90615444565b80601f0160208091040260200160405190810160405280929190818152602001828054611e3790615444565b8015611e845780601f10611e5957610100808354040283529160200191611e84565b820191906000526020600020905b815481529060010190602001808311611e6757829003601f168201915b505050918352505060028201546001600160a01b03166020820152600382018054604090920191611eb490615444565b80601f0160208091040260200160405190810160405280929190818152602001828054611ee090615444565b8015611f2d5780601f10611f0257610100808354040283529160200191611f2d565b820191906000526020600020905b815481529060010190602001808311611f1057829003601f168201915b505050505081525050828281518110611f4857611f486154a7565b60200260200101819052508080611f5e9061542b565b915050611db3565b50919050565b60075481526101e081018051670de0b6b3a76400009190611f8e90839061540c565b90525061020081018051670de0b6b3a76400009190611fae90839061540c565b90525060078054829160089160009182611fc78361542b565b91905055815260200190815260200160002060008201518160000155602082015181600101556040820151816002015560608201518160030190805190602001906120139291906144f5565b506080820151805161202f9160048401916020909101906144f5565b5060a0820151805161204b9160058401916020909101906144f5565b5060c082015180516120679160068401916020909101906144f5565b5060e082015180516120839160078401916020909101906144f5565b5061010082015160088201556101208201516009820155610140820151600a820155610160820151600b82015561018082015180516120cc91600c8401916020909101906144f5565b506101a082015180516120e991600d8401916020909101906144f5565b506101c0820151600e8201556101e0820151600f8201556102008201516010820155610220909101516011909101805491151560ff19909216919091179055600380546000818152600460208181526040928390209384559185015160018401558451600284015592820180546001600160a01b031916331790556101808401518051929361082b939085019291909101906144f5565b60008381526004602081815260408084208151610120810183528154815260018201549381019390935260028101549183019190915260038101546001600160a01b0316606083015291820180549192916080840191906121e090615444565b80601f016020809104026020016040519081016040528092919081815260200182805461220c90615444565b80156122595780601f1061222e57610100808354040283529160200191612259565b820191906000526020600020905b81548152906001019060200180831161223c57829003601f168201915b50505050508152602001600582015481526020016006820154815260200160078201548152602001600882015481525050905060018160a00181815161229f9190615478565b90525060008581526005602052604090208054829190859081106122c5576122c56154a7565b60009182526020918290208351600992909202019081558282015160018201556040830151600282015560608301516003820180546001600160a01b0319166001600160a01b03909216919091179055608083015180519192612330926004850192909101906144f5565b5060a0820151816005015560c0820151816006015560e08201518160070155610100820151816008015590505080600660008881526020019081526020016000208381548110612382576123826154a7565b60009182526020918290208351600992909202019081558282015160018201556040830151600282015560608301516003820180546001600160a01b0319166001600160a01b039092169190911790556080830151805191926123ed926004850192909101906144f5565b5060a0820151600582015560c0820151600682015560e082015160078201556101009091015160089091015580516000908152600460208181526040928390208451815581850151600182015592840151600284015560608401516003840180546001600160a01b0319166001600160a01b0390921691909117905560808401518051859493612482939085019201906144f5565b5060a0820151600582015560c0820151600682015560e0820151600782015561010090910151600890910155505050505050565b606080600060056000858152602001908152602001600020805480602002602001604051908101604052809291908181526020016000905b828210156126105760008481526020908190206040805161012081018252600986029092018054835260018101549383019390935260028301549082015260038201546001600160a01b0316606082015260048201805491929160808401919061255790615444565b80601f016020809104026020016040519081016040528092919081815260200182805461258390615444565b80156125d05780601f106125a5576101008083540402835291602001916125d0565b820191906000526020600020905b8154815290600101906020018083116125b357829003601f168201915b50505050508152602001600582015481526020016006820154815260200160078201548152602001600882015481525050815260200190600101906124ee565b505050509050600081516001600160401b03811115612631576126316146c1565b60405190808252806020026020018201604052801561265a578160200160208202803683370190505b5090506000805b6007548110156126fd5761267481614472565b8015612690575060008181526008602052604090206002015487145b806126bb575061269f816144c3565b80156126bb57506000818152600c602052604090206002015487145b156126eb578083836126cc8161542b565b9450815181106126de576126de6154a7565b6020026020010181815250505b806126f58161542b565b915050612661565b50600083516001600160401b03811115612719576127196146c1565b604051908082528060200260200182016040528015612742578160200160208202803683370190505b50905060005b845181101561279e57848181518110612763576127636154a7565b602002602001015160400151828281518110612781576127816154a7565b6020908102919091010152806127968161542b565b915050612748565b509196919550909350505050565b606060056000838152602001908152602001600020805480602002602001604051908101604052809291908181526020016000905b828210156129035760008481526020908190206040805161012081018252600986029092018054835260018101549383019390935260028301549082015260038201546001600160a01b0316606082015260048201805491929160808401919061284a90615444565b80601f016020809104026020016040519081016040528092919081815260200182805461287690615444565b80156128c35780601f10612898576101008083540402835291602001916128c3565b820191906000526020600020905b8154815290600101906020018083116128a657829003601f168201915b50505050508152602001600582015481526020016006820154815260200160078201548152602001600882015481525050815260200190600101906127e1565b505050509050919050565b60008481526004602081815260408084208151610120810183528154815260018201549381019390935260028101549183019190915260038101546001600160a01b03166060830152918201805491929160808401919061296e90615444565b80601f016020809104026020016040519081016040528092919081815260200182805461299a90615444565b80156129e75780601f106129bc576101008083540402835291602001916129e7565b820191906000526020600020905b8154815290600101906020018083116129ca57829003601f168201915b5050505050815260200160058201548152602001600682015481526020016007820154815260200160088201548152505090506000612a2588614472565b15612a425750600087815260086020526040902060090154612a64565b612a4b886144c3565b15612a6457506000878152600c60205260409020600b01545b82604051602001612a7591906154bd565b604051602081830303815290604052805190602001208260800151604051602001612aa091906154bd565b6040516020818303038152906040528051906020012014612aca57600060c0830152608082018390525b60018260c001818151612add919061548f565b90525060a08201805160019190612af590839061548f565b9052506000878152600560205260409020805483919087908110612b1b57612b1b6154a7565b60009182526020918290208351600992909202019081558282015160018201556040830151600282015560608301516003820180546001600160a01b0319166001600160a01b03909216919091179055608083015180519192612b86926004850192909101906144f5565b5060a0820151816005015560c0820151816006015560e08201518160070155610100820151816008015590505081600660008a81526020019081526020016000208581548110612bd857612bd86154a7565b60009182526020918290208351600992909202019081558282015160018201556040830151600282015560608301516003820180546001600160a01b0319166001600160a01b03909216919091179055608083015180519192612c43926004850192909101906144f5565b5060a0820151600582015560c0820151600682015560e082015160078201556101009091015160089091015581516000908152600460208181526040928390208551815581860151600182015592850151600284015560608501516003840180546001600160a01b0319166001600160a01b0390921691909117905560808501518051869493612cd8939085019201906144f5565b5060a0820151600582015560c0820151600682015560e08201516007820155610100909101516008909101555050505050505050565b60005b8151811015612ea157600060056000848481518110612d3257612d326154a7565b60200260200101518152602001908152602001600020600081548110612d5a57612d5a6154a7565b9060005260206000209060090201604051806101200160405290816000820154815260200160018201548152602001600282015481526020016003820160009054906101000a90046001600160a01b03166001600160a01b03166001600160a01b03168152602001600482018054612dd190615444565b80601f0160208091040260200160405190810160405280929190818152602001828054612dfd90615444565b8015612e4a5780601f10612e1f57610100808354040283529160200191612e4a565b820191906000526020600020905b815481529060010190602001808311612e2d57829003601f168201915b505050505081526020016005820154815260200160068201548152602001600782015481526020016008820154815250509050612e8c81606001516001612ea5565b50508080612e999061542b565b915050612d11565b5050565b33600090815260208190526040812054821115612ec157600080fd5b33600090815260208190526040902054612edc908390615478565b33600090815260208190526040808220929092556001600160a01b03851681522054612f0990839061548f565b6001600160a01b038416600081815260208181526040918290209390935551848152909133917fddf252ad1be2c89b69c2b068fc378daa952ba7f163c4a11628f55a4df523b3ef91016105e6565b6000818152600c60209081526040808320600683528184208054835181860281018601909452808452919493909190849084015b828210156130ad5760008481526020908190206040805161012081018252600986029092018054835260018101549383019390935260028301549082015260038201546001600160a01b03166060820152600482018054919291608084019190612ff490615444565b80601f016020809104026020016040519081016040528092919081815260200182805461302090615444565b801561306d5780601f106130425761010080835404028352916020019161306d565b820191906000526020600020905b81548152906001019060200180831161305057829003601f168201915b5050505050815260200160058201548152602001600682015481526020016007820154815260200160088201548152505081526020019060010190612f8b565b50505060128401805460ff191660011790555090506000805b825181101561313557600084600a01548483815181106130e8576130e86154a7565b602002602001015160a001516064613100919061540c565b61310a91906154d9565b905060508110613122578261311e8161542b565b9350505b508061312d8161542b565b9150506130c6565b50815160509061314683606461540c565b61315091906154d9565b10610c59576000600b6000856003015481526020019081526020016000206040518060800160405290816000820154815260200160018201805461319390615444565b80601f01602080910402602001604051908101604052809291908181526020018280546131bf90615444565b801561320c5780601f106131e15761010080835404028352916020019161320c565b820191906000526020600020905b8154815290600101906020018083116131ef57829003601f168201915b505050918352505060028201546001600160a01b0316602082015260038201805460409092019161323c90615444565b80601f016020809104026020016040519081016040528092919081815260200182805461326890615444565b80156132b55780601f1061328a576101008083540402835291602001916132b5565b820191906000526020600020905b81548152906001019060200180831161329857829003601f168201915b5050509190925250505060128501805461ff001916610100179055905060005b83518110156133135760008482815181106132f2576132f26154a7565b602090810291909101015160e001528061330b8161542b565b9150506132d5565b506040808201516011860154915190916001600160a01b0383169181156108fc0291906000818181858888f19350505050158015613355573d6000803e3d6000fd5b50505050505050565b606060066000838152602001908152602001600020805480602002602001604051908101604052809291908181526020016000905b828210156129035760008481526020908190206040805161012081018252600986029092018054835260018101549383019390935260028301549082015260038201546001600160a01b031660608201526004820180549192916080840191906133fc90615444565b80601f016020809104026020016040519081016040528092919081815260200182805461342890615444565b80156134755780601f1061344a57610100808354040283529160200191613475565b820191906000526020600020905b81548152906001019060200180831161345857829003601f168201915b5050505050815260200160058201548152602001600682015481526020016007820154815260200160088201548152505081526020019060010190613393565b6000818152600860209081526040808320600683528184208054835181860281018601909452808452919493909190849084015b8282101561360b5760008481526020908190206040805161012081018252600986029092018054835260018101549383019390935260028301549082015260038201546001600160a01b0316606082015260048201805491929160808401919061355290615444565b80601f016020809104026020016040519081016040528092919081815260200182805461357e90615444565b80156135cb5780601f106135a0576101008083540402835291602001916135cb565b820191906000526020600020905b8154815290600101906020018083116135ae57829003601f168201915b50505050508152602001600582015481526020016006820154815260200160078201548152602001600882015481525050815260200190600101906134e9565b50505060118401805460ff19166001179055509050600080805b8351811015613ad35760008560080154858381518110613647576136476154a7565b602002602001015160a00151606461365f919061540c565b61366991906154d9565b905084828151811061367d5761367d6154a7565b602002602001015160a001518660080154036136a5578261369d8161542b565b9350506137a8565b605081106136d75760008583815181106136c1576136c16154a7565b60200260200101516101000181815250506137a8565b602881106137725760648187600f01546136f1919061540c565b6136fb91906154d9565b85838151811061370d5761370d6154a7565b602002602001015160e001516137239190615478565b61372d908561548f565b935060648187600f0154613741919061540c565b61374b91906154d9565b85838151811061375d5761375d6154a7565b602002602001015160e00181815250506137a8565b600f860154613781908561548f565b93506000858381518110613797576137976154a7565b602002602001015160e00181815250505b8482815181106137ba576137ba6154a7565b60200260200101516006600089815260200190815260200160002083815481106137e6576137e66154a7565b60009182526020918290208351600992909202019081558282015160018201556040830151600282015560608301516003820180546001600160a01b0319166001600160a01b03909216919091179055608083015180519192613851926004850192909101906144f5565b5060a0820151816005015560c0820151816006015560e082015181600701556101008201518160080155905050848281518110613890576138906154a7565b6020026020010151600460008785815181106138ae576138ae6154a7565b602002602001015160000151815260200190815260200160002060008201518160000155602082015181600101556040820151816002015560608201518160030160006101000a8154816001600160a01b0302191690836001600160a01b03160217905550608082015181600401908051906020019061392f9291906144f5565b5060a0820151816005015560c0820151816006015560e0820151816007015561010082015181600801559050506000858381518110613970576139706154a7565b602002602001015160200151905060005b600082815260056020526040902054811015613abd57600082815260056020526040902080548a9190839081106139ba576139ba6154a7565b90600052602060002090600902016002015403613aab578684815181106139e3576139e36154a7565b6020026020010151600560008481526020019081526020016000208281548110613a0f57613a0f6154a7565b60009182526020918290208351600992909202019081558282015160018201556040830151600282015560608301516003820180546001600160a01b0319166001600160a01b03909216919091179055608083015180519192613a7a926004850192909101906144f5565b5060a0820151600582015560c0820151600682015560e0820151600782015561010090910151600890910155613abd565b80613ab58161542b565b915050613981565b5050508080613acb9061542b565b915050613625565b5060005b8351811015613e5b57838181518110613af257613af26154a7565b602002602001015160a00151856008015403613e4957613b1282846154d9565b848281518110613b2457613b246154a7565b6020026020010151610100018181525050838181518110613b4757613b476154a7565b6020026020010151600660008881526020019081526020016000208281548110613b7357613b736154a7565b60009182526020918290208351600992909202019081558282015160018201556040830151600282015560608301516003820180546001600160a01b0319166001600160a01b03909216919091179055608083015180519192613bde926004850192909101906144f5565b5060a0820151816005015560c0820151816006015560e082015181600701556101008201518160080155905050838181518110613c1d57613c1d6154a7565b602002602001015160046000868481518110613c3b57613c3b6154a7565b602002602001015160000151815260200190815260200160002060008201518160000155602082015181600101556040820151816002015560608201518160030160006101000a8154816001600160a01b0302191690836001600160a01b031602179055506080820151816004019080519060200190613cbc9291906144f5565b5060a0820151816005015560c0820151816006015560e0820151816007015561010082015181600801559050506000848281518110613cfd57613cfd6154a7565b602002602001015160200151905060005b600082815260056020526040902054811015613e46576000828152600560205260409020805489919083908110613d4757613d476154a7565b90600052602060002090600902016002015403613e3457858381518110613d7057613d706154a7565b6020026020010151600560008481526020019081526020016000208281548110613d9c57613d9c6154a7565b60009182526020918290208351600992909202019081558282015160018201556040830151600282015560608301516003820180546001600160a01b0319166001600160a01b03909216919091179055608083015180519192613e07926004850192909101906144f5565b5060a0820151600582015560c0820151600682015560e08201516007820155610100909101516008909101555b80613e3e8161542b565b915050613d0e565b50505b80613e538161542b565b915050613ad7565b505050505050565b600a80548083528291600b9160009182613e7c8361542b565b909155508152602080820192909252604001600020825181558282015180519192613eaf926001850192909101906144f5565b5060408201516002820180546001600160a01b0319166001600160a01b0390921691909117905560608201518051610c599160038401916020909101906144f5565b600380546000818152600460208181526040909220928355600183018690556002830187905592820180546001600160a01b0319163317905583519192613f3e92908401918501906144f5565b503460078201556000838152600560209081526040822080546001818101835591845291909220835460099092020190815581830154918101919091556002808301549082015560038083015490820180546001600160a01b0319166001600160a01b039092169190911790556004808301805484939283019190613fc290615444565b613fcd929190614579565b506005828101549082015560068083015481830155600780840154908301556008928301549290910191909155600085815260209182526040812080546001818101835591835292909120835460099093020191825580830154908201556002808301549082015560038083015490820180546001600160a01b0319166001600160a01b03909216919091179055600480830180548493928301919061407290615444565b61407d929190614579565b50600582810154908201556006808301549082015560078083015490820155600891820154910155600380549060006140b58361542b565b91905055506140c384614472565b156140f7576000848152600860205260408120601081018054919234926140eb90849061548f565b90915550610c59915050565b614100846144c3565b15610c59576000848152600c602052604081206011810180549192349261412890849061548f565b90915550505050505050565b60008381526004602081815260408084208151610120810183528154815260018201549381019390935260028101549183019190915260038101546001600160a01b03166060830152918201805491929160808401919061419490615444565b80601f01602080910402602001604051908101604052809291908181526020018280546141c090615444565b801561420d5780601f106141e25761010080835404028352916020019161420d565b820191906000526020600020905b8154815290600101906020018083116141f057829003601f168201915b50505050508152602001600582015481526020016006820154815260200160078201548152602001600882015481525050905060018160a001818151614253919061548f565b9052506000858152600560205260409020805482919085908110614279576142796154a7565b60009182526020918290208351600992909202019081558282015160018201556040830151600282015560608301516003820180546001600160a01b0319166001600160a01b039092169190911790556080830151805191926142e4926004850192909101906144f5565b5060a0820151816005015560c0820151816006015560e08201518160070155610100820151816008015590505080600660008881526020019081526020016000208381548110614336576143366154a7565b60009182526020918290208351600992909202019081558282015160018201556040830151600282015560608301516003820180546001600160a01b0319166001600160a01b039092169190911790556080830151805191926143a1926004850192909101906144f5565b5060a0820151600582015560c0820151600682015560e082015160078201556101009091015160089091015580516000908152600460208181526040928390208451815581850151600182015592840151600284015560608401516003840180546001600160a01b0319166001600160a01b0390921691909117905560808401518051859493614436939085019201906144f5565b5060a0820151600582015560c0820151600682015560e08201516007820155610100909101516008909101556060810151613355816001610c5f565b6040805160008082526020808301808552835190208583526008909152838220919390926144a49260030191016154fb565b6040516020818303038152906040528051906020012014159050919050565b604080516000808252602080830180855283519020858352600c909152838220919390926144a49260040191016154fb565b82805461450190615444565b90600052602060002090601f0160209004810192826145235760008555614569565b82601f1061453c57805160ff1916838001178555614569565b82800160010185558215614569579182015b8281111561456957825182559160200191906001019061454e565b506145759291506145f4565b5090565b82805461458590615444565b90600052602060002090601f0160209004810192826145a75760008555614569565b82601f106145b85780548555614569565b8280016001018555821561456957600052602060002091601f016020900482015b828111156145695782548255916001019190600101906145d9565b5b8082111561457557600081556001016145f5565b60005b8381101561462457818101518382015260200161460c565b83811115610c595750506000910152565b6000815180845261464d816020860160208601614609565b601f01601f19169290920160200192915050565b6020815260006146746020830184614635565b9392505050565b80356001600160a01b038116811461469257600080fd5b919050565b600080604083850312156146aa57600080fd5b6146b38361467b565b946020939093013593505050565b634e487b7160e01b600052604160045260246000fd5b60405161028081016001600160401b03811182821017156146fa576146fa6146c1565b60405290565b60405161024081016001600160401b03811182821017156146fa576146fa6146c1565b604051608081016001600160401b03811182821017156146fa576146fa6146c1565b604051601f8201601f191681016001600160401b038111828210171561476d5761476d6146c1565b604052919050565b600082601f83011261478657600080fd5b81356001600160401b0381111561479f5761479f6146c1565b6147b2601f8201601f1916602001614745565b8181528460208386010111156147c757600080fd5b816020850160208301376000918101602001919091529392505050565b8035801515811461469257600080fd5b60006020828403121561480657600080fd5b81356001600160401b038082111561481d57600080fd5b90830190610280828603121561483257600080fd5b61483a6146d7565b8235815260208301356020820152604083013560408201526060830135606082015260808301358281111561486e57600080fd5b61487a87828601614775565b60808301525060a08301358281111561489257600080fd5b61489e87828601614775565b60a08301525060c083013560c082015260e0830135828111156148c057600080fd5b6148cc87828601614775565b60e08301525061010080840135838111156148e657600080fd5b6148f288828701614775565b828401525050610120808401358381111561490c57600080fd5b61491888828701614775565b91830191909152506101408381013590820152610160808401359082015261018080840135908201526101a080840135908201526101c0808401358381111561496057600080fd5b61496c88828701614775565b8284015250506101e0808401358381111561498657600080fd5b61499288828701614775565b91830191909152506102008381013590820152610220808401359082015261024091506149c08284016147e4565b8282015261026091506149d48284016147e4565b91810191909152949350505050565b6000806000606084860312156149f857600080fd5b614a018461467b565b9250614a0f6020850161467b565b9150604084013590509250925092565b600060208284031215614a3157600080fd5b5035919050565b600081518084526020808501945080840160005b83811015614a6857815187529582019590820190600101614a4c565b509495945050505050565b600081518084526020808501808196508360051b8101915082860160005b85811015614c0f5782840389528151610280815186528682015187870152604080830151818801525060608083015181880152506080808301518282890152614adc83890182614635565b9250505060a08083015187830382890152614af78382614635565b9250505060c080830151818801525060e08083015187830382890152614b1d8382614635565b925050506101008083015187830382890152614b398382614635565b925050506101208083015187830382890152614b558382614635565b61014085810151908a015261016080860151908a015261018080860151908a01526101a080860151908a01526101c0808601518a8303828c015291945092509050614ba08382614635565b925050506101e08083015187830382890152614bbc8382614635565b9250505061020080830151818801525061022080830151818801525061024080830151614bec8289018215159052565b505061026091820151151595909101949094529784019790840190600101614a91565b5091979650505050505050565b60006080808352614c2f81840188614a38565b602084820381860152614c428289614a38565b91506040858303818701528288518085528385019150838160051b860101848b0160005b83811015614dc757601f19888403018552815161024081518552888201518986015287820151888601526060808301518282880152614ca783880182614635565b925050508a8201518582038c870152614cc08282614635565b91505060a08083015186830382880152614cda8382614635565b9250505060c08083015186830382880152614cf58382614635565b9250505060e08083015186830382880152614d108382614635565b610100858101519089015261012080860151908901526101408086015190890152610160808601519089015261018080860151898303828b015291945092509050614d5b8382614635565b925050506101a08083015186830382880152614d778382614635565b6101c085810151908901526101e08086015190890152610200808601519089015261022094850151801515868a0152949093509150614db39050565b509588019593505090860190600101614c66565b505088810360608a0152614ddb818b614a73565b9d9c50505050505050505050505050565b60008060408385031215614dff57600080fd5b50508035926020909101359150565b60006020808301818452808551808352604092508286019150828160051b87010184880160005b83811015614ea657603f19898403018552815160808151855288820151818a870152614e6382870182614635565b838a01516001600160a01b0316878b0152606093840151878203948801949094529150614e9290508183614635565b968901969450505090860190600101614e35565b509098975050505050505050565b600060208284031215614ec657600080fd5b81356001600160401b0380821115614edd57600080fd5b908301906102408286031215614ef257600080fd5b614efa614700565b823581526020830135602082015260408301356040820152606083013582811115614f2457600080fd5b614f3087828601614775565b606083015250608083013582811115614f4857600080fd5b614f5487828601614775565b60808301525060a083013582811115614f6c57600080fd5b614f7887828601614775565b60a08301525060c083013582811115614f9057600080fd5b614f9c87828601614775565b60c08301525060e083013582811115614fb457600080fd5b614fc087828601614775565b60e0830152506101008381013590820152610120808401359082015261014080840135908201526101608084013590820152610180808401358381111561500657600080fd5b61501288828701614775565b8284015250506101a0808401358381111561502c57600080fd5b61503888828701614775565b91830191909152506101c083810135908201526101e08084013590820152610200808401359082015261022091506149d48284016147e4565b60006020828403121561508357600080fd5b6146748261467b565b600080600080600060a086880312156150a457600080fd5b505083359560208501359550604085013594606081013594506080013592509050565b6040815260006150da6040830185614a38565b82810360208401526150ec8185614a38565b95945050505050565b60006020808301818452808551808352604092508286019150828160051b87010184880160005b83811015614ea657603f1989840301855281516101208151855288820151898601528782015188860152606080830151615160828801826001600160a01b03169052565b5050608080830151828288015261517983880182614635565b60a0858101519089015260c0808601519089015260e08086015190890152610100948501519490970193909352505050938601939086019060010161511c565b60008060008060008060c087890312156151d257600080fd5b863595506020870135945060408701359350606087013592506080870135915060a08701356001600160401b0381111561520b57600080fd5b61521789828a01614775565b9150509295509295509295565b6000602080838503121561523757600080fd5b82356001600160401b038082111561524e57600080fd5b818501915085601f83011261526257600080fd5b813581811115615274576152746146c1565b8060051b9150615285848301614745565b818152918301840191848101908884111561529f57600080fd5b938501935b838510156152bd578435825293850193908501906152a4565b98975050505050505050565b6000602082840312156152db57600080fd5b81356001600160401b03808211156152f257600080fd5b908301906080828603121561530657600080fd5b61530e614723565b8235815260208301358281111561532457600080fd5b61533087828601614775565b6020830152506153426040840161467b565b604082015260608301358281111561535957600080fd5b61536587828601614775565b60608301525095945050505050565b6000806040838503121561538757600080fd5b6153908361467b565b915061539e6020840161467b565b90509250929050565b6000806000606084860312156153bc57600080fd5b833592506020840135915060408401356001600160401b038111156153e057600080fd5b6153ec86828701614775565b9150509250925092565b634e487b7160e01b600052601160045260246000fd5b6000816000190483118215151615615426576154266153f6565b500290565b60006001820161543d5761543d6153f6565b5060010190565b600181811c9082168061545857607f821691505b602082108103611f6657634e487b7160e01b600052602260045260246000fd5b60008282101561548a5761548a6153f6565b500390565b600082198211156154a2576154a26153f6565b500190565b634e487b7160e01b600052603260045260246000fd5b600082516154cf818460208701614609565b9190910192915050565b6000826154f657634e487b7160e01b600052601260045260246000fd5b500490565b600080835481600182811c91508083168061551757607f831692505b6020808410820361553657634e487b7160e01b86526022600452602486fd5b81801561554a576001811461555b57615588565b60ff19861689528489019650615588565b60008a81526020902060005b868110156155805781548b820152908501908301615567565b505084890196505b50949897505050505050505056fea264697066735822122097a901c8b2166f8bbb40a03b1c76d409d69929412a4f0e781b812388f0c5d38564736f6c634300080e0033",
  "immutableReferences": {},
  "source": "// SPDX-License-Identifier: MIT\r\npragma solidity ^0.8.0;\r\npragma abicoder v2;\r\n\r\nimport \"./DonationChallengeContract.sol\";\r\n\r\ncontract ChallengeContract is DonationChallengeContract{\r\n    uint[] dailyChallengeIds;\r\n    uint[] donationChallengeIds;\r\n\r\n    //     \r\n    function isDailyChallenge(uint challengeId) private view returns(bool){\r\n        return keccak256(abi.encodePacked(dailyChallengeMap[challengeId].name)) != keccak256(abi.encodePacked(\"\"));\r\n    }\r\n\r\n    function isDonationChallenge(uint challengeId) private view returns(bool){\r\n        return keccak256(abi.encodePacked(donationChallengeMap[challengeId].name)) != keccak256(abi.encodePacked(\"\"));\r\n    }\r\n\r\n    //   \r\n    function getAllChallenge() public returns(uint[] memory,uint[] memory,DailyChallenge[] memory,DonationChallenge[] memory){\r\n        \r\n        for(uint i=1;i<=challengeSequence;i++){\r\n            if(isDailyChallenge(i)){\r\n                dailyChallengeIds.push(i);\r\n                dailyChallenges.push(dailyChallengeMap[i]);\r\n            }\r\n\r\n            else if(isDonationChallenge(i)){\r\n                donationChallengeIds.push(i);\r\n                donationChallenges.push(donationChallengeMap[i]);\r\n            }\r\n        }\r\n        return (dailyChallengeIds,donationChallengeIds,dailyChallenges,donationChallenges);\r\n    }\r\n\r\n    //   \r\n    function joinChallenge(uint challengeId,uint userId,string memory today) public payable{\r\n    \r\n        //  \r\n        Challenger storage challenger=challengerMap[challengerSequence];\r\n        challenger.id=challengerSequence;\r\n        challenger.userId=userId;\r\n        challenger.challengeId=challengeId;\r\n        challenger.userAddress=msg.sender;\r\n        challenger.today=today;\r\n        challenger.userDeposit=msg.value;\r\n\r\n        //    \r\n        findByUserIdChallenger[userId].push(challenger);\r\n        findByChallengeIdChallenger[challengeId].push(challenger);\r\n        challengerSequence++;\r\n\r\n        //        \r\n        if(isDailyChallenge(challengeId)){\r\n            DailyChallenge storage challenge=dailyChallengeMap[challengeId];\r\n            challenge.totalDeposit+=msg.value; \r\n        }\r\n\r\n        else if(isDonationChallenge(challengeId)){\r\n            DonationChallenge storage challenge=donationChallengeMap[challengeId];\r\n            challenge.totalDonation+=msg.value;\r\n        }\r\n    }\r\n\r\n    //   \r\n    function getMyChallenge(uint userId) public view returns(uint[] memory,uint[] memory){\r\n        Challenger[] memory challengers=findByUserIdChallenger[userId];\r\n        //   \r\n        uint[] memory challengesByMe=new uint[](challengers.length);\r\n        \r\n        uint myChallengeIndex = 0;\r\n        //     ownerId userId   \r\n        for(uint challengeId=0;challengeId<challengeSequence;challengeId++){\r\n            if((isDailyChallenge(challengeId) && dailyChallengeMap[challengeId].ownerId==userId) ||\r\n            (isDonationChallenge(challengeId) && donationChallengeMap[challengeId].ownerId==userId)){\r\n                challengesByMe[myChallengeIndex++] = challengeId;\r\n            }\r\n        }\r\n\r\n        //   \r\n        uint[] memory myChallenges=new uint[](challengers.length);\r\n        for(uint index=0;index<challengers.length;index++){\r\n            myChallenges[index]=challengers[index].challengeId;\r\n        }\r\n        return(challengesByMe,myChallenges);\r\n    }\r\n\r\n    //   (,,)\r\n    function findingChallenger(uint challengeId,uint userId)public view returns(uint,uint,uint){       \r\n        uint userIdIndex=0;\r\n        uint challengeIdIndex=0;\r\n        //  \r\n        while(findByChallengeIdChallenger[challengeId][challengeIdIndex].userId!=userId) challengeIdIndex++;\r\n        while(findByUserIdChallenger[userId][userIdIndex].challengeId!=challengeId) userIdIndex++;\r\n        \r\n        return(findByUserIdChallenger[userId][userIdIndex].id,userIdIndex,challengeIdIndex);\r\n    }\r\n\r\n    //    \r\n    function authenticate(uint challengeId,uint userId, uint challengerId,uint userIdIndex,uint challengeIdIndex, string memory today) public {\r\n        Challenger memory findChallenger=challengerMap[challengerId];\r\n        \r\n        uint authDayTimes;\r\n        if(isDailyChallenge(challengeId)) authDayTimes=dailyChallengeMap[challengeId].authDayTimes;\r\n        else if(isDonationChallenge(challengeId)) authDayTimes=donationChallengeMap[challengeId].authDayTimes;\r\n        \r\n        //    \r\n        if(keccak256(abi.encodePacked(findChallenger.today)) != keccak256(abi.encodePacked(today))){\r\n            findChallenger.dailyCount=0;\r\n            findChallenger.today=today;\r\n        }\r\n        findChallenger.dailyCount+=1;\r\n        findChallenger.totalCount+=1;\r\n        \r\n        //  \r\n        findByUserIdChallenger[userId][userIdIndex]=findChallenger;\r\n        findByChallengeIdChallenger[challengeId][challengeIdIndex]=findChallenger;\r\n        challengerMap[findChallenger.id]=findChallenger;\r\n    }\r\n    \r\n    //      \r\n    function getChallengers(uint challengeId) public view returns(Challenger[] memory){\r\n        return(findByChallengeIdChallenger[challengeId]);\r\n    }\r\n\r\n    //     \r\n    function getChallengersByUserId(uint userId) public view returns(Challenger[] memory){\r\n        return(findByUserIdChallenger[userId]);\r\n    }\r\n}\r\n",
  "sourcePath": "c:\\Users\\multicampus\\Desktop\\ssafy\\S07P22B106\\truffle\\contracts\\ChallengeContract.sol",
  "compiler": {
    "name": "solc",
    "version": "0.8.14+commit.80d49f37.Emscripten.clang"
  },
  "schemaVersion": "3.4.10",
  "updatedAt": "2022-09-23T07:26:03.123Z",
  "networkType": "ethereum",
  "devdoc": {
    "kind": "dev",
    "methods": {},
    "version": 1
  },
  "userdoc": {
    "kind": "user",
    "methods": {},
    "version": 1
  }
}