{
  "contractName": "ChallengerContract",
  "abi": [
    {
      "anonymous": false,
      "inputs": [
        {
          "indexed": true,
          "internalType": "address",
          "name": "owner",
          "type": "address"
        },
        {
          "indexed": true,
          "internalType": "address",
          "name": "spender",
          "type": "address"
        },
        {
          "indexed": false,
          "internalType": "uint256",
          "name": "value",
          "type": "uint256"
        }
      ],
      "name": "Approval",
      "type": "event"
    },
    {
      "anonymous": false,
      "inputs": [
        {
          "indexed": true,
          "internalType": "address",
          "name": "from",
          "type": "address"
        },
        {
          "indexed": true,
          "internalType": "address",
          "name": "to",
          "type": "address"
        },
        {
          "indexed": false,
          "internalType": "uint256",
          "name": "value",
          "type": "uint256"
        }
      ],
      "name": "Transfer",
      "type": "event"
    },
    {
      "inputs": [
        {
          "internalType": "address",
          "name": "owner",
          "type": "address"
        },
        {
          "internalType": "address",
          "name": "delegate",
          "type": "address"
        }
      ],
      "name": "allowance",
      "outputs": [
        {
          "internalType": "uint256",
          "name": "",
          "type": "uint256"
        }
      ],
      "stateMutability": "view",
      "type": "function"
    },
    {
      "inputs": [
        {
          "internalType": "address",
          "name": "delegate",
          "type": "address"
        },
        {
          "internalType": "uint256",
          "name": "numTokens",
          "type": "uint256"
        }
      ],
      "name": "approve",
      "outputs": [
        {
          "internalType": "bool",
          "name": "",
          "type": "bool"
        }
      ],
      "stateMutability": "nonpayable",
      "type": "function"
    },
    {
      "inputs": [
        {
          "internalType": "address",
          "name": "tokenOwner",
          "type": "address"
        }
      ],
      "name": "balanceOf",
      "outputs": [
        {
          "internalType": "uint256",
          "name": "",
          "type": "uint256"
        }
      ],
      "stateMutability": "view",
      "type": "function"
    },
    {
      "inputs": [],
      "name": "decimals",
      "outputs": [
        {
          "internalType": "uint8",
          "name": "",
          "type": "uint8"
        }
      ],
      "stateMutability": "view",
      "type": "function"
    },
    {
      "inputs": [],
      "name": "name",
      "outputs": [
        {
          "internalType": "string",
          "name": "",
          "type": "string"
        }
      ],
      "stateMutability": "view",
      "type": "function"
    },
    {
      "inputs": [],
      "name": "symbol",
      "outputs": [
        {
          "internalType": "string",
          "name": "",
          "type": "string"
        }
      ],
      "stateMutability": "view",
      "type": "function"
    },
    {
      "inputs": [],
      "name": "totalSupply",
      "outputs": [
        {
          "internalType": "uint256",
          "name": "",
          "type": "uint256"
        }
      ],
      "stateMutability": "view",
      "type": "function"
    },
    {
      "inputs": [
        {
          "internalType": "address",
          "name": "receiver",
          "type": "address"
        },
        {
          "internalType": "uint256",
          "name": "numTokens",
          "type": "uint256"
        }
      ],
      "name": "transfer",
      "outputs": [
        {
          "internalType": "bool",
          "name": "",
          "type": "bool"
        }
      ],
      "stateMutability": "nonpayable",
      "type": "function"
    },
    {
      "inputs": [
        {
          "internalType": "address",
          "name": "owner",
          "type": "address"
        },
        {
          "internalType": "address",
          "name": "buyer",
          "type": "address"
        },
        {
          "internalType": "uint256",
          "name": "numTokens",
          "type": "uint256"
        }
      ],
      "name": "transferFrom",
      "outputs": [
        {
          "internalType": "bool",
          "name": "",
          "type": "bool"
        }
      ],
      "stateMutability": "nonpayable",
      "type": "function"
    },
    {
      "inputs": [
        {
          "internalType": "address",
          "name": "user",
          "type": "address"
        },
        {
          "internalType": "uint256",
          "name": "numTokens",
          "type": "uint256"
        }
      ],
      "name": "useCoin",
      "outputs": [],
      "stateMutability": "nonpayable",
      "type": "function"
    },
    {
      "inputs": [
        {
          "internalType": "uint256",
          "name": "challengerId",
          "type": "uint256"
        }
      ],
      "name": "findByChallengerId",
      "outputs": [
        {
          "components": [
            {
              "internalType": "uint256",
              "name": "id",
              "type": "uint256"
            },
            {
              "internalType": "uint256",
              "name": "userId",
              "type": "uint256"
            },
            {
              "internalType": "uint256",
              "name": "challengeId",
              "type": "uint256"
            },
            {
              "internalType": "address",
              "name": "userAddress",
              "type": "address"
            },
            {
              "internalType": "uint256",
              "name": "today",
              "type": "uint256"
            },
            {
              "internalType": "uint256",
              "name": "totalCount",
              "type": "uint256"
            },
            {
              "internalType": "uint256",
              "name": "weekCount",
              "type": "uint256"
            },
            {
              "internalType": "uint256",
              "name": "dailyCount",
              "type": "uint256"
            },
            {
              "internalType": "uint256",
              "name": "userDeposit",
              "type": "uint256"
            },
            {
              "internalType": "uint256",
              "name": "reward",
              "type": "uint256"
            }
          ],
          "internalType": "struct ChallengerContract.Challenger",
          "name": "",
          "type": "tuple"
        }
      ],
      "stateMutability": "view",
      "type": "function"
    },
    {
      "inputs": [
        {
          "internalType": "uint256",
          "name": "challengerId",
          "type": "uint256"
        }
      ],
      "name": "refund",
      "outputs": [],
      "stateMutability": "payable",
      "type": "function"
    },
    {
      "inputs": [
        {
          "internalType": "uint256",
          "name": "challengeId",
          "type": "uint256"
        },
        {
          "internalType": "uint256",
          "name": "userId",
          "type": "uint256"
        },
        {
          "internalType": "uint256",
          "name": "challengerId",
          "type": "uint256"
        },
        {
          "internalType": "uint256",
          "name": "userIdIndex",
          "type": "uint256"
        },
        {
          "internalType": "uint256",
          "name": "challengeIdIndex",
          "type": "uint256"
        }
      ],
      "name": "usePasscoin",
      "outputs": [],
      "stateMutability": "nonpayable",
      "type": "function"
    },
    {
      "inputs": [
        {
          "internalType": "uint256",
          "name": "challengeId",
          "type": "uint256"
        },
        {
          "internalType": "uint256",
          "name": "userId",
          "type": "uint256"
        },
        {
          "internalType": "uint256",
          "name": "challengerId",
          "type": "uint256"
        },
        {
          "internalType": "uint256",
          "name": "userIdIndex",
          "type": "uint256"
        },
        {
          "internalType": "uint256",
          "name": "challengeIdIndex",
          "type": "uint256"
        }
      ],
      "name": "applyVoteResult",
      "outputs": [],
      "stateMutability": "nonpayable",
      "type": "function"
    },
    {
      "inputs": [
        {
          "internalType": "uint256[]",
          "name": "userIdList",
          "type": "uint256[]"
        },
        {
          "internalType": "uint256",
          "name": "challengeId",
          "type": "uint256"
        }
      ],
      "name": "receivePasscoin",
      "outputs": [],
      "stateMutability": "nonpayable",
      "type": "function"
    }
  ],
  "bytecode": "0x60806040526305f5e100600255600160035534801561001d57600080fd5b50600254336000908152602081905260409020556112aa806100406000396000f3fe6080604052600436106100e85760003560e01c80635b77573b1161008a57806395d89b411161005957806395d89b41146102a5578063a9059cbb146102d5578063dd62ed3e146102f5578063f5a802451461033b57600080fd5b80635b77573b1461020257806370a082311461022f578063740c162a1461026557806385d0dd601461028557600080fd5b806323b872dd116100c657806323b872dd14610186578063278ecde1146101a6578063313ce567146101bb5780633f711851146101e257600080fd5b806306fdde03146100ed578063095ea7b31461013757806318160ddd14610167575b600080fd5b3480156100f957600080fd5b50610121604051806040016040528060088152602001672830b9b9a1b7b4b760c11b81525081565b60405161012e9190610f24565b60405180910390f35b34801561014357600080fd5b50610157610152366004610f95565b61035b565b604051901515815260200161012e565b34801561017357600080fd5b506002545b60405190815260200161012e565b34801561019257600080fd5b506101576101a1366004610fbf565b6103c7565b6101b96101b4366004610ffb565b610512565b005b3480156101c757600080fd5b506101d0600081565b60405160ff909116815260200161012e565b3480156101ee57600080fd5b506101b96101fd366004610f95565b6105e0565b34801561020e57600080fd5b5061022261021d366004610ffb565b610664565b60405161012e9190611014565b34801561023b57600080fd5b5061017861024a366004611096565b6001600160a01b031660009081526020819052604090205490565b34801561027157600080fd5b506101b96102803660046110b8565b61074f565b34801561029157600080fd5b506101b96102a0366004611109565b610a13565b3480156102b157600080fd5b50610121604051806040016040528060048152602001635041535360e01b81525081565b3480156102e157600080fd5b506101576102f0366004610f95565b610b99565b34801561030157600080fd5b506101786103103660046111cd565b6001600160a01b03918216600090815260016020908152604080832093909416825291909152205490565b34801561034757600080fd5b506101b96103563660046110b8565b610c4b565b3360008181526001602090815260408083206001600160a01b038716808552925280832085905551919290917f8c5be1e5ebec7d5bd14f71427d1e84f3dd0314c0f7b2291e5b200ac8c7c3b925906103b69086815260200190565b60405180910390a350600192915050565b6001600160a01b0383166000908152602081905260408120548211156103ec57600080fd5b6001600160a01b038416600090815260016020908152604080832033845290915290205482111561041c57600080fd5b6001600160a01b038416600090815260208190526040902054610440908390611216565b6001600160a01b038516600090815260208181526040808320939093556001815282822033835290522054610476908390611216565b6001600160a01b03808616600090815260016020908152604080832033845282528083209490945591861681529081905220546104b490839061122d565b6001600160a01b038481166000818152602081815260409182902094909455518581529092918716917fddf252ad1be2c89b69c2b068fc378daa952ba7f163c4a11628f55a4df523b3ef910160405180910390a35060019392505050565b6000818152600460208181526040928390208351610140810185528154815260018201549281019290925260028101549382019390935260038301546001600160a01b031660608201819052918301546080820152600583015460a0820152600683015460c0820152600783015460e0820152600883015461010082018190526009909301546101208201819052909282916108fc916105b2919061122d565b6040518115909202916000818181858888f193505050501580156105da573d6000803e3d6000fd5b50505050565b336000908152602081905260409020548111156105fc57600080fd5b3360009081526020819052604090205461061790829061122d565b33600090815260208190526040808220929092556001600160a01b03841681522054610644908290611216565b6001600160a01b0390921660009081526020819052604090209190915550565b6106c360405180610140016040528060008152602001600081526020016000815260200160006001600160a01b031681526020016000815260200160008152602001600081526020016000815260200160008152602001600081525090565b506000908152600460208181526040928390208351610140810185528154815260018201549281019290925260028101549382019390935260038301546001600160a01b03166060820152908201546080820152600582015460a0820152600682015460c0820152600782015460e0820152600882015461010082015260099091015461012082015290565b600083815260046020818152604092839020835161014081018552815481526001808301549382019390935260028201549481019490945260038101546001600160a01b03166060850152918201546080840152600582015460a08401818152600684015460c0860152600784015460e086015260088401546101008601526009909301546101208501529091906107e8908390611216565b905250600085815260056020526040902080548291908590811061080e5761080e611245565b90600052602060002090600a020160008201518160000155602082015181600101556040820151816002015560608201518160030160006101000a8154816001600160a01b0302191690836001600160a01b031602179055506080820151816004015560a0820151816005015560c0820151816006015560e0820151816007015561010082015181600801556101208201518160090155905050806006600088815260200190815260200160002083815481106108cd576108cd611245565b90600052602060002090600a020160008201518160000155602082015181600101556040820151816002015560608201518160030160006101000a8154816001600160a01b0302191690836001600160a01b031602179055506080820151816004015560a0820151816005015560c0820151816006015560e082015181600701556101008201518160080155610120820151816009015590505080600460008360000151815260200190815260200160002060008201518160000155602082015181600101556040820151816002015560608201518160030160006101000a8154816001600160a01b0302191690836001600160a01b031602179055506080820151816004015560a0820151816005015560c0820151816006015560e0820151816007015561010082015181600801556101208201518160090155905050505050505050565b60005b8251811015610b9457600060056000858481518110610a3757610a37611245565b60200260200101518152602001908152602001600020805480602002602001604051908101604052809291908181526020016000905b82821015610b095760008481526020908190206040805161014081018252600a8602909201805483526001808201548486015260028201549284019290925260038101546001600160a01b0316606084015260048101546080840152600581015460a0840152600681015460c0840152600781015460e08401526008810154610100840152600901546101208301529083529092019101610a6d565b50505050905060005b8151811015610b7f5783828281518110610b2e57610b2e611245565b60200260200101516040015103610b6d57610b67828281518110610b5457610b54611245565b6020026020010151606001516001610b99565b50610b7f565b80610b778161125b565b915050610b12565b50508080610b8c9061125b565b915050610a16565b505050565b33600090815260208190526040812054821115610bb557600080fd5b33600090815260208190526040902054610bd0908390611216565b33600090815260208190526040808220929092556001600160a01b03851681522054610bfd90839061122d565b6001600160a01b038416600081815260208181526040918290209390935551848152909133917fddf252ad1be2c89b69c2b068fc378daa952ba7f163c4a11628f55a4df523b3ef91016103b6565b600083815260046020818152604092839020835161014081018552815481526001808301549382019390935260028201549481019490945260038101546001600160a01b03166060850152918201546080840152600582015460a08401818152600684015460c0860152600784015460e08601526008840154610100860152600990930154610120850152909190610ce490839061122d565b9052506000858152600560205260409020805482919085908110610d0a57610d0a611245565b90600052602060002090600a020160008201518160000155602082015181600101556040820151816002015560608201518160030160006101000a8154816001600160a01b0302191690836001600160a01b031602179055506080820151816004015560a0820151816005015560c0820151816006015560e082015181600701556101008201518160080155610120820151816009015590505080600660008881526020019081526020016000208381548110610dc957610dc9611245565b90600052602060002090600a020160008201518160000155602082015181600101556040820151816002015560608201518160030160006101000a8154816001600160a01b0302191690836001600160a01b031602179055506080820151816004015560a0820151816005015560c0820151816006015560e082015181600701556101008201518160080155610120820151816009015590505080600460008360000151815260200190815260200160002060008201518160000155602082015181600101556040820151816002015560608201518160030160006101000a8154816001600160a01b0302191690836001600160a01b031602179055506080820151816004015560a0820151816005015560c0820151816006015560e0820151816007015561010082015181600801556101208201518160090155905050600081606001519050610f1b8160016105e0565b50505050505050565b600060208083528351808285015260005b81811015610f5157858101830151858201604001528201610f35565b81811115610f63576000604083870101525b50601f01601f1916929092016040019392505050565b80356001600160a01b0381168114610f9057600080fd5b919050565b60008060408385031215610fa857600080fd5b610fb183610f79565b946020939093013593505050565b600080600060608486031215610fd457600080fd5b610fdd84610f79565b9250610feb60208501610f79565b9150604084013590509250925092565b60006020828403121561100d57600080fd5b5035919050565b600061014082019050825182526020830151602083015260408301516040830152606083015161104f60608401826001600160a01b03169052565b506080830151608083015260a083015160a083015260c083015160c083015260e083015160e083015261010080840151818401525061012080840151818401525092915050565b6000602082840312156110a857600080fd5b6110b182610f79565b9392505050565b600080600080600060a086880312156110d057600080fd5b505083359560208501359550604085013594606081013594506080013592509050565b634e487b7160e01b600052604160045260246000fd5b6000806040838503121561111c57600080fd5b823567ffffffffffffffff8082111561113457600080fd5b818501915085601f83011261114857600080fd5b813560208282111561115c5761115c6110f3565b8160051b604051601f19603f83011681018181108682111715611181576111816110f3565b60405292835281830193508481018201928984111561119f57600080fd5b948201945b838610156111bd578535855294820194938201936111a4565b9997909101359750505050505050565b600080604083850312156111e057600080fd5b6111e983610f79565b91506111f760208401610f79565b90509250929050565b634e487b7160e01b600052601160045260246000fd5b60008282101561122857611228611200565b500390565b6000821982111561124057611240611200565b500190565b634e487b7160e01b600052603260045260246000fd5b60006001820161126d5761126d611200565b506001019056fea26469706673582212201dcbe46b6bd10fb914018d3adbc9a71322a30b55ada51add45c9002cb2990e8364736f6c634300080e0033",
  "immutableReferences": {},
  "source": "// SPDX-License-Identifier: MIT\r\npragma solidity ^0.8.0;\r\npragma abicoder v2;\r\n\r\nimport \"./PassCoinContract.sol\";\r\n\r\ncontract ChallengerContract is PassCoinContract{\r\n    struct Challenger {\r\n        // pk\r\n        uint id;\r\n        // , fk\r\n        uint userId;\r\n        uint challengeId;\r\n\r\n        //  \r\n        address userAddress;\r\n\r\n        //       \r\n        uint today;\r\n\r\n        //  ,  \r\n        uint totalCount;\r\n        uint weekCount;\r\n        uint dailyCount;\r\n\r\n        //  \r\n        uint userDeposit;\r\n\r\n        // \r\n        uint reward;\r\n    }\r\n\r\n    uint challengerSequence=1;\r\n    mapping(uint => Challenger) challengerMap;\r\n\r\n    //  \r\n    mapping(uint => Challenger[]) findByUserIdChallenger;\r\n    mapping(uint => Challenger[]) findByChallengeIdChallenger;\r\n\r\n    function findByChallengerId(uint challengerId) public view returns(Challenger memory){\r\n        return challengerMap[challengerId];\r\n    }\r\n    \r\n    // \r\n    function refund(uint challengerId) public payable{\r\n        Challenger memory challenger=challengerMap[challengerId];\r\n       \r\n        address userAddress=challenger.userAddress;\r\n        payable(userAddress).transfer(challenger.userDeposit+challenger.reward);\r\n    }\r\n\r\n    //   \r\n    function usePasscoin(uint challengeId,uint userId,uint challengerId,uint userIdIndex,uint challengeIdIndex) public{\r\n        Challenger memory findChallenger=challengerMap[challengerId];\r\n\r\n        findChallenger.totalCount+=1;\r\n\r\n        //  \r\n        findByUserIdChallenger[userId][userIdIndex]=findChallenger;\r\n        findByChallengeIdChallenger[challengeId][challengeIdIndex]=findChallenger;\r\n        challengerMap[findChallenger.id]=findChallenger;\r\n\r\n        address userAddress=findChallenger.userAddress;\r\n        useCoin(userAddress,1);\r\n    }\r\n    \r\n\r\n    // \r\n    function applyVoteResult(uint challengeId,uint userId,uint challengerId,uint userIdIndex,uint challengeIdIndex) public{\r\n \r\n        Challenger memory findChallenger=challengerMap[challengerId];\r\n\r\n        findChallenger.totalCount-=1;\r\n\r\n        //  \r\n        findByUserIdChallenger[userId][userIdIndex]=findChallenger;\r\n        findByChallengeIdChallenger[challengeId][challengeIdIndex]=findChallenger;\r\n        challengerMap[findChallenger.id]=findChallenger;\r\n    }\r\n    //  \r\n    function receivePasscoin(uint[] memory userIdList,uint challengeId) public{\r\n        /*    */\r\n        for (uint256 i = 0; i < userIdList.length; i++) {\r\n            Challenger[] memory challengers = findByUserIdChallenger[userIdList[i]];            \r\n            for(uint j=0;j<challengers.length;j++){\r\n                if(challengers[j].challengeId==challengeId){\r\n                    transfer(challengers[j].userAddress, 1);\r\n                    break;\r\n                }\r\n            }\r\n        }\r\n    }\r\n}\r\n",
  "sourcePath": "c:\\Users\\multicampus\\Desktop\\S07P22B106\\truffle\\contracts\\ChallengerContract.sol",
  "compiler": {
    "name": "solc",
    "version": "0.8.14+commit.80d49f37.Emscripten.clang"
  },
  "schemaVersion": "3.4.10",
  "updatedAt": "2022-10-02T10:23:05.951Z",
  "devdoc": {
    "kind": "dev",
    "methods": {},
    "version": 1
  },
  "userdoc": {
    "kind": "user",
    "methods": {},
    "version": 1
  }
}