{
  "contractName": "ChallengerContract",
  "abi": [
    {
      "anonymous": false,
      "inputs": [
        {
          "indexed": true,
          "internalType": "address",
          "name": "owner",
          "type": "address"
        },
        {
          "indexed": true,
          "internalType": "address",
          "name": "spender",
          "type": "address"
        },
        {
          "indexed": false,
          "internalType": "uint256",
          "name": "value",
          "type": "uint256"
        }
      ],
      "name": "Approval",
      "type": "event"
    },
    {
      "anonymous": false,
      "inputs": [
        {
          "indexed": true,
          "internalType": "address",
          "name": "from",
          "type": "address"
        },
        {
          "indexed": true,
          "internalType": "address",
          "name": "to",
          "type": "address"
        },
        {
          "indexed": false,
          "internalType": "uint256",
          "name": "value",
          "type": "uint256"
        }
      ],
      "name": "Transfer",
      "type": "event"
    },
    {
      "inputs": [
        {
          "internalType": "address",
          "name": "owner",
          "type": "address"
        },
        {
          "internalType": "address",
          "name": "delegate",
          "type": "address"
        }
      ],
      "name": "allowance",
      "outputs": [
        {
          "internalType": "uint256",
          "name": "",
          "type": "uint256"
        }
      ],
      "stateMutability": "view",
      "type": "function"
    },
    {
      "inputs": [
        {
          "internalType": "address",
          "name": "delegate",
          "type": "address"
        },
        {
          "internalType": "uint256",
          "name": "numTokens",
          "type": "uint256"
        }
      ],
      "name": "approve",
      "outputs": [
        {
          "internalType": "bool",
          "name": "",
          "type": "bool"
        }
      ],
      "stateMutability": "nonpayable",
      "type": "function"
    },
    {
      "inputs": [
        {
          "internalType": "address",
          "name": "tokenOwner",
          "type": "address"
        }
      ],
      "name": "balanceOf",
      "outputs": [
        {
          "internalType": "uint256",
          "name": "",
          "type": "uint256"
        }
      ],
      "stateMutability": "view",
      "type": "function"
    },
    {
      "inputs": [],
      "name": "decimals",
      "outputs": [
        {
          "internalType": "uint8",
          "name": "",
          "type": "uint8"
        }
      ],
      "stateMutability": "view",
      "type": "function"
    },
    {
      "inputs": [],
      "name": "name",
      "outputs": [
        {
          "internalType": "string",
          "name": "",
          "type": "string"
        }
      ],
      "stateMutability": "view",
      "type": "function"
    },
    {
      "inputs": [],
      "name": "symbol",
      "outputs": [
        {
          "internalType": "string",
          "name": "",
          "type": "string"
        }
      ],
      "stateMutability": "view",
      "type": "function"
    },
    {
      "inputs": [],
      "name": "totalSupply",
      "outputs": [
        {
          "internalType": "uint256",
          "name": "",
          "type": "uint256"
        }
      ],
      "stateMutability": "view",
      "type": "function"
    },
    {
      "inputs": [
        {
          "internalType": "address",
          "name": "receiver",
          "type": "address"
        },
        {
          "internalType": "uint256",
          "name": "numTokens",
          "type": "uint256"
        }
      ],
      "name": "transfer",
      "outputs": [
        {
          "internalType": "bool",
          "name": "",
          "type": "bool"
        }
      ],
      "stateMutability": "nonpayable",
      "type": "function"
    },
    {
      "inputs": [
        {
          "internalType": "address",
          "name": "owner",
          "type": "address"
        },
        {
          "internalType": "address",
          "name": "buyer",
          "type": "address"
        },
        {
          "internalType": "uint256",
          "name": "numTokens",
          "type": "uint256"
        }
      ],
      "name": "transferFrom",
      "outputs": [
        {
          "internalType": "bool",
          "name": "",
          "type": "bool"
        }
      ],
      "stateMutability": "nonpayable",
      "type": "function"
    },
    {
      "inputs": [
        {
          "internalType": "address",
          "name": "user",
          "type": "address"
        },
        {
          "internalType": "uint256",
          "name": "numTokens",
          "type": "uint256"
        }
      ],
      "name": "useCoin",
      "outputs": [],
      "stateMutability": "nonpayable",
      "type": "function"
    },
    {
      "inputs": [
        {
          "internalType": "uint256",
          "name": "challengerId",
          "type": "uint256"
        }
      ],
      "name": "refund",
      "outputs": [],
      "stateMutability": "payable",
      "type": "function"
    },
    {
      "inputs": [
        {
          "internalType": "uint256",
          "name": "challengeId",
          "type": "uint256"
        },
        {
          "internalType": "uint256",
          "name": "userId",
          "type": "uint256"
        },
        {
          "internalType": "uint256",
          "name": "challengerId",
          "type": "uint256"
        },
        {
          "internalType": "uint256",
          "name": "userIdIndex",
          "type": "uint256"
        },
        {
          "internalType": "uint256",
          "name": "challengeIdIndex",
          "type": "uint256"
        }
      ],
      "name": "usePasscoin",
      "outputs": [],
      "stateMutability": "nonpayable",
      "type": "function"
    },
    {
      "inputs": [
        {
          "internalType": "uint256",
          "name": "challengeId",
          "type": "uint256"
        },
        {
          "internalType": "uint256",
          "name": "userId",
          "type": "uint256"
        },
        {
          "internalType": "uint256",
          "name": "challengerId",
          "type": "uint256"
        },
        {
          "internalType": "uint256",
          "name": "userIdIndex",
          "type": "uint256"
        },
        {
          "internalType": "uint256",
          "name": "challengeIdIndex",
          "type": "uint256"
        }
      ],
      "name": "applyVoteResult",
      "outputs": [],
      "stateMutability": "nonpayable",
      "type": "function"
    },
    {
      "inputs": [
        {
          "internalType": "uint256[]",
          "name": "userIdList",
          "type": "uint256[]"
        }
      ],
      "name": "receivePasscoin",
      "outputs": [],
      "stateMutability": "nonpayable",
      "type": "function"
    }
  ],
  "bytecode": "0x60806040526305f5e100600255600160035534801561001d57600080fd5b506002543360009081526020819052604090205561135a806100406000396000f3fe6080604052600436106100dd5760003560e01c806370a082311161007f578063a8cfc26611610059578063a8cfc2661461027d578063a9059cbb1461029d578063dd62ed3e146102bd578063f5a802451461030357600080fd5b806370a08231146101f7578063740c162a1461022d57806395d89b411461024d57600080fd5b806323b872dd116100bb57806323b872dd1461017b578063278ecde11461019b578063313ce567146101b05780633f711851146101d757600080fd5b806306fdde03146100e2578063095ea7b31461012c57806318160ddd1461015c575b600080fd5b3480156100ee57600080fd5b50610116604051806040016040528060088152602001672830b9b9a1b7b4b760c11b81525081565b6040516101239190611022565b60405180910390f35b34801561013857600080fd5b5061014c610147366004611093565b610323565b6040519015158152602001610123565b34801561016857600080fd5b506002545b604051908152602001610123565b34801561018757600080fd5b5061014c6101963660046110bd565b61038f565b6101ae6101a93660046110f9565b6104da565b005b3480156101bc57600080fd5b506101c5600081565b60405160ff9091168152602001610123565b3480156101e357600080fd5b506101ae6101f2366004611093565b61063f565b34801561020357600080fd5b5061016d610212366004611112565b6001600160a01b031660009081526020819052604090205490565b34801561023957600080fd5b506101ae610248366004611134565b6106c3565b34801561025957600080fd5b50610116604051806040016040528060048152602001635041535360e01b81525081565b34801561028957600080fd5b506101ae610298366004611185565b6109f9565b3480156102a957600080fd5b5061014c6102b8366004611093565b610b90565b3480156102c957600080fd5b5061016d6102d8366004611243565b6001600160a01b03918216600090815260016020908152604080832093909416825291909152205490565b34801561030f57600080fd5b506101ae61031e366004611134565b610c42565b3360008181526001602090815260408083206001600160a01b038716808552925280832085905551919290917f8c5be1e5ebec7d5bd14f71427d1e84f3dd0314c0f7b2291e5b200ac8c7c3b9259061037e9086815260200190565b60405180910390a350600192915050565b6001600160a01b0383166000908152602081905260408120548211156103b457600080fd5b6001600160a01b03841660009081526001602090815260408083203384529091529020548211156103e457600080fd5b6001600160a01b03841660009081526020819052604090205461040890839061128c565b6001600160a01b03851660009081526020818152604080832093909355600181528282203383529052205461043e90839061128c565b6001600160a01b038086166000908152600160209081526040808320338452825280832094909455918616815290819052205461047c9083906112a3565b6001600160a01b038481166000818152602081815260409182902094909455518581529092918716917fddf252ad1be2c89b69c2b068fc378daa952ba7f163c4a11628f55a4df523b3ef910160405180910390a35060019392505050565b60008181526004602081815260408084208151610120810183528154815260018201549381019390935260028101549183019190915260038101546001600160a01b03166060830152918201805491929160808401919061053a906112bb565b80601f0160208091040260200160405190810160405280929190818152602001828054610566906112bb565b80156105b35780601f10610588576101008083540402835291602001916105b3565b820191906000526020600020905b81548152906001019060200180831161059657829003601f168201915b505050505081526020016005820154815260200160068201548152602001600782015481526020016008820154815250509050600081606001519050806001600160a01b03166108fc8361010001518460e0015161061191906112a3565b6040518115909202916000818181858888f19350505050158015610639573d6000803e3d6000fd5b50505050565b3360009081526020819052604090205481111561065b57600080fd5b336000908152602081905260409020546106769082906112a3565b33600090815260208190526040808220929092556001600160a01b038416815220546106a390829061128c565b6001600160a01b0390921660009081526020819052604090209190915550565b60008381526004602081815260408084208151610120810183528154815260018201549381019390935260028101549183019190915260038101546001600160a01b031660608301529182018054919291608084019190610723906112bb565b80601f016020809104026020016040519081016040528092919081815260200182805461074f906112bb565b801561079c5780601f106107715761010080835404028352916020019161079c565b820191906000526020600020905b81548152906001019060200180831161077f57829003601f168201915b50505050508152602001600582015481526020016006820154815260200160078201548152602001600882015481525050905060018160a0018181516107e2919061128c565b9052506000858152600560205260409020805482919085908110610808576108086112f5565b60009182526020918290208351600992909202019081558282015160018201556040830151600282015560608301516003820180546001600160a01b0319166001600160a01b0390921691909117905560808301518051919261087392600485019290910190610f89565b5060a0820151816005015560c0820151816006015560e082015181600701556101008201518160080155905050806006600088815260200190815260200160002083815481106108c5576108c56112f5565b60009182526020918290208351600992909202019081558282015160018201556040830151600282015560608301516003820180546001600160a01b0319166001600160a01b0390921691909117905560808301518051919261093092600485019290910190610f89565b5060a0820151600582015560c0820151600682015560e082015160078201556101009091015160089091015580516000908152600460208181526040928390208451815581850151600182015592840151600284015560608401516003840180546001600160a01b0319166001600160a01b03909216919091179055608084015180518594936109c593908501920190610f89565b5060a0820151600582015560c0820151600682015560e0820151600782015561010090910151600890910155505050505050565b60005b8151811015610b8c57600060056000848481518110610a1d57610a1d6112f5565b60200260200101518152602001908152602001600020600081548110610a4557610a456112f5565b9060005260206000209060090201604051806101200160405290816000820154815260200160018201548152602001600282015481526020016003820160009054906101000a90046001600160a01b03166001600160a01b03166001600160a01b03168152602001600482018054610abc906112bb565b80601f0160208091040260200160405190810160405280929190818152602001828054610ae8906112bb565b8015610b355780601f10610b0a57610100808354040283529160200191610b35565b820191906000526020600020905b815481529060010190602001808311610b1857829003601f168201915b505050505081526020016005820154815260200160068201548152602001600782015481526020016008820154815250509050610b7781606001516001610b90565b50508080610b849061130b565b9150506109fc565b5050565b33600090815260208190526040812054821115610bac57600080fd5b33600090815260208190526040902054610bc790839061128c565b33600090815260208190526040808220929092556001600160a01b03851681522054610bf49083906112a3565b6001600160a01b038416600081815260208181526040918290209390935551848152909133917fddf252ad1be2c89b69c2b068fc378daa952ba7f163c4a11628f55a4df523b3ef910161037e565b60008381526004602081815260408084208151610120810183528154815260018201549381019390935260028101549183019190915260038101546001600160a01b031660608301529182018054919291608084019190610ca2906112bb565b80601f0160208091040260200160405190810160405280929190818152602001828054610cce906112bb565b8015610d1b5780601f10610cf057610100808354040283529160200191610d1b565b820191906000526020600020905b815481529060010190602001808311610cfe57829003601f168201915b50505050508152602001600582015481526020016006820154815260200160078201548152602001600882015481525050905060018160a001818151610d6191906112a3565b9052506000858152600560205260409020805482919085908110610d8757610d876112f5565b60009182526020918290208351600992909202019081558282015160018201556040830151600282015560608301516003820180546001600160a01b0319166001600160a01b03909216919091179055608083015180519192610df292600485019290910190610f89565b5060a0820151816005015560c0820151816006015560e08201518160070155610100820151816008015590505080600660008881526020019081526020016000208381548110610e4457610e446112f5565b60009182526020918290208351600992909202019081558282015160018201556040830151600282015560608301516003820180546001600160a01b0319166001600160a01b03909216919091179055608083015180519192610eaf92600485019290910190610f89565b5060a0820151600582015560c0820151600682015560e082015160078201556101009091015160089091015580516000908152600460208181526040928390208451815581850151600182015592840151600284015560608401516003840180546001600160a01b0319166001600160a01b0390921691909117905560808401518051859493610f4493908501920190610f89565b5060a0820151600582015560c0820151600682015560e08201516007820155610100909101516008909101556060810151610f8081600161063f565b50505050505050565b828054610f95906112bb565b90600052602060002090601f016020900481019282610fb75760008555610ffd565b82601f10610fd057805160ff1916838001178555610ffd565b82800160010185558215610ffd579182015b82811115610ffd578251825591602001919060010190610fe2565b5061100992915061100d565b5090565b5b80821115611009576000815560010161100e565b600060208083528351808285015260005b8181101561104f57858101830151858201604001528201611033565b81811115611061576000604083870101525b50601f01601f1916929092016040019392505050565b80356001600160a01b038116811461108e57600080fd5b919050565b600080604083850312156110a657600080fd5b6110af83611077565b946020939093013593505050565b6000806000606084860312156110d257600080fd5b6110db84611077565b92506110e960208501611077565b9150604084013590509250925092565b60006020828403121561110b57600080fd5b5035919050565b60006020828403121561112457600080fd5b61112d82611077565b9392505050565b600080600080600060a0868803121561114c57600080fd5b505083359560208501359550604085013594606081013594506080013592509050565b634e487b7160e01b600052604160045260246000fd5b6000602080838503121561119857600080fd5b823567ffffffffffffffff808211156111b057600080fd5b818501915085601f8301126111c457600080fd5b8135818111156111d6576111d661116f565b8060051b604051601f19603f830116810181811085821117156111fb576111fb61116f565b60405291825284820192508381018501918883111561121957600080fd5b938501935b828510156112375784358452938501939285019261121e565b98975050505050505050565b6000806040838503121561125657600080fd5b61125f83611077565b915061126d60208401611077565b90509250929050565b634e487b7160e01b600052601160045260246000fd5b60008282101561129e5761129e611276565b500390565b600082198211156112b6576112b6611276565b500190565b600181811c908216806112cf57607f821691505b6020821081036112ef57634e487b7160e01b600052602260045260246000fd5b50919050565b634e487b7160e01b600052603260045260246000fd5b60006001820161131d5761131d611276565b506001019056fea2646970667358221220425a149049b1e17d270aba61fe3be52ac95c8bafae898d7076846ba9cda64d6064736f6c634300080e0033",
  "immutableReferences": {},
  "source": "// SPDX-License-Identifier: MIT\r\npragma solidity ^0.8.0;\r\npragma abicoder v2;\r\n\r\nimport \"./PassCoinContract.sol\";\r\n\r\ncontract ChallengerContract is PassCoinContract{\r\n    struct Challenger {\r\n        // pk\r\n        uint id;\r\n        // , fk\r\n        uint userId;\r\n        uint challengeId;\r\n\r\n        //  \r\n        address userAddress;\r\n\r\n        //       \r\n        string today;\r\n\r\n        //  ,  \r\n        uint totalCount;\r\n        uint dailyCount;\r\n\r\n        //  \r\n        uint userDeposit;\r\n\r\n        // \r\n        uint reward;\r\n    }\r\n\r\n    uint challengerSequence=1;\r\n    mapping(uint => Challenger) challengerMap;\r\n\r\n    //  \r\n    mapping(uint => Challenger[]) findByUserIdChallenger;\r\n    mapping(uint => Challenger[]) findByChallengeIdChallenger;\r\n\r\n    \r\n    // \r\n    function refund(uint challengerId) public payable{\r\n        Challenger memory challenger=challengerMap[challengerId];\r\n       \r\n        address userAddress=challenger.userAddress;\r\n        payable(userAddress).transfer(challenger.userDeposit+challenger.reward);\r\n    }\r\n\r\n    //   \r\n    function usePasscoin(uint challengeId,uint userId,uint challengerId,uint userIdIndex,uint challengeIdIndex) public{\r\n        Challenger memory findChallenger=challengerMap[challengerId];\r\n\r\n        findChallenger.totalCount+=1;\r\n\r\n        //  \r\n        findByUserIdChallenger[userId][userIdIndex]=findChallenger;\r\n        findByChallengeIdChallenger[challengeId][challengeIdIndex]=findChallenger;\r\n        challengerMap[findChallenger.id]=findChallenger;\r\n\r\n        address userAddress=findChallenger.userAddress;\r\n        useCoin(userAddress,1);\r\n    }\r\n    \r\n\r\n    // \r\n    function applyVoteResult(uint challengeId,uint userId,uint challengerId,uint userIdIndex,uint challengeIdIndex) public{\r\n \r\n        Challenger memory findChallenger=challengerMap[challengerId];\r\n\r\n        findChallenger.totalCount-=1;\r\n\r\n        //  \r\n        findByUserIdChallenger[userId][userIdIndex]=findChallenger;\r\n        findByChallengeIdChallenger[challengeId][challengeIdIndex]=findChallenger;\r\n        challengerMap[findChallenger.id]=findChallenger;\r\n    }\r\n    //  \r\n    function receivePasscoin(uint[] memory userIdList) public{\r\n        /*    */\r\n        for (uint256 i = 0; i < userIdList.length; i++) {\r\n            Challenger memory challenger = findByUserIdChallenger[userIdList[i]][0];             \r\n            transfer(challenger.userAddress, 1);\r\n        }\r\n    }\r\n}\r\n",
  "sourcePath": "c:\\Users\\multicampus\\Desktop\\ssafy\\S07P22B106\\truffle\\contracts\\ChallengerContract.sol",
  "compiler": {
    "name": "solc",
    "version": "0.8.14+commit.80d49f37.Emscripten.clang"
  },
  "schemaVersion": "3.4.10",
  "updatedAt": "2022-09-23T07:24:43.692Z",
  "devdoc": {
    "kind": "dev",
    "methods": {},
    "version": 1
  },
  "userdoc": {
    "kind": "user",
    "methods": {},
    "version": 1
  }
}