{
  "contractName": "ChallengeContract",
  "abi": [
    {
      "anonymous": false,
      "inputs": [
        {
          "indexed": true,
          "internalType": "address",
          "name": "owner",
          "type": "address"
        },
        {
          "indexed": true,
          "internalType": "address",
          "name": "spender",
          "type": "address"
        },
        {
          "indexed": false,
          "internalType": "uint256",
          "name": "value",
          "type": "uint256"
        }
      ],
      "name": "Approval",
      "type": "event"
    },
    {
      "anonymous": false,
      "inputs": [
        {
          "indexed": true,
          "internalType": "address",
          "name": "from",
          "type": "address"
        },
        {
          "indexed": true,
          "internalType": "address",
          "name": "to",
          "type": "address"
        },
        {
          "indexed": false,
          "internalType": "uint256",
          "name": "value",
          "type": "uint256"
        }
      ],
      "name": "Transfer",
      "type": "event"
    },
    {
      "anonymous": false,
      "inputs": [
        {
          "indexed": false,
          "internalType": "uint256",
          "name": "challengeId",
          "type": "uint256"
        }
      ],
      "name": "returnChallengeId",
      "type": "event"
    },
    {
      "inputs": [
        {
          "components": [
            {
              "internalType": "uint256",
              "name": "id",
              "type": "uint256"
            },
            {
              "internalType": "string",
              "name": "name",
              "type": "string"
            },
            {
              "internalType": "address",
              "name": "donationAddress",
              "type": "address"
            },
            {
              "internalType": "string",
              "name": "donationURL",
              "type": "string"
            }
          ],
          "internalType": "struct DonationContract.Donation",
          "name": "donation",
          "type": "tuple"
        }
      ],
      "name": "addDonation",
      "outputs": [],
      "stateMutability": "nonpayable",
      "type": "function"
    },
    {
      "inputs": [
        {
          "internalType": "address",
          "name": "owner",
          "type": "address"
        },
        {
          "internalType": "address",
          "name": "delegate",
          "type": "address"
        }
      ],
      "name": "allowance",
      "outputs": [
        {
          "internalType": "uint256",
          "name": "",
          "type": "uint256"
        }
      ],
      "stateMutability": "view",
      "type": "function",
      "constant": true
    },
    {
      "inputs": [
        {
          "internalType": "uint256",
          "name": "challengeId",
          "type": "uint256"
        },
        {
          "internalType": "uint256",
          "name": "userId",
          "type": "uint256"
        },
        {
          "internalType": "uint256",
          "name": "challengerId",
          "type": "uint256"
        },
        {
          "internalType": "uint256",
          "name": "userIdIndex",
          "type": "uint256"
        },
        {
          "internalType": "uint256",
          "name": "challengeIdIndex",
          "type": "uint256"
        }
      ],
      "name": "applyVoteResult",
      "outputs": [],
      "stateMutability": "nonpayable",
      "type": "function"
    },
    {
      "inputs": [
        {
          "internalType": "address",
          "name": "delegate",
          "type": "address"
        },
        {
          "internalType": "uint256",
          "name": "numTokens",
          "type": "uint256"
        }
      ],
      "name": "approve",
      "outputs": [
        {
          "internalType": "bool",
          "name": "",
          "type": "bool"
        }
      ],
      "stateMutability": "nonpayable",
      "type": "function"
    },
    {
      "inputs": [
        {
          "internalType": "address",
          "name": "tokenOwner",
          "type": "address"
        }
      ],
      "name": "balanceOf",
      "outputs": [
        {
          "internalType": "uint256",
          "name": "",
          "type": "uint256"
        }
      ],
      "stateMutability": "view",
      "type": "function",
      "constant": true
    },
    {
      "inputs": [
        {
          "components": [
            {
              "internalType": "uint256",
              "name": "challengeId",
              "type": "uint256"
            },
            {
              "internalType": "uint256",
              "name": "interestId",
              "type": "uint256"
            },
            {
              "internalType": "uint256",
              "name": "ownerId",
              "type": "uint256"
            },
            {
              "internalType": "string",
              "name": "name",
              "type": "string"
            },
            {
              "internalType": "string",
              "name": "desc",
              "type": "string"
            },
            {
              "internalType": "string",
              "name": "mainPicURL",
              "type": "string"
            },
            {
              "internalType": "string",
              "name": "goodPicURL",
              "type": "string"
            },
            {
              "internalType": "string",
              "name": "badPicURL",
              "type": "string"
            },
            {
              "internalType": "uint256",
              "name": "authTotalTimes",
              "type": "uint256"
            },
            {
              "internalType": "uint256",
              "name": "authWeekTimes",
              "type": "uint256"
            },
            {
              "internalType": "uint256",
              "name": "authDayTimes",
              "type": "uint256"
            },
            {
              "internalType": "int256",
              "name": "startTime",
              "type": "int256"
            },
            {
              "internalType": "int256",
              "name": "endTime",
              "type": "int256"
            },
            {
              "internalType": "string",
              "name": "startDate",
              "type": "string"
            },
            {
              "internalType": "string",
              "name": "endDate",
              "type": "string"
            },
            {
              "internalType": "uint256",
              "name": "personnel",
              "type": "uint256"
            },
            {
              "internalType": "uint256",
              "name": "deposit",
              "type": "uint256"
            },
            {
              "internalType": "uint256",
              "name": "totalDeposit",
              "type": "uint256"
            },
            {
              "internalType": "bool",
              "name": "complete",
              "type": "bool"
            }
          ],
          "internalType": "struct DailyChallengeContract.DailyChallenge",
          "name": "dailyChallenge",
          "type": "tuple"
        }
      ],
      "name": "createDailyChallenge",
      "outputs": [],
      "stateMutability": "payable",
      "type": "function",
      "payable": true
    },
    {
      "inputs": [
        {
          "components": [
            {
              "internalType": "uint256",
              "name": "challengeId",
              "type": "uint256"
            },
            {
              "internalType": "uint256",
              "name": "interestId",
              "type": "uint256"
            },
            {
              "internalType": "uint256",
              "name": "ownerId",
              "type": "uint256"
            },
            {
              "internalType": "uint256",
              "name": "donationId",
              "type": "uint256"
            },
            {
              "internalType": "string",
              "name": "name",
              "type": "string"
            },
            {
              "internalType": "string",
              "name": "desc",
              "type": "string"
            },
            {
              "internalType": "uint256",
              "name": "setDonation",
              "type": "uint256"
            },
            {
              "internalType": "string",
              "name": "mainPicURL",
              "type": "string"
            },
            {
              "internalType": "string",
              "name": "goodPicURL",
              "type": "string"
            },
            {
              "internalType": "string",
              "name": "badPicURL",
              "type": "string"
            },
            {
              "internalType": "uint256",
              "name": "authTotalTimes",
              "type": "uint256"
            },
            {
              "internalType": "uint256",
              "name": "authWeekTimes",
              "type": "uint256"
            },
            {
              "internalType": "uint256",
              "name": "authDayTimes",
              "type": "uint256"
            },
            {
              "internalType": "uint256",
              "name": "startTime",
              "type": "uint256"
            },
            {
              "internalType": "uint256",
              "name": "endTime",
              "type": "uint256"
            },
            {
              "internalType": "string",
              "name": "startDate",
              "type": "string"
            },
            {
              "internalType": "string",
              "name": "endDate",
              "type": "string"
            },
            {
              "internalType": "uint256",
              "name": "personnel",
              "type": "uint256"
            },
            {
              "internalType": "uint256",
              "name": "totalDonation",
              "type": "uint256"
            },
            {
              "internalType": "bool",
              "name": "complete",
              "type": "bool"
            },
            {
              "internalType": "bool",
              "name": "success",
              "type": "bool"
            }
          ],
          "internalType": "struct DonationChallengeContract.DonationChallenge",
          "name": "donationChallenge",
          "type": "tuple"
        }
      ],
      "name": "createDonationChallenge",
      "outputs": [],
      "stateMutability": "payable",
      "type": "function",
      "payable": true
    },
    {
      "inputs": [],
      "name": "decimals",
      "outputs": [
        {
          "internalType": "uint8",
          "name": "",
          "type": "uint8"
        }
      ],
      "stateMutability": "view",
      "type": "function",
      "constant": true
    },
    {
      "inputs": [
        {
          "internalType": "uint256",
          "name": "challengeId",
          "type": "uint256"
        }
      ],
      "name": "endDailyChallenge",
      "outputs": [],
      "stateMutability": "nonpayable",
      "type": "function"
    },
    {
      "inputs": [
        {
          "internalType": "uint256",
          "name": "challengeId",
          "type": "uint256"
        }
      ],
      "name": "endDonationChallenge",
      "outputs": [],
      "stateMutability": "payable",
      "type": "function",
      "payable": true
    },
    {
      "inputs": [
        {
          "internalType": "uint256",
          "name": "challengerId",
          "type": "uint256"
        }
      ],
      "name": "findByChallengerId",
      "outputs": [
        {
          "components": [
            {
              "internalType": "uint256",
              "name": "id",
              "type": "uint256"
            },
            {
              "internalType": "uint256",
              "name": "userId",
              "type": "uint256"
            },
            {
              "internalType": "uint256",
              "name": "challengeId",
              "type": "uint256"
            },
            {
              "internalType": "address",
              "name": "userAddress",
              "type": "address"
            },
            {
              "internalType": "uint256",
              "name": "today",
              "type": "uint256"
            },
            {
              "internalType": "uint256",
              "name": "totalCount",
              "type": "uint256"
            },
            {
              "internalType": "uint256",
              "name": "weekCount",
              "type": "uint256"
            },
            {
              "internalType": "uint256",
              "name": "dailyCount",
              "type": "uint256"
            },
            {
              "internalType": "uint256",
              "name": "userDeposit",
              "type": "uint256"
            },
            {
              "internalType": "uint256",
              "name": "reward",
              "type": "uint256"
            }
          ],
          "internalType": "struct ChallengerContract.Challenger",
          "name": "",
          "type": "tuple"
        }
      ],
      "stateMutability": "view",
      "type": "function",
      "constant": true
    },
    {
      "inputs": [],
      "name": "getAllDonation",
      "outputs": [
        {
          "components": [
            {
              "internalType": "uint256",
              "name": "id",
              "type": "uint256"
            },
            {
              "internalType": "string",
              "name": "name",
              "type": "string"
            },
            {
              "internalType": "address",
              "name": "donationAddress",
              "type": "address"
            },
            {
              "internalType": "string",
              "name": "donationURL",
              "type": "string"
            }
          ],
          "internalType": "struct DonationContract.Donation[]",
          "name": "",
          "type": "tuple[]"
        }
      ],
      "stateMutability": "view",
      "type": "function",
      "constant": true
    },
    {
      "inputs": [],
      "name": "name",
      "outputs": [
        {
          "internalType": "string",
          "name": "",
          "type": "string"
        }
      ],
      "stateMutability": "view",
      "type": "function",
      "constant": true
    },
    {
      "inputs": [
        {
          "internalType": "uint256[]",
          "name": "userIdList",
          "type": "uint256[]"
        },
        {
          "internalType": "uint256",
          "name": "challengeId",
          "type": "uint256"
        }
      ],
      "name": "receivePasscoin",
      "outputs": [],
      "stateMutability": "nonpayable",
      "type": "function"
    },
    {
      "inputs": [
        {
          "internalType": "uint256",
          "name": "challengerId",
          "type": "uint256"
        }
      ],
      "name": "refund",
      "outputs": [],
      "stateMutability": "payable",
      "type": "function",
      "payable": true
    },
    {
      "inputs": [],
      "name": "symbol",
      "outputs": [
        {
          "internalType": "string",
          "name": "",
          "type": "string"
        }
      ],
      "stateMutability": "view",
      "type": "function",
      "constant": true
    },
    {
      "inputs": [],
      "name": "totalSupply",
      "outputs": [
        {
          "internalType": "uint256",
          "name": "",
          "type": "uint256"
        }
      ],
      "stateMutability": "view",
      "type": "function",
      "constant": true
    },
    {
      "inputs": [
        {
          "internalType": "address",
          "name": "receiver",
          "type": "address"
        },
        {
          "internalType": "uint256",
          "name": "numTokens",
          "type": "uint256"
        }
      ],
      "name": "transfer",
      "outputs": [
        {
          "internalType": "bool",
          "name": "",
          "type": "bool"
        }
      ],
      "stateMutability": "nonpayable",
      "type": "function"
    },
    {
      "inputs": [
        {
          "internalType": "address",
          "name": "owner",
          "type": "address"
        },
        {
          "internalType": "address",
          "name": "buyer",
          "type": "address"
        },
        {
          "internalType": "uint256",
          "name": "numTokens",
          "type": "uint256"
        }
      ],
      "name": "transferFrom",
      "outputs": [
        {
          "internalType": "bool",
          "name": "",
          "type": "bool"
        }
      ],
      "stateMutability": "nonpayable",
      "type": "function"
    },
    {
      "inputs": [
        {
          "internalType": "address",
          "name": "user",
          "type": "address"
        },
        {
          "internalType": "uint256",
          "name": "numTokens",
          "type": "uint256"
        }
      ],
      "name": "useCoin",
      "outputs": [],
      "stateMutability": "nonpayable",
      "type": "function"
    },
    {
      "inputs": [
        {
          "internalType": "uint256",
          "name": "challengeId",
          "type": "uint256"
        },
        {
          "internalType": "uint256",
          "name": "userId",
          "type": "uint256"
        },
        {
          "internalType": "uint256",
          "name": "challengerId",
          "type": "uint256"
        },
        {
          "internalType": "uint256",
          "name": "userIdIndex",
          "type": "uint256"
        },
        {
          "internalType": "uint256",
          "name": "challengeIdIndex",
          "type": "uint256"
        }
      ],
      "name": "usePasscoin",
      "outputs": [],
      "stateMutability": "nonpayable",
      "type": "function"
    },
    {
      "inputs": [],
      "name": "getAllChallenge",
      "outputs": [
        {
          "internalType": "uint256[]",
          "name": "",
          "type": "uint256[]"
        },
        {
          "internalType": "uint256[]",
          "name": "",
          "type": "uint256[]"
        },
        {
          "components": [
            {
              "internalType": "uint256",
              "name": "challengeId",
              "type": "uint256"
            },
            {
              "internalType": "uint256",
              "name": "interestId",
              "type": "uint256"
            },
            {
              "internalType": "uint256",
              "name": "ownerId",
              "type": "uint256"
            },
            {
              "internalType": "string",
              "name": "name",
              "type": "string"
            },
            {
              "internalType": "string",
              "name": "desc",
              "type": "string"
            },
            {
              "internalType": "string",
              "name": "mainPicURL",
              "type": "string"
            },
            {
              "internalType": "string",
              "name": "goodPicURL",
              "type": "string"
            },
            {
              "internalType": "string",
              "name": "badPicURL",
              "type": "string"
            },
            {
              "internalType": "uint256",
              "name": "authTotalTimes",
              "type": "uint256"
            },
            {
              "internalType": "uint256",
              "name": "authWeekTimes",
              "type": "uint256"
            },
            {
              "internalType": "uint256",
              "name": "authDayTimes",
              "type": "uint256"
            },
            {
              "internalType": "int256",
              "name": "startTime",
              "type": "int256"
            },
            {
              "internalType": "int256",
              "name": "endTime",
              "type": "int256"
            },
            {
              "internalType": "string",
              "name": "startDate",
              "type": "string"
            },
            {
              "internalType": "string",
              "name": "endDate",
              "type": "string"
            },
            {
              "internalType": "uint256",
              "name": "personnel",
              "type": "uint256"
            },
            {
              "internalType": "uint256",
              "name": "deposit",
              "type": "uint256"
            },
            {
              "internalType": "uint256",
              "name": "totalDeposit",
              "type": "uint256"
            },
            {
              "internalType": "bool",
              "name": "complete",
              "type": "bool"
            }
          ],
          "internalType": "struct DailyChallengeContract.DailyChallenge[]",
          "name": "",
          "type": "tuple[]"
        },
        {
          "components": [
            {
              "internalType": "uint256",
              "name": "challengeId",
              "type": "uint256"
            },
            {
              "internalType": "uint256",
              "name": "interestId",
              "type": "uint256"
            },
            {
              "internalType": "uint256",
              "name": "ownerId",
              "type": "uint256"
            },
            {
              "internalType": "uint256",
              "name": "donationId",
              "type": "uint256"
            },
            {
              "internalType": "string",
              "name": "name",
              "type": "string"
            },
            {
              "internalType": "string",
              "name": "desc",
              "type": "string"
            },
            {
              "internalType": "uint256",
              "name": "setDonation",
              "type": "uint256"
            },
            {
              "internalType": "string",
              "name": "mainPicURL",
              "type": "string"
            },
            {
              "internalType": "string",
              "name": "goodPicURL",
              "type": "string"
            },
            {
              "internalType": "string",
              "name": "badPicURL",
              "type": "string"
            },
            {
              "internalType": "uint256",
              "name": "authTotalTimes",
              "type": "uint256"
            },
            {
              "internalType": "uint256",
              "name": "authWeekTimes",
              "type": "uint256"
            },
            {
              "internalType": "uint256",
              "name": "authDayTimes",
              "type": "uint256"
            },
            {
              "internalType": "uint256",
              "name": "startTime",
              "type": "uint256"
            },
            {
              "internalType": "uint256",
              "name": "endTime",
              "type": "uint256"
            },
            {
              "internalType": "string",
              "name": "startDate",
              "type": "string"
            },
            {
              "internalType": "string",
              "name": "endDate",
              "type": "string"
            },
            {
              "internalType": "uint256",
              "name": "personnel",
              "type": "uint256"
            },
            {
              "internalType": "uint256",
              "name": "totalDonation",
              "type": "uint256"
            },
            {
              "internalType": "bool",
              "name": "complete",
              "type": "bool"
            },
            {
              "internalType": "bool",
              "name": "success",
              "type": "bool"
            }
          ],
          "internalType": "struct DonationChallengeContract.DonationChallenge[]",
          "name": "",
          "type": "tuple[]"
        }
      ],
      "stateMutability": "nonpayable",
      "type": "function"
    },
    {
      "inputs": [
        {
          "internalType": "uint256",
          "name": "challengeId",
          "type": "uint256"
        },
        {
          "internalType": "uint256",
          "name": "userId",
          "type": "uint256"
        },
        {
          "internalType": "uint256",
          "name": "today",
          "type": "uint256"
        }
      ],
      "name": "joinChallenge",
      "outputs": [],
      "stateMutability": "payable",
      "type": "function",
      "payable": true
    },
    {
      "inputs": [
        {
          "internalType": "uint256",
          "name": "userId",
          "type": "uint256"
        }
      ],
      "name": "getMyChallenge",
      "outputs": [
        {
          "internalType": "uint256[]",
          "name": "",
          "type": "uint256[]"
        },
        {
          "internalType": "uint256[]",
          "name": "",
          "type": "uint256[]"
        }
      ],
      "stateMutability": "view",
      "type": "function",
      "constant": true
    },
    {
      "inputs": [
        {
          "internalType": "uint256",
          "name": "challengeId",
          "type": "uint256"
        },
        {
          "internalType": "uint256",
          "name": "userId",
          "type": "uint256"
        }
      ],
      "name": "findingChallenger",
      "outputs": [
        {
          "internalType": "uint256",
          "name": "",
          "type": "uint256"
        },
        {
          "internalType": "uint256",
          "name": "",
          "type": "uint256"
        },
        {
          "internalType": "uint256",
          "name": "",
          "type": "uint256"
        }
      ],
      "stateMutability": "view",
      "type": "function",
      "constant": true
    },
    {
      "inputs": [
        {
          "internalType": "uint256",
          "name": "challengeId",
          "type": "uint256"
        },
        {
          "internalType": "uint256",
          "name": "userId",
          "type": "uint256"
        }
      ],
      "name": "checkChallenger",
      "outputs": [
        {
          "internalType": "bool",
          "name": "",
          "type": "bool"
        }
      ],
      "stateMutability": "view",
      "type": "function",
      "constant": true
    },
    {
      "inputs": [
        {
          "internalType": "uint256",
          "name": "challengeId",
          "type": "uint256"
        },
        {
          "internalType": "uint256",
          "name": "userId",
          "type": "uint256"
        },
        {
          "internalType": "uint256",
          "name": "challengerId",
          "type": "uint256"
        },
        {
          "internalType": "uint256",
          "name": "userIdIndex",
          "type": "uint256"
        },
        {
          "internalType": "uint256",
          "name": "challengeIdIndex",
          "type": "uint256"
        },
        {
          "internalType": "uint256",
          "name": "today",
          "type": "uint256"
        }
      ],
      "name": "authenticate",
      "outputs": [],
      "stateMutability": "nonpayable",
      "type": "function"
    },
    {
      "inputs": [
        {
          "internalType": "uint256",
          "name": "challengeId",
          "type": "uint256"
        }
      ],
      "name": "getChallengers",
      "outputs": [
        {
          "components": [
            {
              "internalType": "uint256",
              "name": "id",
              "type": "uint256"
            },
            {
              "internalType": "uint256",
              "name": "userId",
              "type": "uint256"
            },
            {
              "internalType": "uint256",
              "name": "challengeId",
              "type": "uint256"
            },
            {
              "internalType": "address",
              "name": "userAddress",
              "type": "address"
            },
            {
              "internalType": "uint256",
              "name": "today",
              "type": "uint256"
            },
            {
              "internalType": "uint256",
              "name": "totalCount",
              "type": "uint256"
            },
            {
              "internalType": "uint256",
              "name": "weekCount",
              "type": "uint256"
            },
            {
              "internalType": "uint256",
              "name": "dailyCount",
              "type": "uint256"
            },
            {
              "internalType": "uint256",
              "name": "userDeposit",
              "type": "uint256"
            },
            {
              "internalType": "uint256",
              "name": "reward",
              "type": "uint256"
            }
          ],
          "internalType": "struct ChallengerContract.Challenger[]",
          "name": "",
          "type": "tuple[]"
        }
      ],
      "stateMutability": "view",
      "type": "function",
      "constant": true
    },
    {
      "inputs": [
        {
          "internalType": "uint256",
          "name": "userId",
          "type": "uint256"
        }
      ],
      "name": "getChallengersByUserId",
      "outputs": [
        {
          "components": [
            {
              "internalType": "uint256",
              "name": "id",
              "type": "uint256"
            },
            {
              "internalType": "uint256",
              "name": "userId",
              "type": "uint256"
            },
            {
              "internalType": "uint256",
              "name": "challengeId",
              "type": "uint256"
            },
            {
              "internalType": "address",
              "name": "userAddress",
              "type": "address"
            },
            {
              "internalType": "uint256",
              "name": "today",
              "type": "uint256"
            },
            {
              "internalType": "uint256",
              "name": "totalCount",
              "type": "uint256"
            },
            {
              "internalType": "uint256",
              "name": "weekCount",
              "type": "uint256"
            },
            {
              "internalType": "uint256",
              "name": "dailyCount",
              "type": "uint256"
            },
            {
              "internalType": "uint256",
              "name": "userDeposit",
              "type": "uint256"
            },
            {
              "internalType": "uint256",
              "name": "reward",
              "type": "uint256"
            }
          ],
          "internalType": "struct ChallengerContract.Challenger[]",
          "name": "",
          "type": "tuple[]"
        }
      ],
      "stateMutability": "view",
      "type": "function",
      "constant": true
    }
  ],
  "bytecode": "0x60806040526305f5e100600255600160035560016007556001600a5534801561002757600080fd5b50600254336000908152602081905260409020556153c88061004a6000396000f3fe6080604052600436106101c25760003560e01c8063740c162a116100f7578063b098d41a11610095578063d60cdc2911610064578063d60cdc2914610565578063dd62ed3e14610585578063f5a80245146105cb578063fb81a8a9146105eb57600080fd5b8063b098d41a146104ff578063bc38036414610512578063c688459514610532578063c78a57b91461054557600080fd5b806395d89b41116100d157806395d89b411461046257806398e3a3e914610492578063a5e56ec4146104bf578063a9059cbb146104df57600080fd5b8063740c162a146103f4578063767449801461041457806385d0dd601461044257600080fd5b80633f7118511161016457806352e9a1a01161013e57806352e9a1a01461034f5780635b77573b1461037157806369e2809e1461039e57806370a08231146103be57600080fd5b80633f711851146102cf5780634a91c578146102ef5780634babd3661461031457600080fd5b80631d41860d116101a05780631d41860d1461026057806323b872dd14610275578063278ecde114610295578063313ce567146102a857600080fd5b806306fdde03146101c7578063095ea7b31461021157806318160ddd14610241575b600080fd5b3480156101d357600080fd5b506101fb604051806040016040528060088152602001672830b9b9a1b7b4b760c11b81525081565b6040516102089190614461565b60405180910390f35b34801561021d57600080fd5b5061023161022c366004614497565b6105fe565b6040519015158152602001610208565b34801561024d57600080fd5b506002545b604051908152602001610208565b61027361026e3660046145f9565b61066b565b005b34801561028157600080fd5b506102316102903660046147d1565b610a79565b6102736102a336600461480d565b610bc4565b3480156102b457600080fd5b506102bd600081565b60405160ff9091168152602001610208565b3480156102db57600080fd5b506102736102ea366004614497565b610c92565b3480156102fb57600080fd5b50610304610d16565b6040516102089493929190614a15565b34801561032057600080fd5b5061033461032f366004614bf0565b611c9d565b60408051938452602084019290925290820152606001610208565b34801561035b57600080fd5b50610364611daf565b6040516102089190614c12565b34801561037d57600080fd5b5061039161038c36600461480d565b611ffe565b6040516102089190614d2a565b3480156103aa57600080fd5b506102736103b9366004614d39565b6120e9565b3480156103ca57600080fd5b506102526103d9366004614d7c565b6001600160a01b031660009081526020819052604090205490565b34801561040057600080fd5b5061027361040f366004614d97565b612474565b34801561042057600080fd5b5061043461042f36600461480d565b612738565b604051610208929190614dd2565b34801561044e57600080fd5b5061027361045d366004614e00565b6129aa565b34801561046e57600080fd5b506101fb604051806040016040528060048152602001635041535360e01b81525081565b34801561049e57600080fd5b506104b26104ad36600461480d565b612b30565b6040516102089190614eac565b3480156104cb57600080fd5b506102316104da366004614bf0565b612c0c565b3480156104eb57600080fd5b506102316104fa366004614497565b612c86565b61027361050d36600461480d565b612d38565b34801561051e57600080fd5b506104b261052d36600461480d565b6130ba565b610273610540366004614efb565b613181565b34801561055157600080fd5b5061027361056036600461480d565b613436565b34801561057157600080fd5b50610273610580366004614f27565b613d37565b34801561059157600080fd5b506102526105a0366004614fd3565b6001600160a01b03918216600090815260016020908152604080832093909416825291909152205490565b3480156105d757600080fd5b506102736105e6366004614d97565b613dc5565b6102736105f9366004615006565b614095565b3360008181526001602090815260408083206001600160a01b038716808552925280832085905551919290917f8c5be1e5ebec7d5bd14f71427d1e84f3dd0314c0f7b2291e5b200ac8c7c3b925906106599086815260200190565b60405180910390a35060015b92915050565b6007805480835234610200840181905261022084015282916008916000918261069383615208565b91905055815260200190815260200160002060008201518160000155602082015181600101556040820151816002015560608201518160030190805190602001906106df929190614300565b50608082015180516106fb916004840191602090910190614300565b5060a08201518051610717916005840191602090910190614300565b5060c08201518051610733916006840191602090910190614300565b5060e0820151805161074f916007840191602090910190614300565b5061010082015160088201556101208201516009820155610140820151600a820155610160820151600b820155610180820151600c8201556101a082015180516107a391600d840191602090910190614300565b506101c082015180516107c091600e840191602090910190614300565b506101e0820151600f82015561020082015160108201556102208201516011820155610240909101516012909101805460ff191691151591909117905580516040519081527f76fbc58aaedcbb39f7190db541de17575eeaaf17cf3facf5bd11ad55ca479ed1906020015b60405180910390a16000600460006003548152602001908152602001600020905060035481600001819055508160400151816001018190555081600001518160020181905550338160030160006101000a8154816001600160a01b0302191690836001600160a01b0316021790555034816008018190555060056000836040015181526020019081526020016000208190806001815401808255809150506001900390600052602060002090600a02016000909190919091506000820154816000015560018201548160010155600282015481600201556003820160009054906101000a90046001600160a01b03168160030160006101000a8154816001600160a01b0302191690836001600160a01b03160217905550600482015481600401556005820154816005015560068201548160060155600782015481600701556008820154816008015560098201548160090155505060066000836000015181526020019081526020016000208190806001815401808255809150506001900390600052602060002090600a02016000909190919091506000820154816000015560018201548160010155600282015481600201556003820160009054906101000a90046001600160a01b03168160030160006101000a8154816001600160a01b0302191690836001600160a01b03160217905550600482015481600401556005820154816005015560068201548160060155600782015481600701556008820154816008015560098201548160090155505060036000815480929190610a7090615208565b91905055505050565b6001600160a01b038316600090815260208190526040812054821115610a9e57600080fd5b6001600160a01b0384166000908152600160209081526040808320338452909152902054821115610ace57600080fd5b6001600160a01b038416600090815260208190526040902054610af2908390615221565b6001600160a01b038516600090815260208181526040808320939093556001815282822033835290522054610b28908390615221565b6001600160a01b0380861660009081526001602090815260408083203384528252808320949094559186168152908190522054610b66908390615238565b6001600160a01b038481166000818152602081815260409182902094909455518581529092918716917fddf252ad1be2c89b69c2b068fc378daa952ba7f163c4a11628f55a4df523b3ef910160405180910390a35060019392505050565b6000818152600460208181526040928390208351610140810185528154815260018201549281019290925260028101549382019390935260038301546001600160a01b031660608201819052918301546080820152600583015460a0820152600683015460c0820152600783015460e0820152600883015461010082018190526009909301546101208201819052909282916108fc91610c649190615238565b6040518115909202916000818181858888f19350505050158015610c8c573d6000803e3d6000fd5b50505050565b33600090815260208190526040902054811115610cae57600080fd5b33600090815260208190526040902054610cc9908290615238565b33600090815260208190526040808220929092556001600160a01b03841681522054610cf6908290615221565b6001600160a01b0390921660009081526020819052604090209190915550565b606080808060015b600754811161121257610d308161427d565b15610f6d57600e805460018181019092557fbb7b4a454dc3493923482f07822329ed19e8244eff582cc204f8554c3620c3fd0182905560008281526008602052604081206009805480850182559252805460139092027f6e1540171b6c0c960b71a7020d9f60077f6af931a8bbf590da0223dacf75c7af8101928355928101547f6e1540171b6c0c960b71a7020d9f60077f6af931a8bbf590da0223dacf75c7b084015560028101547f6e1540171b6c0c960b71a7020d9f60077f6af931a8bbf590da0223dacf75c7b184015560038101805491937f6e1540171b6c0c960b71a7020d9f60077f6af931a8bbf590da0223dacf75c7b20191610e3190615250565b610e3c929190614384565b506004820181600401908054610e5190615250565b610e5c929190614384565b506005820181600501908054610e7190615250565b610e7c929190614384565b506006820181600601908054610e9190615250565b610e9c929190614384565b506007820181600701908054610eb190615250565b610ebc929190614384565b506008820154816008015560098201548160090155600a82015481600a0155600b82015481600b0155600c82015481600c0155600d820181600d01908054610f0390615250565b610f0e929190614384565b50600e820181600e01908054610f2390615250565b610f2e929190614384565b50600f828101549082015560108083015490820155601180830154908201556012918201549101805460ff191660ff9092161515919091179055611200565b610f76816142ce565b1561120057600f805460018181019092557f8d1108e10bcb7c27dddfc02ed9d693a074039d026cf4ea4240b40f7d581ac802018290556000828152600c60205260408120600d805480850182559252805460149092027fd7b6990105719101dabeb77144f2a3385c8033acd3af97e9423a695e81ad1eb58101928355928101547fd7b6990105719101dabeb77144f2a3385c8033acd3af97e9423a695e81ad1eb684015560028101547fd7b6990105719101dabeb77144f2a3385c8033acd3af97e9423a695e81ad1eb784015560038101547fd7b6990105719101dabeb77144f2a3385c8033acd3af97e9423a695e81ad1eb884015560048101805491937fd7b6990105719101dabeb77144f2a3385c8033acd3af97e9423a695e81ad1eb901916110a090615250565b6110ab929190614384565b5060058201816005019080546110c090615250565b6110cb929190614384565b506006820154816006015560078201816007019080546110ea90615250565b6110f5929190614384565b50600882018160080190805461110a90615250565b611115929190614384565b50600982018160090190805461112a90615250565b611135929190614384565b50600a82015481600a0155600b82015481600b0155600c82015481600c0155600d82015481600d0155600e82015481600e0155600f820181600f0190805461117c90615250565b611187929190614384565b50601082018160100190805461119c90615250565b6111a7929190614384565b5060118281015490820155601280830154908201556013918201805492909101805460ff938416151560ff19821681178355925461010090819004909416151590930261ff001990921661ffff19909316929092171790555b8061120a81615208565b915050610d1e565b50600e600f6009600d8380548060200260200160405190810160405280929190818152602001828054801561126657602002820191906000526020600020905b815481526020019060010190808311611252575b50505050509350828054806020026020016040519081016040528092919081815260200182805480156112b857602002820191906000526020600020905b8154815260200190600101908083116112a4575b5050505050925081805480602002602001604051908101604052809291908181526020016000905b8282101561179457838290600052602060002090601302016040518061026001604052908160008201548152602001600182015481526020016002820154815260200160038201805461133290615250565b80601f016020809104026020016040519081016040528092919081815260200182805461135e90615250565b80156113ab5780601f10611380576101008083540402835291602001916113ab565b820191906000526020600020905b81548152906001019060200180831161138e57829003601f168201915b505050505081526020016004820180546113c490615250565b80601f01602080910402602001604051908101604052809291908181526020018280546113f090615250565b801561143d5780601f106114125761010080835404028352916020019161143d565b820191906000526020600020905b81548152906001019060200180831161142057829003601f168201915b5050505050815260200160058201805461145690615250565b80601f016020809104026020016040519081016040528092919081815260200182805461148290615250565b80156114cf5780601f106114a4576101008083540402835291602001916114cf565b820191906000526020600020905b8154815290600101906020018083116114b257829003601f168201915b505050505081526020016006820180546114e890615250565b80601f016020809104026020016040519081016040528092919081815260200182805461151490615250565b80156115615780601f1061153657610100808354040283529160200191611561565b820191906000526020600020905b81548152906001019060200180831161154457829003601f168201915b5050505050815260200160078201805461157a90615250565b80601f01602080910402602001604051908101604052809291908181526020018280546115a690615250565b80156115f35780601f106115c8576101008083540402835291602001916115f3565b820191906000526020600020905b8154815290600101906020018083116115d657829003601f168201915b505050505081526020016008820154815260200160098201548152602001600a8201548152602001600b8201548152602001600c8201548152602001600d8201805461163e90615250565b80601f016020809104026020016040519081016040528092919081815260200182805461166a90615250565b80156116b75780601f1061168c576101008083540402835291602001916116b7565b820191906000526020600020905b81548152906001019060200180831161169a57829003601f168201915b50505050508152602001600e820180546116d090615250565b80601f01602080910402602001604051908101604052809291908181526020018280546116fc90615250565b80156117495780601f1061171e57610100808354040283529160200191611749565b820191906000526020600020905b81548152906001019060200180831161172c57829003601f168201915b5050509183525050600f820154602080830191909152601083015460408301526011830154606083015260129092015460ff16151560809091015290825260019290920191016112e0565b50505050915080805480602002602001604051908101604052809291908181526020016000905b82821015611c895783829060005260206000209060140201604051806102a00160405290816000820154815260200160018201548152602001600282015481526020016003820154815260200160048201805461181790615250565b80601f016020809104026020016040519081016040528092919081815260200182805461184390615250565b80156118905780601f1061186557610100808354040283529160200191611890565b820191906000526020600020905b81548152906001019060200180831161187357829003601f168201915b505050505081526020016005820180546118a990615250565b80601f01602080910402602001604051908101604052809291908181526020018280546118d590615250565b80156119225780601f106118f757610100808354040283529160200191611922565b820191906000526020600020905b81548152906001019060200180831161190557829003601f168201915b505050505081526020016006820154815260200160078201805461194590615250565b80601f016020809104026020016040519081016040528092919081815260200182805461197190615250565b80156119be5780601f10611993576101008083540402835291602001916119be565b820191906000526020600020905b8154815290600101906020018083116119a157829003601f168201915b505050505081526020016008820180546119d790615250565b80601f0160208091040260200160405190810160405280929190818152602001828054611a0390615250565b8015611a505780601f10611a2557610100808354040283529160200191611a50565b820191906000526020600020905b815481529060010190602001808311611a3357829003601f168201915b50505050508152602001600982018054611a6990615250565b80601f0160208091040260200160405190810160405280929190818152602001828054611a9590615250565b8015611ae25780601f10611ab757610100808354040283529160200191611ae2565b820191906000526020600020905b815481529060010190602001808311611ac557829003601f168201915b50505050508152602001600a8201548152602001600b8201548152602001600c8201548152602001600d8201548152602001600e8201548152602001600f82018054611b2d90615250565b80601f0160208091040260200160405190810160405280929190818152602001828054611b5990615250565b8015611ba65780601f10611b7b57610100808354040283529160200191611ba6565b820191906000526020600020905b815481529060010190602001808311611b8957829003601f168201915b50505050508152602001601082018054611bbf90615250565b80601f0160208091040260200160405190810160405280929190818152602001828054611beb90615250565b8015611c385780601f10611c0d57610100808354040283529160200191611c38565b820191906000526020600020905b815481529060010190602001808311611c1b57829003601f168201915b505050918352505060118201546020808301919091526012830154604083015260139092015460ff8082161515606084015261010090910416151560809091015290825260019290920191016117bb565b505050509050935093509350935090919293565b6000808080805b60008781526006602052604090205481108015611cf457506000878152600660205260409020805487919083908110611cdf57611cdf615284565b90600052602060002090600a02016001015414155b15611d0b5780611d0381615208565b915050611ca4565b60008681526005602052604090205482108015611d5b57506000868152600560205260409020805488919084908110611d4657611d46615284565b90600052602060002090600a02016002015414155b15611d725781611d6a81615208565b925050611d0b565b6000868152600560205260409020805483908110611d9257611d92615284565b60009182526020909120600a909102015497919650945092505050565b606060006001600a54611dc29190615221565b67ffffffffffffffff811115611dda57611dda6144c1565b604051908082528060200260200182016040528015611e3f57816020015b611e2c6040518060800160405280600081526020016060815260200160006001600160a01b03168152602001606081525090565b815260200190600190039081611df85790505b50905060005b6001600a54611e549190615221565b811015611ff857600b6000611e6a836001615238565b815260200190815260200160002060405180608001604052908160008201548152602001600182018054611e9d90615250565b80601f0160208091040260200160405190810160405280929190818152602001828054611ec990615250565b8015611f165780601f10611eeb57610100808354040283529160200191611f16565b820191906000526020600020905b815481529060010190602001808311611ef957829003601f168201915b505050918352505060028201546001600160a01b03166020820152600382018054604090920191611f4690615250565b80601f0160208091040260200160405190810160405280929190818152602001828054611f7290615250565b8015611fbf5780601f10611f9457610100808354040283529160200191611fbf565b820191906000526020600020905b815481529060010190602001808311611fa257829003601f168201915b505050505081525050828281518110611fda57611fda615284565b60200260200101819052508080611ff090615208565b915050611e45565b50919050565b61205d60405180610140016040528060008152602001600081526020016000815260200160006001600160a01b031681526020016000815260200160008152602001600081526020016000815260200160008152602001600081525090565b506000908152600460208181526040928390208351610140810185528154815260018201549281019290925260028101549382019390935260038301546001600160a01b03166060820152908201546080820152600582015460a0820152600682015460c0820152600782015460e0820152600882015461010082015260099091015461012082015290565b60008481526004602081815260408084208151610140810183528154815260018201549381019390935260028101549183019190915260038101546001600160a01b03166060830152918201546080820152600582015460a0820152600682015460c0820152600782015460e082015260088201546101008201526009909101546101208201529061217a8861427d565b1561219757506000878152600860205260409020600a01546121ba565b6121a0886142ce565b156121ba57506000878152600c6020819052604090912001545b828260800151146121d457600060e0830152608082018390525b6121df6007846152b0565b600783608001516121f091906152b0565b1461220457600060c0830152608082018390525b60018260e0018181516122179190615238565b90525060c0820180516001919061222f908390615238565b90525060a08201805160019190612247908390615238565b905250600087815260056020526040902080548391908790811061226d5761226d615284565b90600052602060002090600a020160008201518160000155602082015181600101556040820151816002015560608201518160030160006101000a8154816001600160a01b0302191690836001600160a01b031602179055506080820151816004015560a0820151816005015560c0820151816006015560e082015181600701556101008201518160080155610120820151816009015590505081600660008a8152602001908152602001600020858154811061232c5761232c615284565b90600052602060002090600a020160008201518160000155602082015181600101556040820151816002015560608201518160030160006101000a8154816001600160a01b0302191690836001600160a01b031602179055506080820151816004015560a0820151816005015560c0820151816006015560e082015181600701556101008201518160080155610120820151816009015590505081600460008460000151815260200190815260200160002060008201518160000155602082015181600101556040820151816002015560608201518160030160006101000a8154816001600160a01b0302191690836001600160a01b031602179055506080820151816004015560a0820151816005015560c0820151816006015560e08201518160070155610100820151816008015561012082015181600901559050505050505050505050565b600083815260046020818152604092839020835161014081018552815481526001808301549382019390935260028201549481019490945260038101546001600160a01b03166060850152918201546080840152600582015460a08401818152600684015460c0860152600784015460e0860152600884015461010086015260099093015461012085015290919061250d908390615221565b905250600085815260056020526040902080548291908590811061253357612533615284565b90600052602060002090600a020160008201518160000155602082015181600101556040820151816002015560608201518160030160006101000a8154816001600160a01b0302191690836001600160a01b031602179055506080820151816004015560a0820151816005015560c0820151816006015560e0820151816007015561010082015181600801556101208201518160090155905050806006600088815260200190815260200160002083815481106125f2576125f2615284565b90600052602060002090600a020160008201518160000155602082015181600101556040820151816002015560608201518160030160006101000a8154816001600160a01b0302191690836001600160a01b031602179055506080820151816004015560a0820151816005015560c0820151816006015560e082015181600701556101008201518160080155610120820151816009015590505080600460008360000151815260200190815260200160002060008201518160000155602082015181600101556040820151816002015560608201518160030160006101000a8154816001600160a01b0302191690836001600160a01b031602179055506080820151816004015560a0820151816005015560c0820151816006015560e0820151816007015561010082015181600801556101208201518160090155905050505050505050565b606080600060056000858152602001908152602001600020805480602002602001604051908101604052809291908181526020016000905b8282101561280c5760008481526020908190206040805161014081018252600a8602909201805483526001808201548486015260028201549284019290925260038101546001600160a01b0316606084015260048101546080840152600581015460a0840152600681015460c0840152600781015460e08401526008810154610100840152600901546101208301529083529092019101612770565b5050505090506000815167ffffffffffffffff81111561282e5761282e6144c1565b604051908082528060200260200182016040528015612857578160200160208202803683370190505b5090506000805b6007548110156128fa576128718161427d565b801561288d575060008181526008602052604090206002015487145b806128b8575061289c816142ce565b80156128b857506000818152600c602052604090206002015487145b156128e8578083836128c981615208565b9450815181106128db576128db615284565b6020026020010181815250505b806128f281615208565b91505061285e565b506000835167ffffffffffffffff811115612917576129176144c1565b604051908082528060200260200182016040528015612940578160200160208202803683370190505b50905060005b845181101561299c5784818151811061296157612961615284565b60200260200101516040015182828151811061297f5761297f615284565b60209081029190910101528061299481615208565b915050612946565b509196919550909350505050565b60005b8251811015612b2b576000600560008584815181106129ce576129ce615284565b60200260200101518152602001908152602001600020805480602002602001604051908101604052809291908181526020016000905b82821015612aa05760008481526020908190206040805161014081018252600a8602909201805483526001808201548486015260028201549284019290925260038101546001600160a01b0316606084015260048101546080840152600581015460a0840152600681015460c0840152600781015460e08401526008810154610100840152600901546101208301529083529092019101612a04565b50505050905060005b8151811015612b165783828281518110612ac557612ac5615284565b60200260200101516040015103612b0457612afe828281518110612aeb57612aeb615284565b6020026020010151606001516001612c86565b50612b16565b80612b0e81615208565b915050612aa9565b50508080612b2390615208565b9150506129ad565b505050565b606060056000838152602001908152602001600020805480602002602001604051908101604052809291908181526020016000905b82821015612c015760008481526020908190206040805161014081018252600a8602909201805483526001808201548486015260028201549284019290925260038101546001600160a01b0316606084015260048101546080840152600581015460a0840152600681015460c0840152600781015460e08401526008810154610100840152600901546101208301529083529092019101612b65565b505050509050919050565b6000805b600084815260066020526040902054811015612c7c576000848152600660205260409020805484919083908110612c4957612c49615284565b90600052602060002090600a02016001015403612c6a576001915050610665565b80612c7481615208565b915050612c10565b5060009392505050565b33600090815260208190526040812054821115612ca257600080fd5b33600090815260208190526040902054612cbd908390615221565b33600090815260208190526040808220929092556001600160a01b03851681522054612cea908390615238565b6001600160a01b038416600081815260208181526040918290209390935551848152909133917fddf252ad1be2c89b69c2b068fc378daa952ba7f163c4a11628f55a4df523b3ef9101610659565b6000818152600c60209081526040808320600683528184208054835181860281018601909452808452919493909190849084015b82821015612e085760008481526020908190206040805161014081018252600a8602909201805483526001808201548486015260028201549284019290925260038101546001600160a01b0316606084015260048101546080840152600581015460a0840152600681015460c0840152600781015460e08401526008810154610100840152600901546101208301529083529092019101612d6c565b50505060138401805460ff191660011790555090506000805b8251811015612e9057600084600a0154848381518110612e4357612e43615284565b602002602001015160a001516064612e5b91906152c4565b612e6591906152e3565b905060508110612e7d5782612e7981615208565b9350505b5080612e8881615208565b915050612e21565b508151605090612ea18360646152c4565b612eab91906152e3565b10610c8c576000600b60008560030154815260200190815260200160002060405180608001604052908160008201548152602001600182018054612eee90615250565b80601f0160208091040260200160405190810160405280929190818152602001828054612f1a90615250565b8015612f675780601f10612f3c57610100808354040283529160200191612f67565b820191906000526020600020905b815481529060010190602001808311612f4a57829003601f168201915b505050918352505060028201546001600160a01b03166020820152600382018054604090920191612f9790615250565b80601f0160208091040260200160405190810160405280929190818152602001828054612fc390615250565b80156130105780601f10612fe557610100808354040283529160200191613010565b820191906000526020600020905b815481529060010190602001808311612ff357829003601f168201915b5050509190925250505060138501805461ff001916610100179055905060005b835181101561306f57600084828151811061304d5761304d615284565b602090810291909101015161010001528061306781615208565b915050613030565b506040808201516012860154915190916001600160a01b0383169181156108fc0291906000818181858888f193505050501580156130b1573d6000803e3d6000fd5b50505050505050565b6000818152600660209081526040808320805482518185028101850190935280835260609492939192909184018215612c015760008481526020908190206040805161014081018252600a8602909201805483526001808201548486015260028201549284019290925260038101546001600160a01b0316606084015260048101546080840152600581015460a0840152600681015460c0840152600781015460e08401526008810154610100840152600901546101208301529083529092019101612b65565b600060046000600354815260200190815260200160002090506003548160000181905550828160010181905550838160020181905550338160030160006101000a8154816001600160a01b0302191690836001600160a01b03160217905550818160040181905550348160080181905550600560008481526020019081526020016000208190806001815401808255809150506001900390600052602060002090600a02016000909190919091506000820154816000015560018201548160010155600282015481600201556003820160009054906101000a90046001600160a01b03168160030160006101000a8154816001600160a01b0302191690836001600160a01b031602179055506004820154816004015560058201548160050155600682015481600601556007820154816007015560088201548160080155600982015481600901555050600660008581526020019081526020016000208190806001815401808255809150506001900390600052602060002090600a02016000909190919091506000820154816000015560018201548160010155600282015481600201556003820160009054906101000a90046001600160a01b03168160030160006101000a8154816001600160a01b0302191690836001600160a01b031602179055506004820154816004015560058201548160050155600682015481600601556007820154816007015560088201548160080155600982015481600901555050600360008154809291906133b790615208565b91905055506133c58461427d565b156133f9576000848152600860205260408120601181018054919234926133ed908490615238565b90915550610c8c915050565b613402846142ce565b15610c8c576000848152600c602052604081206012810180549192349261342a908490615238565b90915550505050505050565b6000818152600860209081526040808320600683528184208054835181860281018601909452808452919493909190849084015b828210156135065760008481526020908190206040805161014081018252600a8602909201805483526001808201548486015260028201549284019290925260038101546001600160a01b0316606084015260048101546080840152600581015460a0840152600681015460c0840152600781015460e0840152600881015461010084015260090154610120830152908352909201910161346a565b50505060128401805460ff19166001179055509050600080805b83518110156139bc576000856008015485838151811061354257613542615284565b602002602001015160a00151606461355a91906152c4565b61356491906152e3565b905084828151811061357857613578615284565b602002602001015160a001518660080154036135a0578261359881615208565b9350506136a6565b605081106135d25760008583815181106135bc576135bc615284565b60200260200101516101200181815250506136a6565b6028811061366f5760648187601001546135ec91906152c4565b6135f691906152e3565b85838151811061360857613608615284565b6020026020010151610100015161361f9190615221565b6136299085615238565b9350606481876010015461363d91906152c4565b61364791906152e3565b85838151811061365957613659615284565b60200260200101516101000181815250506136a6565b601086015461367e9085615238565b9350600085838151811061369457613694615284565b60200260200101516101000181815250505b8482815181106136b8576136b8615284565b60200260200101516006600089815260200190815260200160002083815481106136e4576136e4615284565b60009182526020918290208351600a92909202019081559082015160018201556040820151600282015560608201516003820180546001600160a01b0319166001600160a01b039092169190911790556080820151600482015560a0820151600582015560c0820151600682015560e08201516007820155610100820151600882015561012090910151600990910155845185908390811061378857613788615284565b6020026020010151600460008785815181106137a6576137a6615284565b602002602001015160000151815260200190815260200160002060008201518160000155602082015181600101556040820151816002015560608201518160030160006101000a8154816001600160a01b0302191690836001600160a01b031602179055506080820151816004015560a0820151816005015560c0820151816006015560e0820151816007015561010082015181600801556101208201518160090155905050600085838151811061386057613860615284565b602002602001015160200151905060005b6000828152600560205260409020548110156139a657600082815260056020526040902080548a9190839081106138aa576138aa615284565b90600052602060002090600a02016002015403613994578684815181106138d3576138d3615284565b60200260200101516005600084815260200190815260200160002082815481106138ff576138ff615284565b60009182526020918290208351600a92909202019081559082015160018201556040820151600282015560608201516003820180546001600160a01b0319166001600160a01b039092169190911790556080820151600482015560a0820151600582015560c0820151600682015560e082015160078201556101008201516008820155610120909101516009909101556139a6565b8061399e81615208565b915050613871565b50505080806139b490615208565b915050613520565b5060005b8351811015613d2f578381815181106139db576139db615284565b602002602001015160a00151856008015403613d1d576139fb82846152e3565b848281518110613a0d57613a0d615284565b6020026020010151610120018181525050838181518110613a3057613a30615284565b6020026020010151600660008881526020019081526020016000208281548110613a5c57613a5c615284565b60009182526020918290208351600a92909202019081559082015160018201556040820151600282015560608201516003820180546001600160a01b0319166001600160a01b039092169190911790556080820151600482015560a0820151600582015560c0820151600682015560e082015160078201556101008201516008820155610120909101516009909101558351849082908110613b0057613b00615284565b602002602001015160046000868481518110613b1e57613b1e615284565b602002602001015160000151815260200190815260200160002060008201518160000155602082015181600101556040820151816002015560608201518160030160006101000a8154816001600160a01b0302191690836001600160a01b031602179055506080820151816004015560a0820151816005015560c0820151816006015560e08201518160070155610100820151816008015561012082015181600901559050506000848281518110613bd857613bd8615284565b602002602001015160200151905060005b600082815260056020526040902054811015613d1a576000828152600560205260409020805489919083908110613c2257613c22615284565b90600052602060002090600a02016002015403613d0857858381518110613c4b57613c4b615284565b6020026020010151600560008481526020019081526020016000208281548110613c7757613c77615284565b60009182526020918290208351600a92909202019081559082015160018201556040820151600282015560608201516003820180546001600160a01b0319166001600160a01b039092169190911790556080820151600482015560a0820151600582015560c0820151600682015560e082015160078201556101008201516008820155610120909101516009909101555b80613d1281615208565b915050613be9565b50505b80613d2781615208565b9150506139c0565b505050505050565b600a80548083528291600b9160009182613d5083615208565b909155508152602080820192909252604001600020825181558282015180519192613d8392600185019290910190614300565b5060408201516002820180546001600160a01b0319166001600160a01b0390921691909117905560608201518051610c8c916003840191602090910190614300565b600083815260046020818152604092839020835161014081018552815481526001808301549382019390935260028201549481019490945260038101546001600160a01b03166060850152918201546080840152600582015460a08401818152600684015460c0860152600784015460e08601526008840154610100860152600990930154610120850152909190613e5e908390615238565b9052506000858152600560205260409020805482919085908110613e8457613e84615284565b90600052602060002090600a020160008201518160000155602082015181600101556040820151816002015560608201518160030160006101000a8154816001600160a01b0302191690836001600160a01b031602179055506080820151816004015560a0820151816005015560c0820151816006015560e082015181600701556101008201518160080155610120820151816009015590505080600660008881526020019081526020016000208381548110613f4357613f43615284565b90600052602060002090600a020160008201518160000155602082015181600101556040820151816002015560608201518160030160006101000a8154816001600160a01b0302191690836001600160a01b031602179055506080820151816004015560a0820151816005015560c0820151816006015560e082015181600701556101008201518160080155610120820151816009015590505080600460008360000151815260200190815260200160002060008201518160000155602082015181600101556040820151816002015560608201518160030160006101000a8154816001600160a01b0302191690836001600160a01b031602179055506080820151816004015560a0820151816005015560c0820151816006015560e08201518160070155610100820151816008015561012082015181600901559050506000816060015190506130b1816001610c92565b600780548083523460c084018190526102408401528291600c91600091826140bc83615208565b919050558152602001908152602001600020600082015181600001556020820151816001015560408201518160020155606082015181600301556080820151816004019080519060200190614112929190614300565b5060a0820151805161412e916005840191602090910190614300565b5060c0820151600682015560e08201518051614154916007840191602090910190614300565b506101008201518051614171916008840191602090910190614300565b50610120820151805161418e916009840191602090910190614300565b50610140820151600a820155610160820151600b820155610180820151600c8201556101a0820151600d8201556101c0820151600e8201556101e082015180516141e291600f840191602090910190614300565b5061020082015180516141ff916010840191602090910190614300565b5061022082015160118201556102408201516012820155610260820151601390910180546102809093015115156101000261ff00199215159290921661ffff199093169290921717905580516040517f76fbc58aaedcbb39f7190db541de17575eeaaf17cf3facf5bd11ad55ca479ed19161082b9190815260200190565b6040805160008082526020808301808552835190208583526008909152838220919390926142af9260030191016152f7565b6040516020818303038152906040528051906020012014159050919050565b604080516000808252602080830180855283519020858352600c909152838220919390926142af9260040191016152f7565b82805461430c90615250565b90600052602060002090601f01602090048101928261432e5760008555614374565b82601f1061434757805160ff1916838001178555614374565b82800160010185558215614374579182015b82811115614374578251825591602001919060010190614359565b506143809291506143ff565b5090565b82805461439090615250565b90600052602060002090601f0160209004810192826143b25760008555614374565b82601f106143c35780548555614374565b8280016001018555821561437457600052602060002091601f016020900482015b828111156143745782548255916001019190600101906143e4565b5b808211156143805760008155600101614400565b6000815180845260005b8181101561443a5760208185018101518683018201520161441e565b8181111561444c576000602083870101525b50601f01601f19169290920160200192915050565b6020815260006144746020830184614414565b9392505050565b80356001600160a01b038116811461449257600080fd5b919050565b600080604083850312156144aa57600080fd5b6144b38361447b565b946020939093013593505050565b634e487b7160e01b600052604160045260246000fd5b604051610260810167ffffffffffffffff811182821017156144fb576144fb6144c1565b60405290565b6040516080810167ffffffffffffffff811182821017156144fb576144fb6144c1565b6040516102a0810167ffffffffffffffff811182821017156144fb576144fb6144c1565b604051601f8201601f1916810167ffffffffffffffff81118282101715614571576145716144c1565b604052919050565b600082601f83011261458a57600080fd5b813567ffffffffffffffff8111156145a4576145a46144c1565b6145b7601f8201601f1916602001614548565b8181528460208386010111156145cc57600080fd5b816020850160208301376000918101602001919091529392505050565b8035801515811461449257600080fd5b60006020828403121561460b57600080fd5b813567ffffffffffffffff8082111561462357600080fd5b90830190610260828603121561463857600080fd5b6146406144d7565b82358152602083013560208201526040830135604082015260608301358281111561466a57600080fd5b61467687828601614579565b60608301525060808301358281111561468e57600080fd5b61469a87828601614579565b60808301525060a0830135828111156146b257600080fd5b6146be87828601614579565b60a08301525060c0830135828111156146d657600080fd5b6146e287828601614579565b60c08301525060e0830135828111156146fa57600080fd5b61470687828601614579565b60e083015250610100838101359082015261012080840135908201526101408084013590820152610160808401359082015261018080840135908201526101a0808401358381111561475757600080fd5b61476388828701614579565b8284015250506101c0808401358381111561477d57600080fd5b61478988828701614579565b91830191909152506101e083810135908201526102008084013590820152610220808401359082015261024091506147c28284016145e9565b91810191909152949350505050565b6000806000606084860312156147e657600080fd5b6147ef8461447b565b92506147fd6020850161447b565b9150604084013590509250925092565b60006020828403121561481f57600080fd5b5035919050565b600081518084526020808501945080840160005b838110156148565781518752958201959082019060010161483a565b509495945050505050565b600081518084526020808501808196508360051b8101915082860160005b85811015614a0857828403895281516102a08151865286820151878701526040808301518188015250606080830151818801525060808083015182828901526148ca83890182614414565b9250505060a080830151878303828901526148e58382614414565b9250505060c080830151818801525060e0808301518783038289015261490b8382614414565b9250505061010080830151878303828901526149278382614414565b9250505061012080830151878303828901526149438382614414565b61014085810151908a015261016080860151908a015261018080860151908a01526101a080860151908a01526101c080860151908a01526101e0808601518a8303828c0152919450925090506149998382614414565b9250505061020080830151878303828901526149b58382614414565b92505050610220808301518188015250610240808301518188015250610260808301516149e58289018215159052565b50506102809182015115159590910194909452978401979084019060010161487f565b5091979650505050505050565b60006080808352614a2881840188614826565b602084820381860152614a3b8289614826565b91506040858303818701528288518085528385019150838160051b860101848b0160005b83811015614bcb57601f19888403018552815161026081518552888201518986015287820151888601526060808301518282880152614aa083880182614414565b925050508a8201518582038c870152614ab98282614414565b91505060a08083015186830382880152614ad38382614414565b9250505060c08083015186830382880152614aee8382614414565b9250505060e08083015186830382880152614b098382614414565b610100858101519089015261012080860151908901526101408086015190890152610160808601519089015261018080860151908901526101a080860151898303828b015291945092509050614b5f8382614414565b925050506101c08083015186830382880152614b7b8382614414565b6101e085810151908901526102008086015190890152610220808601519089015261024094850151801515868a0152949093509150614bb79050565b509588019593505090860190600101614a5f565b505088810360608a0152614bdf818b614861565b9d9c50505050505050505050505050565b60008060408385031215614c0357600080fd5b50508035926020909101359150565b60006020808301818452808551808352604092508286019150828160051b87010184880160005b83811015614caa57603f19898403018552815160808151855288820151818a870152614c6782870182614414565b838a01516001600160a01b0316878b0152606093840151878203948801949094529150614c9690508183614414565b968901969450505090860190600101614c39565b509098975050505050505050565b8051825260208101516020830152604081015160408301526060810151614cea60608401826001600160a01b03169052565b506080818101519083015260a0808201519083015260c0808201519083015260e08082015190830152610100808201519083015261012090810151910152565b61014081016106658284614cb8565b60008060008060008060c08789031215614d5257600080fd5b505084359660208601359650604086013595606081013595506080810135945060a0013592509050565b600060208284031215614d8e57600080fd5b6144748261447b565b600080600080600060a08688031215614daf57600080fd5b505083359560208501359550604085013594606081013594506080013592509050565b604081526000614de56040830185614826565b8281036020840152614df78185614826565b95945050505050565b60008060408385031215614e1357600080fd5b823567ffffffffffffffff80821115614e2b57600080fd5b818501915085601f830112614e3f57600080fd5b8135602082821115614e5357614e536144c1565b8160051b9250614e64818401614548565b8281529284018101928181019089851115614e7e57600080fd5b948201945b84861015614e9c57853582529482019490820190614e83565b9997909101359750505050505050565b6020808252825182820181905260009190848201906040850190845b81811015614eef57614edb838551614cb8565b928401926101409290920191600101614ec8565b50909695505050505050565b600080600060608486031215614f1057600080fd5b505081359360208301359350604090920135919050565b600060208284031215614f3957600080fd5b813567ffffffffffffffff80821115614f5157600080fd5b9083019060808286031215614f6557600080fd5b614f6d614501565b82358152602083013582811115614f8357600080fd5b614f8f87828601614579565b602083015250614fa16040840161447b565b6040820152606083013582811115614fb857600080fd5b614fc487828601614579565b60608301525095945050505050565b60008060408385031215614fe657600080fd5b614fef8361447b565b9150614ffd6020840161447b565b90509250929050565b60006020828403121561501857600080fd5b813567ffffffffffffffff8082111561503057600080fd5b908301906102a0828603121561504557600080fd5b61504d614524565b8235815260208301356020820152604083013560408201526060830135606082015260808301358281111561508157600080fd5b61508d87828601614579565b60808301525060a0830135828111156150a557600080fd5b6150b187828601614579565b60a08301525060c083013560c082015260e0830135828111156150d357600080fd5b6150df87828601614579565b60e08301525061010080840135838111156150f957600080fd5b61510588828701614579565b828401525050610120808401358381111561511f57600080fd5b61512b88828701614579565b91830191909152506101408381013590820152610160808401359082015261018080840135908201526101a080840135908201526101c080840135908201526101e0808401358381111561517e57600080fd5b61518a88828701614579565b82840152505061020080840135838111156151a457600080fd5b6151b088828701614579565b91830191909152506102208381013590820152610240808401359082015261026091506151de8284016145e9565b8282015261028091506147c28284016145e9565b634e487b7160e01b600052601160045260246000fd5b60006001820161521a5761521a6151f2565b5060010190565b600082821015615233576152336151f2565b500390565b6000821982111561524b5761524b6151f2565b500190565b600181811c9082168061526457607f821691505b602082108103611ff857634e487b7160e01b600052602260045260246000fd5b634e487b7160e01b600052603260045260246000fd5b634e487b7160e01b600052601260045260246000fd5b6000826152bf576152bf61529a565b500690565b60008160001904831182151516156152de576152de6151f2565b500290565b6000826152f2576152f261529a565b500490565b600080835481600182811c91508083168061531357607f831692505b6020808410820361533257634e487b7160e01b86526022600452602486fd5b818015615346576001811461535757615384565b60ff19861689528489019650615384565b60008a81526020902060005b8681101561537c5781548b820152908501908301615363565b505084890196505b50949897505050505050505056fea26469706673582212206457d967813efdc3b2e530db43fbd818a6d6bdde23d74d34b4e133d5aeac67fe64736f6c634300080e0033",
  "immutableReferences": {},
  "source": "// SPDX-License-Identifier: MIT\r\npragma solidity ^0.8.0;\r\npragma abicoder v2;\r\n\r\nimport \"./DonationChallengeContract.sol\";\r\n\r\ncontract ChallengeContract is DonationChallengeContract{\r\n    uint[] dailyChallengeIds;\r\n    uint[] donationChallengeIds;\r\n\r\n    //     \r\n    function isDailyChallenge(uint challengeId) private view returns(bool){\r\n        return keccak256(abi.encodePacked(dailyChallengeMap[challengeId].name)) != keccak256(abi.encodePacked(\"\"));\r\n    }\r\n\r\n    function isDonationChallenge(uint challengeId) private view returns(bool){\r\n        return keccak256(abi.encodePacked(donationChallengeMap[challengeId].name)) != keccak256(abi.encodePacked(\"\"));\r\n    }\r\n\r\n    //   \r\n    function getAllChallenge() public returns(uint[] memory,uint[] memory,DailyChallenge[] memory,DonationChallenge[] memory){\r\n        \r\n        for(uint i=1;i<=challengeSequence;i++){\r\n            if(isDailyChallenge(i)){\r\n                dailyChallengeIds.push(i);\r\n                dailyChallenges.push(dailyChallengeMap[i]);\r\n            }\r\n\r\n            else if(isDonationChallenge(i)){\r\n                donationChallengeIds.push(i);\r\n                donationChallenges.push(donationChallengeMap[i]);\r\n            }\r\n        }\r\n        return (dailyChallengeIds,donationChallengeIds,dailyChallenges,donationChallenges);\r\n    }\r\n\r\n    //   \r\n    function joinChallenge(uint challengeId,uint userId,uint today) public payable{\r\n    \r\n        //  \r\n        Challenger storage challenger=challengerMap[challengerSequence];\r\n        challenger.id=challengerSequence;\r\n        challenger.userId=userId;\r\n        challenger.challengeId=challengeId;\r\n        challenger.userAddress=msg.sender;\r\n        challenger.today=today;\r\n        challenger.userDeposit=msg.value;\r\n\r\n        //    \r\n        findByUserIdChallenger[userId].push(challenger);\r\n        findByChallengeIdChallenger[challengeId].push(challenger);\r\n        challengerSequence++;\r\n\r\n        //        \r\n        if(isDailyChallenge(challengeId)){\r\n            DailyChallenge storage challenge=dailyChallengeMap[challengeId];\r\n            challenge.totalDeposit+=msg.value; \r\n        }\r\n\r\n        else if(isDonationChallenge(challengeId)){\r\n            DonationChallenge storage challenge=donationChallengeMap[challengeId];\r\n            challenge.totalDonation+=msg.value;\r\n        }\r\n    }\r\n\r\n    //   \r\n    function getMyChallenge(uint userId) public view returns(uint[] memory,uint[] memory){\r\n        Challenger[] memory challengers=findByUserIdChallenger[userId];\r\n        //   \r\n        uint[] memory challengesByMe=new uint[](challengers.length);\r\n        \r\n        uint myChallengeIndex = 0;\r\n        //     ownerId userId   \r\n        for(uint challengeId=0;challengeId<challengeSequence;challengeId++){\r\n            if((isDailyChallenge(challengeId) && dailyChallengeMap[challengeId].ownerId==userId) ||\r\n            (isDonationChallenge(challengeId) && donationChallengeMap[challengeId].ownerId==userId)){\r\n                challengesByMe[myChallengeIndex++] = challengeId;\r\n            }\r\n        }\r\n\r\n        //   \r\n        uint[] memory myChallenges=new uint[](challengers.length);\r\n        for(uint index=0;index<challengers.length;index++){\r\n            myChallenges[index]=challengers[index].challengeId;\r\n        }\r\n        return(challengesByMe,myChallenges);\r\n    }\r\n\r\n    //   (,,)\r\n    function findingChallenger(uint challengeId,uint userId)public view returns(uint,uint,uint){       \r\n        uint userIdIndex=0;\r\n        uint challengeIdIndex=0;\r\n        //  \r\n        while(findByChallengeIdChallenger[challengeId].length>challengeIdIndex&&\r\n            findByChallengeIdChallenger[challengeId][challengeIdIndex].userId!=userId) challengeIdIndex++;\r\n        while(findByUserIdChallenger[userId].length>userIdIndex&&\r\n        findByUserIdChallenger[userId][userIdIndex].challengeId!=challengeId) userIdIndex++;\r\n        \r\n        return(findByUserIdChallenger[userId][userIdIndex].id,userIdIndex,challengeIdIndex);\r\n    }\r\n    function checkChallenger(uint challengeId,uint userId)public view returns(bool){       \r\n        for(uint challengeIdIndex=0;challengeIdIndex<findByChallengeIdChallenger[challengeId].length;challengeIdIndex++){\r\n            if(findByChallengeIdChallenger[challengeId][challengeIdIndex].userId==userId) return true;\r\n        }\r\n        return false;\r\n    }\r\n\r\n    //    \r\n    function authenticate(uint challengeId,uint userId, uint challengerId,uint userIdIndex,uint challengeIdIndex, uint today) public {\r\n        Challenger memory findChallenger=challengerMap[challengerId];\r\n        \r\n        uint authDayTimes;\r\n        if(isDailyChallenge(challengeId)) authDayTimes=dailyChallengeMap[challengeId].authDayTimes;\r\n        else if(isDonationChallenge(challengeId)) authDayTimes=donationChallengeMap[challengeId].authDayTimes;\r\n        \r\n        //    \r\n        if(findChallenger.today != today){\r\n            findChallenger.dailyCount=0;\r\n            findChallenger.today=today;\r\n        }\r\n        if(findChallenger.today%7!=today%7){\r\n            findChallenger.weekCount=0;\r\n            findChallenger.today=today;\r\n        }\r\n        findChallenger.dailyCount+=1;\r\n        findChallenger.weekCount+=1;\r\n        findChallenger.totalCount+=1;\r\n        \r\n        //  \r\n        findByUserIdChallenger[userId][userIdIndex]=findChallenger;\r\n        findByChallengeIdChallenger[challengeId][challengeIdIndex]=findChallenger;\r\n        challengerMap[findChallenger.id]=findChallenger;\r\n    }\r\n    \r\n    //      \r\n    function getChallengers(uint challengeId) public view returns(Challenger[] memory){\r\n        return(findByChallengeIdChallenger[challengeId]);\r\n    }\r\n\r\n    //     \r\n    function getChallengersByUserId(uint userId) public view returns(Challenger[] memory){\r\n        return(findByUserIdChallenger[userId]);\r\n    }\r\n}\r\n",
  "sourcePath": "c:\\Users\\multicampus\\Desktop\\ssafy\\S07P22B106\\truffle\\contracts\\ChallengeContract.sol",
  "compiler": {
    "name": "solc",
    "version": "0.8.14+commit.80d49f37.Emscripten.clang"
  },
  "schemaVersion": "3.4.10",
  "updatedAt": "2022-09-30T17:17:58.976Z",
  "networkType": "ethereum",
  "devdoc": {
    "kind": "dev",
    "methods": {},
    "version": 1
  },
  "userdoc": {
    "kind": "user",
    "methods": {},
    "version": 1
  }
}