{
  "contractName": "DailyChallengeContract",
  "abi": [
    {
      "anonymous": false,
      "inputs": [
        {
          "indexed": true,
          "internalType": "address",
          "name": "owner",
          "type": "address"
        },
        {
          "indexed": true,
          "internalType": "address",
          "name": "spender",
          "type": "address"
        },
        {
          "indexed": false,
          "internalType": "uint256",
          "name": "value",
          "type": "uint256"
        }
      ],
      "name": "Approval",
      "type": "event"
    },
    {
      "anonymous": false,
      "inputs": [
        {
          "indexed": true,
          "internalType": "address",
          "name": "from",
          "type": "address"
        },
        {
          "indexed": true,
          "internalType": "address",
          "name": "to",
          "type": "address"
        },
        {
          "indexed": false,
          "internalType": "uint256",
          "name": "value",
          "type": "uint256"
        }
      ],
      "name": "Transfer",
      "type": "event"
    },
    {
      "anonymous": false,
      "inputs": [
        {
          "indexed": false,
          "internalType": "uint256",
          "name": "challengeId",
          "type": "uint256"
        }
      ],
      "name": "returnChallengeId",
      "type": "event"
    },
    {
      "inputs": [
        {
          "internalType": "address",
          "name": "owner",
          "type": "address"
        },
        {
          "internalType": "address",
          "name": "delegate",
          "type": "address"
        }
      ],
      "name": "allowance",
      "outputs": [
        {
          "internalType": "uint256",
          "name": "",
          "type": "uint256"
        }
      ],
      "stateMutability": "view",
      "type": "function"
    },
    {
      "inputs": [
        {
          "internalType": "uint256",
          "name": "challengeId",
          "type": "uint256"
        },
        {
          "internalType": "uint256",
          "name": "userId",
          "type": "uint256"
        },
        {
          "internalType": "uint256",
          "name": "challengerId",
          "type": "uint256"
        },
        {
          "internalType": "uint256",
          "name": "userIdIndex",
          "type": "uint256"
        },
        {
          "internalType": "uint256",
          "name": "challengeIdIndex",
          "type": "uint256"
        }
      ],
      "name": "applyVoteResult",
      "outputs": [],
      "stateMutability": "nonpayable",
      "type": "function"
    },
    {
      "inputs": [
        {
          "internalType": "address",
          "name": "delegate",
          "type": "address"
        },
        {
          "internalType": "uint256",
          "name": "numTokens",
          "type": "uint256"
        }
      ],
      "name": "approve",
      "outputs": [
        {
          "internalType": "bool",
          "name": "",
          "type": "bool"
        }
      ],
      "stateMutability": "nonpayable",
      "type": "function"
    },
    {
      "inputs": [
        {
          "internalType": "address",
          "name": "tokenOwner",
          "type": "address"
        }
      ],
      "name": "balanceOf",
      "outputs": [
        {
          "internalType": "uint256",
          "name": "",
          "type": "uint256"
        }
      ],
      "stateMutability": "view",
      "type": "function"
    },
    {
      "inputs": [],
      "name": "decimals",
      "outputs": [
        {
          "internalType": "uint8",
          "name": "",
          "type": "uint8"
        }
      ],
      "stateMutability": "view",
      "type": "function"
    },
    {
      "inputs": [
        {
          "internalType": "uint256",
          "name": "challengerId",
          "type": "uint256"
        }
      ],
      "name": "findByChallengerId",
      "outputs": [
        {
          "components": [
            {
              "internalType": "uint256",
              "name": "id",
              "type": "uint256"
            },
            {
              "internalType": "uint256",
              "name": "userId",
              "type": "uint256"
            },
            {
              "internalType": "uint256",
              "name": "challengeId",
              "type": "uint256"
            },
            {
              "internalType": "address",
              "name": "userAddress",
              "type": "address"
            },
            {
              "internalType": "uint256",
              "name": "today",
              "type": "uint256"
            },
            {
              "internalType": "uint256",
              "name": "totalCount",
              "type": "uint256"
            },
            {
              "internalType": "uint256",
              "name": "weekCount",
              "type": "uint256"
            },
            {
              "internalType": "uint256",
              "name": "dailyCount",
              "type": "uint256"
            },
            {
              "internalType": "uint256",
              "name": "userDeposit",
              "type": "uint256"
            },
            {
              "internalType": "uint256",
              "name": "reward",
              "type": "uint256"
            }
          ],
          "internalType": "struct ChallengerContract.Challenger",
          "name": "",
          "type": "tuple"
        }
      ],
      "stateMutability": "view",
      "type": "function"
    },
    {
      "inputs": [],
      "name": "name",
      "outputs": [
        {
          "internalType": "string",
          "name": "",
          "type": "string"
        }
      ],
      "stateMutability": "view",
      "type": "function"
    },
    {
      "inputs": [
        {
          "internalType": "uint256[]",
          "name": "userIdList",
          "type": "uint256[]"
        },
        {
          "internalType": "uint256",
          "name": "challengeId",
          "type": "uint256"
        }
      ],
      "name": "receivePasscoin",
      "outputs": [],
      "stateMutability": "nonpayable",
      "type": "function"
    },
    {
      "inputs": [
        {
          "internalType": "uint256",
          "name": "challengerId",
          "type": "uint256"
        }
      ],
      "name": "refund",
      "outputs": [],
      "stateMutability": "payable",
      "type": "function"
    },
    {
      "inputs": [],
      "name": "symbol",
      "outputs": [
        {
          "internalType": "string",
          "name": "",
          "type": "string"
        }
      ],
      "stateMutability": "view",
      "type": "function"
    },
    {
      "inputs": [],
      "name": "totalSupply",
      "outputs": [
        {
          "internalType": "uint256",
          "name": "",
          "type": "uint256"
        }
      ],
      "stateMutability": "view",
      "type": "function"
    },
    {
      "inputs": [
        {
          "internalType": "address",
          "name": "receiver",
          "type": "address"
        },
        {
          "internalType": "uint256",
          "name": "numTokens",
          "type": "uint256"
        }
      ],
      "name": "transfer",
      "outputs": [
        {
          "internalType": "bool",
          "name": "",
          "type": "bool"
        }
      ],
      "stateMutability": "nonpayable",
      "type": "function"
    },
    {
      "inputs": [
        {
          "internalType": "address",
          "name": "owner",
          "type": "address"
        },
        {
          "internalType": "address",
          "name": "buyer",
          "type": "address"
        },
        {
          "internalType": "uint256",
          "name": "numTokens",
          "type": "uint256"
        }
      ],
      "name": "transferFrom",
      "outputs": [
        {
          "internalType": "bool",
          "name": "",
          "type": "bool"
        }
      ],
      "stateMutability": "nonpayable",
      "type": "function"
    },
    {
      "inputs": [
        {
          "internalType": "address",
          "name": "user",
          "type": "address"
        },
        {
          "internalType": "uint256",
          "name": "numTokens",
          "type": "uint256"
        }
      ],
      "name": "useCoin",
      "outputs": [],
      "stateMutability": "nonpayable",
      "type": "function"
    },
    {
      "inputs": [
        {
          "internalType": "uint256",
          "name": "challengeId",
          "type": "uint256"
        },
        {
          "internalType": "uint256",
          "name": "userId",
          "type": "uint256"
        },
        {
          "internalType": "uint256",
          "name": "challengerId",
          "type": "uint256"
        },
        {
          "internalType": "uint256",
          "name": "userIdIndex",
          "type": "uint256"
        },
        {
          "internalType": "uint256",
          "name": "challengeIdIndex",
          "type": "uint256"
        }
      ],
      "name": "usePasscoin",
      "outputs": [],
      "stateMutability": "nonpayable",
      "type": "function"
    },
    {
      "inputs": [
        {
          "components": [
            {
              "internalType": "uint256",
              "name": "challengeId",
              "type": "uint256"
            },
            {
              "internalType": "uint256",
              "name": "interestId",
              "type": "uint256"
            },
            {
              "internalType": "uint256",
              "name": "ownerId",
              "type": "uint256"
            },
            {
              "internalType": "string",
              "name": "name",
              "type": "string"
            },
            {
              "internalType": "string",
              "name": "desc",
              "type": "string"
            },
            {
              "internalType": "string",
              "name": "mainPicURL",
              "type": "string"
            },
            {
              "internalType": "string",
              "name": "goodPicURL",
              "type": "string"
            },
            {
              "internalType": "string",
              "name": "badPicURL",
              "type": "string"
            },
            {
              "internalType": "uint256",
              "name": "authTotalTimes",
              "type": "uint256"
            },
            {
              "internalType": "uint256",
              "name": "authWeekTimes",
              "type": "uint256"
            },
            {
              "internalType": "uint256",
              "name": "authDayTimes",
              "type": "uint256"
            },
            {
              "internalType": "int256",
              "name": "startTime",
              "type": "int256"
            },
            {
              "internalType": "int256",
              "name": "endTime",
              "type": "int256"
            },
            {
              "internalType": "string",
              "name": "startDate",
              "type": "string"
            },
            {
              "internalType": "string",
              "name": "endDate",
              "type": "string"
            },
            {
              "internalType": "uint256",
              "name": "personnel",
              "type": "uint256"
            },
            {
              "internalType": "uint256",
              "name": "deposit",
              "type": "uint256"
            },
            {
              "internalType": "uint256",
              "name": "totalDeposit",
              "type": "uint256"
            },
            {
              "internalType": "bool",
              "name": "complete",
              "type": "bool"
            }
          ],
          "internalType": "struct DailyChallengeContract.DailyChallenge",
          "name": "dailyChallenge",
          "type": "tuple"
        }
      ],
      "name": "createDailyChallenge",
      "outputs": [],
      "stateMutability": "payable",
      "type": "function"
    },
    {
      "inputs": [
        {
          "internalType": "uint256",
          "name": "challengeId",
          "type": "uint256"
        }
      ],
      "name": "endDailyChallenge",
      "outputs": [],
      "stateMutability": "nonpayable",
      "type": "function"
    }
  ],
  "bytecode": "0x60806040526305f5e1006002556001600355600160075534801561002257600080fd5b50600254336000908152602081905260409020556123b0806100456000396000f3fe6080604052600436106100fe5760003560e01c80635b77573b1161009557806395d89b411161006457806395d89b41146102ce578063a9059cbb146102fe578063c78a57b91461031e578063dd62ed3e1461033e578063f5a802451461038457600080fd5b80635b77573b1461022b57806370a0823114610258578063740c162a1461028e57806385d0dd60146102ae57600080fd5b806323b872dd116100d157806323b872dd146101b1578063278ecde1146101d1578063313ce567146101e45780633f7118511461020b57600080fd5b806306fdde0314610103578063095ea7b31461014d57806318160ddd1461017d5780631d41860d1461019c575b600080fd5b34801561010f57600080fd5b50610137604051806040016040528060088152602001672830b9b9a1b7b4b760c11b81525081565b6040516101449190611d14565b60405180910390f35b34801561015957600080fd5b5061016d610168366004611d85565b6103a4565b6040519015158152602001610144565b34801561018957600080fd5b506002545b604051908152602001610144565b6101af6101aa366004611ea0565b610410565b005b3480156101bd57600080fd5b5061016d6101cc366004612078565b61081d565b6101af6101df3660046120b4565b610968565b3480156101f057600080fd5b506101f9600081565b60405160ff9091168152602001610144565b34801561021757600080fd5b506101af610226366004611d85565b610a36565b34801561023757600080fd5b5061024b6102463660046120b4565b610aba565b60405161014491906120cd565b34801561026457600080fd5b5061018e61027336600461214f565b6001600160a01b031660009081526020819052604090205490565b34801561029a57600080fd5b506101af6102a9366004612171565b610ba5565b3480156102ba57600080fd5b506101af6102c93660046121ac565b610e69565b3480156102da57600080fd5b50610137604051806040016040528060048152602001635041535360e01b81525081565b34801561030a57600080fd5b5061016d610319366004611d85565b610fef565b34801561032a57600080fd5b506101af6103393660046120b4565b6110a1565b34801561034a57600080fd5b5061018e610359366004612258565b6001600160a01b03918216600090815260016020908152604080832093909416825291909152205490565b34801561039057600080fd5b506101af61039f366004612171565b6119a2565b3360008181526001602090815260408083206001600160a01b038716808552925280832085905551919290917f8c5be1e5ebec7d5bd14f71427d1e84f3dd0314c0f7b2291e5b200ac8c7c3b925906103ff9086815260200190565b60405180910390a350600192915050565b60078054808352346102008401819052610220840152829160089160009182610438836122a1565b9190505581526020019081526020016000206000820151816000015560208201518160010155604082015181600201556060820151816003019080519060200190610484929190611c7b565b50608082015180516104a0916004840191602090910190611c7b565b5060a082015180516104bc916005840191602090910190611c7b565b5060c082015180516104d8916006840191602090910190611c7b565b5060e082015180516104f4916007840191602090910190611c7b565b5061010082015160088201556101208201516009820155610140820151600a820155610160820151600b820155610180820151600c8201556101a0820151805161054891600d840191602090910190611c7b565b506101c0820151805161056591600e840191602090910190611c7b565b506101e0820151600f82015561020082015160108201556102208201516011820155610240909101516012909101805460ff191691151591909117905580516040519081527f76fbc58aaedcbb39f7190db541de17575eeaaf17cf3facf5bd11ad55ca479ed19060200160405180910390a16000600460006003548152602001908152602001600020905060035481600001819055508160400151816001018190555081600001518160020181905550338160030160006101000a8154816001600160a01b0302191690836001600160a01b0316021790555034816008018190555060056000836040015181526020019081526020016000208190806001815401808255809150506001900390600052602060002090600a02016000909190919091506000820154816000015560018201548160010155600282015481600201556003820160009054906101000a90046001600160a01b03168160030160006101000a8154816001600160a01b0302191690836001600160a01b03160217905550600482015481600401556005820154816005015560068201548160060155600782015481600701556008820154816008015560098201548160090155505060066000836000015181526020019081526020016000208190806001815401808255809150506001900390600052602060002090600a02016000909190919091506000820154816000015560018201548160010155600282015481600201556003820160009054906101000a90046001600160a01b03168160030160006101000a8154816001600160a01b0302191690836001600160a01b03160217905550600482015481600401556005820154816005015560068201548160060155600782015481600701556008820154816008015560098201548160090155505060036000815480929190610814906122a1565b91905055505050565b6001600160a01b03831660009081526020819052604081205482111561084257600080fd5b6001600160a01b038416600090815260016020908152604080832033845290915290205482111561087257600080fd5b6001600160a01b0384166000908152602081905260409020546108969083906122ba565b6001600160a01b0385166000908152602081815260408083209390935560018152828220338352905220546108cc9083906122ba565b6001600160a01b038086166000908152600160209081526040808320338452825280832094909455918616815290819052205461090a9083906122d1565b6001600160a01b038481166000818152602081815260409182902094909455518581529092918716917fddf252ad1be2c89b69c2b068fc378daa952ba7f163c4a11628f55a4df523b3ef910160405180910390a35060019392505050565b6000818152600460208181526040928390208351610140810185528154815260018201549281019290925260028101549382019390935260038301546001600160a01b031660608201819052918301546080820152600583015460a0820152600683015460c0820152600783015460e0820152600883015461010082018190526009909301546101208201819052909282916108fc91610a0891906122d1565b6040518115909202916000818181858888f19350505050158015610a30573d6000803e3d6000fd5b50505050565b33600090815260208190526040902054811115610a5257600080fd5b33600090815260208190526040902054610a6d9082906122d1565b33600090815260208190526040808220929092556001600160a01b03841681522054610a9a9082906122ba565b6001600160a01b0390921660009081526020819052604090209190915550565b610b1960405180610140016040528060008152602001600081526020016000815260200160006001600160a01b031681526020016000815260200160008152602001600081526020016000815260200160008152602001600081525090565b506000908152600460208181526040928390208351610140810185528154815260018201549281019290925260028101549382019390935260038301546001600160a01b03166060820152908201546080820152600582015460a0820152600682015460c0820152600782015460e0820152600882015461010082015260099091015461012082015290565b600083815260046020818152604092839020835161014081018552815481526001808301549382019390935260028201549481019490945260038101546001600160a01b03166060850152918201546080840152600582015460a08401818152600684015460c0860152600784015460e08601526008840154610100860152600990930154610120850152909190610c3e9083906122ba565b9052506000858152600560205260409020805482919085908110610c6457610c646122e9565b90600052602060002090600a020160008201518160000155602082015181600101556040820151816002015560608201518160030160006101000a8154816001600160a01b0302191690836001600160a01b031602179055506080820151816004015560a0820151816005015560c0820151816006015560e082015181600701556101008201518160080155610120820151816009015590505080600660008881526020019081526020016000208381548110610d2357610d236122e9565b90600052602060002090600a020160008201518160000155602082015181600101556040820151816002015560608201518160030160006101000a8154816001600160a01b0302191690836001600160a01b031602179055506080820151816004015560a0820151816005015560c0820151816006015560e082015181600701556101008201518160080155610120820151816009015590505080600460008360000151815260200190815260200160002060008201518160000155602082015181600101556040820151816002015560608201518160030160006101000a8154816001600160a01b0302191690836001600160a01b031602179055506080820151816004015560a0820151816005015560c0820151816006015560e0820151816007015561010082015181600801556101208201518160090155905050505050505050565b60005b8251811015610fea57600060056000858481518110610e8d57610e8d6122e9565b60200260200101518152602001908152602001600020805480602002602001604051908101604052809291908181526020016000905b82821015610f5f5760008481526020908190206040805161014081018252600a8602909201805483526001808201548486015260028201549284019290925260038101546001600160a01b0316606084015260048101546080840152600581015460a0840152600681015460c0840152600781015460e08401526008810154610100840152600901546101208301529083529092019101610ec3565b50505050905060005b8151811015610fd55783828281518110610f8457610f846122e9565b60200260200101516040015103610fc357610fbd828281518110610faa57610faa6122e9565b6020026020010151606001516001610fef565b50610fd5565b80610fcd816122a1565b915050610f68565b50508080610fe2906122a1565b915050610e6c565b505050565b3360009081526020819052604081205482111561100b57600080fd5b336000908152602081905260409020546110269083906122ba565b33600090815260208190526040808220929092556001600160a01b038516815220546110539083906122d1565b6001600160a01b038416600081815260208181526040918290209390935551848152909133917fddf252ad1be2c89b69c2b068fc378daa952ba7f163c4a11628f55a4df523b3ef91016103ff565b6000818152600860209081526040808320600683528184208054835181860281018601909452808452919493909190849084015b828210156111715760008481526020908190206040805161014081018252600a8602909201805483526001808201548486015260028201549284019290925260038101546001600160a01b0316606084015260048101546080840152600581015460a0840152600681015460c0840152600781015460e084015260088101546101008401526009015461012083015290835290920191016110d5565b50505060128401805460ff19166001179055509050600080805b835181101561162757600085600801548583815181106111ad576111ad6122e9565b602002602001015160a0015160646111c591906122ff565b6111cf919061231e565b90508482815181106111e3576111e36122e9565b602002602001015160a0015186600801540361120b5782611203816122a1565b935050611311565b6050811061123d576000858381518110611227576112276122e9565b6020026020010151610120018181525050611311565b602881106112da57606481876010015461125791906122ff565b611261919061231e565b858381518110611273576112736122e9565b6020026020010151610100015161128a91906122ba565b61129490856122d1565b935060648187601001546112a891906122ff565b6112b2919061231e565b8583815181106112c4576112c46122e9565b6020026020010151610100018181525050611311565b60108601546112e990856122d1565b935060008583815181106112ff576112ff6122e9565b60200260200101516101000181815250505b848281518110611323576113236122e9565b602002602001015160066000898152602001908152602001600020838154811061134f5761134f6122e9565b60009182526020918290208351600a92909202019081559082015160018201556040820151600282015560608201516003820180546001600160a01b0319166001600160a01b039092169190911790556080820151600482015560a0820151600582015560c0820151600682015560e0820151600782015561010082015160088201556101209091015160099091015584518590839081106113f3576113f36122e9565b602002602001015160046000878581518110611411576114116122e9565b602002602001015160000151815260200190815260200160002060008201518160000155602082015181600101556040820151816002015560608201518160030160006101000a8154816001600160a01b0302191690836001600160a01b031602179055506080820151816004015560a0820151816005015560c0820151816006015560e082015181600701556101008201518160080155610120820151816009015590505060008583815181106114cb576114cb6122e9565b602002602001015160200151905060005b60008281526005602052604090205481101561161157600082815260056020526040902080548a919083908110611515576115156122e9565b90600052602060002090600a020160020154036115ff5786848151811061153e5761153e6122e9565b602002602001015160056000848152602001908152602001600020828154811061156a5761156a6122e9565b60009182526020918290208351600a92909202019081559082015160018201556040820151600282015560608201516003820180546001600160a01b0319166001600160a01b039092169190911790556080820151600482015560a0820151600582015560c0820151600682015560e08201516007820155610100820151600882015561012090910151600990910155611611565b80611609816122a1565b9150506114dc565b505050808061161f906122a1565b91505061118b565b5060005b835181101561199a57838181518110611646576116466122e9565b602002602001015160a0015185600801540361198857611666828461231e565b848281518110611678576116786122e9565b602002602001015161012001818152505083818151811061169b5761169b6122e9565b60200260200101516006600088815260200190815260200160002082815481106116c7576116c76122e9565b60009182526020918290208351600a92909202019081559082015160018201556040820151600282015560608201516003820180546001600160a01b0319166001600160a01b039092169190911790556080820151600482015560a0820151600582015560c0820151600682015560e08201516007820155610100820151600882015561012090910151600990910155835184908290811061176b5761176b6122e9565b602002602001015160046000868481518110611789576117896122e9565b602002602001015160000151815260200190815260200160002060008201518160000155602082015181600101556040820151816002015560608201518160030160006101000a8154816001600160a01b0302191690836001600160a01b031602179055506080820151816004015560a0820151816005015560c0820151816006015560e08201518160070155610100820151816008015561012082015181600901559050506000848281518110611843576118436122e9565b602002602001015160200151905060005b60008281526005602052604090205481101561198557600082815260056020526040902080548991908390811061188d5761188d6122e9565b90600052602060002090600a02016002015403611973578583815181106118b6576118b66122e9565b60200260200101516005600084815260200190815260200160002082815481106118e2576118e26122e9565b60009182526020918290208351600a92909202019081559082015160018201556040820151600282015560608201516003820180546001600160a01b0319166001600160a01b039092169190911790556080820151600482015560a0820151600582015560c0820151600682015560e082015160078201556101008201516008820155610120909101516009909101555b8061197d816122a1565b915050611854565b50505b80611992816122a1565b91505061162b565b505050505050565b600083815260046020818152604092839020835161014081018552815481526001808301549382019390935260028201549481019490945260038101546001600160a01b03166060850152918201546080840152600582015460a08401818152600684015460c0860152600784015460e08601526008840154610100860152600990930154610120850152909190611a3b9083906122d1565b9052506000858152600560205260409020805482919085908110611a6157611a616122e9565b90600052602060002090600a020160008201518160000155602082015181600101556040820151816002015560608201518160030160006101000a8154816001600160a01b0302191690836001600160a01b031602179055506080820151816004015560a0820151816005015560c0820151816006015560e082015181600701556101008201518160080155610120820151816009015590505080600660008881526020019081526020016000208381548110611b2057611b206122e9565b90600052602060002090600a020160008201518160000155602082015181600101556040820151816002015560608201518160030160006101000a8154816001600160a01b0302191690836001600160a01b031602179055506080820151816004015560a0820151816005015560c0820151816006015560e082015181600701556101008201518160080155610120820151816009015590505080600460008360000151815260200190815260200160002060008201518160000155602082015181600101556040820151816002015560608201518160030160006101000a8154816001600160a01b0302191690836001600160a01b031602179055506080820151816004015560a0820151816005015560c0820151816006015560e0820151816007015561010082015181600801556101208201518160090155905050600081606001519050611c72816001610a36565b50505050505050565b828054611c8790612340565b90600052602060002090601f016020900481019282611ca95760008555611cef565b82601f10611cc257805160ff1916838001178555611cef565b82800160010185558215611cef579182015b82811115611cef578251825591602001919060010190611cd4565b50611cfb929150611cff565b5090565b5b80821115611cfb5760008155600101611d00565b600060208083528351808285015260005b81811015611d4157858101830151858201604001528201611d25565b81811115611d53576000604083870101525b50601f01601f1916929092016040019392505050565b80356001600160a01b0381168114611d8057600080fd5b919050565b60008060408385031215611d9857600080fd5b611da183611d69565b946020939093013593505050565b634e487b7160e01b600052604160045260246000fd5b604051610260810167ffffffffffffffff81118282101715611de957611de9611daf565b60405290565b604051601f8201601f1916810167ffffffffffffffff81118282101715611e1857611e18611daf565b604052919050565b600082601f830112611e3157600080fd5b813567ffffffffffffffff811115611e4b57611e4b611daf565b611e5e601f8201601f1916602001611def565b818152846020838601011115611e7357600080fd5b816020850160208301376000918101602001919091529392505050565b80358015158114611d8057600080fd5b600060208284031215611eb257600080fd5b813567ffffffffffffffff80821115611eca57600080fd5b908301906102608286031215611edf57600080fd5b611ee7611dc5565b823581526020830135602082015260408301356040820152606083013582811115611f1157600080fd5b611f1d87828601611e20565b606083015250608083013582811115611f3557600080fd5b611f4187828601611e20565b60808301525060a083013582811115611f5957600080fd5b611f6587828601611e20565b60a08301525060c083013582811115611f7d57600080fd5b611f8987828601611e20565b60c08301525060e083013582811115611fa157600080fd5b611fad87828601611e20565b60e083015250610100838101359082015261012080840135908201526101408084013590820152610160808401359082015261018080840135908201526101a08084013583811115611ffe57600080fd5b61200a88828701611e20565b8284015250506101c0808401358381111561202457600080fd5b61203088828701611e20565b91830191909152506101e08381013590820152610200808401359082015261022080840135908201526102409150612069828401611e90565b91810191909152949350505050565b60008060006060848603121561208d57600080fd5b61209684611d69565b92506120a460208501611d69565b9150604084013590509250925092565b6000602082840312156120c657600080fd5b5035919050565b600061014082019050825182526020830151602083015260408301516040830152606083015161210860608401826001600160a01b03169052565b506080830151608083015260a083015160a083015260c083015160c083015260e083015160e083015261010080840151818401525061012080840151818401525092915050565b60006020828403121561216157600080fd5b61216a82611d69565b9392505050565b600080600080600060a0868803121561218957600080fd5b505083359560208501359550604085013594606081013594506080013592509050565b600080604083850312156121bf57600080fd5b823567ffffffffffffffff808211156121d757600080fd5b818501915085601f8301126121eb57600080fd5b81356020828211156121ff576121ff611daf565b8160051b9250612210818401611def565b828152928401810192818101908985111561222a57600080fd5b948201945b848610156122485785358252948201949082019061222f565b9997909101359750505050505050565b6000806040838503121561226b57600080fd5b61227483611d69565b915061228260208401611d69565b90509250929050565b634e487b7160e01b600052601160045260246000fd5b6000600182016122b3576122b361228b565b5060010190565b6000828210156122cc576122cc61228b565b500390565b600082198211156122e4576122e461228b565b500190565b634e487b7160e01b600052603260045260246000fd5b60008160001904831182151516156123195761231961228b565b500290565b60008261233b57634e487b7160e01b600052601260045260246000fd5b500490565b600181811c9082168061235457607f821691505b60208210810361237457634e487b7160e01b600052602260045260246000fd5b5091905056fea2646970667358221220db12450ebcaace380824dba924d34267184a81636e4d7c96fff23d1a4ce5660264736f6c634300080e0033",
  "immutableReferences": {},
  "source": "// SPDX-License-Identifier: MIT\r\npragma solidity ^0.8.0;\r\npragma abicoder v2;\r\n\r\nimport \"./ChallengerContract.sol\";\r\n\r\ncontract DailyChallengeContract is ChallengerContract{\r\n    \r\n    struct DailyChallenge {\r\n        // pk\r\n        uint challengeId;\r\n\r\n        //  fk\r\n        uint interestId;\r\n\r\n        //   fk\r\n        uint ownerId;\r\n\r\n        string name;\r\n        string desc;\r\n\r\n        //   \r\n        string mainPicURL;\r\n        string goodPicURL;\r\n        string badPicURL;\r\n        \r\n        //      \r\n        uint authTotalTimes;\r\n        uint authWeekTimes;\r\n        uint authDayTimes;\r\n\r\n        // \r\n        int startTime;\r\n        int endTime;\r\n\r\n        //  \r\n        string startDate;\r\n        string endDate;\r\n\r\n        //   (  int(-1)    )\r\n        uint personnel;\r\n\r\n        //  \r\n        uint deposit;\r\n\r\n        //  \r\n        uint256 totalDeposit;\r\n\r\n        //   \r\n        bool complete;\r\n    }\r\n    uint challengeSequence = 1;\r\n    mapping(uint => DailyChallenge) dailyChallengeMap;\r\n    DailyChallenge[] dailyChallenges;\r\n\r\n    event returnChallengeId(uint challengeId);\r\n    //  \r\n    function createDailyChallenge(DailyChallenge memory dailyChallenge) public payable {\r\n        dailyChallenge.challengeId=challengeSequence;\r\n        dailyChallenge.deposit=msg.value;\r\n        dailyChallenge.totalDeposit=msg.value;\r\n        dailyChallengeMap[challengeSequence++]=dailyChallenge ;\r\n\r\n        emit returnChallengeId(dailyChallenge.challengeId);\r\n        /*     */\r\n        //  \r\n        Challenger storage challenger=challengerMap[challengerSequence];\r\n        challenger.id=challengerSequence;\r\n        challenger.userId=dailyChallenge.ownerId;\r\n        challenger.challengeId=dailyChallenge.challengeId;\r\n        challenger.userAddress=msg.sender;\r\n        challenger.userDeposit=msg.value;\r\n\r\n        //    \r\n        findByUserIdChallenger[dailyChallenge.ownerId].push(challenger);\r\n        findByChallengeIdChallenger[dailyChallenge.challengeId].push(challenger);\r\n        challengerSequence++;\r\n    }\r\n\r\n    //  \r\n    function endDailyChallenge(uint challengeId) public{\r\n        DailyChallenge storage challenge=dailyChallengeMap[challengeId];\r\n        Challenger[] memory challengers=findByChallengeIdChallenger[challengeId];\r\n        challenge.complete=true;\r\n\r\n        uint totalReward=0;\r\n        uint count=0;\r\n        //        \r\n        for(uint i=0;i<challengers.length;i++){\r\n            uint rate = (challengers[i].totalCount*100)/challenge.authTotalTimes;\r\n            if(challenge.authTotalTimes==challengers[i].totalCount){\r\n                count++;               \r\n            }  \r\n            else if(rate>=80){\r\n                challengers[i].reward=0;\r\n            }\r\n            else if(rate>=40){\r\n                totalReward+=challengers[i].userDeposit-(challenge.deposit*rate)/100;\r\n                challengers[i].userDeposit=(challenge.deposit*rate)/100;\r\n            }\r\n            else{        \r\n                totalReward+=challenge.deposit;\r\n                challengers[i].userDeposit=0;\r\n            }\r\n\r\n            findByChallengeIdChallenger[challengeId][i]=challengers[i];\r\n            // challengerMap \r\n            challengerMap[challengers[i].id]=challengers[i];\r\n            // findByUserIdChallenger \r\n            uint userId=challengers[i].userId;\r\n            for(uint j=0;j<findByUserIdChallenger[userId].length;j++){\r\n                if(findByUserIdChallenger[userId][j].challengeId==challengeId){\r\n                    findByUserIdChallenger[userId][j]=challengers[i];\r\n                    break;\r\n                }\r\n            }\r\n            \r\n        }\r\n        for(uint i=0;i<challengers.length;i++){\r\n            if(challenge.authTotalTimes!=challengers[i].totalCount) continue;\r\n            challengers[i].reward=totalReward/count;  \r\n\r\n            findByChallengeIdChallenger[challengeId][i]=challengers[i];\r\n\r\n            // challengerMap \r\n            challengerMap[challengers[i].id]=challengers[i];\r\n\r\n            // findByUserIdChallenger  \r\n            uint userId=challengers[i].userId;\r\n            for(uint j=0;j<findByUserIdChallenger[userId].length;j++){\r\n                if(findByUserIdChallenger[userId][j].challengeId==challengeId){\r\n                    findByUserIdChallenger[userId][j]=challengers[i];\r\n                }\r\n            }\r\n        }\r\n    }\r\n}",
  "sourcePath": "c:\\Users\\multicampus\\Desktop\\S07P22B106\\truffle\\contracts\\DailyChallengeContract.sol",
  "compiler": {
    "name": "solc",
    "version": "0.8.14+commit.80d49f37.Emscripten.clang"
  },
  "schemaVersion": "3.4.10",
  "updatedAt": "2022-10-02T10:23:05.968Z",
  "devdoc": {
    "kind": "dev",
    "methods": {},
    "version": 1
  },
  "userdoc": {
    "kind": "user",
    "methods": {},
    "version": 1
  }
}