{
  "contractName": "DailyChallengeContract",
  "abi": [
    {
      "anonymous": false,
      "inputs": [
        {
          "indexed": true,
          "internalType": "address",
          "name": "owner",
          "type": "address"
        },
        {
          "indexed": true,
          "internalType": "address",
          "name": "spender",
          "type": "address"
        },
        {
          "indexed": false,
          "internalType": "uint256",
          "name": "value",
          "type": "uint256"
        }
      ],
      "name": "Approval",
      "type": "event"
    },
    {
      "anonymous": false,
      "inputs": [
        {
          "indexed": true,
          "internalType": "address",
          "name": "from",
          "type": "address"
        },
        {
          "indexed": true,
          "internalType": "address",
          "name": "to",
          "type": "address"
        },
        {
          "indexed": false,
          "internalType": "uint256",
          "name": "value",
          "type": "uint256"
        }
      ],
      "name": "Transfer",
      "type": "event"
    },
    {
      "anonymous": false,
      "inputs": [
        {
          "indexed": false,
          "internalType": "uint256",
          "name": "challengeId",
          "type": "uint256"
        }
      ],
      "name": "returnChallengeId",
      "type": "event"
    },
    {
      "inputs": [
        {
          "internalType": "address",
          "name": "owner",
          "type": "address"
        },
        {
          "internalType": "address",
          "name": "delegate",
          "type": "address"
        }
      ],
      "name": "allowance",
      "outputs": [
        {
          "internalType": "uint256",
          "name": "",
          "type": "uint256"
        }
      ],
      "stateMutability": "view",
      "type": "function"
    },
    {
      "inputs": [
        {
          "internalType": "uint256",
          "name": "challengeId",
          "type": "uint256"
        },
        {
          "internalType": "uint256",
          "name": "userId",
          "type": "uint256"
        },
        {
          "internalType": "uint256",
          "name": "challengerId",
          "type": "uint256"
        },
        {
          "internalType": "uint256",
          "name": "userIdIndex",
          "type": "uint256"
        },
        {
          "internalType": "uint256",
          "name": "challengeIdIndex",
          "type": "uint256"
        }
      ],
      "name": "applyVoteResult",
      "outputs": [],
      "stateMutability": "nonpayable",
      "type": "function"
    },
    {
      "inputs": [
        {
          "internalType": "address",
          "name": "delegate",
          "type": "address"
        },
        {
          "internalType": "uint256",
          "name": "numTokens",
          "type": "uint256"
        }
      ],
      "name": "approve",
      "outputs": [
        {
          "internalType": "bool",
          "name": "",
          "type": "bool"
        }
      ],
      "stateMutability": "nonpayable",
      "type": "function"
    },
    {
      "inputs": [
        {
          "internalType": "address",
          "name": "tokenOwner",
          "type": "address"
        }
      ],
      "name": "balanceOf",
      "outputs": [
        {
          "internalType": "uint256",
          "name": "",
          "type": "uint256"
        }
      ],
      "stateMutability": "view",
      "type": "function"
    },
    {
      "inputs": [],
      "name": "decimals",
      "outputs": [
        {
          "internalType": "uint8",
          "name": "",
          "type": "uint8"
        }
      ],
      "stateMutability": "view",
      "type": "function"
    },
    {
      "inputs": [
        {
          "internalType": "uint256",
          "name": "challengerId",
          "type": "uint256"
        }
      ],
      "name": "findByChallengerId",
      "outputs": [
        {
          "components": [
            {
              "internalType": "uint256",
              "name": "id",
              "type": "uint256"
            },
            {
              "internalType": "uint256",
              "name": "userId",
              "type": "uint256"
            },
            {
              "internalType": "uint256",
              "name": "challengeId",
              "type": "uint256"
            },
            {
              "internalType": "address",
              "name": "userAddress",
              "type": "address"
            },
            {
              "internalType": "string",
              "name": "today",
              "type": "string"
            },
            {
              "internalType": "uint256",
              "name": "totalCount",
              "type": "uint256"
            },
            {
              "internalType": "uint256",
              "name": "dailyCount",
              "type": "uint256"
            },
            {
              "internalType": "uint256",
              "name": "userDeposit",
              "type": "uint256"
            },
            {
              "internalType": "uint256",
              "name": "reward",
              "type": "uint256"
            }
          ],
          "internalType": "struct ChallengerContract.Challenger",
          "name": "",
          "type": "tuple"
        }
      ],
      "stateMutability": "view",
      "type": "function"
    },
    {
      "inputs": [],
      "name": "name",
      "outputs": [
        {
          "internalType": "string",
          "name": "",
          "type": "string"
        }
      ],
      "stateMutability": "view",
      "type": "function"
    },
    {
      "inputs": [
        {
          "internalType": "uint256[]",
          "name": "userIdList",
          "type": "uint256[]"
        },
        {
          "internalType": "uint256",
          "name": "challengeId",
          "type": "uint256"
        }
      ],
      "name": "receivePasscoin",
      "outputs": [],
      "stateMutability": "nonpayable",
      "type": "function"
    },
    {
      "inputs": [
        {
          "internalType": "uint256",
          "name": "challengerId",
          "type": "uint256"
        }
      ],
      "name": "refund",
      "outputs": [],
      "stateMutability": "payable",
      "type": "function"
    },
    {
      "inputs": [],
      "name": "symbol",
      "outputs": [
        {
          "internalType": "string",
          "name": "",
          "type": "string"
        }
      ],
      "stateMutability": "view",
      "type": "function"
    },
    {
      "inputs": [],
      "name": "totalSupply",
      "outputs": [
        {
          "internalType": "uint256",
          "name": "",
          "type": "uint256"
        }
      ],
      "stateMutability": "view",
      "type": "function"
    },
    {
      "inputs": [
        {
          "internalType": "address",
          "name": "receiver",
          "type": "address"
        },
        {
          "internalType": "uint256",
          "name": "numTokens",
          "type": "uint256"
        }
      ],
      "name": "transfer",
      "outputs": [
        {
          "internalType": "bool",
          "name": "",
          "type": "bool"
        }
      ],
      "stateMutability": "nonpayable",
      "type": "function"
    },
    {
      "inputs": [
        {
          "internalType": "address",
          "name": "owner",
          "type": "address"
        },
        {
          "internalType": "address",
          "name": "buyer",
          "type": "address"
        },
        {
          "internalType": "uint256",
          "name": "numTokens",
          "type": "uint256"
        }
      ],
      "name": "transferFrom",
      "outputs": [
        {
          "internalType": "bool",
          "name": "",
          "type": "bool"
        }
      ],
      "stateMutability": "nonpayable",
      "type": "function"
    },
    {
      "inputs": [
        {
          "internalType": "address",
          "name": "user",
          "type": "address"
        },
        {
          "internalType": "uint256",
          "name": "numTokens",
          "type": "uint256"
        }
      ],
      "name": "useCoin",
      "outputs": [],
      "stateMutability": "nonpayable",
      "type": "function"
    },
    {
      "inputs": [
        {
          "internalType": "uint256",
          "name": "challengeId",
          "type": "uint256"
        },
        {
          "internalType": "uint256",
          "name": "userId",
          "type": "uint256"
        },
        {
          "internalType": "uint256",
          "name": "challengerId",
          "type": "uint256"
        },
        {
          "internalType": "uint256",
          "name": "userIdIndex",
          "type": "uint256"
        },
        {
          "internalType": "uint256",
          "name": "challengeIdIndex",
          "type": "uint256"
        }
      ],
      "name": "usePasscoin",
      "outputs": [],
      "stateMutability": "nonpayable",
      "type": "function"
    },
    {
      "inputs": [
        {
          "components": [
            {
              "internalType": "uint256",
              "name": "challengeId",
              "type": "uint256"
            },
            {
              "internalType": "uint256",
              "name": "interestId",
              "type": "uint256"
            },
            {
              "internalType": "uint256",
              "name": "ownerId",
              "type": "uint256"
            },
            {
              "internalType": "string",
              "name": "name",
              "type": "string"
            },
            {
              "internalType": "string",
              "name": "desc",
              "type": "string"
            },
            {
              "internalType": "string",
              "name": "mainPicURL",
              "type": "string"
            },
            {
              "internalType": "string",
              "name": "goodPicURL",
              "type": "string"
            },
            {
              "internalType": "string",
              "name": "badPicURL",
              "type": "string"
            },
            {
              "internalType": "uint256",
              "name": "authTotalTimes",
              "type": "uint256"
            },
            {
              "internalType": "uint256",
              "name": "authDayTimes",
              "type": "uint256"
            },
            {
              "internalType": "int256",
              "name": "startTime",
              "type": "int256"
            },
            {
              "internalType": "int256",
              "name": "endTime",
              "type": "int256"
            },
            {
              "internalType": "string",
              "name": "startDate",
              "type": "string"
            },
            {
              "internalType": "string",
              "name": "endDate",
              "type": "string"
            },
            {
              "internalType": "uint256",
              "name": "personnel",
              "type": "uint256"
            },
            {
              "internalType": "uint256",
              "name": "deposit",
              "type": "uint256"
            },
            {
              "internalType": "uint256",
              "name": "totalDeposit",
              "type": "uint256"
            },
            {
              "internalType": "bool",
              "name": "complete",
              "type": "bool"
            }
          ],
          "internalType": "struct DailyChallengeContract.DailyChallenge",
          "name": "dailyChallenge",
          "type": "tuple"
        }
      ],
      "name": "createDailyChallenge",
      "outputs": [],
      "stateMutability": "payable",
      "type": "function"
    },
    {
      "inputs": [
        {
          "internalType": "uint256",
          "name": "challengeId",
          "type": "uint256"
        }
      ],
      "name": "endDailyChallenge",
      "outputs": [],
      "stateMutability": "nonpayable",
      "type": "function"
    }
  ],
  "bytecode": "0x60806040526305f5e1006002556001600355600160075534801561002257600080fd5b50600254336000908152602081905260409020556126ed806100456000396000f3fe6080604052600436106100fe5760003560e01c80636a5e4c9e1161009557806395d89b411161006457806395d89b41146102ce578063a9059cbb146102fe578063c78a57b91461031e578063dd62ed3e1461033e578063f5a802451461038457600080fd5b80636a5e4c9e1461024557806370a0823114610258578063740c162a1461028e57806385d0dd60146102ae57600080fd5b8063278ecde1116100d1578063278ecde1146101bc578063313ce567146101d15780633f711851146101f85780635b77573b1461021857600080fd5b806306fdde0314610103578063095ea7b31461014d57806318160ddd1461017d57806323b872dd1461019c575b600080fd5b34801561010f57600080fd5b50610137604051806040016040528060088152602001672830b9b9a1b7b4b760c11b81525081565b6040516101449190612090565b60405180910390f35b34801561015957600080fd5b5061016d6101683660046120c6565b6103a4565b6040519015158152602001610144565b34801561018957600080fd5b506002545b604051908152602001610144565b3480156101a857600080fd5b5061016d6101b73660046120f0565b610410565b6101cf6101ca36600461212c565b61055b565b005b3480156101dd57600080fd5b506101e6600081565b60405160ff9091168152602001610144565b34801561020457600080fd5b506101cf6102133660046120c6565b6106c0565b34801561022457600080fd5b5061023861023336600461212c565b610744565b6040516101449190612145565b6101cf6102533660046122c6565b6108ae565b34801561026457600080fd5b5061018e610273366004612493565b6001600160a01b031660009081526020819052604090205490565b34801561029a57600080fd5b506101cf6102a93660046124ae565b610c46565b3480156102ba57600080fd5b506101cf6102c93660046124e9565b610f7c565b3480156102da57600080fd5b50610137604051806040016040528060048152602001635041535360e01b81525081565b34801561030a57600080fd5b5061016d6103193660046120c6565b611188565b34801561032a57600080fd5b506101cf61033936600461212c565b61123a565b34801561034a57600080fd5b5061018e610359366004612595565b6001600160a01b03918216600090815260016020908152604080832093909416825291909152205490565b34801561039057600080fd5b506101cf61039f3660046124ae565b611be8565b3360008181526001602090815260408083206001600160a01b038716808552925280832085905551919290917f8c5be1e5ebec7d5bd14f71427d1e84f3dd0314c0f7b2291e5b200ac8c7c3b925906103ff9086815260200190565b60405180910390a350600192915050565b6001600160a01b03831660009081526020819052604081205482111561043557600080fd5b6001600160a01b038416600090815260016020908152604080832033845290915290205482111561046557600080fd5b6001600160a01b0384166000908152602081905260409020546104899083906125de565b6001600160a01b0385166000908152602081815260408083209390935560018152828220338352905220546104bf9083906125de565b6001600160a01b03808616600090815260016020908152604080832033845282528083209490945591861681529081905220546104fd9083906125f5565b6001600160a01b038481166000818152602081815260409182902094909455518581529092918716917fddf252ad1be2c89b69c2b068fc378daa952ba7f163c4a11628f55a4df523b3ef910160405180910390a35060019392505050565b60008181526004602081815260408084208151610120810183528154815260018201549381019390935260028101549183019190915260038101546001600160a01b0316606083015291820180549192916080840191906105bb9061260d565b80601f01602080910402602001604051908101604052809291908181526020018280546105e79061260d565b80156106345780601f1061060957610100808354040283529160200191610634565b820191906000526020600020905b81548152906001019060200180831161061757829003601f168201915b505050505081526020016005820154815260200160068201548152602001600782015481526020016008820154815250509050600081606001519050806001600160a01b03166108fc8361010001518460e0015161069291906125f5565b6040518115909202916000818181858888f193505050501580156106ba573d6000803e3d6000fd5b50505050565b336000908152602081905260409020548111156106dc57600080fd5b336000908152602081905260409020546106f79082906125f5565b33600090815260208190526040808220929092556001600160a01b038416815220546107249082906125de565b6001600160a01b0390921660009081526020819052604090209190915550565b61079c60405180610120016040528060008152602001600081526020016000815260200160006001600160a01b0316815260200160608152602001600081526020016000815260200160008152602001600081525090565b6000828152600460208181526040928390208351610120810185528154815260018201549281019290925260028101549382019390935260038301546001600160a01b0316606082015290820180549192916080840191906107fd9061260d565b80601f01602080910402602001604051908101604052809291908181526020018280546108299061260d565b80156108765780601f1061084b57610100808354040283529160200191610876565b820191906000526020600020905b81548152906001019060200180831161085957829003601f168201915b505050505081526020016005820154815260200160068201548152602001600782015481526020016008820154815250509050919050565b60078054808352346101e084018190526102008401528291600891600091826108d683612647565b9190505581526020019081526020016000206000820151816000015560208201518160010155604082015181600201556060820151816003019080519060200190610922929190611f2f565b506080820151805161093e916004840191602090910190611f2f565b5060a0820151805161095a916005840191602090910190611f2f565b5060c08201518051610976916006840191602090910190611f2f565b5060e08201518051610992916007840191602090910190611f2f565b5061010082015160088201556101208201516009820155610140820151600a820155610160820151600b82015561018082015180516109db91600c840191602090910190611f2f565b506101a082015180516109f891600d840191602090910190611f2f565b506101c0820151600e8201556101e0820151600f8201556102008201516010820155610220909101516011909101805460ff191691151591909117905580516040519081527f76fbc58aaedcbb39f7190db541de17575eeaaf17cf3facf5bd11ad55ca479ed19060200160405180910390a1600380546000818152600460208181526040928390209384559185015160018401558451600284015592820180546001600160a01b0319163317905561018084015180519293610ac293908501929190910190611f2f565b5034600782015560408083015160009081526005602090815291812080546001818101835591835292909120835460099093020191825580830154908201556002808301549082015560038083015490820180546001600160a01b0319166001600160a01b039092169190911790556004808301805484939283019190610b489061260d565b610b53929190611fb3565b5060058281015490820155600680830154818301556007808401549083015560089283015492909101919091558251600090815260209182526040812080546001818101835591835292909120835460099093020191825580830154908201556002808301549082015560038083015490820180546001600160a01b0319166001600160a01b039092169190911790556004808301805484939283019190610bfa9061260d565b610c05929190611fb3565b5060058281015490820155600680830154908201556007808301549082015560089182015491015560038054906000610c3d83612647565b91905055505050565b60008381526004602081815260408084208151610120810183528154815260018201549381019390935260028101549183019190915260038101546001600160a01b031660608301529182018054919291608084019190610ca69061260d565b80601f0160208091040260200160405190810160405280929190818152602001828054610cd29061260d565b8015610d1f5780601f10610cf457610100808354040283529160200191610d1f565b820191906000526020600020905b815481529060010190602001808311610d0257829003601f168201915b50505050508152602001600582015481526020016006820154815260200160078201548152602001600882015481525050905060018160a001818151610d6591906125de565b9052506000858152600560205260409020805482919085908110610d8b57610d8b612660565b60009182526020918290208351600992909202019081558282015160018201556040830151600282015560608301516003820180546001600160a01b0319166001600160a01b03909216919091179055608083015180519192610df692600485019290910190611f2f565b5060a0820151816005015560c0820151816006015560e08201518160070155610100820151816008015590505080600660008881526020019081526020016000208381548110610e4857610e48612660565b60009182526020918290208351600992909202019081558282015160018201556040830151600282015560608301516003820180546001600160a01b0319166001600160a01b03909216919091179055608083015180519192610eb392600485019290910190611f2f565b5060a0820151600582015560c0820151600682015560e082015160078201556101009091015160089091015580516000908152600460208181526040928390208451815581850151600182015592840151600284015560608401516003840180546001600160a01b0319166001600160a01b0390921691909117905560808401518051859493610f4893908501920190611f2f565b5060a0820151600582015560c0820151600682015560e0820151600782015561010090910151600890910155505050505050565b60005b825181101561118357600060056000858481518110610fa057610fa0612660565b60200260200101518152602001908152602001600020805480602002602001604051908101604052809291908181526020016000905b828210156110f85760008481526020908190206040805161012081018252600986029092018054835260018101549383019390935260028301549082015260038201546001600160a01b0316606082015260048201805491929160808401919061103f9061260d565b80601f016020809104026020016040519081016040528092919081815260200182805461106b9061260d565b80156110b85780601f1061108d576101008083540402835291602001916110b8565b820191906000526020600020905b81548152906001019060200180831161109b57829003601f168201915b5050505050815260200160058201548152602001600682015481526020016007820154815260200160088201548152505081526020019060010190610fd6565b50505050905060005b815181101561116e578382828151811061111d5761111d612660565b6020026020010151604001510361115c5761115682828151811061114357611143612660565b6020026020010151606001516001611188565b5061116e565b8061116681612647565b915050611101565b5050808061117b90612647565b915050610f7f565b505050565b336000908152602081905260408120548211156111a457600080fd5b336000908152602081905260409020546111bf9083906125de565b33600090815260208190526040808220929092556001600160a01b038516815220546111ec9083906125f5565b6001600160a01b038416600081815260208181526040918290209390935551848152909133917fddf252ad1be2c89b69c2b068fc378daa952ba7f163c4a11628f55a4df523b3ef91016103ff565b6000818152600860209081526040808320600683528184208054835181860281018601909452808452919493909190849084015b828210156113905760008481526020908190206040805161012081018252600986029092018054835260018101549383019390935260028301549082015260038201546001600160a01b031660608201526004820180549192916080840191906112d79061260d565b80601f01602080910402602001604051908101604052809291908181526020018280546113039061260d565b80156113505780601f1061132557610100808354040283529160200191611350565b820191906000526020600020905b81548152906001019060200180831161133357829003601f168201915b505050505081526020016005820154815260200160068201548152602001600782015481526020016008820154815250508152602001906001019061126e565b50505060118401805460ff19166001179055509050600080805b835181101561185857600085600801548583815181106113cc576113cc612660565b602002602001015160a0015160646113e49190612676565b6113ee9190612695565b905084828151811061140257611402612660565b602002602001015160a0015186600801540361142a578261142281612647565b93505061152d565b6050811061145c57600085838151811061144657611446612660565b602002602001015161010001818152505061152d565b602881106114f75760648187600f01546114769190612676565b6114809190612695565b85838151811061149257611492612660565b602002602001015160e001516114a891906125de565b6114b290856125f5565b935060648187600f01546114c69190612676565b6114d09190612695565b8583815181106114e2576114e2612660565b602002602001015160e001818152505061152d565b600f86015461150690856125f5565b9350600085838151811061151c5761151c612660565b602002602001015160e00181815250505b84828151811061153f5761153f612660565b602002602001015160066000898152602001908152602001600020838154811061156b5761156b612660565b60009182526020918290208351600992909202019081558282015160018201556040830151600282015560608301516003820180546001600160a01b0319166001600160a01b039092169190911790556080830151805191926115d692600485019290910190611f2f565b5060a0820151816005015560c0820151816006015560e08201518160070155610100820151816008015590505084828151811061161557611615612660565b60200260200101516004600087858151811061163357611633612660565b602002602001015160000151815260200190815260200160002060008201518160000155602082015181600101556040820151816002015560608201518160030160006101000a8154816001600160a01b0302191690836001600160a01b0316021790555060808201518160040190805190602001906116b4929190611f2f565b5060a0820151816005015560c0820151816006015560e08201518160070155610100820151816008015590505060008583815181106116f5576116f5612660565b602002602001015160200151905060005b60008281526005602052604090205481101561184257600082815260056020526040902080548a91908390811061173f5761173f612660565b906000526020600020906009020160020154036118305786848151811061176857611768612660565b602002602001015160056000848152602001908152602001600020828154811061179457611794612660565b60009182526020918290208351600992909202019081558282015160018201556040830151600282015560608301516003820180546001600160a01b0319166001600160a01b039092169190911790556080830151805191926117ff92600485019290910190611f2f565b5060a0820151600582015560c0820151600682015560e0820151600782015561010090910151600890910155611842565b8061183a81612647565b915050611706565b505050808061185090612647565b9150506113aa565b5060005b8351811015611be05783818151811061187757611877612660565b602002602001015160a00151856008015403611bce576118978284612695565b8482815181106118a9576118a9612660565b60200260200101516101000181815250508381815181106118cc576118cc612660565b60200260200101516006600088815260200190815260200160002082815481106118f8576118f8612660565b60009182526020918290208351600992909202019081558282015160018201556040830151600282015560608301516003820180546001600160a01b0319166001600160a01b0390921691909117905560808301518051919261196392600485019290910190611f2f565b5060a0820151816005015560c0820151816006015560e0820151816007015561010082015181600801559050508381815181106119a2576119a2612660565b6020026020010151600460008684815181106119c0576119c0612660565b602002602001015160000151815260200190815260200160002060008201518160000155602082015181600101556040820151816002015560608201518160030160006101000a8154816001600160a01b0302191690836001600160a01b031602179055506080820151816004019080519060200190611a41929190611f2f565b5060a0820151816005015560c0820151816006015560e0820151816007015561010082015181600801559050506000848281518110611a8257611a82612660565b602002602001015160200151905060005b600082815260056020526040902054811015611bcb576000828152600560205260409020805489919083908110611acc57611acc612660565b90600052602060002090600902016002015403611bb957858381518110611af557611af5612660565b6020026020010151600560008481526020019081526020016000208281548110611b2157611b21612660565b60009182526020918290208351600992909202019081558282015160018201556040830151600282015560608301516003820180546001600160a01b0319166001600160a01b03909216919091179055608083015180519192611b8c92600485019290910190611f2f565b5060a0820151600582015560c0820151600682015560e08201516007820155610100909101516008909101555b80611bc381612647565b915050611a93565b50505b80611bd881612647565b91505061185c565b505050505050565b60008381526004602081815260408084208151610120810183528154815260018201549381019390935260028101549183019190915260038101546001600160a01b031660608301529182018054919291608084019190611c489061260d565b80601f0160208091040260200160405190810160405280929190818152602001828054611c749061260d565b8015611cc15780601f10611c9657610100808354040283529160200191611cc1565b820191906000526020600020905b815481529060010190602001808311611ca457829003601f168201915b50505050508152602001600582015481526020016006820154815260200160078201548152602001600882015481525050905060018160a001818151611d0791906125f5565b9052506000858152600560205260409020805482919085908110611d2d57611d2d612660565b60009182526020918290208351600992909202019081558282015160018201556040830151600282015560608301516003820180546001600160a01b0319166001600160a01b03909216919091179055608083015180519192611d9892600485019290910190611f2f565b5060a0820151816005015560c0820151816006015560e08201518160070155610100820151816008015590505080600660008881526020019081526020016000208381548110611dea57611dea612660565b60009182526020918290208351600992909202019081558282015160018201556040830151600282015560608301516003820180546001600160a01b0319166001600160a01b03909216919091179055608083015180519192611e5592600485019290910190611f2f565b5060a0820151600582015560c0820151600682015560e082015160078201556101009091015160089091015580516000908152600460208181526040928390208451815581850151600182015592840151600284015560608401516003840180546001600160a01b0319166001600160a01b0390921691909117905560808401518051859493611eea93908501920190611f2f565b5060a0820151600582015560c0820151600682015560e08201516007820155610100909101516008909101556060810151611f268160016106c0565b50505050505050565b828054611f3b9061260d565b90600052602060002090601f016020900481019282611f5d5760008555611fa3565b82601f10611f7657805160ff1916838001178555611fa3565b82800160010185558215611fa3579182015b82811115611fa3578251825591602001919060010190611f88565b50611faf92915061202e565b5090565b828054611fbf9061260d565b90600052602060002090601f016020900481019282611fe15760008555611fa3565b82601f10611ff25780548555611fa3565b82800160010185558215611fa357600052602060002091601f016020900482015b82811115611fa3578254825591600101919060010190612013565b5b80821115611faf576000815560010161202f565b6000815180845260005b818110156120695760208185018101518683018201520161204d565b8181111561207b576000602083870101525b50601f01601f19169290920160200192915050565b6020815260006120a36020830184612043565b9392505050565b80356001600160a01b03811681146120c157600080fd5b919050565b600080604083850312156120d957600080fd5b6120e2836120aa565b946020939093013593505050565b60008060006060848603121561210557600080fd5b61210e846120aa565b925061211c602085016120aa565b9150604084013590509250925092565b60006020828403121561213e57600080fd5b5035919050565b602081528151602082015260208201516040820152604082015160608201526000606083015161218060808401826001600160a01b03169052565b5060808301516101208060a085015261219d610140850183612043565b915060a085015160c085015260c085015160e085015260e0850151610100818187015280870151838701525050508091505092915050565b634e487b7160e01b600052604160045260246000fd5b604051610240810167ffffffffffffffff8111828210171561220f5761220f6121d5565b60405290565b604051601f8201601f1916810167ffffffffffffffff8111828210171561223e5761223e6121d5565b604052919050565b600082601f83011261225757600080fd5b813567ffffffffffffffff811115612271576122716121d5565b612284601f8201601f1916602001612215565b81815284602083860101111561229957600080fd5b816020850160208301376000918101602001919091529392505050565b803580151581146120c157600080fd5b6000602082840312156122d857600080fd5b813567ffffffffffffffff808211156122f057600080fd5b90830190610240828603121561230557600080fd5b61230d6121eb565b82358152602083013560208201526040830135604082015260608301358281111561233757600080fd5b61234387828601612246565b60608301525060808301358281111561235b57600080fd5b61236787828601612246565b60808301525060a08301358281111561237f57600080fd5b61238b87828601612246565b60a08301525060c0830135828111156123a357600080fd5b6123af87828601612246565b60c08301525060e0830135828111156123c757600080fd5b6123d387828601612246565b60e0830152506101008381013590820152610120808401359082015261014080840135908201526101608084013590820152610180808401358381111561241957600080fd5b61242588828701612246565b8284015250506101a0808401358381111561243f57600080fd5b61244b88828701612246565b91830191909152506101c083810135908201526101e08084013590820152610200808401359082015261022091506124848284016122b6565b91810191909152949350505050565b6000602082840312156124a557600080fd5b6120a3826120aa565b600080600080600060a086880312156124c657600080fd5b505083359560208501359550604085013594606081013594506080013592509050565b600080604083850312156124fc57600080fd5b823567ffffffffffffffff8082111561251457600080fd5b818501915085601f83011261252857600080fd5b813560208282111561253c5761253c6121d5565b8160051b925061254d818401612215565b828152928401810192818101908985111561256757600080fd5b948201945b848610156125855785358252948201949082019061256c565b9997909101359750505050505050565b600080604083850312156125a857600080fd5b6125b1836120aa565b91506125bf602084016120aa565b90509250929050565b634e487b7160e01b600052601160045260246000fd5b6000828210156125f0576125f06125c8565b500390565b60008219821115612608576126086125c8565b500190565b600181811c9082168061262157607f821691505b60208210810361264157634e487b7160e01b600052602260045260246000fd5b50919050565b600060018201612659576126596125c8565b5060010190565b634e487b7160e01b600052603260045260246000fd5b6000816000190483118215151615612690576126906125c8565b500290565b6000826126b257634e487b7160e01b600052601260045260246000fd5b50049056fea26469706673582212207c78ef8309a3fb66b2dfa3d96ca402611bc5ef5b066c744fc951bc5ee995460b64736f6c634300080e0033",
  "immutableReferences": {},
  "source": "// SPDX-License-Identifier: MIT\r\npragma solidity ^0.8.0;\r\npragma abicoder v2;\r\n\r\nimport \"./ChallengerContract.sol\";\r\n\r\ncontract DailyChallengeContract is ChallengerContract{\r\n    \r\n    struct DailyChallenge {\r\n        // pk\r\n        uint challengeId;\r\n\r\n        //  fk\r\n        uint interestId;\r\n\r\n        //   fk\r\n        uint ownerId;\r\n\r\n        string name;\r\n        string desc;\r\n\r\n        //   \r\n        string mainPicURL;\r\n        string goodPicURL;\r\n        string badPicURL;\r\n        \r\n        //      \r\n        uint authTotalTimes;\r\n        uint authDayTimes;\r\n\r\n        // \r\n        int startTime;\r\n        int endTime;\r\n\r\n        //  \r\n        string startDate;\r\n        string endDate;\r\n\r\n        //   (  int(-1)    )\r\n        uint personnel;\r\n\r\n        //  \r\n        uint deposit;\r\n\r\n        //  \r\n        uint256 totalDeposit;\r\n\r\n        //   \r\n        bool complete;\r\n    }\r\n    uint challengeSequence = 1;\r\n    mapping(uint => DailyChallenge) dailyChallengeMap;\r\n    DailyChallenge[] dailyChallenges;\r\n\r\n    event returnChallengeId(uint challengeId);\r\n    //  \r\n    function createDailyChallenge(DailyChallenge memory dailyChallenge) public payable {\r\n        dailyChallenge.challengeId=challengeSequence;\r\n        dailyChallenge.deposit=msg.value;\r\n        dailyChallenge.totalDeposit=msg.value;\r\n        dailyChallengeMap[challengeSequence++]=dailyChallenge ;\r\n\r\n        emit returnChallengeId(dailyChallenge.challengeId);\r\n        /*     */\r\n        //  \r\n        Challenger storage challenger=challengerMap[challengerSequence];\r\n        challenger.id=challengerSequence;\r\n        challenger.userId=dailyChallenge.ownerId;\r\n        challenger.challengeId=dailyChallenge.challengeId;\r\n        challenger.userAddress=msg.sender;\r\n        challenger.today=dailyChallenge.startDate;\r\n        challenger.userDeposit=msg.value;\r\n\r\n        //    \r\n        findByUserIdChallenger[dailyChallenge.ownerId].push(challenger);\r\n        findByChallengeIdChallenger[dailyChallenge.challengeId].push(challenger);\r\n        challengerSequence++;\r\n    }\r\n\r\n    //  \r\n    function endDailyChallenge(uint challengeId) public{\r\n        DailyChallenge storage challenge=dailyChallengeMap[challengeId];\r\n        Challenger[] memory challengers=findByChallengeIdChallenger[challengeId];\r\n        challenge.complete=true;\r\n\r\n        uint totalReward=0;\r\n        uint count=0;\r\n        //        \r\n        for(uint i=0;i<challengers.length;i++){\r\n            uint rate = (challengers[i].totalCount*100)/challenge.authTotalTimes;\r\n            if(challenge.authTotalTimes==challengers[i].totalCount){\r\n                count++;               \r\n            }  \r\n            else if(rate>=80){\r\n                challengers[i].reward=0;\r\n            }\r\n            else if(rate>=40){\r\n                totalReward+=challengers[i].userDeposit-(challenge.deposit*rate)/100;\r\n                challengers[i].userDeposit=(challenge.deposit*rate)/100;\r\n            }\r\n            else{        \r\n                totalReward+=challenge.deposit;\r\n                challengers[i].userDeposit=0;\r\n            }\r\n\r\n            findByChallengeIdChallenger[challengeId][i]=challengers[i];\r\n            // challengerMap \r\n            challengerMap[challengers[i].id]=challengers[i];\r\n            // findByUserIdChallenger \r\n            uint userId=challengers[i].userId;\r\n            for(uint j=0;j<findByUserIdChallenger[userId].length;j++){\r\n                if(findByUserIdChallenger[userId][j].challengeId==challengeId){\r\n                    findByUserIdChallenger[userId][j]=challengers[i];\r\n                    break;\r\n                }\r\n            }\r\n            \r\n        }\r\n        for(uint i=0;i<challengers.length;i++){\r\n            if(challenge.authTotalTimes!=challengers[i].totalCount) continue;\r\n            challengers[i].reward=totalReward/count;  \r\n\r\n            findByChallengeIdChallenger[challengeId][i]=challengers[i];\r\n\r\n            // challengerMap \r\n            challengerMap[challengers[i].id]=challengers[i];\r\n\r\n            // findByUserIdChallenger  \r\n            uint userId=challengers[i].userId;\r\n            for(uint j=0;j<findByUserIdChallenger[userId].length;j++){\r\n                if(findByUserIdChallenger[userId][j].challengeId==challengeId){\r\n                    findByUserIdChallenger[userId][j]=challengers[i];\r\n                }\r\n            }\r\n        }\r\n    }\r\n}",
  "sourcePath": "c:\\Users\\multicampus\\Desktop\\ssafy\\S07P22B106\\truffle\\contracts\\DailyChallengeContract.sol",
  "compiler": {
    "name": "solc",
    "version": "0.8.14+commit.80d49f37.Emscripten.clang"
  },
  "schemaVersion": "3.4.10",
  "updatedAt": "2022-09-30T08:43:41.969Z",
  "devdoc": {
    "kind": "dev",
    "methods": {},
    "version": 1
  },
  "userdoc": {
    "kind": "user",
    "methods": {},
    "version": 1
  }
}