{
  "contractName": "DailyChallengeContract",
  "abi": [
    {
      "anonymous": false,
      "inputs": [
        {
          "indexed": true,
          "internalType": "address",
          "name": "owner",
          "type": "address"
        },
        {
          "indexed": true,
          "internalType": "address",
          "name": "spender",
          "type": "address"
        },
        {
          "indexed": false,
          "internalType": "uint256",
          "name": "value",
          "type": "uint256"
        }
      ],
      "name": "Approval",
      "type": "event"
    },
    {
      "anonymous": false,
      "inputs": [
        {
          "indexed": true,
          "internalType": "address",
          "name": "from",
          "type": "address"
        },
        {
          "indexed": true,
          "internalType": "address",
          "name": "to",
          "type": "address"
        },
        {
          "indexed": false,
          "internalType": "uint256",
          "name": "value",
          "type": "uint256"
        }
      ],
      "name": "Transfer",
      "type": "event"
    },
    {
      "inputs": [
        {
          "internalType": "address",
          "name": "owner",
          "type": "address"
        },
        {
          "internalType": "address",
          "name": "delegate",
          "type": "address"
        }
      ],
      "name": "allowance",
      "outputs": [
        {
          "internalType": "uint256",
          "name": "",
          "type": "uint256"
        }
      ],
      "stateMutability": "view",
      "type": "function"
    },
    {
      "inputs": [
        {
          "internalType": "uint256",
          "name": "challengeId",
          "type": "uint256"
        },
        {
          "internalType": "uint256",
          "name": "userId",
          "type": "uint256"
        },
        {
          "internalType": "uint256",
          "name": "challengerId",
          "type": "uint256"
        },
        {
          "internalType": "uint256",
          "name": "userIdIndex",
          "type": "uint256"
        },
        {
          "internalType": "uint256",
          "name": "challengeIdIndex",
          "type": "uint256"
        }
      ],
      "name": "applyVoteResult",
      "outputs": [],
      "stateMutability": "nonpayable",
      "type": "function"
    },
    {
      "inputs": [
        {
          "internalType": "address",
          "name": "delegate",
          "type": "address"
        },
        {
          "internalType": "uint256",
          "name": "numTokens",
          "type": "uint256"
        }
      ],
      "name": "approve",
      "outputs": [
        {
          "internalType": "bool",
          "name": "",
          "type": "bool"
        }
      ],
      "stateMutability": "nonpayable",
      "type": "function"
    },
    {
      "inputs": [
        {
          "internalType": "address",
          "name": "tokenOwner",
          "type": "address"
        }
      ],
      "name": "balanceOf",
      "outputs": [
        {
          "internalType": "uint256",
          "name": "",
          "type": "uint256"
        }
      ],
      "stateMutability": "view",
      "type": "function"
    },
    {
      "inputs": [],
      "name": "decimals",
      "outputs": [
        {
          "internalType": "uint8",
          "name": "",
          "type": "uint8"
        }
      ],
      "stateMutability": "view",
      "type": "function"
    },
    {
      "inputs": [],
      "name": "name",
      "outputs": [
        {
          "internalType": "string",
          "name": "",
          "type": "string"
        }
      ],
      "stateMutability": "view",
      "type": "function"
    },
    {
      "inputs": [
        {
          "internalType": "uint256[]",
          "name": "userIdList",
          "type": "uint256[]"
        }
      ],
      "name": "receivePasscoin",
      "outputs": [],
      "stateMutability": "nonpayable",
      "type": "function"
    },
    {
      "inputs": [
        {
          "internalType": "uint256",
          "name": "challengerId",
          "type": "uint256"
        }
      ],
      "name": "refund",
      "outputs": [],
      "stateMutability": "payable",
      "type": "function"
    },
    {
      "inputs": [],
      "name": "symbol",
      "outputs": [
        {
          "internalType": "string",
          "name": "",
          "type": "string"
        }
      ],
      "stateMutability": "view",
      "type": "function"
    },
    {
      "inputs": [],
      "name": "totalSupply",
      "outputs": [
        {
          "internalType": "uint256",
          "name": "",
          "type": "uint256"
        }
      ],
      "stateMutability": "view",
      "type": "function"
    },
    {
      "inputs": [
        {
          "internalType": "address",
          "name": "receiver",
          "type": "address"
        },
        {
          "internalType": "uint256",
          "name": "numTokens",
          "type": "uint256"
        }
      ],
      "name": "transfer",
      "outputs": [
        {
          "internalType": "bool",
          "name": "",
          "type": "bool"
        }
      ],
      "stateMutability": "nonpayable",
      "type": "function"
    },
    {
      "inputs": [
        {
          "internalType": "address",
          "name": "owner",
          "type": "address"
        },
        {
          "internalType": "address",
          "name": "buyer",
          "type": "address"
        },
        {
          "internalType": "uint256",
          "name": "numTokens",
          "type": "uint256"
        }
      ],
      "name": "transferFrom",
      "outputs": [
        {
          "internalType": "bool",
          "name": "",
          "type": "bool"
        }
      ],
      "stateMutability": "nonpayable",
      "type": "function"
    },
    {
      "inputs": [
        {
          "internalType": "address",
          "name": "user",
          "type": "address"
        },
        {
          "internalType": "uint256",
          "name": "numTokens",
          "type": "uint256"
        }
      ],
      "name": "useCoin",
      "outputs": [],
      "stateMutability": "nonpayable",
      "type": "function"
    },
    {
      "inputs": [
        {
          "internalType": "uint256",
          "name": "challengeId",
          "type": "uint256"
        },
        {
          "internalType": "uint256",
          "name": "userId",
          "type": "uint256"
        },
        {
          "internalType": "uint256",
          "name": "challengerId",
          "type": "uint256"
        },
        {
          "internalType": "uint256",
          "name": "userIdIndex",
          "type": "uint256"
        },
        {
          "internalType": "uint256",
          "name": "challengeIdIndex",
          "type": "uint256"
        }
      ],
      "name": "usePasscoin",
      "outputs": [],
      "stateMutability": "nonpayable",
      "type": "function"
    },
    {
      "inputs": [
        {
          "components": [
            {
              "internalType": "uint256",
              "name": "challengeId",
              "type": "uint256"
            },
            {
              "internalType": "uint256",
              "name": "interestId",
              "type": "uint256"
            },
            {
              "internalType": "uint256",
              "name": "ownerId",
              "type": "uint256"
            },
            {
              "internalType": "string",
              "name": "name",
              "type": "string"
            },
            {
              "internalType": "string",
              "name": "desc",
              "type": "string"
            },
            {
              "internalType": "string",
              "name": "mainPicURL",
              "type": "string"
            },
            {
              "internalType": "string",
              "name": "goodPicURL",
              "type": "string"
            },
            {
              "internalType": "string",
              "name": "badPicURL",
              "type": "string"
            },
            {
              "internalType": "uint256",
              "name": "authTotalTimes",
              "type": "uint256"
            },
            {
              "internalType": "uint256",
              "name": "authDayTimes",
              "type": "uint256"
            },
            {
              "internalType": "int256",
              "name": "startTime",
              "type": "int256"
            },
            {
              "internalType": "int256",
              "name": "endTime",
              "type": "int256"
            },
            {
              "internalType": "string",
              "name": "startDate",
              "type": "string"
            },
            {
              "internalType": "string",
              "name": "endDate",
              "type": "string"
            },
            {
              "internalType": "uint256",
              "name": "personnel",
              "type": "uint256"
            },
            {
              "internalType": "uint256",
              "name": "deposit",
              "type": "uint256"
            },
            {
              "internalType": "uint256",
              "name": "totalDeposit",
              "type": "uint256"
            },
            {
              "internalType": "bool",
              "name": "complete",
              "type": "bool"
            }
          ],
          "internalType": "struct DailyChallengeContract.DailyChallenge",
          "name": "dailyChallenge",
          "type": "tuple"
        }
      ],
      "name": "createDailyChallenge",
      "outputs": [],
      "stateMutability": "payable",
      "type": "function"
    },
    {
      "inputs": [
        {
          "internalType": "uint256",
          "name": "challengeId",
          "type": "uint256"
        }
      ],
      "name": "endDailyChallenge",
      "outputs": [],
      "stateMutability": "nonpayable",
      "type": "function"
    }
  ],
  "bytecode": "0x60806040526305f5e1006002556001600355600160075534801561002257600080fd5b5060025433600090815260208190526040902055612435806100456000396000f3fe6080604052600436106100f35760003560e01c806370a082311161008a578063a9059cbb11610059578063a9059cbb146102c6578063c78a57b9146102e6578063dd62ed3e14610306578063f5a802451461034c57600080fd5b806370a0823114610220578063740c162a1461025657806395d89b4114610276578063a8cfc266146102a657600080fd5b8063278ecde1116100c6578063278ecde1146101b1578063313ce567146101c65780633f711851146101ed5780636a5e4c9e1461020d57600080fd5b806306fdde03146100f8578063095ea7b31461014257806318160ddd1461017257806323b872dd14610191575b600080fd5b34801561010457600080fd5b5061012c604051806040016040528060088152602001672830b9b9a1b7b4b760c11b81525081565b6040516101399190611e2c565b60405180910390f35b34801561014e57600080fd5b5061016261015d366004611e9d565b61036c565b6040519015158152602001610139565b34801561017e57600080fd5b506002545b604051908152602001610139565b34801561019d57600080fd5b506101626101ac366004611ec7565b6103d8565b6101c46101bf366004611f03565b610523565b005b3480156101d257600080fd5b506101db600081565b60405160ff9091168152602001610139565b3480156101f957600080fd5b506101c4610208366004611e9d565b610688565b6101c461021b36600461200d565b61070c565b34801561022c57600080fd5b5061018361023b3660046121da565b6001600160a01b031660009081526020819052604090205490565b34801561026257600080fd5b506101c46102713660046121fc565b610aa4565b34801561028257600080fd5b5061012c604051806040016040528060048152602001635041535360e01b81525081565b3480156102b257600080fd5b506101c46102c1366004612237565b610dda565b3480156102d257600080fd5b506101626102e1366004611e9d565b610f71565b3480156102f257600080fd5b506101c4610301366004611f03565b611023565b34801561031257600080fd5b506101836103213660046122dd565b6001600160a01b03918216600090815260016020908152604080832093909416825291909152205490565b34801561035857600080fd5b506101c46103673660046121fc565b6119d1565b3360008181526001602090815260408083206001600160a01b038716808552925280832085905551919290917f8c5be1e5ebec7d5bd14f71427d1e84f3dd0314c0f7b2291e5b200ac8c7c3b925906103c79086815260200190565b60405180910390a350600192915050565b6001600160a01b0383166000908152602081905260408120548211156103fd57600080fd5b6001600160a01b038416600090815260016020908152604080832033845290915290205482111561042d57600080fd5b6001600160a01b038416600090815260208190526040902054610451908390612326565b6001600160a01b038516600090815260208181526040808320939093556001815282822033835290522054610487908390612326565b6001600160a01b03808616600090815260016020908152604080832033845282528083209490945591861681529081905220546104c590839061233d565b6001600160a01b038481166000818152602081815260409182902094909455518581529092918716917fddf252ad1be2c89b69c2b068fc378daa952ba7f163c4a11628f55a4df523b3ef910160405180910390a35060019392505050565b60008181526004602081815260408084208151610120810183528154815260018201549381019390935260028101549183019190915260038101546001600160a01b03166060830152918201805491929160808401919061058390612355565b80601f01602080910402602001604051908101604052809291908181526020018280546105af90612355565b80156105fc5780601f106105d1576101008083540402835291602001916105fc565b820191906000526020600020905b8154815290600101906020018083116105df57829003601f168201915b505050505081526020016005820154815260200160068201548152602001600782015481526020016008820154815250509050600081606001519050806001600160a01b03166108fc8361010001518460e0015161065a919061233d565b6040518115909202916000818181858888f19350505050158015610682573d6000803e3d6000fd5b50505050565b336000908152602081905260409020548111156106a457600080fd5b336000908152602081905260409020546106bf90829061233d565b33600090815260208190526040808220929092556001600160a01b038416815220546106ec908290612326565b6001600160a01b0390921660009081526020819052604090209190915550565b60075481526101e081018051670de0b6b3a7640000919061072e90839061238f565b90525061020081018051670de0b6b3a7640000919061074e90839061238f565b90525060078054829160089160009182610767836123ae565b91905055815260200190815260200160002060008201518160000155602082015181600101556040820151816002015560608201518160030190805190602001906107b3929190611d18565b50608082015180516107cf916004840191602090910190611d18565b5060a082015180516107eb916005840191602090910190611d18565b5060c08201518051610807916006840191602090910190611d18565b5060e08201518051610823916007840191602090910190611d18565b5061010082015160088201556101208201516009820155610140820151600a820155610160820151600b820155610180820151805161086c91600c840191602090910190611d18565b506101a0820151805161088991600d840191602090910190611d18565b506101c0820151600e8201556101e0820151600f8201556102008201516010820155610220909101516011909101805491151560ff19909216919091179055600380546000818152600460208181526040928390209384559185015160018401558451600284015592820180546001600160a01b031916331790556101808401518051929361092093908501929190910190611d18565b5034600782015560408083015160009081526005602090815291812080546001818101835591835292909120835460099093020191825580830154908201556002808301549082015560038083015490820180546001600160a01b0319166001600160a01b0390921691909117905560048083018054849392830191906109a690612355565b6109b1929190611d9c565b5060058281015490820155600680830154818301556007808401549083015560089283015492909101919091558251600090815260209182526040812080546001818101835591835292909120835460099093020191825580830154908201556002808301549082015560038083015490820180546001600160a01b0319166001600160a01b039092169190911790556004808301805484939283019190610a5890612355565b610a63929190611d9c565b5060058281015490820155600680830154908201556007808301549082015560089182015491015560038054906000610a9b836123ae565b91905055505050565b60008381526004602081815260408084208151610120810183528154815260018201549381019390935260028101549183019190915260038101546001600160a01b031660608301529182018054919291608084019190610b0490612355565b80601f0160208091040260200160405190810160405280929190818152602001828054610b3090612355565b8015610b7d5780601f10610b5257610100808354040283529160200191610b7d565b820191906000526020600020905b815481529060010190602001808311610b6057829003601f168201915b50505050508152602001600582015481526020016006820154815260200160078201548152602001600882015481525050905060018160a001818151610bc39190612326565b9052506000858152600560205260409020805482919085908110610be957610be96123c7565b60009182526020918290208351600992909202019081558282015160018201556040830151600282015560608301516003820180546001600160a01b0319166001600160a01b03909216919091179055608083015180519192610c5492600485019290910190611d18565b5060a0820151816005015560c0820151816006015560e08201518160070155610100820151816008015590505080600660008881526020019081526020016000208381548110610ca657610ca66123c7565b60009182526020918290208351600992909202019081558282015160018201556040830151600282015560608301516003820180546001600160a01b0319166001600160a01b03909216919091179055608083015180519192610d1192600485019290910190611d18565b5060a0820151600582015560c0820151600682015560e082015160078201556101009091015160089091015580516000908152600460208181526040928390208451815581850151600182015592840151600284015560608401516003840180546001600160a01b0319166001600160a01b0390921691909117905560808401518051859493610da693908501920190611d18565b5060a0820151600582015560c0820151600682015560e0820151600782015561010090910151600890910155505050505050565b60005b8151811015610f6d57600060056000848481518110610dfe57610dfe6123c7565b60200260200101518152602001908152602001600020600081548110610e2657610e266123c7565b9060005260206000209060090201604051806101200160405290816000820154815260200160018201548152602001600282015481526020016003820160009054906101000a90046001600160a01b03166001600160a01b03166001600160a01b03168152602001600482018054610e9d90612355565b80601f0160208091040260200160405190810160405280929190818152602001828054610ec990612355565b8015610f165780601f10610eeb57610100808354040283529160200191610f16565b820191906000526020600020905b815481529060010190602001808311610ef957829003601f168201915b505050505081526020016005820154815260200160068201548152602001600782015481526020016008820154815250509050610f5881606001516001610f71565b50508080610f65906123ae565b915050610ddd565b5050565b33600090815260208190526040812054821115610f8d57600080fd5b33600090815260208190526040902054610fa8908390612326565b33600090815260208190526040808220929092556001600160a01b03851681522054610fd590839061233d565b6001600160a01b038416600081815260208181526040918290209390935551848152909133917fddf252ad1be2c89b69c2b068fc378daa952ba7f163c4a11628f55a4df523b3ef91016103c7565b6000818152600860209081526040808320600683528184208054835181860281018601909452808452919493909190849084015b828210156111795760008481526020908190206040805161012081018252600986029092018054835260018101549383019390935260028301549082015260038201546001600160a01b031660608201526004820180549192916080840191906110c090612355565b80601f01602080910402602001604051908101604052809291908181526020018280546110ec90612355565b80156111395780601f1061110e57610100808354040283529160200191611139565b820191906000526020600020905b81548152906001019060200180831161111c57829003601f168201915b5050505050815260200160058201548152602001600682015481526020016007820154815260200160088201548152505081526020019060010190611057565b50505060118401805460ff19166001179055509050600080805b835181101561164157600085600801548583815181106111b5576111b56123c7565b602002602001015160a0015160646111cd919061238f565b6111d791906123dd565b90508482815181106111eb576111eb6123c7565b602002602001015160a00151866008015403611213578261120b816123ae565b935050611316565b6050811061124557600085838151811061122f5761122f6123c7565b6020026020010151610100018181525050611316565b602881106112e05760648187600f015461125f919061238f565b61126991906123dd565b85838151811061127b5761127b6123c7565b602002602001015160e001516112919190612326565b61129b908561233d565b935060648187600f01546112af919061238f565b6112b991906123dd565b8583815181106112cb576112cb6123c7565b602002602001015160e0018181525050611316565b600f8601546112ef908561233d565b93506000858381518110611305576113056123c7565b602002602001015160e00181815250505b848281518110611328576113286123c7565b6020026020010151600660008981526020019081526020016000208381548110611354576113546123c7565b60009182526020918290208351600992909202019081558282015160018201556040830151600282015560608301516003820180546001600160a01b0319166001600160a01b039092169190911790556080830151805191926113bf92600485019290910190611d18565b5060a0820151816005015560c0820151816006015560e0820151816007015561010082015181600801559050508482815181106113fe576113fe6123c7565b60200260200101516004600087858151811061141c5761141c6123c7565b602002602001015160000151815260200190815260200160002060008201518160000155602082015181600101556040820151816002015560608201518160030160006101000a8154816001600160a01b0302191690836001600160a01b03160217905550608082015181600401908051906020019061149d929190611d18565b5060a0820151816005015560c0820151816006015560e08201518160070155610100820151816008015590505060008583815181106114de576114de6123c7565b602002602001015160200151905060005b60008281526005602052604090205481101561162b57600082815260056020526040902080548a919083908110611528576115286123c7565b9060005260206000209060090201600201540361161957868481518110611551576115516123c7565b602002602001015160056000848152602001908152602001600020828154811061157d5761157d6123c7565b60009182526020918290208351600992909202019081558282015160018201556040830151600282015560608301516003820180546001600160a01b0319166001600160a01b039092169190911790556080830151805191926115e892600485019290910190611d18565b5060a0820151600582015560c0820151600682015560e082015160078201556101009091015160089091015561162b565b80611623816123ae565b9150506114ef565b5050508080611639906123ae565b915050611193565b5060005b83518110156119c957838181518110611660576116606123c7565b602002602001015160a001518560080154036119b75761168082846123dd565b848281518110611692576116926123c7565b60200260200101516101000181815250508381815181106116b5576116b56123c7565b60200260200101516006600088815260200190815260200160002082815481106116e1576116e16123c7565b60009182526020918290208351600992909202019081558282015160018201556040830151600282015560608301516003820180546001600160a01b0319166001600160a01b0390921691909117905560808301518051919261174c92600485019290910190611d18565b5060a0820151816005015560c0820151816006015560e08201518160070155610100820151816008015590505083818151811061178b5761178b6123c7565b6020026020010151600460008684815181106117a9576117a96123c7565b602002602001015160000151815260200190815260200160002060008201518160000155602082015181600101556040820151816002015560608201518160030160006101000a8154816001600160a01b0302191690836001600160a01b03160217905550608082015181600401908051906020019061182a929190611d18565b5060a0820151816005015560c0820151816006015560e082015181600701556101008201518160080155905050600084828151811061186b5761186b6123c7565b602002602001015160200151905060005b6000828152600560205260409020548110156119b45760008281526005602052604090208054899190839081106118b5576118b56123c7565b906000526020600020906009020160020154036119a2578583815181106118de576118de6123c7565b602002602001015160056000848152602001908152602001600020828154811061190a5761190a6123c7565b60009182526020918290208351600992909202019081558282015160018201556040830151600282015560608301516003820180546001600160a01b0319166001600160a01b0390921691909117905560808301518051919261197592600485019290910190611d18565b5060a0820151600582015560c0820151600682015560e08201516007820155610100909101516008909101555b806119ac816123ae565b91505061187c565b50505b806119c1816123ae565b915050611645565b505050505050565b60008381526004602081815260408084208151610120810183528154815260018201549381019390935260028101549183019190915260038101546001600160a01b031660608301529182018054919291608084019190611a3190612355565b80601f0160208091040260200160405190810160405280929190818152602001828054611a5d90612355565b8015611aaa5780601f10611a7f57610100808354040283529160200191611aaa565b820191906000526020600020905b815481529060010190602001808311611a8d57829003601f168201915b50505050508152602001600582015481526020016006820154815260200160078201548152602001600882015481525050905060018160a001818151611af0919061233d565b9052506000858152600560205260409020805482919085908110611b1657611b166123c7565b60009182526020918290208351600992909202019081558282015160018201556040830151600282015560608301516003820180546001600160a01b0319166001600160a01b03909216919091179055608083015180519192611b8192600485019290910190611d18565b5060a0820151816005015560c0820151816006015560e08201518160070155610100820151816008015590505080600660008881526020019081526020016000208381548110611bd357611bd36123c7565b60009182526020918290208351600992909202019081558282015160018201556040830151600282015560608301516003820180546001600160a01b0319166001600160a01b03909216919091179055608083015180519192611c3e92600485019290910190611d18565b5060a0820151600582015560c0820151600682015560e082015160078201556101009091015160089091015580516000908152600460208181526040928390208451815581850151600182015592840151600284015560608401516003840180546001600160a01b0319166001600160a01b0390921691909117905560808401518051859493611cd393908501920190611d18565b5060a0820151600582015560c0820151600682015560e08201516007820155610100909101516008909101556060810151611d0f816001610688565b50505050505050565b828054611d2490612355565b90600052602060002090601f016020900481019282611d465760008555611d8c565b82601f10611d5f57805160ff1916838001178555611d8c565b82800160010185558215611d8c579182015b82811115611d8c578251825591602001919060010190611d71565b50611d98929150611e17565b5090565b828054611da890612355565b90600052602060002090601f016020900481019282611dca5760008555611d8c565b82601f10611ddb5780548555611d8c565b82800160010185558215611d8c57600052602060002091601f016020900482015b82811115611d8c578254825591600101919060010190611dfc565b5b80821115611d985760008155600101611e18565b600060208083528351808285015260005b81811015611e5957858101830151858201604001528201611e3d565b81811115611e6b576000604083870101525b50601f01601f1916929092016040019392505050565b80356001600160a01b0381168114611e9857600080fd5b919050565b60008060408385031215611eb057600080fd5b611eb983611e81565b946020939093013593505050565b600080600060608486031215611edc57600080fd5b611ee584611e81565b9250611ef360208501611e81565b9150604084013590509250925092565b600060208284031215611f1557600080fd5b5035919050565b634e487b7160e01b600052604160045260246000fd5b604051610240810167ffffffffffffffff81118282101715611f5657611f56611f1c565b60405290565b604051601f8201601f1916810167ffffffffffffffff81118282101715611f8557611f85611f1c565b604052919050565b600082601f830112611f9e57600080fd5b813567ffffffffffffffff811115611fb857611fb8611f1c565b611fcb601f8201601f1916602001611f5c565b818152846020838601011115611fe057600080fd5b816020850160208301376000918101602001919091529392505050565b80358015158114611e9857600080fd5b60006020828403121561201f57600080fd5b813567ffffffffffffffff8082111561203757600080fd5b90830190610240828603121561204c57600080fd5b612054611f32565b82358152602083013560208201526040830135604082015260608301358281111561207e57600080fd5b61208a87828601611f8d565b6060830152506080830135828111156120a257600080fd5b6120ae87828601611f8d565b60808301525060a0830135828111156120c657600080fd5b6120d287828601611f8d565b60a08301525060c0830135828111156120ea57600080fd5b6120f687828601611f8d565b60c08301525060e08301358281111561210e57600080fd5b61211a87828601611f8d565b60e0830152506101008381013590820152610120808401359082015261014080840135908201526101608084013590820152610180808401358381111561216057600080fd5b61216c88828701611f8d565b8284015250506101a0808401358381111561218657600080fd5b61219288828701611f8d565b91830191909152506101c083810135908201526101e08084013590820152610200808401359082015261022091506121cb828401611ffd565b91810191909152949350505050565b6000602082840312156121ec57600080fd5b6121f582611e81565b9392505050565b600080600080600060a0868803121561221457600080fd5b505083359560208501359550604085013594606081013594506080013592509050565b6000602080838503121561224a57600080fd5b823567ffffffffffffffff8082111561226257600080fd5b818501915085601f83011261227657600080fd5b81358181111561228857612288611f1c565b8060051b9150612299848301611f5c565b81815291830184019184810190888411156122b357600080fd5b938501935b838510156122d1578435825293850193908501906122b8565b98975050505050505050565b600080604083850312156122f057600080fd5b6122f983611e81565b915061230760208401611e81565b90509250929050565b634e487b7160e01b600052601160045260246000fd5b60008282101561233857612338612310565b500390565b6000821982111561235057612350612310565b500190565b600181811c9082168061236957607f821691505b60208210810361238957634e487b7160e01b600052602260045260246000fd5b50919050565b60008160001904831182151516156123a9576123a9612310565b500290565b6000600182016123c0576123c0612310565b5060010190565b634e487b7160e01b600052603260045260246000fd5b6000826123fa57634e487b7160e01b600052601260045260246000fd5b50049056fea26469706673582212205aa89fd0d4138cd331fe991415e4d30aa6e30bfdf31f3c930b0ab1b2486750a464736f6c634300080e0033",
  "immutableReferences": {},
  "source": "// SPDX-License-Identifier: MIT\r\npragma solidity ^0.8.0;\r\npragma abicoder v2;\r\n\r\nimport \"./ChallengerContract.sol\";\r\n\r\ncontract DailyChallengeContract is ChallengerContract{\r\n    \r\n    struct DailyChallenge {\r\n        // pk\r\n        uint challengeId;\r\n\r\n        //  fk\r\n        uint interestId;\r\n\r\n        //   fk\r\n        uint ownerId;\r\n\r\n        string name;\r\n        string desc;\r\n\r\n        //   \r\n        string mainPicURL;\r\n        string goodPicURL;\r\n        string badPicURL;\r\n        \r\n        //      \r\n        uint authTotalTimes;\r\n        uint authDayTimes;\r\n\r\n        // \r\n        int startTime;\r\n        int endTime;\r\n\r\n        //  \r\n        string startDate;\r\n        string endDate;\r\n\r\n        //   (  int(-1)    )\r\n        uint personnel;\r\n\r\n        //  \r\n        uint deposit;\r\n\r\n        //  \r\n        uint256 totalDeposit;\r\n\r\n        //   \r\n        bool complete;\r\n    }\r\n    uint challengeSequence = 1;\r\n    mapping(uint => DailyChallenge) dailyChallengeMap;\r\n    DailyChallenge[] dailyChallenges;\r\n\r\n    //  \r\n    function createDailyChallenge(DailyChallenge memory dailyChallenge) public payable {\r\n        dailyChallenge.challengeId=challengeSequence;\r\n        dailyChallenge.deposit*=1e18;\r\n        dailyChallenge.totalDeposit*=1e18;\r\n        dailyChallengeMap[challengeSequence++]=dailyChallenge ;\r\n        \r\n        /*     */\r\n        //  \r\n        Challenger storage challenger=challengerMap[challengerSequence];\r\n        challenger.id=challengerSequence;\r\n        challenger.userId=dailyChallenge.ownerId;\r\n        challenger.challengeId=dailyChallenge.challengeId;\r\n        challenger.userAddress=msg.sender;\r\n        challenger.today=dailyChallenge.startDate;\r\n        challenger.userDeposit=msg.value;\r\n\r\n        //    \r\n        findByUserIdChallenger[dailyChallenge.ownerId].push(challenger);\r\n        findByChallengeIdChallenger[dailyChallenge.challengeId].push(challenger);\r\n        challengerSequence++;\r\n    }\r\n\r\n    //  \r\n    function endDailyChallenge(uint challengeId) public{\r\n        DailyChallenge storage challenge=dailyChallengeMap[challengeId];\r\n        Challenger[] memory challengers=findByChallengeIdChallenger[challengeId];\r\n        challenge.complete=true;\r\n\r\n        uint totalReward=0;\r\n        uint count=0;\r\n        //        \r\n        for(uint i=0;i<challengers.length;i++){\r\n            uint rate = (challengers[i].totalCount*100)/challenge.authTotalTimes;\r\n            if(challenge.authTotalTimes==challengers[i].totalCount){\r\n                count++;               \r\n            }  \r\n            else if(rate>=80){\r\n                challengers[i].reward=0;\r\n            }\r\n            else if(rate>=40){\r\n                totalReward+=challengers[i].userDeposit-(challenge.deposit*rate)/100;\r\n                challengers[i].userDeposit=(challenge.deposit*rate)/100;\r\n            }\r\n            else{        \r\n                totalReward+=challenge.deposit;\r\n                challengers[i].userDeposit=0;\r\n            }\r\n\r\n            findByChallengeIdChallenger[challengeId][i]=challengers[i];\r\n            // challengerMap \r\n            challengerMap[challengers[i].id]=challengers[i];\r\n            // findByUserIdChallenger \r\n            uint userId=challengers[i].userId;\r\n            for(uint j=0;j<findByUserIdChallenger[userId].length;j++){\r\n                if(findByUserIdChallenger[userId][j].challengeId==challengeId){\r\n                    findByUserIdChallenger[userId][j]=challengers[i];\r\n                    break;\r\n                }\r\n            }\r\n            \r\n        }\r\n        for(uint i=0;i<challengers.length;i++){\r\n            if(challenge.authTotalTimes!=challengers[i].totalCount) continue;\r\n            challengers[i].reward=totalReward/count;  \r\n\r\n            findByChallengeIdChallenger[challengeId][i]=challengers[i];\r\n\r\n            // challengerMap \r\n            challengerMap[challengers[i].id]=challengers[i];\r\n\r\n            // findByUserIdChallenger  \r\n            uint userId=challengers[i].userId;\r\n            for(uint j=0;j<findByUserIdChallenger[userId].length;j++){\r\n                if(findByUserIdChallenger[userId][j].challengeId==challengeId){\r\n                    findByUserIdChallenger[userId][j]=challengers[i];\r\n                }\r\n            }\r\n        }\r\n    }\r\n}",
  "sourcePath": "c:\\Users\\multicampus\\Desktop\\ssafy\\S07P22B106\\truffle\\contracts\\DailyChallengeContract.sol",
  "compiler": {
    "name": "solc",
    "version": "0.8.14+commit.80d49f37.Emscripten.clang"
  },
  "schemaVersion": "3.4.10",
  "updatedAt": "2022-09-23T07:24:43.701Z",
  "devdoc": {
    "kind": "dev",
    "methods": {},
    "version": 1
  },
  "userdoc": {
    "kind": "user",
    "methods": {},
    "version": 1
  }
}