{
  "contractName": "DailyChallengeContract",
  "abi": [
    {
      "anonymous": false,
      "inputs": [
        {
          "indexed": true,
          "internalType": "address",
          "name": "owner",
          "type": "address"
        },
        {
          "indexed": true,
          "internalType": "address",
          "name": "spender",
          "type": "address"
        },
        {
          "indexed": false,
          "internalType": "uint256",
          "name": "value",
          "type": "uint256"
        }
      ],
      "name": "Approval",
      "type": "event"
    },
    {
      "anonymous": false,
      "inputs": [
        {
          "indexed": true,
          "internalType": "address",
          "name": "from",
          "type": "address"
        },
        {
          "indexed": true,
          "internalType": "address",
          "name": "to",
          "type": "address"
        },
        {
          "indexed": false,
          "internalType": "uint256",
          "name": "value",
          "type": "uint256"
        }
      ],
      "name": "Transfer",
      "type": "event"
    },
    {
      "anonymous": false,
      "inputs": [
        {
          "indexed": false,
          "internalType": "uint256",
          "name": "challengeId",
          "type": "uint256"
        }
      ],
      "name": "returnChallengeId",
      "type": "event"
    },
    {
      "inputs": [
        {
          "internalType": "address",
          "name": "owner",
          "type": "address"
        },
        {
          "internalType": "address",
          "name": "delegate",
          "type": "address"
        }
      ],
      "name": "allowance",
      "outputs": [
        {
          "internalType": "uint256",
          "name": "",
          "type": "uint256"
        }
      ],
      "stateMutability": "view",
      "type": "function"
    },
    {
      "inputs": [
        {
          "internalType": "uint256",
          "name": "challengeId",
          "type": "uint256"
        },
        {
          "internalType": "uint256",
          "name": "userId",
          "type": "uint256"
        },
        {
          "internalType": "uint256",
          "name": "challengerId",
          "type": "uint256"
        },
        {
          "internalType": "uint256",
          "name": "userIdIndex",
          "type": "uint256"
        },
        {
          "internalType": "uint256",
          "name": "challengeIdIndex",
          "type": "uint256"
        }
      ],
      "name": "applyVoteResult",
      "outputs": [],
      "stateMutability": "nonpayable",
      "type": "function"
    },
    {
      "inputs": [
        {
          "internalType": "address",
          "name": "delegate",
          "type": "address"
        },
        {
          "internalType": "uint256",
          "name": "numTokens",
          "type": "uint256"
        }
      ],
      "name": "approve",
      "outputs": [
        {
          "internalType": "bool",
          "name": "",
          "type": "bool"
        }
      ],
      "stateMutability": "nonpayable",
      "type": "function"
    },
    {
      "inputs": [
        {
          "internalType": "address",
          "name": "tokenOwner",
          "type": "address"
        }
      ],
      "name": "balanceOf",
      "outputs": [
        {
          "internalType": "uint256",
          "name": "",
          "type": "uint256"
        }
      ],
      "stateMutability": "view",
      "type": "function"
    },
    {
      "inputs": [],
      "name": "decimals",
      "outputs": [
        {
          "internalType": "uint8",
          "name": "",
          "type": "uint8"
        }
      ],
      "stateMutability": "view",
      "type": "function"
    },
    {
      "inputs": [
        {
          "internalType": "uint256",
          "name": "challengerId",
          "type": "uint256"
        }
      ],
      "name": "findByChallengerId",
      "outputs": [
        {
          "components": [
            {
              "internalType": "uint256",
              "name": "id",
              "type": "uint256"
            },
            {
              "internalType": "uint256",
              "name": "userId",
              "type": "uint256"
            },
            {
              "internalType": "uint256",
              "name": "challengeId",
              "type": "uint256"
            },
            {
              "internalType": "address",
              "name": "userAddress",
              "type": "address"
            },
            {
              "internalType": "uint256",
              "name": "today",
              "type": "uint256"
            },
            {
              "internalType": "uint256",
              "name": "totalCount",
              "type": "uint256"
            },
            {
              "internalType": "uint256",
              "name": "weekCount",
              "type": "uint256"
            },
            {
              "internalType": "uint256",
              "name": "dailyCount",
              "type": "uint256"
            },
            {
              "internalType": "uint256",
              "name": "userDeposit",
              "type": "uint256"
            },
            {
              "internalType": "uint256",
              "name": "reward",
              "type": "uint256"
            },
            {
              "internalType": "bool",
              "name": "receiveRefund",
              "type": "bool"
            }
          ],
          "internalType": "struct ChallengerContract.Challenger",
          "name": "",
          "type": "tuple"
        }
      ],
      "stateMutability": "view",
      "type": "function"
    },
    {
      "inputs": [],
      "name": "name",
      "outputs": [
        {
          "internalType": "string",
          "name": "",
          "type": "string"
        }
      ],
      "stateMutability": "view",
      "type": "function"
    },
    {
      "inputs": [
        {
          "internalType": "uint256[]",
          "name": "userIdList",
          "type": "uint256[]"
        },
        {
          "internalType": "uint256",
          "name": "challengeId",
          "type": "uint256"
        }
      ],
      "name": "receivePasscoin",
      "outputs": [],
      "stateMutability": "nonpayable",
      "type": "function"
    },
    {
      "inputs": [
        {
          "internalType": "uint256",
          "name": "challengeId",
          "type": "uint256"
        },
        {
          "internalType": "uint256",
          "name": "userId",
          "type": "uint256"
        },
        {
          "internalType": "uint256",
          "name": "challengerId",
          "type": "uint256"
        },
        {
          "internalType": "uint256",
          "name": "userIdIndex",
          "type": "uint256"
        },
        {
          "internalType": "uint256",
          "name": "challengeIdIndex",
          "type": "uint256"
        }
      ],
      "name": "refund",
      "outputs": [],
      "stateMutability": "payable",
      "type": "function"
    },
    {
      "inputs": [],
      "name": "symbol",
      "outputs": [
        {
          "internalType": "string",
          "name": "",
          "type": "string"
        }
      ],
      "stateMutability": "view",
      "type": "function"
    },
    {
      "inputs": [],
      "name": "totalSupply",
      "outputs": [
        {
          "internalType": "uint256",
          "name": "",
          "type": "uint256"
        }
      ],
      "stateMutability": "view",
      "type": "function"
    },
    {
      "inputs": [
        {
          "internalType": "address",
          "name": "receiver",
          "type": "address"
        },
        {
          "internalType": "uint256",
          "name": "numTokens",
          "type": "uint256"
        }
      ],
      "name": "transfer",
      "outputs": [
        {
          "internalType": "bool",
          "name": "",
          "type": "bool"
        }
      ],
      "stateMutability": "nonpayable",
      "type": "function"
    },
    {
      "inputs": [
        {
          "internalType": "address",
          "name": "owner",
          "type": "address"
        },
        {
          "internalType": "address",
          "name": "buyer",
          "type": "address"
        },
        {
          "internalType": "uint256",
          "name": "numTokens",
          "type": "uint256"
        }
      ],
      "name": "transferFrom",
      "outputs": [
        {
          "internalType": "bool",
          "name": "",
          "type": "bool"
        }
      ],
      "stateMutability": "nonpayable",
      "type": "function"
    },
    {
      "inputs": [
        {
          "internalType": "address",
          "name": "user",
          "type": "address"
        },
        {
          "internalType": "uint256",
          "name": "numTokens",
          "type": "uint256"
        }
      ],
      "name": "useCoin",
      "outputs": [],
      "stateMutability": "nonpayable",
      "type": "function"
    },
    {
      "inputs": [
        {
          "internalType": "uint256",
          "name": "challengeId",
          "type": "uint256"
        },
        {
          "internalType": "uint256",
          "name": "userId",
          "type": "uint256"
        },
        {
          "internalType": "uint256",
          "name": "challengerId",
          "type": "uint256"
        },
        {
          "internalType": "uint256",
          "name": "userIdIndex",
          "type": "uint256"
        },
        {
          "internalType": "uint256",
          "name": "challengeIdIndex",
          "type": "uint256"
        }
      ],
      "name": "usePasscoin",
      "outputs": [],
      "stateMutability": "nonpayable",
      "type": "function"
    },
    {
      "inputs": [
        {
          "components": [
            {
              "internalType": "uint256",
              "name": "challengeId",
              "type": "uint256"
            },
            {
              "internalType": "uint256",
              "name": "interestId",
              "type": "uint256"
            },
            {
              "internalType": "uint256",
              "name": "ownerId",
              "type": "uint256"
            },
            {
              "internalType": "string",
              "name": "name",
              "type": "string"
            },
            {
              "internalType": "string",
              "name": "desc",
              "type": "string"
            },
            {
              "internalType": "string",
              "name": "mainPicURL",
              "type": "string"
            },
            {
              "internalType": "string",
              "name": "goodPicURL",
              "type": "string"
            },
            {
              "internalType": "string",
              "name": "badPicURL",
              "type": "string"
            },
            {
              "internalType": "uint256",
              "name": "authTotalTimes",
              "type": "uint256"
            },
            {
              "internalType": "uint256",
              "name": "authWeekTimes",
              "type": "uint256"
            },
            {
              "internalType": "uint256",
              "name": "authDayTimes",
              "type": "uint256"
            },
            {
              "internalType": "int256",
              "name": "startTime",
              "type": "int256"
            },
            {
              "internalType": "int256",
              "name": "endTime",
              "type": "int256"
            },
            {
              "internalType": "string",
              "name": "startDate",
              "type": "string"
            },
            {
              "internalType": "string",
              "name": "endDate",
              "type": "string"
            },
            {
              "internalType": "uint256",
              "name": "personnel",
              "type": "uint256"
            },
            {
              "internalType": "uint256",
              "name": "deposit",
              "type": "uint256"
            },
            {
              "internalType": "uint256",
              "name": "totalDeposit",
              "type": "uint256"
            },
            {
              "internalType": "bool",
              "name": "complete",
              "type": "bool"
            }
          ],
          "internalType": "struct DailyChallengeContract.DailyChallenge",
          "name": "dailyChallenge",
          "type": "tuple"
        }
      ],
      "name": "createDailyChallenge",
      "outputs": [],
      "stateMutability": "payable",
      "type": "function"
    },
    {
      "inputs": [
        {
          "internalType": "uint256",
          "name": "challengeId",
          "type": "uint256"
        }
      ],
      "name": "endDailyChallenge",
      "outputs": [],
      "stateMutability": "nonpayable",
      "type": "function"
    },
    {
      "inputs": [
        {
          "internalType": "uint256",
          "name": "challengeId",
          "type": "uint256"
        }
      ],
      "name": "deleteDailyChallenge",
      "outputs": [],
      "stateMutability": "nonpayable",
      "type": "function"
    }
  ],
  "bytecode": "0x60806040526305f5e1006003556001600455600160085534801561002257600080fd5b506003543360008181526001602052604081209290925581546001600160a01b031916179055612976806100576000396000f3fe6080604052600436106101095760003560e01c806370a0823111610095578063a9059cbb11610064578063a9059cbb14610309578063c78a57b914610329578063dd62ed3e14610349578063e2be6c861461038f578063f5a80245146103af57600080fd5b806370a0823114610263578063740c162a1461029957806385d0dd60146102b957806395d89b41146102d957600080fd5b80631d41860d116100dc5780631d41860d146101bc57806323b872dd146101cf578063313ce567146101ef5780633f711851146102165780635b77573b1461023657600080fd5b80630303f2e01461010e57806306fdde0314610123578063095ea7b31461016d57806318160ddd1461019d575b600080fd5b61012161011c3660046122c4565b6103cf565b005b34801561012f57600080fd5b50610157604051806040016040528060088152602001672830b9b9a1b7b4b760c11b81525081565b60405161016491906122ff565b60405180910390f35b34801561017957600080fd5b5061018d610188366004612370565b610722565b6040519015158152602001610164565b3480156101a957600080fd5b506003545b604051908152602001610164565b6101216101ca36600461248b565b61078e565b3480156101db57600080fd5b5061018d6101ea366004612663565b610bf5565b3480156101fb57600080fd5b50610204600081565b60405160ff9091168152602001610164565b34801561022257600080fd5b50610121610231366004612370565b610d4b565b34801561024257600080fd5b5061025661025136600461269f565b610de4565b60405161016491906126b8565b34801561026f57600080fd5b506101ae61027e366004612750565b6001600160a01b031660009081526001602052604090205490565b3480156102a557600080fd5b506101216102b43660046122c4565b610ee8565b3480156102c557600080fd5b506101216102d4366004612772565b61120a565b3480156102e557600080fd5b50610157604051806040016040528060048152602001635041535360e01b81525081565b34801561031557600080fd5b5061018d610324366004612370565b6113a0565b34801561033557600080fd5b5061012161034436600461269f565b611455565b34801561035557600080fd5b506101ae61036436600461281e565b6001600160a01b03918216600090815260026020908152604080832093909416825291909152205490565b34801561039b57600080fd5b506101216103aa36600461269f565b611de8565b3480156103bb57600080fd5b506101216103ca3660046122c4565b611eb7565b6000838152600560208181526040808420815161016081018352815481526001808301548286015260028301548285015260038301546001600160a01b03166060830152600483015460808301529482015460a082015260068083015460c0830152600783015460e0830152600883015461010083015260099092015461012082015261014081019490945288855290915290912080548291908590811061047957610479612851565b600091825260208083208451600b9390930201918255838101516001830155604080850151600284015560608501516003840180546001600160a01b0319166001600160a01b039092169190911790556080850151600484015560a0850151600584015560c0850151600684015560e08501516007808501919091556101008601516008850155610120860151600985015561014090950151600a909301805460ff191693151593909317909255898352929092522080548291908490811061054457610544612851565b90600052602060002090600b020160008201518160000155602082015181600101556040820151816002015560608201518160030160006101000a8154816001600160a01b0302191690836001600160a01b031602179055506080820151816004015560a0820151816005015560c0820151816006015560e082015181600701556101008201518160080155610120820151816009015561014082015181600a0160006101000a81548160ff02191690831515021790555090505080600560008360000151815260200190815260200160002060008201518160000155602082015181600101556040820151816002015560608201518160030160006101000a8154816001600160a01b0302191690836001600160a01b031602179055506080820151816004015560a0820151816005015560c0820151816006015560e082015181600701556101008201518160080155610120820151816009015561014082015181600a0160006101000a81548160ff021916908315150217905550905050600081606001519050806001600160a01b03166108fc8361012001518461010001516106f0919061287d565b6040518115909202916000818181858888f19350505050158015610718573d6000803e3d6000fd5b5050505050505050565b3360008181526002602090815260408083206001600160a01b038716808552925280832085905551919290917f8c5be1e5ebec7d5bd14f71427d1e84f3dd0314c0f7b2291e5b200ac8c7c3b9259061077d9086815260200190565b60405180910390a350600192915050565b600880548083523461020084018190526102208401528291600991600091826107b683612895565b91905055815260200190815260200160002060008201518160000155602082015181600101556040820151816002015560608201518160030190805190602001906108029291906121ee565b506080820151805161081e9160048401916020909101906121ee565b5060a0820151805161083a9160058401916020909101906121ee565b5060c082015180516108569160068401916020909101906121ee565b5060e082015180516108729160078401916020909101906121ee565b5061010082015160088201556101208201516009820155610140820151600a820155610160820151600b820155610180820151600c8201556101a082015180516108c691600d8401916020909101906121ee565b506101c082015180516108e391600e8401916020909101906121ee565b506101e0820151600f82015561020082015160108201556102208201516011820155610240909101516012909101805460ff191691151591909117905580516040519081527f76fbc58aaedcbb39f7190db541de17575eeaaf17cf3facf5bd11ad55ca479ed19060200160405180910390a16000600560006004548152602001908152602001600020905060045481600001819055508160400151816001018190555081600001518160020181905550338160030160006101000a8154816001600160a01b0302191690836001600160a01b0316021790555034816008018190555060066000836040015181526020019081526020016000208190806001815401808255809150506001900390600052602060002090600b02016000909190919091506000820154816000015560018201548160010155600282015481600201556003820160009054906101000a90046001600160a01b03168160030160006101000a8154816001600160a01b0302191690836001600160a01b03160217905550600482015481600401556005820154816005015560068201548160060155600782015481600701556008820154816008015560098201548160090155600a820160009054906101000a900460ff1681600a0160006101000a81548160ff021916908315150217905550505060076000836000015181526020019081526020016000208190806001815401808255809150506001900390600052602060002090600b02016000909190919091506000820154816000015560018201548160010155600282015481600201556003820160009054906101000a90046001600160a01b03168160030160006101000a8154816001600160a01b0302191690836001600160a01b03160217905550600482015481600401556005820154816005015560068201548160060155600782015481600701556008820154816008015560098201548160090155600a820160009054906101000a900460ff1681600a0160006101000a81548160ff021916908315150217905550505060046000815480929190610bec90612895565b91905055505050565b6001600160a01b038316600090815260016020526040812054821115610c1a57600080fd5b6001600160a01b0384166000908152600260209081526040808320338452909152902054821115610c4a57600080fd5b6001600160a01b038416600090815260016020526040902054610c6e9083906128ae565b6001600160a01b0385166000908152600160209081526040808320939093556002815282822033835290522054610ca69083906128ae565b6001600160a01b038086166000908152600260209081526040808320338452825280832094909455918616815260019091522054610ce590839061287d565b6001600160a01b0380851660008181526001602052604090819020939093559151908616907fddf252ad1be2c89b69c2b068fc378daa952ba7f163c4a11628f55a4df523b3ef90610d399086815260200190565b60405180910390a35060019392505050565b600080546001600160a01b0316815260016020526040902054811115610d7057600080fd5b600080546001600160a01b0316815260016020526040902054610d9490829061287d565b600080546001600160a01b0390811682526001602052604080832093909355841681522054610dc49082906128ae565b6001600160a01b0390921660009081526001602052604090209190915550565b610e4c60405180610160016040528060008152602001600081526020016000815260200160006001600160a01b031681526020016000815260200160008152602001600081526020016000815260200160008152602001600081526020016000151581525090565b506000908152600560208181526040928390208351610160810185528154815260018201549281019290925260028101549382019390935260038301546001600160a01b03166060820152600483015460808201529082015460a0820152600682015460c0820152600782015460e082015260088201546101008201526009820154610120820152600a9091015460ff16151561014082015290565b600083815260056020818152604092839020835161016081018552815481526001808301549382019390935260028201549481019490945260038101546001600160a01b03166060850152600481015460808501529182015460a08401818152600684015460c0860152600784015460e086015260088401546101008601526009840154610120860152600a9093015460ff161515610140850152909190610f919083906128ae565b9052506000858152600660205260409020805482919085908110610fb757610fb7612851565b600091825260208083208451600b9390930201918255838101516001830155604080850151600284015560608501516003840180546001600160a01b0319166001600160a01b039092169190911790556080850151600484015560a0850151600584015560c0850151600684015560e08501516007808501919091556101008601516008850155610120860151600985015561014090950151600a909301805460ff191693151593909317909255898352929092522080548291908490811061108257611082612851565b90600052602060002090600b020160008201518160000155602082015181600101556040820151816002015560608201518160030160006101000a8154816001600160a01b0302191690836001600160a01b031602179055506080820151816004015560a0820151816005015560c0820151816006015560e082015181600701556101008201518160080155610120820151816009015561014082015181600a0160006101000a81548160ff02191690831515021790555090505080600560008360000151815260200190815260200160002060008201518160000155602082015181600101556040820151816002015560608201518160030160006101000a8154816001600160a01b0302191690836001600160a01b031602179055506080820151816004015560a0820151816005015560c0820151816006015560e082015181600701556101008201518160080155610120820151816009015561014082015181600a0160006101000a81548160ff021916908315150217905550905050505050505050565b60005b825181101561139b5760006006600085848151811061122e5761122e612851565b60200260200101518152602001908152602001600020805480602002602001604051908101604052809291908181526020016000905b828210156113105760008481526020908190206040805161016081018252600b8602909201805483526001808201548486015260028201549284019290925260038101546001600160a01b0316606084015260048101546080840152600581015460a0840152600681015460c0840152600781015460e084015260088101546101008401526009810154610120840152600a015460ff1615156101408301529083529092019101611264565b50505050905060005b8151811015611386578382828151811061133557611335612851565b602002602001015160400151036113745761136e82828151811061135b5761135b612851565b60200260200101516060015160016113a0565b50611386565b8061137e81612895565b915050611319565b5050808061139390612895565b91505061120d565b505050565b336000908152600160205260408120548211156113bc57600080fd5b336000908152600160205260409020546113d79083906128ae565b33600090815260016020526040808220929092556001600160a01b0385168152205461140490839061287d565b6001600160a01b0384166000818152600160205260409081902092909255905133907fddf252ad1be2c89b69c2b068fc378daa952ba7f163c4a11628f55a4df523b3ef9061077d9086815260200190565b6000818152600960209081526040808320600783528184208054835181860281018601909452808452919493909190849084015b828210156115355760008481526020908190206040805161016081018252600b8602909201805483526001808201548486015260028201549284019290925260038101546001600160a01b0316606084015260048101546080840152600581015460a0840152600681015460c0840152600781015460e084015260088101546101008401526009810154610120840152600a015460ff1615156101408301529083529092019101611489565b50505060128401805460ff19166001179055509050600080805b8351811015611a2c576000856008015485838151811061157157611571612851565b602002602001015160a00151606461158991906128c5565b61159391906128e4565b90508482815181106115a7576115a7612851565b602002602001015160a001518660080154036115cf57826115c781612895565b9350506116d5565b605081106116015760008583815181106115eb576115eb612851565b60200260200101516101200181815250506116d5565b6028811061169e57606481876010015461161b91906128c5565b61162591906128e4565b85838151811061163757611637612851565b6020026020010151610100015161164e91906128ae565b611658908561287d565b9350606481876010015461166c91906128c5565b61167691906128e4565b85838151811061168857611688612851565b60200260200101516101000181815250506116d5565b60108601546116ad908561287d565b935060008583815181106116c3576116c3612851565b60200260200101516101000181815250505b8482815181106116e7576116e7612851565b602002602001015160076000898152602001908152602001600020838154811061171357611713612851565b60009182526020918290208351600b92909202019081559082015160018201556040820151600282015560608201516003820180546001600160a01b0319166001600160a01b039092169190911790556080820151600482015560a0820151600582015560c0820151600682015560e082015160078201556101008201516008820155610120820151600982015561014090910151600a909101805460ff191691151591909117905584518590839081106117d0576117d0612851565b6020026020010151600560008785815181106117ee576117ee612851565b60209081029190910181015151825281810192909252604090810160009081208451815592840151600184015590830151600283015560608301516003830180546001600160a01b0319166001600160a01b039092169190911790556080830151600483015560a0830151600583015560c0830151600683015560e083015160078301556101008301516008830155610120830151600983015561014090920151600a909101805460ff191691151591909117905585518690849081106118b7576118b7612851565b602002602001015160200151905060005b600082815260066020526040902054811015611a1657600082815260066020526040902080548a91908390811061190157611901612851565b90600052602060002090600b02016002015403611a045786848151811061192a5761192a612851565b602002602001015160066000848152602001908152602001600020828154811061195657611956612851565b60009182526020918290208351600b92909202019081559082015160018201556040820151600282015560608201516003820180546001600160a01b0319166001600160a01b039092169190911790556080820151600482015560a0820151600582015560c0820151600682015560e082015160078201556101008201516008820155610120820151600982015561014090910151600a909101805460ff1916911515919091179055611a16565b80611a0e81612895565b9150506118c8565b5050508080611a2490612895565b91505061154f565b5060005b8351811015611de057838181518110611a4b57611a4b612851565b602002602001015160a00151856008015403611dce57611a6b82846128e4565b848281518110611a7d57611a7d612851565b6020026020010151610120018181525050838181518110611aa057611aa0612851565b6020026020010151600760008881526020019081526020016000208281548110611acc57611acc612851565b60009182526020918290208351600b92909202019081559082015160018201556040820151600282015560608201516003820180546001600160a01b0319166001600160a01b039092169190911790556080820151600482015560a0820151600582015560c0820151600682015560e082015160078201556101008201516008820155610120820151600982015561014090910151600a909101805460ff19169115159190911790558351849082908110611b8957611b89612851565b602002602001015160056000868481518110611ba757611ba7612851565b60209081029190910181015151825281810192909252604090810160009081208451815592840151600184015590830151600283015560608301516003830180546001600160a01b0319166001600160a01b039092169190911790556080830151600483015560a0830151600583015560c0830151600683015560e083015160078301556101008301516008830155610120830151600983015561014090920151600a909101805460ff19169115159190911790558451859083908110611c7057611c70612851565b602002602001015160200151905060005b600082815260066020526040902054811015611dcb576000828152600660205260409020805489919083908110611cba57611cba612851565b90600052602060002090600b02016002015403611db957858381518110611ce357611ce3612851565b6020026020010151600660008481526020019081526020016000208281548110611d0f57611d0f612851565b60009182526020918290208351600b92909202019081559082015160018201556040820151600282015560608201516003820180546001600160a01b0319166001600160a01b039092169190911790556080820151600482015560a0820151600582015560c0820151600682015560e082015160078201556101008201516008820155610120820151600982015561014090910151600a909101805460ff19169115159190911790555b80611dc381612895565b915050611c81565b50505b80611dd881612895565b915050611a30565b505050505050565b6000818152600960205260408120818155600181018290556002810182905590611e156003830182612272565b611e23600483016000612272565b611e31600583016000612272565b611e3f600683016000612272565b611e4d600783016000612272565b60088201600090556009820160009055600a820160009055600b820160009055600c820160009055600d82016000611e859190612272565b611e93600e83016000612272565b506000600f8201819055601082018190556011820155601201805460ff1916905550565b600083815260056020818152604092839020835161016081018552815481526001808301549382019390935260028201549481019490945260038101546001600160a01b03166060850152600481015460808501529182015460a08401818152600684015460c0860152600784015460e086015260088401546101008601526009840154610120860152600a9093015460ff161515610140850152909190611f6090839061287d565b9052506000858152600660205260409020805482919085908110611f8657611f86612851565b600091825260208083208451600b9390930201918255838101516001830155604080850151600284015560608501516003840180546001600160a01b0319166001600160a01b039092169190911790556080850151600484015560a0850151600584015560c0850151600684015560e08501516007808501919091556101008601516008850155610120860151600985015561014090950151600a909301805460ff191693151593909317909255898352929092522080548291908490811061205157612051612851565b90600052602060002090600b020160008201518160000155602082015181600101556040820151816002015560608201518160030160006101000a8154816001600160a01b0302191690836001600160a01b031602179055506080820151816004015560a0820151816005015560c0820151816006015560e082015181600701556101008201518160080155610120820151816009015561014082015181600a0160006101000a81548160ff02191690831515021790555090505080600560008360000151815260200190815260200160002060008201518160000155602082015181600101556040820151816002015560608201518160030160006101000a8154816001600160a01b0302191690836001600160a01b031602179055506080820151816004015560a0820151816005015560c0820151816006015560e082015181600701556101008201518160080155610120820151816009015561014082015181600a0160006101000a81548160ff0219169083151502179055509050506000816060015190506121e5816001610d4b565b50505050505050565b8280546121fa90612906565b90600052602060002090601f01602090048101928261221c5760008555612262565b82601f1061223557805160ff1916838001178555612262565b82800160010185558215612262579182015b82811115612262578251825591602001919060010190612247565b5061226e9291506122af565b5090565b50805461227e90612906565b6000825580601f1061228e575050565b601f0160209004906000526020600020908101906122ac91906122af565b50565b5b8082111561226e57600081556001016122b0565b600080600080600060a086880312156122dc57600080fd5b505083359560208501359550604085013594606081013594506080013592509050565b600060208083528351808285015260005b8181101561232c57858101830151858201604001528201612310565b8181111561233e576000604083870101525b50601f01601f1916929092016040019392505050565b80356001600160a01b038116811461236b57600080fd5b919050565b6000806040838503121561238357600080fd5b61238c83612354565b946020939093013593505050565b634e487b7160e01b600052604160045260246000fd5b604051610260810167ffffffffffffffff811182821017156123d4576123d461239a565b60405290565b604051601f8201601f1916810167ffffffffffffffff811182821017156124035761240361239a565b604052919050565b600082601f83011261241c57600080fd5b813567ffffffffffffffff8111156124365761243661239a565b612449601f8201601f19166020016123da565b81815284602083860101111561245e57600080fd5b816020850160208301376000918101602001919091529392505050565b8035801515811461236b57600080fd5b60006020828403121561249d57600080fd5b813567ffffffffffffffff808211156124b557600080fd5b9083019061026082860312156124ca57600080fd5b6124d26123b0565b8235815260208301356020820152604083013560408201526060830135828111156124fc57600080fd5b6125088782860161240b565b60608301525060808301358281111561252057600080fd5b61252c8782860161240b565b60808301525060a08301358281111561254457600080fd5b6125508782860161240b565b60a08301525060c08301358281111561256857600080fd5b6125748782860161240b565b60c08301525060e08301358281111561258c57600080fd5b6125988782860161240b565b60e083015250610100838101359082015261012080840135908201526101408084013590820152610160808401359082015261018080840135908201526101a080840135838111156125e957600080fd5b6125f58882870161240b565b8284015250506101c0808401358381111561260f57600080fd5b61261b8882870161240b565b91830191909152506101e0838101359082015261020080840135908201526102208084013590820152610240915061265482840161247b565b91810191909152949350505050565b60008060006060848603121561267857600080fd5b61268184612354565b925061268f60208501612354565b9150604084013590509250925092565b6000602082840312156126b157600080fd5b5035919050565b60006101608201905082518252602083015160208301526040830151604083015260608301516126f360608401826001600160a01b03169052565b506080830151608083015260a083015160a083015260c083015160c083015260e083015160e0830152610100808401518184015250610120808401518184015250610140808401516127488285018215159052565b505092915050565b60006020828403121561276257600080fd5b61276b82612354565b9392505050565b6000806040838503121561278557600080fd5b823567ffffffffffffffff8082111561279d57600080fd5b818501915085601f8301126127b157600080fd5b81356020828211156127c5576127c561239a565b8160051b92506127d68184016123da565b82815292840181019281810190898511156127f057600080fd5b948201945b8486101561280e578535825294820194908201906127f5565b9997909101359750505050505050565b6000806040838503121561283157600080fd5b61283a83612354565b915061284860208401612354565b90509250929050565b634e487b7160e01b600052603260045260246000fd5b634e487b7160e01b600052601160045260246000fd5b6000821982111561289057612890612867565b500190565b6000600182016128a7576128a7612867565b5060010190565b6000828210156128c0576128c0612867565b500390565b60008160001904831182151516156128df576128df612867565b500290565b60008261290157634e487b7160e01b600052601260045260246000fd5b500490565b600181811c9082168061291a57607f821691505b60208210810361293a57634e487b7160e01b600052602260045260246000fd5b5091905056fea2646970667358221220c020d84f67055d85f077f9a7e4df3d65428bc8d71e477489c10a7965842af35b64736f6c634300080e0033",
  "immutableReferences": {},
  "source": "// SPDX-License-Identifier: MIT\r\npragma solidity ^0.8.0;\r\npragma abicoder v2;\r\n\r\nimport \"./ChallengerContract.sol\";\r\n\r\ncontract DailyChallengeContract is ChallengerContract{\r\n    \r\n    struct DailyChallenge {\r\n        // pk\r\n        uint challengeId;\r\n\r\n        //  fk\r\n        uint interestId;\r\n\r\n        //   fk\r\n        uint ownerId;\r\n\r\n        string name;\r\n        string desc;\r\n\r\n        //   \r\n        string mainPicURL;\r\n        string goodPicURL;\r\n        string badPicURL;\r\n        \r\n        //      \r\n        uint authTotalTimes;\r\n        uint authWeekTimes;\r\n        uint authDayTimes;\r\n\r\n        // \r\n        int startTime;\r\n        int endTime;\r\n\r\n        //  \r\n        string startDate;\r\n        string endDate;\r\n\r\n        //   (  int(-1)    )\r\n        uint personnel;\r\n\r\n        //  \r\n        uint deposit;\r\n\r\n        //  \r\n        uint256 totalDeposit;\r\n\r\n        //   \r\n        bool complete;\r\n    }\r\n    uint challengeSequence = 1;\r\n    mapping(uint => DailyChallenge) dailyChallengeMap;\r\n    DailyChallenge[] dailyChallenges;\r\n\r\n    event returnChallengeId(uint challengeId);\r\n    //  \r\n    function createDailyChallenge(DailyChallenge memory dailyChallenge) public payable {\r\n        dailyChallenge.challengeId=challengeSequence;\r\n        dailyChallenge.deposit=msg.value;\r\n        dailyChallenge.totalDeposit=msg.value;\r\n        dailyChallengeMap[challengeSequence++]=dailyChallenge ;\r\n\r\n        emit returnChallengeId(dailyChallenge.challengeId);\r\n        /*     */\r\n        //  \r\n        Challenger storage challenger=challengerMap[challengerSequence];\r\n        challenger.id=challengerSequence;\r\n        challenger.userId=dailyChallenge.ownerId;\r\n        challenger.challengeId=dailyChallenge.challengeId;\r\n        challenger.userAddress=msg.sender;\r\n        challenger.userDeposit=msg.value;\r\n\r\n        //    \r\n        findByUserIdChallenger[dailyChallenge.ownerId].push(challenger);\r\n        findByChallengeIdChallenger[dailyChallenge.challengeId].push(challenger);\r\n        challengerSequence++;\r\n    }\r\n\r\n    //  \r\n    function endDailyChallenge(uint challengeId) public{\r\n        DailyChallenge storage challenge=dailyChallengeMap[challengeId];\r\n        Challenger[] memory challengers=findByChallengeIdChallenger[challengeId];\r\n        challenge.complete=true;\r\n\r\n        uint totalReward=0;\r\n        uint count=0;\r\n        //        \r\n        for(uint i=0;i<challengers.length;i++){\r\n            uint rate = (challengers[i].totalCount*100)/challenge.authTotalTimes;\r\n            if(challenge.authTotalTimes==challengers[i].totalCount){\r\n                count++;               \r\n            }  \r\n            else if(rate>=80){\r\n                challengers[i].reward=0;\r\n            }\r\n            else if(rate>=40){\r\n                totalReward+=challengers[i].userDeposit-(challenge.deposit*rate)/100;\r\n                challengers[i].userDeposit=(challenge.deposit*rate)/100;\r\n            }\r\n            else{        \r\n                totalReward+=challenge.deposit;\r\n                challengers[i].userDeposit=0;\r\n            }\r\n\r\n            findByChallengeIdChallenger[challengeId][i]=challengers[i];\r\n            // challengerMap \r\n            challengerMap[challengers[i].id]=challengers[i];\r\n            // findByUserIdChallenger \r\n            uint userId=challengers[i].userId;\r\n            for(uint j=0;j<findByUserIdChallenger[userId].length;j++){\r\n                if(findByUserIdChallenger[userId][j].challengeId==challengeId){\r\n                    findByUserIdChallenger[userId][j]=challengers[i];\r\n                    break;\r\n                }\r\n            }\r\n            \r\n        }\r\n        for(uint i=0;i<challengers.length;i++){\r\n            if(challenge.authTotalTimes!=challengers[i].totalCount) continue;\r\n            challengers[i].reward=totalReward/count;  \r\n\r\n            findByChallengeIdChallenger[challengeId][i]=challengers[i];\r\n\r\n            // challengerMap \r\n            challengerMap[challengers[i].id]=challengers[i];\r\n\r\n            // findByUserIdChallenger  \r\n            uint userId=challengers[i].userId;\r\n            for(uint j=0;j<findByUserIdChallenger[userId].length;j++){\r\n                if(findByUserIdChallenger[userId][j].challengeId==challengeId){\r\n                    findByUserIdChallenger[userId][j]=challengers[i];\r\n                }\r\n            }\r\n        }\r\n    }\r\n\r\n    function deleteDailyChallenge(uint challengeId) public{\r\n        delete dailyChallengeMap[challengeId];\r\n    }\r\n}",
  "sourcePath": "c:\\Users\\multicampus\\Desktop\\ssafy\\S07P22B106\\truffle\\contracts\\DailyChallengeContract.sol",
  "compiler": {
    "name": "solc",
    "version": "0.8.14+commit.80d49f37.Emscripten.clang"
  },
  "schemaVersion": "3.4.10",
  "updatedAt": "2022-10-05T18:52:25.919Z",
  "devdoc": {
    "kind": "dev",
    "methods": {},
    "version": 1
  },
  "userdoc": {
    "kind": "user",
    "methods": {},
    "version": 1
  }
}