{
  "contractName": "DonationChallengeContract",
  "abi": [
    {
      "anonymous": false,
      "inputs": [
        {
          "indexed": true,
          "internalType": "address",
          "name": "owner",
          "type": "address"
        },
        {
          "indexed": true,
          "internalType": "address",
          "name": "spender",
          "type": "address"
        },
        {
          "indexed": false,
          "internalType": "uint256",
          "name": "value",
          "type": "uint256"
        }
      ],
      "name": "Approval",
      "type": "event"
    },
    {
      "anonymous": false,
      "inputs": [
        {
          "indexed": true,
          "internalType": "address",
          "name": "from",
          "type": "address"
        },
        {
          "indexed": true,
          "internalType": "address",
          "name": "to",
          "type": "address"
        },
        {
          "indexed": false,
          "internalType": "uint256",
          "name": "value",
          "type": "uint256"
        }
      ],
      "name": "Transfer",
      "type": "event"
    },
    {
      "inputs": [
        {
          "components": [
            {
              "internalType": "uint256",
              "name": "id",
              "type": "uint256"
            },
            {
              "internalType": "string",
              "name": "name",
              "type": "string"
            },
            {
              "internalType": "address",
              "name": "donationAddress",
              "type": "address"
            },
            {
              "internalType": "string",
              "name": "donationURL",
              "type": "string"
            }
          ],
          "internalType": "struct DonationContract.Donation",
          "name": "donation",
          "type": "tuple"
        }
      ],
      "name": "addDonation",
      "outputs": [],
      "stateMutability": "nonpayable",
      "type": "function"
    },
    {
      "inputs": [
        {
          "internalType": "address",
          "name": "owner",
          "type": "address"
        },
        {
          "internalType": "address",
          "name": "delegate",
          "type": "address"
        }
      ],
      "name": "allowance",
      "outputs": [
        {
          "internalType": "uint256",
          "name": "",
          "type": "uint256"
        }
      ],
      "stateMutability": "view",
      "type": "function"
    },
    {
      "inputs": [
        {
          "internalType": "uint256",
          "name": "challengeId",
          "type": "uint256"
        },
        {
          "internalType": "uint256",
          "name": "userId",
          "type": "uint256"
        },
        {
          "internalType": "uint256",
          "name": "challengerId",
          "type": "uint256"
        },
        {
          "internalType": "uint256",
          "name": "userIdIndex",
          "type": "uint256"
        },
        {
          "internalType": "uint256",
          "name": "challengeIdIndex",
          "type": "uint256"
        }
      ],
      "name": "applyVoteResult",
      "outputs": [],
      "stateMutability": "nonpayable",
      "type": "function"
    },
    {
      "inputs": [
        {
          "internalType": "address",
          "name": "delegate",
          "type": "address"
        },
        {
          "internalType": "uint256",
          "name": "numTokens",
          "type": "uint256"
        }
      ],
      "name": "approve",
      "outputs": [
        {
          "internalType": "bool",
          "name": "",
          "type": "bool"
        }
      ],
      "stateMutability": "nonpayable",
      "type": "function"
    },
    {
      "inputs": [
        {
          "internalType": "address",
          "name": "tokenOwner",
          "type": "address"
        }
      ],
      "name": "balanceOf",
      "outputs": [
        {
          "internalType": "uint256",
          "name": "",
          "type": "uint256"
        }
      ],
      "stateMutability": "view",
      "type": "function"
    },
    {
      "inputs": [
        {
          "components": [
            {
              "internalType": "uint256",
              "name": "challengeId",
              "type": "uint256"
            },
            {
              "internalType": "uint256",
              "name": "interestId",
              "type": "uint256"
            },
            {
              "internalType": "uint256",
              "name": "ownerId",
              "type": "uint256"
            },
            {
              "internalType": "string",
              "name": "name",
              "type": "string"
            },
            {
              "internalType": "string",
              "name": "desc",
              "type": "string"
            },
            {
              "internalType": "string",
              "name": "mainPicURL",
              "type": "string"
            },
            {
              "internalType": "string",
              "name": "goodPicURL",
              "type": "string"
            },
            {
              "internalType": "string",
              "name": "badPicURL",
              "type": "string"
            },
            {
              "internalType": "uint256",
              "name": "authTotalTimes",
              "type": "uint256"
            },
            {
              "internalType": "uint256",
              "name": "authDayTimes",
              "type": "uint256"
            },
            {
              "internalType": "int256",
              "name": "startTime",
              "type": "int256"
            },
            {
              "internalType": "int256",
              "name": "endTime",
              "type": "int256"
            },
            {
              "internalType": "string",
              "name": "startDate",
              "type": "string"
            },
            {
              "internalType": "string",
              "name": "endDate",
              "type": "string"
            },
            {
              "internalType": "uint256",
              "name": "personnel",
              "type": "uint256"
            },
            {
              "internalType": "uint256",
              "name": "deposit",
              "type": "uint256"
            },
            {
              "internalType": "uint256",
              "name": "totalDeposit",
              "type": "uint256"
            },
            {
              "internalType": "bool",
              "name": "complete",
              "type": "bool"
            }
          ],
          "internalType": "struct DailyChallengeContract.DailyChallenge",
          "name": "dailyChallenge",
          "type": "tuple"
        }
      ],
      "name": "createDailyChallenge",
      "outputs": [],
      "stateMutability": "payable",
      "type": "function"
    },
    {
      "inputs": [],
      "name": "decimals",
      "outputs": [
        {
          "internalType": "uint8",
          "name": "",
          "type": "uint8"
        }
      ],
      "stateMutability": "view",
      "type": "function"
    },
    {
      "inputs": [
        {
          "internalType": "uint256",
          "name": "challengeId",
          "type": "uint256"
        }
      ],
      "name": "endDailyChallenge",
      "outputs": [],
      "stateMutability": "nonpayable",
      "type": "function"
    },
    {
      "inputs": [],
      "name": "getAllDonation",
      "outputs": [
        {
          "components": [
            {
              "internalType": "uint256",
              "name": "id",
              "type": "uint256"
            },
            {
              "internalType": "string",
              "name": "name",
              "type": "string"
            },
            {
              "internalType": "address",
              "name": "donationAddress",
              "type": "address"
            },
            {
              "internalType": "string",
              "name": "donationURL",
              "type": "string"
            }
          ],
          "internalType": "struct DonationContract.Donation[]",
          "name": "",
          "type": "tuple[]"
        }
      ],
      "stateMutability": "view",
      "type": "function"
    },
    {
      "inputs": [],
      "name": "name",
      "outputs": [
        {
          "internalType": "string",
          "name": "",
          "type": "string"
        }
      ],
      "stateMutability": "view",
      "type": "function"
    },
    {
      "inputs": [
        {
          "internalType": "uint256[]",
          "name": "userIdList",
          "type": "uint256[]"
        }
      ],
      "name": "receivePasscoin",
      "outputs": [],
      "stateMutability": "nonpayable",
      "type": "function"
    },
    {
      "inputs": [
        {
          "internalType": "uint256",
          "name": "challengerId",
          "type": "uint256"
        }
      ],
      "name": "refund",
      "outputs": [],
      "stateMutability": "payable",
      "type": "function"
    },
    {
      "inputs": [],
      "name": "symbol",
      "outputs": [
        {
          "internalType": "string",
          "name": "",
          "type": "string"
        }
      ],
      "stateMutability": "view",
      "type": "function"
    },
    {
      "inputs": [],
      "name": "totalSupply",
      "outputs": [
        {
          "internalType": "uint256",
          "name": "",
          "type": "uint256"
        }
      ],
      "stateMutability": "view",
      "type": "function"
    },
    {
      "inputs": [
        {
          "internalType": "address",
          "name": "receiver",
          "type": "address"
        },
        {
          "internalType": "uint256",
          "name": "numTokens",
          "type": "uint256"
        }
      ],
      "name": "transfer",
      "outputs": [
        {
          "internalType": "bool",
          "name": "",
          "type": "bool"
        }
      ],
      "stateMutability": "nonpayable",
      "type": "function"
    },
    {
      "inputs": [
        {
          "internalType": "address",
          "name": "owner",
          "type": "address"
        },
        {
          "internalType": "address",
          "name": "buyer",
          "type": "address"
        },
        {
          "internalType": "uint256",
          "name": "numTokens",
          "type": "uint256"
        }
      ],
      "name": "transferFrom",
      "outputs": [
        {
          "internalType": "bool",
          "name": "",
          "type": "bool"
        }
      ],
      "stateMutability": "nonpayable",
      "type": "function"
    },
    {
      "inputs": [
        {
          "internalType": "address",
          "name": "user",
          "type": "address"
        },
        {
          "internalType": "uint256",
          "name": "numTokens",
          "type": "uint256"
        }
      ],
      "name": "useCoin",
      "outputs": [],
      "stateMutability": "nonpayable",
      "type": "function"
    },
    {
      "inputs": [
        {
          "internalType": "uint256",
          "name": "challengeId",
          "type": "uint256"
        },
        {
          "internalType": "uint256",
          "name": "userId",
          "type": "uint256"
        },
        {
          "internalType": "uint256",
          "name": "challengerId",
          "type": "uint256"
        },
        {
          "internalType": "uint256",
          "name": "userIdIndex",
          "type": "uint256"
        },
        {
          "internalType": "uint256",
          "name": "challengeIdIndex",
          "type": "uint256"
        }
      ],
      "name": "usePasscoin",
      "outputs": [],
      "stateMutability": "nonpayable",
      "type": "function"
    },
    {
      "inputs": [
        {
          "components": [
            {
              "internalType": "uint256",
              "name": "challengeId",
              "type": "uint256"
            },
            {
              "internalType": "uint256",
              "name": "interestId",
              "type": "uint256"
            },
            {
              "internalType": "uint256",
              "name": "ownerId",
              "type": "uint256"
            },
            {
              "internalType": "uint256",
              "name": "donationId",
              "type": "uint256"
            },
            {
              "internalType": "string",
              "name": "name",
              "type": "string"
            },
            {
              "internalType": "string",
              "name": "desc",
              "type": "string"
            },
            {
              "internalType": "uint256",
              "name": "setDonaion",
              "type": "uint256"
            },
            {
              "internalType": "string",
              "name": "mainPicURL",
              "type": "string"
            },
            {
              "internalType": "string",
              "name": "goodPicURL",
              "type": "string"
            },
            {
              "internalType": "string",
              "name": "badPicURL",
              "type": "string"
            },
            {
              "internalType": "uint256",
              "name": "authTotalTimes",
              "type": "uint256"
            },
            {
              "internalType": "uint256",
              "name": "authDayTimes",
              "type": "uint256"
            },
            {
              "internalType": "uint256",
              "name": "startTime",
              "type": "uint256"
            },
            {
              "internalType": "uint256",
              "name": "endTime",
              "type": "uint256"
            },
            {
              "internalType": "string",
              "name": "startDate",
              "type": "string"
            },
            {
              "internalType": "string",
              "name": "endDate",
              "type": "string"
            },
            {
              "internalType": "uint256",
              "name": "personnel",
              "type": "uint256"
            },
            {
              "internalType": "uint256",
              "name": "totalDonation",
              "type": "uint256"
            },
            {
              "internalType": "bool",
              "name": "complete",
              "type": "bool"
            },
            {
              "internalType": "bool",
              "name": "success",
              "type": "bool"
            }
          ],
          "internalType": "struct DonationChallengeContract.DonationChallenge",
          "name": "donationChallenge",
          "type": "tuple"
        }
      ],
      "name": "createDonationChallenge",
      "outputs": [],
      "stateMutability": "payable",
      "type": "function"
    },
    {
      "inputs": [
        {
          "internalType": "uint256",
          "name": "challengeId",
          "type": "uint256"
        }
      ],
      "name": "endDonationChallenge",
      "outputs": [],
      "stateMutability": "payable",
      "type": "function"
    }
  ],
  "bytecode": "0x60806040526305f5e100600255600160035560016007556001600a5534801561002757600080fd5b50600254336000908152602081905260409020556131578061004a6000396000f3fe60806040526004361061011f5760003560e01c806370a08231116100a0578063b098d41a11610064578063b098d41a14610347578063c78a57b91461035a578063d60cdc291461037a578063dd62ed3e1461039a578063f5a80245146103e057600080fd5b806370a0823114610281578063740c162a146102b757806395d89b41146102d7578063a8cfc26614610307578063a9059cbb1461032757600080fd5b8063278ecde1116100e7578063278ecde1146101f2578063313ce567146102055780633f7118511461022c57806352e9a1a01461024c5780636a5e4c9e1461026e57600080fd5b806306fdde0314610124578063095ea7b31461016e57806318160ddd1461019e5780631dc834a7146101bd57806323b872dd146101d2575b600080fd5b34801561013057600080fd5b50610158604051806040016040528060088152602001672830b9b9a1b7b4b760c11b81525081565b604051610165919061281c565b60405180910390f35b34801561017a57600080fd5b5061018e610189366004612852565b610400565b6040519015158152602001610165565b3480156101aa57600080fd5b506002545b604051908152602001610165565b6101d06101cb3660046129b4565b61046c565b005b3480156101de57600080fd5b5061018e6101ed366004612ba4565b610824565b6101d0610200366004612be0565b61096f565b34801561021157600080fd5b5061021a600081565b60405160ff9091168152602001610165565b34801561023857600080fd5b506101d0610247366004612852565b610ad4565b34801561025857600080fd5b50610261610b58565b6040516101659190612bf9565b6101d061027c366004612c9f565b610da7565b34801561028d57600080fd5b506101af61029c366004612e5d565b6001600160a01b031660009081526020819052604090205490565b3480156102c357600080fd5b506101d06102d2366004612e78565b610fbb565b3480156102e357600080fd5b50610158604051806040016040528060048152602001635041535360e01b81525081565b34801561031357600080fd5b506101d0610322366004612eb3565b6112f1565b34801561033357600080fd5b5061018e610342366004612852565b611488565b6101d0610355366004612be0565b61153a565b34801561036657600080fd5b506101d0610375366004612be0565b611941565b34801561038657600080fd5b506101d0610395366004612f59565b6122ef565b3480156103a657600080fd5b506101af6103b5366004613005565b6001600160a01b03918216600090815260016020908152604080832093909416825291909152205490565b3480156103ec57600080fd5b506101d06103fb366004612e78565b61237d565b3360008181526001602090815260408083206001600160a01b038716808552925280832085905551919290917f8c5be1e5ebec7d5bd14f71427d1e84f3dd0314c0f7b2291e5b200ac8c7c3b9259061045b9086815260200190565b60405180910390a350600192915050565b600754815260c081018051670de0b6b3a7640000919061048d90839061304e565b90525061022081018051670de0b6b3a764000091906104ad90839061304e565b905250600780548291600c91600091826104c68361306d565b91905055815260200190815260200160002060008201518160000155602082015181600101556040820151816002015560608201518160030155608082015181600401908051906020019061051c9291906126bb565b5060a082015180516105389160058401916020909101906126bb565b5060c0820151600682015560e0820151805161055e9160078401916020909101906126bb565b50610100820151805161057b9160088401916020909101906126bb565b5061012082015180516105989160098401916020909101906126bb565b50610140820151600a820155610160820151600b820155610180820151600c8201556101a0820151600d8201556101c082015180516105e191600e8401916020909101906126bb565b506101e082015180516105fe91600f8401916020909101906126bb565b5061020082015160108201556102208201516011820155610240820151601290910180546102609093015115156101000261ff00199215159290921661ffff1990931692909217179055600380546000818152600460208181526040928390209384559185015160018401558451600284015592820180546001600160a01b031916331790556101c0840151805192936106a0939085019291909101906126bb565b5034600782015560408083015160009081526005602090815291812080546001818101835591835292909120835460099093020191825580830154908201556002808301549082015560038083015490820180546001600160a01b0319166001600160a01b03909216919091179055600480830180548493928301919061072690613086565b61073192919061273f565b5060058281015490820155600680830154818301556007808401549083015560089283015492909101919091558251600090815260209182526040812080546001818101835591835292909120835460099093020191825580830154908201556002808301549082015560038083015490820180546001600160a01b0319166001600160a01b0390921691909117905560048083018054849392830191906107d890613086565b6107e392919061273f565b506005828101549082015560068083015490820155600780830154908201556008918201549101556003805490600061081b8361306d565b91905055505050565b6001600160a01b03831660009081526020819052604081205482111561084957600080fd5b6001600160a01b038416600090815260016020908152604080832033845290915290205482111561087957600080fd5b6001600160a01b03841660009081526020819052604090205461089d9083906130ba565b6001600160a01b0385166000908152602081815260408083209390935560018152828220338352905220546108d39083906130ba565b6001600160a01b03808616600090815260016020908152604080832033845282528083209490945591861681529081905220546109119083906130d1565b6001600160a01b038481166000818152602081815260409182902094909455518581529092918716917fddf252ad1be2c89b69c2b068fc378daa952ba7f163c4a11628f55a4df523b3ef910160405180910390a35060019392505050565b60008181526004602081815260408084208151610120810183528154815260018201549381019390935260028101549183019190915260038101546001600160a01b0316606083015291820180549192916080840191906109cf90613086565b80601f01602080910402602001604051908101604052809291908181526020018280546109fb90613086565b8015610a485780601f10610a1d57610100808354040283529160200191610a48565b820191906000526020600020905b815481529060010190602001808311610a2b57829003601f168201915b505050505081526020016005820154815260200160068201548152602001600782015481526020016008820154815250509050600081606001519050806001600160a01b03166108fc8361010001518460e00151610aa691906130d1565b6040518115909202916000818181858888f19350505050158015610ace573d6000803e3d6000fd5b50505050565b33600090815260208190526040902054811115610af057600080fd5b33600090815260208190526040902054610b0b9082906130d1565b33600090815260208190526040808220929092556001600160a01b03841681522054610b389082906130ba565b6001600160a01b0390921660009081526020819052604090209190915550565b606060006001600a54610b6b91906130ba565b67ffffffffffffffff811115610b8357610b8361287c565b604051908082528060200260200182016040528015610be857816020015b610bd56040518060800160405280600081526020016060815260200160006001600160a01b03168152602001606081525090565b815260200190600190039081610ba15790505b50905060005b6001600a54610bfd91906130ba565b811015610da157600b6000610c138360016130d1565b815260200190815260200160002060405180608001604052908160008201548152602001600182018054610c4690613086565b80601f0160208091040260200160405190810160405280929190818152602001828054610c7290613086565b8015610cbf5780601f10610c9457610100808354040283529160200191610cbf565b820191906000526020600020905b815481529060010190602001808311610ca257829003601f168201915b505050918352505060028201546001600160a01b03166020820152600382018054604090920191610cef90613086565b80601f0160208091040260200160405190810160405280929190818152602001828054610d1b90613086565b8015610d685780601f10610d3d57610100808354040283529160200191610d68565b820191906000526020600020905b815481529060010190602001808311610d4b57829003601f168201915b505050505081525050828281518110610d8357610d836130e9565b60200260200101819052508080610d999061306d565b915050610bee565b50919050565b60075481526101e081018051670de0b6b3a76400009190610dc990839061304e565b90525061020081018051670de0b6b3a76400009190610de990839061304e565b90525060078054829160089160009182610e028361306d565b9190505581526020019081526020016000206000820151816000015560208201518160010155604082015181600201556060820151816003019080519060200190610e4e9291906126bb565b5060808201518051610e6a9160048401916020909101906126bb565b5060a08201518051610e869160058401916020909101906126bb565b5060c08201518051610ea29160068401916020909101906126bb565b5060e08201518051610ebe9160078401916020909101906126bb565b5061010082015160088201556101208201516009820155610140820151600a820155610160820151600b8201556101808201518051610f0791600c8401916020909101906126bb565b506101a08201518051610f2491600d8401916020909101906126bb565b506101c0820151600e8201556101e0820151600f8201556102008201516010820155610220909101516011909101805491151560ff19909216919091179055600380546000818152600460208181526040928390209384559185015160018401558451600284015592820180546001600160a01b03191633179055610180840151805192936106a0939085019291909101906126bb565b60008381526004602081815260408084208151610120810183528154815260018201549381019390935260028101549183019190915260038101546001600160a01b03166060830152918201805491929160808401919061101b90613086565b80601f016020809104026020016040519081016040528092919081815260200182805461104790613086565b80156110945780601f1061106957610100808354040283529160200191611094565b820191906000526020600020905b81548152906001019060200180831161107757829003601f168201915b50505050508152602001600582015481526020016006820154815260200160078201548152602001600882015481525050905060018160a0018181516110da91906130ba565b9052506000858152600560205260409020805482919085908110611100576111006130e9565b60009182526020918290208351600992909202019081558282015160018201556040830151600282015560608301516003820180546001600160a01b0319166001600160a01b0390921691909117905560808301518051919261116b926004850192909101906126bb565b5060a0820151816005015560c0820151816006015560e082015181600701556101008201518160080155905050806006600088815260200190815260200160002083815481106111bd576111bd6130e9565b60009182526020918290208351600992909202019081558282015160018201556040830151600282015560608301516003820180546001600160a01b0319166001600160a01b03909216919091179055608083015180519192611228926004850192909101906126bb565b5060a0820151600582015560c0820151600682015560e082015160078201556101009091015160089091015580516000908152600460208181526040928390208451815581850151600182015592840151600284015560608401516003840180546001600160a01b0319166001600160a01b03909216919091179055608084015180518594936112bd939085019201906126bb565b5060a0820151600582015560c0820151600682015560e0820151600782015561010090910151600890910155505050505050565b60005b815181101561148457600060056000848481518110611315576113156130e9565b6020026020010151815260200190815260200160002060008154811061133d5761133d6130e9565b9060005260206000209060090201604051806101200160405290816000820154815260200160018201548152602001600282015481526020016003820160009054906101000a90046001600160a01b03166001600160a01b03166001600160a01b031681526020016004820180546113b490613086565b80601f01602080910402602001604051908101604052809291908181526020018280546113e090613086565b801561142d5780601f106114025761010080835404028352916020019161142d565b820191906000526020600020905b81548152906001019060200180831161141057829003601f168201915b50505050508152602001600582015481526020016006820154815260200160078201548152602001600882015481525050905061146f81606001516001611488565b5050808061147c9061306d565b9150506112f4565b5050565b336000908152602081905260408120548211156114a457600080fd5b336000908152602081905260409020546114bf9083906130ba565b33600090815260208190526040808220929092556001600160a01b038516815220546114ec9083906130d1565b6001600160a01b038416600081815260208181526040918290209390935551848152909133917fddf252ad1be2c89b69c2b068fc378daa952ba7f163c4a11628f55a4df523b3ef910161045b565b6000818152600c60209081526040808320600683528184208054835181860281018601909452808452919493909190849084015b828210156116905760008481526020908190206040805161012081018252600986029092018054835260018101549383019390935260028301549082015260038201546001600160a01b031660608201526004820180549192916080840191906115d790613086565b80601f016020809104026020016040519081016040528092919081815260200182805461160390613086565b80156116505780601f1061162557610100808354040283529160200191611650565b820191906000526020600020905b81548152906001019060200180831161163357829003601f168201915b505050505081526020016005820154815260200160068201548152602001600782015481526020016008820154815250508152602001906001019061156e565b50505060128401805460ff191660011790555090506000805b825181101561171857600084600a01548483815181106116cb576116cb6130e9565b602002602001015160a0015160646116e3919061304e565b6116ed91906130ff565b90506050811061170557826117018161306d565b9350505b50806117108161306d565b9150506116a9565b50815160509061172983606461304e565b61173391906130ff565b10610ace576000600b6000856003015481526020019081526020016000206040518060800160405290816000820154815260200160018201805461177690613086565b80601f01602080910402602001604051908101604052809291908181526020018280546117a290613086565b80156117ef5780601f106117c4576101008083540402835291602001916117ef565b820191906000526020600020905b8154815290600101906020018083116117d257829003601f168201915b505050918352505060028201546001600160a01b0316602082015260038201805460409092019161181f90613086565b80601f016020809104026020016040519081016040528092919081815260200182805461184b90613086565b80156118985780601f1061186d57610100808354040283529160200191611898565b820191906000526020600020905b81548152906001019060200180831161187b57829003601f168201915b5050509190925250505060128501805461ff001916610100179055905060005b83518110156118f65760008482815181106118d5576118d56130e9565b602090810291909101015160e00152806118ee8161306d565b9150506118b8565b506040808201516011860154915190916001600160a01b0383169181156108fc0291906000818181858888f19350505050158015611938573d6000803e3d6000fd5b50505050505050565b6000818152600860209081526040808320600683528184208054835181860281018601909452808452919493909190849084015b82821015611a975760008481526020908190206040805161012081018252600986029092018054835260018101549383019390935260028301549082015260038201546001600160a01b031660608201526004820180549192916080840191906119de90613086565b80601f0160208091040260200160405190810160405280929190818152602001828054611a0a90613086565b8015611a575780601f10611a2c57610100808354040283529160200191611a57565b820191906000526020600020905b815481529060010190602001808311611a3a57829003601f168201915b5050505050815260200160058201548152602001600682015481526020016007820154815260200160088201548152505081526020019060010190611975565b50505060118401805460ff19166001179055509050600080805b8351811015611f5f5760008560080154858381518110611ad357611ad36130e9565b602002602001015160a001516064611aeb919061304e565b611af591906130ff565b9050848281518110611b0957611b096130e9565b602002602001015160a00151866008015403611b315782611b298161306d565b935050611c34565b60508110611b63576000858381518110611b4d57611b4d6130e9565b6020026020010151610100018181525050611c34565b60288110611bfe5760648187600f0154611b7d919061304e565b611b8791906130ff565b858381518110611b9957611b996130e9565b602002602001015160e00151611baf91906130ba565b611bb990856130d1565b935060648187600f0154611bcd919061304e565b611bd791906130ff565b858381518110611be957611be96130e9565b602002602001015160e0018181525050611c34565b600f860154611c0d90856130d1565b93506000858381518110611c2357611c236130e9565b602002602001015160e00181815250505b848281518110611c4657611c466130e9565b6020026020010151600660008981526020019081526020016000208381548110611c7257611c726130e9565b60009182526020918290208351600992909202019081558282015160018201556040830151600282015560608301516003820180546001600160a01b0319166001600160a01b03909216919091179055608083015180519192611cdd926004850192909101906126bb565b5060a0820151816005015560c0820151816006015560e082015181600701556101008201518160080155905050848281518110611d1c57611d1c6130e9565b602002602001015160046000878581518110611d3a57611d3a6130e9565b602002602001015160000151815260200190815260200160002060008201518160000155602082015181600101556040820151816002015560608201518160030160006101000a8154816001600160a01b0302191690836001600160a01b031602179055506080820151816004019080519060200190611dbb9291906126bb565b5060a0820151816005015560c0820151816006015560e0820151816007015561010082015181600801559050506000858381518110611dfc57611dfc6130e9565b602002602001015160200151905060005b600082815260056020526040902054811015611f4957600082815260056020526040902080548a919083908110611e4657611e466130e9565b90600052602060002090600902016002015403611f3757868481518110611e6f57611e6f6130e9565b6020026020010151600560008481526020019081526020016000208281548110611e9b57611e9b6130e9565b60009182526020918290208351600992909202019081558282015160018201556040830151600282015560608301516003820180546001600160a01b0319166001600160a01b03909216919091179055608083015180519192611f06926004850192909101906126bb565b5060a0820151600582015560c0820151600682015560e0820151600782015561010090910151600890910155611f49565b80611f418161306d565b915050611e0d565b5050508080611f579061306d565b915050611ab1565b5060005b83518110156122e757838181518110611f7e57611f7e6130e9565b602002602001015160a001518560080154036122d557611f9e82846130ff565b848281518110611fb057611fb06130e9565b6020026020010151610100018181525050838181518110611fd357611fd36130e9565b6020026020010151600660008881526020019081526020016000208281548110611fff57611fff6130e9565b60009182526020918290208351600992909202019081558282015160018201556040830151600282015560608301516003820180546001600160a01b0319166001600160a01b0390921691909117905560808301518051919261206a926004850192909101906126bb565b5060a0820151816005015560c0820151816006015560e0820151816007015561010082015181600801559050508381815181106120a9576120a96130e9565b6020026020010151600460008684815181106120c7576120c76130e9565b602002602001015160000151815260200190815260200160002060008201518160000155602082015181600101556040820151816002015560608201518160030160006101000a8154816001600160a01b0302191690836001600160a01b0316021790555060808201518160040190805190602001906121489291906126bb565b5060a0820151816005015560c0820151816006015560e0820151816007015561010082015181600801559050506000848281518110612189576121896130e9565b602002602001015160200151905060005b6000828152600560205260409020548110156122d25760008281526005602052604090208054899190839081106121d3576121d36130e9565b906000526020600020906009020160020154036122c0578583815181106121fc576121fc6130e9565b6020026020010151600560008481526020019081526020016000208281548110612228576122286130e9565b60009182526020918290208351600992909202019081558282015160018201556040830151600282015560608301516003820180546001600160a01b0319166001600160a01b03909216919091179055608083015180519192612293926004850192909101906126bb565b5060a0820151600582015560c0820151600682015560e08201516007820155610100909101516008909101555b806122ca8161306d565b91505061219a565b50505b806122df8161306d565b915050611f63565b505050505050565b600a80548083528291600b91600091826123088361306d565b90915550815260208082019290925260400160002082518155828201518051919261233b926001850192909101906126bb565b5060408201516002820180546001600160a01b0319166001600160a01b0390921691909117905560608201518051610ace9160038401916020909101906126bb565b60008381526004602081815260408084208151610120810183528154815260018201549381019390935260028101549183019190915260038101546001600160a01b0316606083015291820180549192916080840191906123dd90613086565b80601f016020809104026020016040519081016040528092919081815260200182805461240990613086565b80156124565780601f1061242b57610100808354040283529160200191612456565b820191906000526020600020905b81548152906001019060200180831161243957829003601f168201915b50505050508152602001600582015481526020016006820154815260200160078201548152602001600882015481525050905060018160a00181815161249c91906130d1565b90525060008581526005602052604090208054829190859081106124c2576124c26130e9565b60009182526020918290208351600992909202019081558282015160018201556040830151600282015560608301516003820180546001600160a01b0319166001600160a01b0390921691909117905560808301518051919261252d926004850192909101906126bb565b5060a0820151816005015560c0820151816006015560e0820151816007015561010082015181600801559050508060066000888152602001908152602001600020838154811061257f5761257f6130e9565b60009182526020918290208351600992909202019081558282015160018201556040830151600282015560608301516003820180546001600160a01b0319166001600160a01b039092169190911790556080830151805191926125ea926004850192909101906126bb565b5060a0820151600582015560c0820151600682015560e082015160078201556101009091015160089091015580516000908152600460208181526040928390208451815581850151600182015592840151600284015560608401516003840180546001600160a01b0319166001600160a01b039092169190911790556080840151805185949361267f939085019201906126bb565b5060a0820151600582015560c0820151600682015560e08201516007820155610100909101516008909101556060810151611938816001610ad4565b8280546126c790613086565b90600052602060002090601f0160209004810192826126e9576000855561272f565b82601f1061270257805160ff191683800117855561272f565b8280016001018555821561272f579182015b8281111561272f578251825591602001919060010190612714565b5061273b9291506127ba565b5090565b82805461274b90613086565b90600052602060002090601f01602090048101928261276d576000855561272f565b82601f1061277e578054855561272f565b8280016001018555821561272f57600052602060002091601f016020900482015b8281111561272f57825482559160010191906001019061279f565b5b8082111561273b57600081556001016127bb565b6000815180845260005b818110156127f5576020818501810151868301820152016127d9565b81811115612807576000602083870101525b50601f01601f19169290920160200192915050565b60208152600061282f60208301846127cf565b9392505050565b80356001600160a01b038116811461284d57600080fd5b919050565b6000806040838503121561286557600080fd5b61286e83612836565b946020939093013593505050565b634e487b7160e01b600052604160045260246000fd5b604051610280810167ffffffffffffffff811182821017156128b6576128b661287c565b60405290565b604051610240810167ffffffffffffffff811182821017156128b6576128b661287c565b6040516080810167ffffffffffffffff811182821017156128b6576128b661287c565b604051601f8201601f1916810167ffffffffffffffff8111828210171561292c5761292c61287c565b604052919050565b600082601f83011261294557600080fd5b813567ffffffffffffffff81111561295f5761295f61287c565b612972601f8201601f1916602001612903565b81815284602083860101111561298757600080fd5b816020850160208301376000918101602001919091529392505050565b8035801515811461284d57600080fd5b6000602082840312156129c657600080fd5b813567ffffffffffffffff808211156129de57600080fd5b9083019061028082860312156129f357600080fd5b6129fb612892565b82358152602083013560208201526040830135604082015260608301356060820152608083013582811115612a2f57600080fd5b612a3b87828601612934565b60808301525060a083013582811115612a5357600080fd5b612a5f87828601612934565b60a08301525060c083013560c082015260e083013582811115612a8157600080fd5b612a8d87828601612934565b60e0830152506101008084013583811115612aa757600080fd5b612ab388828701612934565b8284015250506101208084013583811115612acd57600080fd5b612ad988828701612934565b91830191909152506101408381013590820152610160808401359082015261018080840135908201526101a080840135908201526101c08084013583811115612b2157600080fd5b612b2d88828701612934565b8284015250506101e08084013583811115612b4757600080fd5b612b5388828701612934565b9183019190915250610200838101359082015261022080840135908201526102409150612b818284016129a4565b828201526102609150612b958284016129a4565b91810191909152949350505050565b600080600060608486031215612bb957600080fd5b612bc284612836565b9250612bd060208501612836565b9150604084013590509250925092565b600060208284031215612bf257600080fd5b5035919050565b60006020808301818452808551808352604092508286019150828160051b87010184880160005b83811015612c9157603f19898403018552815160808151855288820151818a870152612c4e828701826127cf565b838a01516001600160a01b0316878b0152606093840151878203948801949094529150612c7d905081836127cf565b968901969450505090860190600101612c20565b509098975050505050505050565b600060208284031215612cb157600080fd5b813567ffffffffffffffff80821115612cc957600080fd5b908301906102408286031215612cde57600080fd5b612ce66128bc565b823581526020830135602082015260408301356040820152606083013582811115612d1057600080fd5b612d1c87828601612934565b606083015250608083013582811115612d3457600080fd5b612d4087828601612934565b60808301525060a083013582811115612d5857600080fd5b612d6487828601612934565b60a08301525060c083013582811115612d7c57600080fd5b612d8887828601612934565b60c08301525060e083013582811115612da057600080fd5b612dac87828601612934565b60e08301525061010083810135908201526101208084013590820152610140808401359082015261016080840135908201526101808084013583811115612df257600080fd5b612dfe88828701612934565b8284015250506101a08084013583811115612e1857600080fd5b612e2488828701612934565b91830191909152506101c083810135908201526101e0808401359082015261020080840135908201526102209150612b958284016129a4565b600060208284031215612e6f57600080fd5b61282f82612836565b600080600080600060a08688031215612e9057600080fd5b505083359560208501359550604085013594606081013594506080013592509050565b60006020808385031215612ec657600080fd5b823567ffffffffffffffff80821115612ede57600080fd5b818501915085601f830112612ef257600080fd5b813581811115612f0457612f0461287c565b8060051b9150612f15848301612903565b8181529183018401918481019088841115612f2f57600080fd5b938501935b83851015612f4d57843582529385019390850190612f34565b98975050505050505050565b600060208284031215612f6b57600080fd5b813567ffffffffffffffff80821115612f8357600080fd5b9083019060808286031215612f9757600080fd5b612f9f6128e0565b82358152602083013582811115612fb557600080fd5b612fc187828601612934565b602083015250612fd360408401612836565b6040820152606083013582811115612fea57600080fd5b612ff687828601612934565b60608301525095945050505050565b6000806040838503121561301857600080fd5b61302183612836565b915061302f60208401612836565b90509250929050565b634e487b7160e01b600052601160045260246000fd5b600081600019048311821515161561306857613068613038565b500290565b60006001820161307f5761307f613038565b5060010190565b600181811c9082168061309a57607f821691505b602082108103610da157634e487b7160e01b600052602260045260246000fd5b6000828210156130cc576130cc613038565b500390565b600082198211156130e4576130e4613038565b500190565b634e487b7160e01b600052603260045260246000fd5b60008261311c57634e487b7160e01b600052601260045260246000fd5b50049056fea26469706673582212204b33f1c3d9f02ea17f235764697cf4dfc9b7dfda320aa8e2b0bf4f9709cfe26264736f6c634300080e0033",
  "immutableReferences": {},
  "source": "// SPDX-License-Identifier: MIT\r\npragma solidity ^0.8.0;\r\npragma abicoder v2;\r\n\r\nimport \"./DailyChallengeContract.sol\";\r\nimport \"./DonationContract.sol\";\r\ncontract DonationChallengeContract is DailyChallengeContract,DonationContract{\r\n\r\n    struct DonationChallenge {\r\n        // pk\r\n        uint challengeId;\r\n        //  fk\r\n        uint interestId;\r\n        //   fk\r\n        uint ownerId;\r\n        //  fk\r\n        uint donationId;\r\n        string name;\r\n        string desc;\r\n        \r\n        //  \r\n        uint setDonaion;\r\n        //   \r\n        string mainPicURL;\r\n        string goodPicURL;\r\n        string badPicURL;\r\n        //  \r\n        uint authTotalTimes;\r\n        uint authDayTimes;\r\n        // \r\n        uint startTime;\r\n        uint endTime;\r\n        //  \r\n        string startDate;\r\n        string endDate;\r\n        //   (  int(-1)    )\r\n        uint personnel;\r\n        uint256 totalDonation;\r\n\r\n        //   \r\n        bool complete;\r\n\r\n        bool success;\r\n    }\r\n    mapping(uint => DonationChallenge) donationChallengeMap;\r\n    DonationChallenge[] donationChallenges;\r\n\r\n    function createDonationChallenge(DonationChallenge memory donationChallenge) public payable\r\n    {\r\n        donationChallenge.challengeId=challengeSequence;\r\n        donationChallenge.setDonaion*=1e18;\r\n        donationChallenge.totalDonation*=1e18;\r\n        donationChallengeMap[challengeSequence++]=donationChallenge ;\r\n\r\n        /*     */\r\n        //  \r\n        Challenger storage challenger=challengerMap[challengerSequence];\r\n        challenger.id=challengerSequence;\r\n        challenger.userId=donationChallenge.ownerId;\r\n        challenger.challengeId=donationChallenge.challengeId;\r\n        challenger.userAddress=msg.sender;\r\n        challenger.today=donationChallenge.startDate;\r\n        challenger.userDeposit=msg.value;\r\n\r\n        //    \r\n        findByUserIdChallenger[donationChallenge.ownerId].push(challenger);\r\n        findByChallengeIdChallenger[donationChallenge.challengeId].push(challenger);\r\n        challengerSequence++;\r\n    }\r\n\r\n    //  \r\n    function endDonationChallenge(uint challengeId) public payable{\r\n        DonationChallenge storage challenge=donationChallengeMap[challengeId];\r\n        Challenger[] memory challengers=findByChallengeIdChallenger[challengeId];\r\n        challenge.complete=true;\r\n        uint count=0;\r\n        for(uint i=0;i<challengers.length;i++){\r\n            uint rate=(challengers[i].totalCount*100)/challenge.authTotalTimes;\r\n            if(rate>=80) count++;\r\n        }\r\n        if((count*100)/challengers.length>=80){\r\n            Donation memory donation =donationMap[challenge.donationId];\r\n            challenge.success=true;\r\n            for(uint i=0;i<challengers.length;i++){\r\n                challengers[i].userDeposit=0;\r\n            }\r\n        \r\n            address donationAddress=donation.donationAddress;\r\n            payable(donationAddress).transfer(challenge.totalDonation);\r\n        }\r\n\r\n    }\r\n}",
  "sourcePath": "c:\\Users\\multicampus\\Desktop\\ssafy\\S07P22B106\\truffle\\contracts\\DonationChallengeContract.sol",
  "compiler": {
    "name": "solc",
    "version": "0.8.14+commit.80d49f37.Emscripten.clang"
  },
  "schemaVersion": "3.4.10",
  "updatedAt": "2022-09-23T07:24:43.711Z",
  "devdoc": {
    "kind": "dev",
    "methods": {},
    "version": 1
  },
  "userdoc": {
    "kind": "user",
    "methods": {},
    "version": 1
  }
}