{
  "contractName": "DonationChallengeContract",
  "abi": [
    {
      "anonymous": false,
      "inputs": [
        {
          "indexed": true,
          "internalType": "address",
          "name": "owner",
          "type": "address"
        },
        {
          "indexed": true,
          "internalType": "address",
          "name": "spender",
          "type": "address"
        },
        {
          "indexed": false,
          "internalType": "uint256",
          "name": "value",
          "type": "uint256"
        }
      ],
      "name": "Approval",
      "type": "event"
    },
    {
      "anonymous": false,
      "inputs": [
        {
          "indexed": true,
          "internalType": "address",
          "name": "from",
          "type": "address"
        },
        {
          "indexed": true,
          "internalType": "address",
          "name": "to",
          "type": "address"
        },
        {
          "indexed": false,
          "internalType": "uint256",
          "name": "value",
          "type": "uint256"
        }
      ],
      "name": "Transfer",
      "type": "event"
    },
    {
      "anonymous": false,
      "inputs": [
        {
          "indexed": false,
          "internalType": "uint256",
          "name": "challengeId",
          "type": "uint256"
        }
      ],
      "name": "returnChallengeId",
      "type": "event"
    },
    {
      "inputs": [
        {
          "components": [
            {
              "internalType": "uint256",
              "name": "id",
              "type": "uint256"
            },
            {
              "internalType": "string",
              "name": "name",
              "type": "string"
            },
            {
              "internalType": "address",
              "name": "donationAddress",
              "type": "address"
            },
            {
              "internalType": "string",
              "name": "donationURL",
              "type": "string"
            }
          ],
          "internalType": "struct DonationContract.Donation",
          "name": "donation",
          "type": "tuple"
        }
      ],
      "name": "addDonation",
      "outputs": [],
      "stateMutability": "nonpayable",
      "type": "function"
    },
    {
      "inputs": [
        {
          "internalType": "address",
          "name": "owner",
          "type": "address"
        },
        {
          "internalType": "address",
          "name": "delegate",
          "type": "address"
        }
      ],
      "name": "allowance",
      "outputs": [
        {
          "internalType": "uint256",
          "name": "",
          "type": "uint256"
        }
      ],
      "stateMutability": "view",
      "type": "function"
    },
    {
      "inputs": [
        {
          "internalType": "uint256",
          "name": "challengeId",
          "type": "uint256"
        },
        {
          "internalType": "uint256",
          "name": "userId",
          "type": "uint256"
        },
        {
          "internalType": "uint256",
          "name": "challengerId",
          "type": "uint256"
        },
        {
          "internalType": "uint256",
          "name": "userIdIndex",
          "type": "uint256"
        },
        {
          "internalType": "uint256",
          "name": "challengeIdIndex",
          "type": "uint256"
        }
      ],
      "name": "applyVoteResult",
      "outputs": [],
      "stateMutability": "nonpayable",
      "type": "function"
    },
    {
      "inputs": [
        {
          "internalType": "address",
          "name": "delegate",
          "type": "address"
        },
        {
          "internalType": "uint256",
          "name": "numTokens",
          "type": "uint256"
        }
      ],
      "name": "approve",
      "outputs": [
        {
          "internalType": "bool",
          "name": "",
          "type": "bool"
        }
      ],
      "stateMutability": "nonpayable",
      "type": "function"
    },
    {
      "inputs": [
        {
          "internalType": "address",
          "name": "tokenOwner",
          "type": "address"
        }
      ],
      "name": "balanceOf",
      "outputs": [
        {
          "internalType": "uint256",
          "name": "",
          "type": "uint256"
        }
      ],
      "stateMutability": "view",
      "type": "function"
    },
    {
      "inputs": [
        {
          "components": [
            {
              "internalType": "uint256",
              "name": "challengeId",
              "type": "uint256"
            },
            {
              "internalType": "uint256",
              "name": "interestId",
              "type": "uint256"
            },
            {
              "internalType": "uint256",
              "name": "ownerId",
              "type": "uint256"
            },
            {
              "internalType": "string",
              "name": "name",
              "type": "string"
            },
            {
              "internalType": "string",
              "name": "desc",
              "type": "string"
            },
            {
              "internalType": "string",
              "name": "mainPicURL",
              "type": "string"
            },
            {
              "internalType": "string",
              "name": "goodPicURL",
              "type": "string"
            },
            {
              "internalType": "string",
              "name": "badPicURL",
              "type": "string"
            },
            {
              "internalType": "uint256",
              "name": "authTotalTimes",
              "type": "uint256"
            },
            {
              "internalType": "uint256",
              "name": "authWeekTimes",
              "type": "uint256"
            },
            {
              "internalType": "uint256",
              "name": "authDayTimes",
              "type": "uint256"
            },
            {
              "internalType": "int256",
              "name": "startTime",
              "type": "int256"
            },
            {
              "internalType": "int256",
              "name": "endTime",
              "type": "int256"
            },
            {
              "internalType": "string",
              "name": "startDate",
              "type": "string"
            },
            {
              "internalType": "string",
              "name": "endDate",
              "type": "string"
            },
            {
              "internalType": "uint256",
              "name": "personnel",
              "type": "uint256"
            },
            {
              "internalType": "uint256",
              "name": "deposit",
              "type": "uint256"
            },
            {
              "internalType": "uint256",
              "name": "totalDeposit",
              "type": "uint256"
            },
            {
              "internalType": "bool",
              "name": "complete",
              "type": "bool"
            }
          ],
          "internalType": "struct DailyChallengeContract.DailyChallenge",
          "name": "dailyChallenge",
          "type": "tuple"
        }
      ],
      "name": "createDailyChallenge",
      "outputs": [],
      "stateMutability": "payable",
      "type": "function"
    },
    {
      "inputs": [],
      "name": "decimals",
      "outputs": [
        {
          "internalType": "uint8",
          "name": "",
          "type": "uint8"
        }
      ],
      "stateMutability": "view",
      "type": "function"
    },
    {
      "inputs": [
        {
          "internalType": "uint256",
          "name": "challengeId",
          "type": "uint256"
        }
      ],
      "name": "endDailyChallenge",
      "outputs": [],
      "stateMutability": "nonpayable",
      "type": "function"
    },
    {
      "inputs": [
        {
          "internalType": "uint256",
          "name": "challengerId",
          "type": "uint256"
        }
      ],
      "name": "findByChallengerId",
      "outputs": [
        {
          "components": [
            {
              "internalType": "uint256",
              "name": "id",
              "type": "uint256"
            },
            {
              "internalType": "uint256",
              "name": "userId",
              "type": "uint256"
            },
            {
              "internalType": "uint256",
              "name": "challengeId",
              "type": "uint256"
            },
            {
              "internalType": "address",
              "name": "userAddress",
              "type": "address"
            },
            {
              "internalType": "uint256",
              "name": "today",
              "type": "uint256"
            },
            {
              "internalType": "uint256",
              "name": "totalCount",
              "type": "uint256"
            },
            {
              "internalType": "uint256",
              "name": "weekCount",
              "type": "uint256"
            },
            {
              "internalType": "uint256",
              "name": "dailyCount",
              "type": "uint256"
            },
            {
              "internalType": "uint256",
              "name": "userDeposit",
              "type": "uint256"
            },
            {
              "internalType": "uint256",
              "name": "reward",
              "type": "uint256"
            },
            {
              "internalType": "bool",
              "name": "receiveRefund",
              "type": "bool"
            }
          ],
          "internalType": "struct ChallengerContract.Challenger",
          "name": "",
          "type": "tuple"
        }
      ],
      "stateMutability": "view",
      "type": "function"
    },
    {
      "inputs": [],
      "name": "getAllDonation",
      "outputs": [
        {
          "components": [
            {
              "internalType": "uint256",
              "name": "id",
              "type": "uint256"
            },
            {
              "internalType": "string",
              "name": "name",
              "type": "string"
            },
            {
              "internalType": "address",
              "name": "donationAddress",
              "type": "address"
            },
            {
              "internalType": "string",
              "name": "donationURL",
              "type": "string"
            }
          ],
          "internalType": "struct DonationContract.Donation[]",
          "name": "",
          "type": "tuple[]"
        }
      ],
      "stateMutability": "view",
      "type": "function"
    },
    {
      "inputs": [],
      "name": "name",
      "outputs": [
        {
          "internalType": "string",
          "name": "",
          "type": "string"
        }
      ],
      "stateMutability": "view",
      "type": "function"
    },
    {
      "inputs": [
        {
          "internalType": "uint256[]",
          "name": "userIdList",
          "type": "uint256[]"
        },
        {
          "internalType": "uint256",
          "name": "challengeId",
          "type": "uint256"
        }
      ],
      "name": "receivePasscoin",
      "outputs": [],
      "stateMutability": "nonpayable",
      "type": "function"
    },
    {
      "inputs": [
        {
          "internalType": "uint256",
          "name": "challengeId",
          "type": "uint256"
        },
        {
          "internalType": "uint256",
          "name": "userId",
          "type": "uint256"
        },
        {
          "internalType": "uint256",
          "name": "challengerId",
          "type": "uint256"
        },
        {
          "internalType": "uint256",
          "name": "userIdIndex",
          "type": "uint256"
        },
        {
          "internalType": "uint256",
          "name": "challengeIdIndex",
          "type": "uint256"
        }
      ],
      "name": "refund",
      "outputs": [],
      "stateMutability": "payable",
      "type": "function"
    },
    {
      "inputs": [],
      "name": "symbol",
      "outputs": [
        {
          "internalType": "string",
          "name": "",
          "type": "string"
        }
      ],
      "stateMutability": "view",
      "type": "function"
    },
    {
      "inputs": [],
      "name": "totalSupply",
      "outputs": [
        {
          "internalType": "uint256",
          "name": "",
          "type": "uint256"
        }
      ],
      "stateMutability": "view",
      "type": "function"
    },
    {
      "inputs": [
        {
          "internalType": "address",
          "name": "receiver",
          "type": "address"
        },
        {
          "internalType": "uint256",
          "name": "numTokens",
          "type": "uint256"
        }
      ],
      "name": "transfer",
      "outputs": [
        {
          "internalType": "bool",
          "name": "",
          "type": "bool"
        }
      ],
      "stateMutability": "nonpayable",
      "type": "function"
    },
    {
      "inputs": [
        {
          "internalType": "address",
          "name": "owner",
          "type": "address"
        },
        {
          "internalType": "address",
          "name": "buyer",
          "type": "address"
        },
        {
          "internalType": "uint256",
          "name": "numTokens",
          "type": "uint256"
        }
      ],
      "name": "transferFrom",
      "outputs": [
        {
          "internalType": "bool",
          "name": "",
          "type": "bool"
        }
      ],
      "stateMutability": "nonpayable",
      "type": "function"
    },
    {
      "inputs": [
        {
          "internalType": "address",
          "name": "user",
          "type": "address"
        },
        {
          "internalType": "uint256",
          "name": "numTokens",
          "type": "uint256"
        }
      ],
      "name": "useCoin",
      "outputs": [],
      "stateMutability": "nonpayable",
      "type": "function"
    },
    {
      "inputs": [
        {
          "internalType": "uint256",
          "name": "challengeId",
          "type": "uint256"
        },
        {
          "internalType": "uint256",
          "name": "userId",
          "type": "uint256"
        },
        {
          "internalType": "uint256",
          "name": "challengerId",
          "type": "uint256"
        },
        {
          "internalType": "uint256",
          "name": "userIdIndex",
          "type": "uint256"
        },
        {
          "internalType": "uint256",
          "name": "challengeIdIndex",
          "type": "uint256"
        }
      ],
      "name": "usePasscoin",
      "outputs": [],
      "stateMutability": "nonpayable",
      "type": "function"
    },
    {
      "inputs": [
        {
          "components": [
            {
              "internalType": "uint256",
              "name": "challengeId",
              "type": "uint256"
            },
            {
              "internalType": "uint256",
              "name": "interestId",
              "type": "uint256"
            },
            {
              "internalType": "uint256",
              "name": "ownerId",
              "type": "uint256"
            },
            {
              "internalType": "uint256",
              "name": "donationId",
              "type": "uint256"
            },
            {
              "internalType": "string",
              "name": "name",
              "type": "string"
            },
            {
              "internalType": "string",
              "name": "desc",
              "type": "string"
            },
            {
              "internalType": "uint256",
              "name": "setDonation",
              "type": "uint256"
            },
            {
              "internalType": "string",
              "name": "mainPicURL",
              "type": "string"
            },
            {
              "internalType": "string",
              "name": "goodPicURL",
              "type": "string"
            },
            {
              "internalType": "string",
              "name": "badPicURL",
              "type": "string"
            },
            {
              "internalType": "uint256",
              "name": "authTotalTimes",
              "type": "uint256"
            },
            {
              "internalType": "uint256",
              "name": "authWeekTimes",
              "type": "uint256"
            },
            {
              "internalType": "uint256",
              "name": "authDayTimes",
              "type": "uint256"
            },
            {
              "internalType": "uint256",
              "name": "startTime",
              "type": "uint256"
            },
            {
              "internalType": "uint256",
              "name": "endTime",
              "type": "uint256"
            },
            {
              "internalType": "string",
              "name": "startDate",
              "type": "string"
            },
            {
              "internalType": "string",
              "name": "endDate",
              "type": "string"
            },
            {
              "internalType": "uint256",
              "name": "personnel",
              "type": "uint256"
            },
            {
              "internalType": "uint256",
              "name": "totalDonation",
              "type": "uint256"
            },
            {
              "internalType": "bool",
              "name": "complete",
              "type": "bool"
            },
            {
              "internalType": "bool",
              "name": "success",
              "type": "bool"
            }
          ],
          "internalType": "struct DonationChallengeContract.DonationChallenge",
          "name": "donationChallenge",
          "type": "tuple"
        }
      ],
      "name": "createDonationChallenge",
      "outputs": [],
      "stateMutability": "payable",
      "type": "function"
    },
    {
      "inputs": [
        {
          "internalType": "uint256",
          "name": "challengeId",
          "type": "uint256"
        }
      ],
      "name": "endDonationChallenge",
      "outputs": [],
      "stateMutability": "payable",
      "type": "function"
    }
  ],
  "bytecode": "0x60806040526305f5e100600355600160045560016008556001600b5534801561002757600080fd5b506003543360008181526001602052604081209290925581546001600160a01b0319161790556134ad8061005c6000396000f3fe60806040526004361061012a5760003560e01c806370a08231116100ab578063b098d41a1161006f578063b098d41a1461036c578063c78a57b91461037f578063d60cdc291461039f578063dd62ed3e146103bf578063f5a8024514610405578063fb81a8a91461042557600080fd5b806370a08231146102a6578063740c162a146102dc57806385d0dd60146102fc57806395d89b411461031c578063a9059cbb1461034c57600080fd5b806323b872dd116100f257806323b872dd146101f0578063313ce567146102105780633f7118511461023757806352e9a1a0146102575780635b77573b1461027957600080fd5b80630303f2e01461012f57806306fdde0314610144578063095ea7b31461018e57806318160ddd146101be5780631d41860d146101dd575b600080fd5b61014261013d366004612a71565b610438565b005b34801561015057600080fd5b50610178604051806040016040528060088152602001672830b9b9a1b7b4b760c11b81525081565b6040516101859190612af9565b60405180910390f35b34801561019a57600080fd5b506101ae6101a9366004612b2f565b61078b565b6040519015158152602001610185565b3480156101ca57600080fd5b506003545b604051908152602001610185565b6101426101eb366004612c91565b6107f7565b3480156101fc57600080fd5b506101ae61020b366004612e69565b610c5f565b34801561021c57600080fd5b50610225600081565b60405160ff9091168152602001610185565b34801561024357600080fd5b50610142610252366004612b2f565b610db5565b34801561026357600080fd5b5061026c610e4e565b6040516101859190612ea5565b34801561028557600080fd5b50610299610294366004612f4b565b61109d565b6040516101859190612f64565b3480156102b257600080fd5b506101cf6102c1366004612ffc565b6001600160a01b031660009081526001602052604090205490565b3480156102e857600080fd5b506101426102f7366004612a71565b6111a1565b34801561030857600080fd5b50610142610317366004613017565b6114c3565b34801561032857600080fd5b50610178604051806040016040528060048152602001635041535360e01b81525081565b34801561035857600080fd5b506101ae610367366004612b2f565b611659565b61014261037a366004612f4b565b61170e565b34801561038b57600080fd5b5061014261039a366004612f4b565b611aa1565b3480156103ab57600080fd5b506101426103ba3660046130c3565b612434565b3480156103cb57600080fd5b506101cf6103da36600461316f565b6001600160a01b03918216600090815260026020908152604080832093909416825291909152205490565b34801561041157600080fd5b50610142610420366004612a71565b6124c2565b6101426104333660046131a2565b6127f0565b6000838152600560208181526040808420815161016081018352815481526001808301548286015260028301548285015260038301546001600160a01b03166060830152600483015460808301529482015460a082015260068083015460c0830152600783015460e083015260088301546101008301526009909201546101208201526101408101949094528885529091529091208054829190859081106104e2576104e261338e565b600091825260208083208451600b9390930201918255838101516001830155604080850151600284015560608501516003840180546001600160a01b0319166001600160a01b039092169190911790556080850151600484015560a0850151600584015560c0850151600684015560e08501516007808501919091556101008601516008850155610120860151600985015561014090950151600a909301805460ff19169315159390931790925589835292909252208054829190849081106105ad576105ad61338e565b90600052602060002090600b020160008201518160000155602082015181600101556040820151816002015560608201518160030160006101000a8154816001600160a01b0302191690836001600160a01b031602179055506080820151816004015560a0820151816005015560c0820151816006015560e082015181600701556101008201518160080155610120820151816009015561014082015181600a0160006101000a81548160ff02191690831515021790555090505080600560008360000151815260200190815260200160002060008201518160000155602082015181600101556040820151816002015560608201518160030160006101000a8154816001600160a01b0302191690836001600160a01b031602179055506080820151816004015560a0820151816005015560c0820151816006015560e082015181600701556101008201518160080155610120820151816009015561014082015181600a0160006101000a81548160ff021916908315150217905550905050600081606001519050806001600160a01b03166108fc83610120015184610100015161075991906133ba565b6040518115909202916000818181858888f19350505050158015610781573d6000803e3d6000fd5b5050505050505050565b3360008181526002602090815260408083206001600160a01b038716808552925280832085905551919290917f8c5be1e5ebec7d5bd14f71427d1e84f3dd0314c0f7b2291e5b200ac8c7c3b925906107e69086815260200190565b60405180910390a350600192915050565b6008805480835234610200840181905261022084015282916009916000918261081f836133d2565b919050558152602001908152602001600020600082015181600001556020820151816001015560408201518160020155606082015181600301908051906020019061086b9291906129d8565b50608082015180516108879160048401916020909101906129d8565b5060a082015180516108a39160058401916020909101906129d8565b5060c082015180516108bf9160068401916020909101906129d8565b5060e082015180516108db9160078401916020909101906129d8565b5061010082015160088201556101208201516009820155610140820151600a820155610160820151600b820155610180820151600c8201556101a0820151805161092f91600d8401916020909101906129d8565b506101c0820151805161094c91600e8401916020909101906129d8565b506101e0820151600f82015561020082015160108201556102208201516011820155610240909101516012909101805460ff191691151591909117905580516040519081527f76fbc58aaedcbb39f7190db541de17575eeaaf17cf3facf5bd11ad55ca479ed1906020015b60405180910390a16000600560006004548152602001908152602001600020905060045481600001819055508160400151816001018190555081600001518160020181905550338160030160006101000a8154816001600160a01b0302191690836001600160a01b0316021790555034816008018190555060066000836040015181526020019081526020016000208190806001815401808255809150506001900390600052602060002090600b02016000909190919091506000820154816000015560018201548160010155600282015481600201556003820160009054906101000a90046001600160a01b03168160030160006101000a8154816001600160a01b0302191690836001600160a01b03160217905550600482015481600401556005820154816005015560068201548160060155600782015481600701556008820154816008015560098201548160090155600a820160009054906101000a900460ff1681600a0160006101000a81548160ff021916908315150217905550505060076000836000015181526020019081526020016000208190806001815401808255809150506001900390600052602060002090600b02016000909190919091506000820154816000015560018201548160010155600282015481600201556003820160009054906101000a90046001600160a01b03168160030160006101000a8154816001600160a01b0302191690836001600160a01b03160217905550600482015481600401556005820154816005015560068201548160060155600782015481600701556008820154816008015560098201548160090155600a820160009054906101000a900460ff1681600a0160006101000a81548160ff021916908315150217905550505060046000815480929190610c56906133d2565b91905055505050565b6001600160a01b038316600090815260016020526040812054821115610c8457600080fd5b6001600160a01b0384166000908152600260209081526040808320338452909152902054821115610cb457600080fd5b6001600160a01b038416600090815260016020526040902054610cd89083906133eb565b6001600160a01b0385166000908152600160209081526040808320939093556002815282822033835290522054610d109083906133eb565b6001600160a01b038086166000908152600260209081526040808320338452825280832094909455918616815260019091522054610d4f9083906133ba565b6001600160a01b0380851660008181526001602052604090819020939093559151908616907fddf252ad1be2c89b69c2b068fc378daa952ba7f163c4a11628f55a4df523b3ef90610da39086815260200190565b60405180910390a35060019392505050565b600080546001600160a01b0316815260016020526040902054811115610dda57600080fd5b600080546001600160a01b0316815260016020526040902054610dfe9082906133ba565b600080546001600160a01b0390811682526001602052604080832093909355841681522054610e2e9082906133eb565b6001600160a01b0390921660009081526001602052604090209190915550565b606060006001600b54610e6191906133eb565b67ffffffffffffffff811115610e7957610e79612b59565b604051908082528060200260200182016040528015610ede57816020015b610ecb6040518060800160405280600081526020016060815260200160006001600160a01b03168152602001606081525090565b815260200190600190039081610e975790505b50905060005b6001600b54610ef391906133eb565b81101561109757600c6000610f098360016133ba565b815260200190815260200160002060405180608001604052908160008201548152602001600182018054610f3c90613402565b80601f0160208091040260200160405190810160405280929190818152602001828054610f6890613402565b8015610fb55780601f10610f8a57610100808354040283529160200191610fb5565b820191906000526020600020905b815481529060010190602001808311610f9857829003601f168201915b505050918352505060028201546001600160a01b03166020820152600382018054604090920191610fe590613402565b80601f016020809104026020016040519081016040528092919081815260200182805461101190613402565b801561105e5780601f106110335761010080835404028352916020019161105e565b820191906000526020600020905b81548152906001019060200180831161104157829003601f168201915b5050505050815250508282815181106110795761107961338e565b6020026020010181905250808061108f906133d2565b915050610ee4565b50919050565b61110560405180610160016040528060008152602001600081526020016000815260200160006001600160a01b031681526020016000815260200160008152602001600081526020016000815260200160008152602001600081526020016000151581525090565b506000908152600560208181526040928390208351610160810185528154815260018201549281019290925260028101549382019390935260038301546001600160a01b03166060820152600483015460808201529082015460a0820152600682015460c0820152600782015460e082015260088201546101008201526009820154610120820152600a9091015460ff16151561014082015290565b600083815260056020818152604092839020835161016081018552815481526001808301549382019390935260028201549481019490945260038101546001600160a01b03166060850152600481015460808501529182015460a08401818152600684015460c0860152600784015460e086015260088401546101008601526009840154610120860152600a9093015460ff16151561014085015290919061124a9083906133eb565b90525060008581526006602052604090208054829190859081106112705761127061338e565b600091825260208083208451600b9390930201918255838101516001830155604080850151600284015560608501516003840180546001600160a01b0319166001600160a01b039092169190911790556080850151600484015560a0850151600584015560c0850151600684015560e08501516007808501919091556101008601516008850155610120860151600985015561014090950151600a909301805460ff191693151593909317909255898352929092522080548291908490811061133b5761133b61338e565b90600052602060002090600b020160008201518160000155602082015181600101556040820151816002015560608201518160030160006101000a8154816001600160a01b0302191690836001600160a01b031602179055506080820151816004015560a0820151816005015560c0820151816006015560e082015181600701556101008201518160080155610120820151816009015561014082015181600a0160006101000a81548160ff02191690831515021790555090505080600560008360000151815260200190815260200160002060008201518160000155602082015181600101556040820151816002015560608201518160030160006101000a8154816001600160a01b0302191690836001600160a01b031602179055506080820151816004015560a0820151816005015560c0820151816006015560e082015181600701556101008201518160080155610120820151816009015561014082015181600a0160006101000a81548160ff021916908315150217905550905050505050505050565b60005b8251811015611654576000600660008584815181106114e7576114e761338e565b60200260200101518152602001908152602001600020805480602002602001604051908101604052809291908181526020016000905b828210156115c95760008481526020908190206040805161016081018252600b8602909201805483526001808201548486015260028201549284019290925260038101546001600160a01b0316606084015260048101546080840152600581015460a0840152600681015460c0840152600781015460e084015260088101546101008401526009810154610120840152600a015460ff161515610140830152908352909201910161151d565b50505050905060005b815181101561163f57838282815181106115ee576115ee61338e565b6020026020010151604001510361162d576116278282815181106116145761161461338e565b6020026020010151606001516001611659565b5061163f565b80611637816133d2565b9150506115d2565b5050808061164c906133d2565b9150506114c6565b505050565b3360009081526001602052604081205482111561167557600080fd5b336000908152600160205260409020546116909083906133eb565b33600090815260016020526040808220929092556001600160a01b038516815220546116bd9083906133ba565b6001600160a01b0384166000818152600160205260409081902092909255905133907fddf252ad1be2c89b69c2b068fc378daa952ba7f163c4a11628f55a4df523b3ef906107e69086815260200190565b6000818152600d60209081526040808320600783528184208054835181860281018601909452808452919493909190849084015b828210156117ee5760008481526020908190206040805161016081018252600b8602909201805483526001808201548486015260028201549284019290925260038101546001600160a01b0316606084015260048101546080840152600581015460a0840152600681015460c0840152600781015460e084015260088101546101008401526009810154610120840152600a015460ff1615156101408301529083529092019101611742565b50505060138401805460ff191660011790555090506000805b825181101561187657600084600a01548483815181106118295761182961338e565b602002602001015160a0015160646118419190613436565b61184b9190613455565b905060508110611863578261185f816133d2565b9350505b508061186e816133d2565b915050611807565b508151605090611887836064613436565b6118919190613455565b10611a9b576000600c600085600301548152602001908152602001600020604051806080016040529081600082015481526020016001820180546118d490613402565b80601f016020809104026020016040519081016040528092919081815260200182805461190090613402565b801561194d5780601f106119225761010080835404028352916020019161194d565b820191906000526020600020905b81548152906001019060200180831161193057829003601f168201915b505050918352505060028201546001600160a01b0316602082015260038201805460409092019161197d90613402565b80601f01602080910402602001604051908101604052809291908181526020018280546119a990613402565b80156119f65780601f106119cb576101008083540402835291602001916119f6565b820191906000526020600020905b8154815290600101906020018083116119d957829003601f168201915b5050509190925250505060138501805461ff001916610100179055905060005b8351811015611a55576000848281518110611a3357611a3361338e565b6020908102919091010151610100015280611a4d816133d2565b915050611a16565b506040808201516012860154915190916001600160a01b0383169181156108fc0291906000818181858888f19350505050158015611a97573d6000803e3d6000fd5b5050505b50505050565b6000818152600960209081526040808320600783528184208054835181860281018601909452808452919493909190849084015b82821015611b815760008481526020908190206040805161016081018252600b8602909201805483526001808201548486015260028201549284019290925260038101546001600160a01b0316606084015260048101546080840152600581015460a0840152600681015460c0840152600781015460e084015260088101546101008401526009810154610120840152600a015460ff1615156101408301529083529092019101611ad5565b50505060128401805460ff19166001179055509050600080805b83518110156120785760008560080154858381518110611bbd57611bbd61338e565b602002602001015160a001516064611bd59190613436565b611bdf9190613455565b9050848281518110611bf357611bf361338e565b602002602001015160a00151866008015403611c1b5782611c13816133d2565b935050611d21565b60508110611c4d576000858381518110611c3757611c3761338e565b6020026020010151610120018181525050611d21565b60288110611cea576064818760100154611c679190613436565b611c719190613455565b858381518110611c8357611c8361338e565b60200260200101516101000151611c9a91906133eb565b611ca490856133ba565b93506064818760100154611cb89190613436565b611cc29190613455565b858381518110611cd457611cd461338e565b6020026020010151610100018181525050611d21565b6010860154611cf990856133ba565b93506000858381518110611d0f57611d0f61338e565b60200260200101516101000181815250505b848281518110611d3357611d3361338e565b6020026020010151600760008981526020019081526020016000208381548110611d5f57611d5f61338e565b60009182526020918290208351600b92909202019081559082015160018201556040820151600282015560608201516003820180546001600160a01b0319166001600160a01b039092169190911790556080820151600482015560a0820151600582015560c0820151600682015560e082015160078201556101008201516008820155610120820151600982015561014090910151600a909101805460ff19169115159190911790558451859083908110611e1c57611e1c61338e565b602002602001015160056000878581518110611e3a57611e3a61338e565b60209081029190910181015151825281810192909252604090810160009081208451815592840151600184015590830151600283015560608301516003830180546001600160a01b0319166001600160a01b039092169190911790556080830151600483015560a0830151600583015560c0830151600683015560e083015160078301556101008301516008830155610120830151600983015561014090920151600a909101805460ff19169115159190911790558551869084908110611f0357611f0361338e565b602002602001015160200151905060005b60008281526006602052604090205481101561206257600082815260066020526040902080548a919083908110611f4d57611f4d61338e565b90600052602060002090600b0201600201540361205057868481518110611f7657611f7661338e565b6020026020010151600660008481526020019081526020016000208281548110611fa257611fa261338e565b60009182526020918290208351600b92909202019081559082015160018201556040820151600282015560608201516003820180546001600160a01b0319166001600160a01b039092169190911790556080820151600482015560a0820151600582015560c0820151600682015560e082015160078201556101008201516008820155610120820151600982015561014090910151600a909101805460ff1916911515919091179055612062565b8061205a816133d2565b915050611f14565b5050508080612070906133d2565b915050611b9b565b5060005b835181101561242c578381815181106120975761209761338e565b602002602001015160a0015185600801540361241a576120b78284613455565b8482815181106120c9576120c961338e565b60200260200101516101200181815250508381815181106120ec576120ec61338e565b60200260200101516007600088815260200190815260200160002082815481106121185761211861338e565b60009182526020918290208351600b92909202019081559082015160018201556040820151600282015560608201516003820180546001600160a01b0319166001600160a01b039092169190911790556080820151600482015560a0820151600582015560c0820151600682015560e082015160078201556101008201516008820155610120820151600982015561014090910151600a909101805460ff191691151591909117905583518490829081106121d5576121d561338e565b6020026020010151600560008684815181106121f3576121f361338e565b60209081029190910181015151825281810192909252604090810160009081208451815592840151600184015590830151600283015560608301516003830180546001600160a01b0319166001600160a01b039092169190911790556080830151600483015560a0830151600583015560c0830151600683015560e083015160078301556101008301516008830155610120830151600983015561014090920151600a909101805460ff191691151591909117905584518590839081106122bc576122bc61338e565b602002602001015160200151905060005b6000828152600660205260409020548110156124175760008281526006602052604090208054899190839081106123065761230661338e565b90600052602060002090600b020160020154036124055785838151811061232f5761232f61338e565b602002602001015160066000848152602001908152602001600020828154811061235b5761235b61338e565b60009182526020918290208351600b92909202019081559082015160018201556040820151600282015560608201516003820180546001600160a01b0319166001600160a01b039092169190911790556080820151600482015560a0820151600582015560c0820151600682015560e082015160078201556101008201516008820155610120820151600982015561014090910151600a909101805460ff19169115159190911790555b8061240f816133d2565b9150506122cd565b50505b80612424816133d2565b91505061207c565b505050505050565b600b80548083528291600c916000918261244d836133d2565b909155508152602080820192909252604001600020825181558282015180519192612480926001850192909101906129d8565b5060408201516002820180546001600160a01b0319166001600160a01b0390921691909117905560608201518051611a9b9160038401916020909101906129d8565b600083815260056020818152604092839020835161016081018552815481526001808301549382019390935260028201549481019490945260038101546001600160a01b03166060850152600481015460808501529182015460a08401818152600684015460c0860152600784015460e086015260088401546101008601526009840154610120860152600a9093015460ff16151561014085015290919061256b9083906133ba565b90525060008581526006602052604090208054829190859081106125915761259161338e565b600091825260208083208451600b9390930201918255838101516001830155604080850151600284015560608501516003840180546001600160a01b0319166001600160a01b039092169190911790556080850151600484015560a0850151600584015560c0850151600684015560e08501516007808501919091556101008601516008850155610120860151600985015561014090950151600a909301805460ff191693151593909317909255898352929092522080548291908490811061265c5761265c61338e565b90600052602060002090600b020160008201518160000155602082015181600101556040820151816002015560608201518160030160006101000a8154816001600160a01b0302191690836001600160a01b031602179055506080820151816004015560a0820151816005015560c0820151816006015560e082015181600701556101008201518160080155610120820151816009015561014082015181600a0160006101000a81548160ff02191690831515021790555090505080600560008360000151815260200190815260200160002060008201518160000155602082015181600101556040820151816002015560608201518160030160006101000a8154816001600160a01b0302191690836001600160a01b031602179055506080820151816004015560a0820151816005015560c0820151816006015560e082015181600701556101008201518160080155610120820151816009015561014082015181600a0160006101000a81548160ff021916908315150217905550905050600081606001519050611a97816001610db5565b600880548083523460c084018190526102408401528291600d9160009182612817836133d2565b91905055815260200190815260200160002060008201518160000155602082015181600101556040820151816002015560608201518160030155608082015181600401908051906020019061286d9291906129d8565b5060a082015180516128899160058401916020909101906129d8565b5060c0820151600682015560e082015180516128af9160078401916020909101906129d8565b5061010082015180516128cc9160088401916020909101906129d8565b5061012082015180516128e99160098401916020909101906129d8565b50610140820151600a820155610160820151600b820155610180820151600c8201556101a0820151600d8201556101c0820151600e8201556101e0820151805161293d91600f8401916020909101906129d8565b50610200820151805161295a9160108401916020909101906129d8565b5061022082015160118201556102408201516012820155610260820151601390910180546102809093015115156101000261ff00199215159290921661ffff199093169290921717905580516040517f76fbc58aaedcbb39f7190db541de17575eeaaf17cf3facf5bd11ad55ca479ed1916109b79190815260200190565b8280546129e490613402565b90600052602060002090601f016020900481019282612a065760008555612a4c565b82601f10612a1f57805160ff1916838001178555612a4c565b82800160010185558215612a4c579182015b82811115612a4c578251825591602001919060010190612a31565b50612a58929150612a5c565b5090565b5b80821115612a585760008155600101612a5d565b600080600080600060a08688031215612a8957600080fd5b505083359560208501359550604085013594606081013594506080013592509050565b6000815180845260005b81811015612ad257602081850181015186830182015201612ab6565b81811115612ae4576000602083870101525b50601f01601f19169290920160200192915050565b602081526000612b0c6020830184612aac565b9392505050565b80356001600160a01b0381168114612b2a57600080fd5b919050565b60008060408385031215612b4257600080fd5b612b4b83612b13565b946020939093013593505050565b634e487b7160e01b600052604160045260246000fd5b604051610260810167ffffffffffffffff81118282101715612b9357612b93612b59565b60405290565b6040516080810167ffffffffffffffff81118282101715612b9357612b93612b59565b6040516102a0810167ffffffffffffffff81118282101715612b9357612b93612b59565b604051601f8201601f1916810167ffffffffffffffff81118282101715612c0957612c09612b59565b604052919050565b600082601f830112612c2257600080fd5b813567ffffffffffffffff811115612c3c57612c3c612b59565b612c4f601f8201601f1916602001612be0565b818152846020838601011115612c6457600080fd5b816020850160208301376000918101602001919091529392505050565b80358015158114612b2a57600080fd5b600060208284031215612ca357600080fd5b813567ffffffffffffffff80821115612cbb57600080fd5b908301906102608286031215612cd057600080fd5b612cd8612b6f565b823581526020830135602082015260408301356040820152606083013582811115612d0257600080fd5b612d0e87828601612c11565b606083015250608083013582811115612d2657600080fd5b612d3287828601612c11565b60808301525060a083013582811115612d4a57600080fd5b612d5687828601612c11565b60a08301525060c083013582811115612d6e57600080fd5b612d7a87828601612c11565b60c08301525060e083013582811115612d9257600080fd5b612d9e87828601612c11565b60e083015250610100838101359082015261012080840135908201526101408084013590820152610160808401359082015261018080840135908201526101a08084013583811115612def57600080fd5b612dfb88828701612c11565b8284015250506101c08084013583811115612e1557600080fd5b612e2188828701612c11565b91830191909152506101e08381013590820152610200808401359082015261022080840135908201526102409150612e5a828401612c81565b91810191909152949350505050565b600080600060608486031215612e7e57600080fd5b612e8784612b13565b9250612e9560208501612b13565b9150604084013590509250925092565b60006020808301818452808551808352604092508286019150828160051b87010184880160005b83811015612f3d57603f19898403018552815160808151855288820151818a870152612efa82870182612aac565b838a01516001600160a01b0316878b0152606093840151878203948801949094529150612f2990508183612aac565b968901969450505090860190600101612ecc565b509098975050505050505050565b600060208284031215612f5d57600080fd5b5035919050565b6000610160820190508251825260208301516020830152604083015160408301526060830151612f9f60608401826001600160a01b03169052565b506080830151608083015260a083015160a083015260c083015160c083015260e083015160e083015261010080840151818401525061012080840151818401525061014080840151612ff48285018215159052565b505092915050565b60006020828403121561300e57600080fd5b612b0c82612b13565b6000806040838503121561302a57600080fd5b823567ffffffffffffffff8082111561304257600080fd5b818501915085601f83011261305657600080fd5b813560208282111561306a5761306a612b59565b8160051b925061307b818401612be0565b828152928401810192818101908985111561309557600080fd5b948201945b848610156130b35785358252948201949082019061309a565b9997909101359750505050505050565b6000602082840312156130d557600080fd5b813567ffffffffffffffff808211156130ed57600080fd5b908301906080828603121561310157600080fd5b613109612b99565b8235815260208301358281111561311f57600080fd5b61312b87828601612c11565b60208301525061313d60408401612b13565b604082015260608301358281111561315457600080fd5b61316087828601612c11565b60608301525095945050505050565b6000806040838503121561318257600080fd5b61318b83612b13565b915061319960208401612b13565b90509250929050565b6000602082840312156131b457600080fd5b813567ffffffffffffffff808211156131cc57600080fd5b908301906102a082860312156131e157600080fd5b6131e9612bbc565b8235815260208301356020820152604083013560408201526060830135606082015260808301358281111561321d57600080fd5b61322987828601612c11565b60808301525060a08301358281111561324157600080fd5b61324d87828601612c11565b60a08301525060c083013560c082015260e08301358281111561326f57600080fd5b61327b87828601612c11565b60e083015250610100808401358381111561329557600080fd5b6132a188828701612c11565b82840152505061012080840135838111156132bb57600080fd5b6132c788828701612c11565b91830191909152506101408381013590820152610160808401359082015261018080840135908201526101a080840135908201526101c080840135908201526101e0808401358381111561331a57600080fd5b61332688828701612c11565b828401525050610200808401358381111561334057600080fd5b61334c88828701612c11565b918301919091525061022083810135908201526102408084013590820152610260915061337a828401612c81565b828201526102809150612e5a828401612c81565b634e487b7160e01b600052603260045260246000fd5b634e487b7160e01b600052601160045260246000fd5b600082198211156133cd576133cd6133a4565b500190565b6000600182016133e4576133e46133a4565b5060010190565b6000828210156133fd576133fd6133a4565b500390565b600181811c9082168061341657607f821691505b60208210810361109757634e487b7160e01b600052602260045260246000fd5b6000816000190483118215151615613450576134506133a4565b500290565b60008261347257634e487b7160e01b600052601260045260246000fd5b50049056fea26469706673582212204c2541a810929abb15355278530aad25fa1e15daa7bc2d009bdd1d4fc6fb02d364736f6c634300080e0033",
  "immutableReferences": {},
  "source": "// SPDX-License-Identifier: MIT\r\npragma solidity ^0.8.0;\r\npragma abicoder v2;\r\n\r\nimport \"./DailyChallengeContract.sol\";\r\nimport \"./DonationContract.sol\";\r\ncontract DonationChallengeContract is DailyChallengeContract,DonationContract{\r\n\r\n    struct DonationChallenge {\r\n        // pk\r\n        uint challengeId;\r\n        //  fk\r\n        uint interestId;\r\n        //   fk\r\n        uint ownerId;\r\n        //  fk\r\n        uint donationId;\r\n        string name;\r\n        string desc;\r\n        \r\n        //  \r\n        uint setDonation;\r\n        //   \r\n        string mainPicURL;\r\n        string goodPicURL;\r\n        string badPicURL;\r\n        //  \r\n        uint authTotalTimes;\r\n        uint authWeekTimes;\r\n        uint authDayTimes;\r\n        // \r\n        uint startTime;\r\n        uint endTime;\r\n        //  \r\n        string startDate;\r\n        string endDate;\r\n        //   (  int(-1)    )\r\n        uint personnel;\r\n        uint256 totalDonation;\r\n\r\n        //   \r\n        bool complete;\r\n\r\n        bool success;\r\n    }\r\n    mapping(uint => DonationChallenge) donationChallengeMap;\r\n    DonationChallenge[] donationChallenges;\r\n\r\n    function createDonationChallenge(DonationChallenge memory donationChallenge) public payable\r\n    {\r\n        donationChallenge.challengeId=challengeSequence;\r\n        donationChallenge.setDonation=msg.value;\r\n        donationChallenge.totalDonation=msg.value;\r\n        donationChallengeMap[challengeSequence++]=donationChallenge ;\r\n        emit returnChallengeId(donationChallenge.challengeId);\r\n        /*     */\r\n        //  \r\n        Challenger storage challenger=challengerMap[challengerSequence];\r\n        challenger.id=challengerSequence;\r\n        challenger.userId=donationChallenge.ownerId;\r\n        challenger.challengeId=donationChallenge.challengeId;\r\n        challenger.userAddress=msg.sender;\r\n        challenger.userDeposit=msg.value;\r\n\r\n        //    \r\n        findByUserIdChallenger[donationChallenge.ownerId].push(challenger);\r\n        findByChallengeIdChallenger[donationChallenge.challengeId].push(challenger);\r\n        challengerSequence++;\r\n    }\r\n\r\n    //  \r\n    function endDonationChallenge(uint challengeId) public payable{\r\n        DonationChallenge storage challenge=donationChallengeMap[challengeId];\r\n        Challenger[] memory challengers=findByChallengeIdChallenger[challengeId];\r\n        challenge.complete=true;\r\n        uint count=0;\r\n        for(uint i=0;i<challengers.length;i++){\r\n            uint rate=(challengers[i].totalCount*100)/challenge.authTotalTimes;\r\n            if(rate>=80) count++;\r\n        }\r\n        if((count*100)/challengers.length>=80){\r\n            Donation memory donation =donationMap[challenge.donationId];\r\n            challenge.success=true;\r\n            for(uint i=0;i<challengers.length;i++){\r\n                challengers[i].userDeposit=0;\r\n            }\r\n        \r\n            address donationAddress=donation.donationAddress;\r\n            payable(donationAddress).transfer(challenge.totalDonation);\r\n        }\r\n\r\n    }\r\n}",
  "sourcePath": "c:\\Users\\multicampus\\Desktop\\ssafy\\S07P22B106\\truffle\\contracts\\DonationChallengeContract.sol",
  "compiler": {
    "name": "solc",
    "version": "0.8.14+commit.80d49f37.Emscripten.clang"
  },
  "schemaVersion": "3.4.10",
  "updatedAt": "2022-10-04T16:28:12.196Z",
  "devdoc": {
    "kind": "dev",
    "methods": {},
    "version": 1
  },
  "userdoc": {
    "kind": "user",
    "methods": {},
    "version": 1
  }
}