{
  "contractName": "DonationChallengeContract",
  "abi": [
    {
      "anonymous": false,
      "inputs": [
        {
          "indexed": true,
          "internalType": "address",
          "name": "owner",
          "type": "address"
        },
        {
          "indexed": true,
          "internalType": "address",
          "name": "spender",
          "type": "address"
        },
        {
          "indexed": false,
          "internalType": "uint256",
          "name": "value",
          "type": "uint256"
        }
      ],
      "name": "Approval",
      "type": "event"
    },
    {
      "anonymous": false,
      "inputs": [
        {
          "indexed": true,
          "internalType": "address",
          "name": "from",
          "type": "address"
        },
        {
          "indexed": true,
          "internalType": "address",
          "name": "to",
          "type": "address"
        },
        {
          "indexed": false,
          "internalType": "uint256",
          "name": "value",
          "type": "uint256"
        }
      ],
      "name": "Transfer",
      "type": "event"
    },
    {
      "inputs": [
        {
          "components": [
            {
              "internalType": "uint256",
              "name": "id",
              "type": "uint256"
            },
            {
              "internalType": "string",
              "name": "name",
              "type": "string"
            },
            {
              "internalType": "address",
              "name": "donationAddress",
              "type": "address"
            },
            {
              "internalType": "string",
              "name": "donationURL",
              "type": "string"
            }
          ],
          "internalType": "struct DonationContract.Donation",
          "name": "donation",
          "type": "tuple"
        }
      ],
      "name": "addDonation",
      "outputs": [],
      "stateMutability": "nonpayable",
      "type": "function"
    },
    {
      "inputs": [
        {
          "internalType": "address",
          "name": "owner",
          "type": "address"
        },
        {
          "internalType": "address",
          "name": "delegate",
          "type": "address"
        }
      ],
      "name": "allowance",
      "outputs": [
        {
          "internalType": "uint256",
          "name": "",
          "type": "uint256"
        }
      ],
      "stateMutability": "view",
      "type": "function"
    },
    {
      "inputs": [
        {
          "internalType": "uint256",
          "name": "challengeId",
          "type": "uint256"
        },
        {
          "internalType": "uint256",
          "name": "userId",
          "type": "uint256"
        },
        {
          "internalType": "uint256",
          "name": "challengerId",
          "type": "uint256"
        },
        {
          "internalType": "uint256",
          "name": "userIdIndex",
          "type": "uint256"
        },
        {
          "internalType": "uint256",
          "name": "challengeIdIndex",
          "type": "uint256"
        }
      ],
      "name": "applyVoteResult",
      "outputs": [],
      "stateMutability": "nonpayable",
      "type": "function"
    },
    {
      "inputs": [
        {
          "internalType": "address",
          "name": "delegate",
          "type": "address"
        },
        {
          "internalType": "uint256",
          "name": "numTokens",
          "type": "uint256"
        }
      ],
      "name": "approve",
      "outputs": [
        {
          "internalType": "bool",
          "name": "",
          "type": "bool"
        }
      ],
      "stateMutability": "nonpayable",
      "type": "function"
    },
    {
      "inputs": [
        {
          "internalType": "address",
          "name": "tokenOwner",
          "type": "address"
        }
      ],
      "name": "balanceOf",
      "outputs": [
        {
          "internalType": "uint256",
          "name": "",
          "type": "uint256"
        }
      ],
      "stateMutability": "view",
      "type": "function"
    },
    {
      "inputs": [
        {
          "components": [
            {
              "internalType": "uint256",
              "name": "challengeId",
              "type": "uint256"
            },
            {
              "internalType": "uint256",
              "name": "interestId",
              "type": "uint256"
            },
            {
              "internalType": "uint256",
              "name": "ownerId",
              "type": "uint256"
            },
            {
              "internalType": "string",
              "name": "name",
              "type": "string"
            },
            {
              "internalType": "string",
              "name": "desc",
              "type": "string"
            },
            {
              "internalType": "string",
              "name": "mainPicURL",
              "type": "string"
            },
            {
              "internalType": "string",
              "name": "goodPicURL",
              "type": "string"
            },
            {
              "internalType": "string",
              "name": "badPicURL",
              "type": "string"
            },
            {
              "internalType": "uint256",
              "name": "authTotalTimes",
              "type": "uint256"
            },
            {
              "internalType": "uint256",
              "name": "authDayTimes",
              "type": "uint256"
            },
            {
              "internalType": "int256",
              "name": "startTime",
              "type": "int256"
            },
            {
              "internalType": "int256",
              "name": "endTime",
              "type": "int256"
            },
            {
              "internalType": "string",
              "name": "startDate",
              "type": "string"
            },
            {
              "internalType": "string",
              "name": "endDate",
              "type": "string"
            },
            {
              "internalType": "uint256",
              "name": "personnel",
              "type": "uint256"
            },
            {
              "internalType": "uint256",
              "name": "deposit",
              "type": "uint256"
            },
            {
              "internalType": "uint256",
              "name": "totalDeposit",
              "type": "uint256"
            },
            {
              "internalType": "bool",
              "name": "complete",
              "type": "bool"
            }
          ],
          "internalType": "struct DailyChallengeContract.DailyChallenge",
          "name": "dailyChallenge",
          "type": "tuple"
        }
      ],
      "name": "createDailyChallenge",
      "outputs": [],
      "stateMutability": "payable",
      "type": "function"
    },
    {
      "inputs": [],
      "name": "decimals",
      "outputs": [
        {
          "internalType": "uint8",
          "name": "",
          "type": "uint8"
        }
      ],
      "stateMutability": "view",
      "type": "function"
    },
    {
      "inputs": [
        {
          "internalType": "uint256",
          "name": "challengeId",
          "type": "uint256"
        }
      ],
      "name": "endDailyChallenge",
      "outputs": [],
      "stateMutability": "nonpayable",
      "type": "function"
    },
    {
      "inputs": [
        {
          "internalType": "uint256",
          "name": "challengerId",
          "type": "uint256"
        }
      ],
      "name": "findByChallengerId",
      "outputs": [
        {
          "components": [
            {
              "internalType": "uint256",
              "name": "id",
              "type": "uint256"
            },
            {
              "internalType": "uint256",
              "name": "userId",
              "type": "uint256"
            },
            {
              "internalType": "uint256",
              "name": "challengeId",
              "type": "uint256"
            },
            {
              "internalType": "address",
              "name": "userAddress",
              "type": "address"
            },
            {
              "internalType": "string",
              "name": "today",
              "type": "string"
            },
            {
              "internalType": "uint256",
              "name": "totalCount",
              "type": "uint256"
            },
            {
              "internalType": "uint256",
              "name": "dailyCount",
              "type": "uint256"
            },
            {
              "internalType": "uint256",
              "name": "userDeposit",
              "type": "uint256"
            },
            {
              "internalType": "uint256",
              "name": "reward",
              "type": "uint256"
            }
          ],
          "internalType": "struct ChallengerContract.Challenger",
          "name": "",
          "type": "tuple"
        }
      ],
      "stateMutability": "view",
      "type": "function"
    },
    {
      "inputs": [],
      "name": "getAllDonation",
      "outputs": [
        {
          "components": [
            {
              "internalType": "uint256",
              "name": "id",
              "type": "uint256"
            },
            {
              "internalType": "string",
              "name": "name",
              "type": "string"
            },
            {
              "internalType": "address",
              "name": "donationAddress",
              "type": "address"
            },
            {
              "internalType": "string",
              "name": "donationURL",
              "type": "string"
            }
          ],
          "internalType": "struct DonationContract.Donation[]",
          "name": "",
          "type": "tuple[]"
        }
      ],
      "stateMutability": "view",
      "type": "function"
    },
    {
      "inputs": [],
      "name": "name",
      "outputs": [
        {
          "internalType": "string",
          "name": "",
          "type": "string"
        }
      ],
      "stateMutability": "view",
      "type": "function"
    },
    {
      "inputs": [
        {
          "internalType": "uint256[]",
          "name": "userIdList",
          "type": "uint256[]"
        },
        {
          "internalType": "uint256",
          "name": "challengeId",
          "type": "uint256"
        }
      ],
      "name": "receivePasscoin",
      "outputs": [],
      "stateMutability": "nonpayable",
      "type": "function"
    },
    {
      "inputs": [
        {
          "internalType": "uint256",
          "name": "challengerId",
          "type": "uint256"
        }
      ],
      "name": "refund",
      "outputs": [],
      "stateMutability": "payable",
      "type": "function"
    },
    {
      "inputs": [],
      "name": "symbol",
      "outputs": [
        {
          "internalType": "string",
          "name": "",
          "type": "string"
        }
      ],
      "stateMutability": "view",
      "type": "function"
    },
    {
      "inputs": [],
      "name": "totalSupply",
      "outputs": [
        {
          "internalType": "uint256",
          "name": "",
          "type": "uint256"
        }
      ],
      "stateMutability": "view",
      "type": "function"
    },
    {
      "inputs": [
        {
          "internalType": "address",
          "name": "receiver",
          "type": "address"
        },
        {
          "internalType": "uint256",
          "name": "numTokens",
          "type": "uint256"
        }
      ],
      "name": "transfer",
      "outputs": [
        {
          "internalType": "bool",
          "name": "",
          "type": "bool"
        }
      ],
      "stateMutability": "nonpayable",
      "type": "function"
    },
    {
      "inputs": [
        {
          "internalType": "address",
          "name": "owner",
          "type": "address"
        },
        {
          "internalType": "address",
          "name": "buyer",
          "type": "address"
        },
        {
          "internalType": "uint256",
          "name": "numTokens",
          "type": "uint256"
        }
      ],
      "name": "transferFrom",
      "outputs": [
        {
          "internalType": "bool",
          "name": "",
          "type": "bool"
        }
      ],
      "stateMutability": "nonpayable",
      "type": "function"
    },
    {
      "inputs": [
        {
          "internalType": "address",
          "name": "user",
          "type": "address"
        },
        {
          "internalType": "uint256",
          "name": "numTokens",
          "type": "uint256"
        }
      ],
      "name": "useCoin",
      "outputs": [],
      "stateMutability": "nonpayable",
      "type": "function"
    },
    {
      "inputs": [
        {
          "internalType": "uint256",
          "name": "challengeId",
          "type": "uint256"
        },
        {
          "internalType": "uint256",
          "name": "userId",
          "type": "uint256"
        },
        {
          "internalType": "uint256",
          "name": "challengerId",
          "type": "uint256"
        },
        {
          "internalType": "uint256",
          "name": "userIdIndex",
          "type": "uint256"
        },
        {
          "internalType": "uint256",
          "name": "challengeIdIndex",
          "type": "uint256"
        }
      ],
      "name": "usePasscoin",
      "outputs": [],
      "stateMutability": "nonpayable",
      "type": "function"
    },
    {
      "inputs": [
        {
          "components": [
            {
              "internalType": "uint256",
              "name": "challengeId",
              "type": "uint256"
            },
            {
              "internalType": "uint256",
              "name": "interestId",
              "type": "uint256"
            },
            {
              "internalType": "uint256",
              "name": "ownerId",
              "type": "uint256"
            },
            {
              "internalType": "uint256",
              "name": "donationId",
              "type": "uint256"
            },
            {
              "internalType": "string",
              "name": "name",
              "type": "string"
            },
            {
              "internalType": "string",
              "name": "desc",
              "type": "string"
            },
            {
              "internalType": "uint256",
              "name": "setDonation",
              "type": "uint256"
            },
            {
              "internalType": "string",
              "name": "mainPicURL",
              "type": "string"
            },
            {
              "internalType": "string",
              "name": "goodPicURL",
              "type": "string"
            },
            {
              "internalType": "string",
              "name": "badPicURL",
              "type": "string"
            },
            {
              "internalType": "uint256",
              "name": "authTotalTimes",
              "type": "uint256"
            },
            {
              "internalType": "uint256",
              "name": "authDayTimes",
              "type": "uint256"
            },
            {
              "internalType": "uint256",
              "name": "startTime",
              "type": "uint256"
            },
            {
              "internalType": "uint256",
              "name": "endTime",
              "type": "uint256"
            },
            {
              "internalType": "string",
              "name": "startDate",
              "type": "string"
            },
            {
              "internalType": "string",
              "name": "endDate",
              "type": "string"
            },
            {
              "internalType": "uint256",
              "name": "personnel",
              "type": "uint256"
            },
            {
              "internalType": "uint256",
              "name": "totalDonation",
              "type": "uint256"
            },
            {
              "internalType": "bool",
              "name": "complete",
              "type": "bool"
            },
            {
              "internalType": "bool",
              "name": "success",
              "type": "bool"
            }
          ],
          "internalType": "struct DonationChallengeContract.DonationChallenge",
          "name": "donationChallenge",
          "type": "tuple"
        }
      ],
      "name": "createDonationChallenge",
      "outputs": [],
      "stateMutability": "payable",
      "type": "function"
    },
    {
      "inputs": [
        {
          "internalType": "uint256",
          "name": "challengeId",
          "type": "uint256"
        }
      ],
      "name": "endDonationChallenge",
      "outputs": [],
      "stateMutability": "payable",
      "type": "function"
    }
  ],
  "bytecode": "0x60806040526305f5e100600255600160035560016007556001600a5534801561002757600080fd5b506002543360009081526020819052604090205561339e8061004a6000396000f3fe60806040526004361061012a5760003560e01c80636a5e4c9e116100ab578063a9059cbb1161006f578063a9059cbb1461035f578063b098d41a1461037f578063c78a57b914610392578063d60cdc29146103b2578063dd62ed3e146103d2578063f5a802451461041857600080fd5b80636a5e4c9e146102a657806370a08231146102b9578063740c162a146102ef57806385d0dd601461030f57806395d89b411461032f57600080fd5b8063278ecde1116100f2578063278ecde1146101fd578063313ce567146102105780633f7118511461023757806352e9a1a0146102575780635b77573b1461027957600080fd5b806306fdde031461012f578063095ea7b31461017957806318160ddd146101a95780631dc834a7146101c857806323b872dd146101dd575b600080fd5b34801561013b57600080fd5b50610163604051806040016040528060088152602001672830b9b9a1b7b4b760c11b81525081565b60405161017091906129cd565b60405180910390f35b34801561018557600080fd5b50610199610194366004612a03565b610438565b6040519015158152602001610170565b3480156101b557600080fd5b506002545b604051908152602001610170565b6101db6101d6366004612b65565b6104a4565b005b3480156101e957600080fd5b506101996101f8366004612d55565b610829565b6101db61020b366004612d91565b610974565b34801561021c57600080fd5b50610225600081565b60405160ff9091168152602001610170565b34801561024357600080fd5b506101db610252366004612a03565b610ad9565b34801561026357600080fd5b5061026c610b5d565b6040516101709190612daa565b34801561028557600080fd5b50610299610294366004612d91565b610dac565b6040516101709190612e50565b6101db6102b4366004612ee0565b610f16565b3480156102c557600080fd5b506101ba6102d436600461309e565b6001600160a01b031660009081526020819052604090205490565b3480156102fb57600080fd5b506101db61030a3660046130b9565b6110f7565b34801561031b57600080fd5b506101db61032a3660046130f4565b61142d565b34801561033b57600080fd5b50610163604051806040016040528060048152602001635041535360e01b81525081565b34801561036b57600080fd5b5061019961037a366004612a03565b611639565b6101db61038d366004612d91565b6116eb565b34801561039e57600080fd5b506101db6103ad366004612d91565b611af2565b3480156103be57600080fd5b506101db6103cd3660046131a0565b6124a0565b3480156103de57600080fd5b506101ba6103ed36600461324c565b6001600160a01b03918216600090815260016020908152604080832093909416825291909152205490565b34801561042457600080fd5b506101db6104333660046130b9565b61252e565b3360008181526001602090815260408083206001600160a01b038716808552925280832085905551919290917f8c5be1e5ebec7d5bd14f71427d1e84f3dd0314c0f7b2291e5b200ac8c7c3b925906104939086815260200190565b60405180910390a350600192915050565b600780548083523460c084018190526102208401528291600c91600091826104cb83613295565b91905055815260200190815260200160002060008201518160000155602082015181600101556040820151816002015560608201518160030155608082015181600401908051906020019061052192919061286c565b5060a0820151805161053d91600584019160209091019061286c565b5060c0820151600682015560e0820151805161056391600784019160209091019061286c565b50610100820151805161058091600884019160209091019061286c565b50610120820151805161059d91600984019160209091019061286c565b50610140820151600a820155610160820151600b820155610180820151600c8201556101a0820151600d8201556101c082015180516105e691600e84019160209091019061286c565b506101e0820151805161060391600f84019160209091019061286c565b5061020082015160108201556102208201516011820155610240820151601290910180546102609093015115156101000261ff00199215159290921661ffff1990931692909217179055600380546000818152600460208181526040928390209384559185015160018401558451600284015592820180546001600160a01b031916331790556101c0840151805192936106a59390850192919091019061286c565b5034600782015560408083015160009081526005602090815291812080546001818101835591835292909120835460099093020191825580830154908201556002808301549082015560038083015490820180546001600160a01b0319166001600160a01b03909216919091179055600480830180548493928301919061072b906132ae565b6107369291906128f0565b5060058281015490820155600680830154818301556007808401549083015560089283015492909101919091558251600090815260209182526040812080546001818101835591835292909120835460099093020191825580830154908201556002808301549082015560038083015490820180546001600160a01b0319166001600160a01b0390921691909117905560048083018054849392830191906107dd906132ae565b6107e89291906128f0565b506005828101549082015560068083015490820155600780830154908201556008918201549101556003805490600061082083613295565b91905055505050565b6001600160a01b03831660009081526020819052604081205482111561084e57600080fd5b6001600160a01b038416600090815260016020908152604080832033845290915290205482111561087e57600080fd5b6001600160a01b0384166000908152602081905260409020546108a29083906132e2565b6001600160a01b0385166000908152602081815260408083209390935560018152828220338352905220546108d89083906132e2565b6001600160a01b03808616600090815260016020908152604080832033845282528083209490945591861681529081905220546109169083906132f9565b6001600160a01b038481166000818152602081815260409182902094909455518581529092918716917fddf252ad1be2c89b69c2b068fc378daa952ba7f163c4a11628f55a4df523b3ef910160405180910390a35060019392505050565b60008181526004602081815260408084208151610120810183528154815260018201549381019390935260028101549183019190915260038101546001600160a01b0316606083015291820180549192916080840191906109d4906132ae565b80601f0160208091040260200160405190810160405280929190818152602001828054610a00906132ae565b8015610a4d5780601f10610a2257610100808354040283529160200191610a4d565b820191906000526020600020905b815481529060010190602001808311610a3057829003601f168201915b505050505081526020016005820154815260200160068201548152602001600782015481526020016008820154815250509050600081606001519050806001600160a01b03166108fc8361010001518460e00151610aab91906132f9565b6040518115909202916000818181858888f19350505050158015610ad3573d6000803e3d6000fd5b50505050565b33600090815260208190526040902054811115610af557600080fd5b33600090815260208190526040902054610b109082906132f9565b33600090815260208190526040808220929092556001600160a01b03841681522054610b3d9082906132e2565b6001600160a01b0390921660009081526020819052604090209190915550565b606060006001600a54610b7091906132e2565b67ffffffffffffffff811115610b8857610b88612a2d565b604051908082528060200260200182016040528015610bed57816020015b610bda6040518060800160405280600081526020016060815260200160006001600160a01b03168152602001606081525090565b815260200190600190039081610ba65790505b50905060005b6001600a54610c0291906132e2565b811015610da657600b6000610c188360016132f9565b815260200190815260200160002060405180608001604052908160008201548152602001600182018054610c4b906132ae565b80601f0160208091040260200160405190810160405280929190818152602001828054610c77906132ae565b8015610cc45780601f10610c9957610100808354040283529160200191610cc4565b820191906000526020600020905b815481529060010190602001808311610ca757829003601f168201915b505050918352505060028201546001600160a01b03166020820152600382018054604090920191610cf4906132ae565b80601f0160208091040260200160405190810160405280929190818152602001828054610d20906132ae565b8015610d6d5780601f10610d4257610100808354040283529160200191610d6d565b820191906000526020600020905b815481529060010190602001808311610d5057829003601f168201915b505050505081525050828281518110610d8857610d88613311565b60200260200101819052508080610d9e90613295565b915050610bf3565b50919050565b610e0460405180610120016040528060008152602001600081526020016000815260200160006001600160a01b0316815260200160608152602001600081526020016000815260200160008152602001600081525090565b6000828152600460208181526040928390208351610120810185528154815260018201549281019290925260028101549382019390935260038301546001600160a01b031660608201529082018054919291608084019190610e65906132ae565b80601f0160208091040260200160405190810160405280929190818152602001828054610e91906132ae565b8015610ede5780601f10610eb357610100808354040283529160200191610ede565b820191906000526020600020905b815481529060010190602001808311610ec157829003601f168201915b505050505081526020016005820154815260200160068201548152602001600782015481526020016008820154815250509050919050565b60078054808352346101e08401819052610200840152829160089160009182610f3e83613295565b9190505581526020019081526020016000206000820151816000015560208201518160010155604082015181600201556060820151816003019080519060200190610f8a92919061286c565b5060808201518051610fa691600484019160209091019061286c565b5060a08201518051610fc291600584019160209091019061286c565b5060c08201518051610fde91600684019160209091019061286c565b5060e08201518051610ffa91600784019160209091019061286c565b5061010082015160088201556101208201516009820155610140820151600a820155610160820151600b820155610180820151805161104391600c84019160209091019061286c565b506101a0820151805161106091600d84019160209091019061286c565b506101c0820151600e8201556101e0820151600f8201556102008201516010820155610220909101516011909101805491151560ff19909216919091179055600380546000818152600460208181526040928390209384559185015160018401558451600284015592820180546001600160a01b03191633179055610180840151805192936106a59390850192919091019061286c565b60008381526004602081815260408084208151610120810183528154815260018201549381019390935260028101549183019190915260038101546001600160a01b031660608301529182018054919291608084019190611157906132ae565b80601f0160208091040260200160405190810160405280929190818152602001828054611183906132ae565b80156111d05780601f106111a5576101008083540402835291602001916111d0565b820191906000526020600020905b8154815290600101906020018083116111b357829003601f168201915b50505050508152602001600582015481526020016006820154815260200160078201548152602001600882015481525050905060018160a00181815161121691906132e2565b905250600085815260056020526040902080548291908590811061123c5761123c613311565b60009182526020918290208351600992909202019081558282015160018201556040830151600282015560608301516003820180546001600160a01b0319166001600160a01b039092169190911790556080830151805191926112a79260048501929091019061286c565b5060a0820151816005015560c0820151816006015560e082015181600701556101008201518160080155905050806006600088815260200190815260200160002083815481106112f9576112f9613311565b60009182526020918290208351600992909202019081558282015160018201556040830151600282015560608301516003820180546001600160a01b0319166001600160a01b039092169190911790556080830151805191926113649260048501929091019061286c565b5060a0820151600582015560c0820151600682015560e082015160078201556101009091015160089091015580516000908152600460208181526040928390208451815581850151600182015592840151600284015560608401516003840180546001600160a01b0319166001600160a01b03909216919091179055608084015180518594936113f99390850192019061286c565b5060a0820151600582015560c0820151600682015560e0820151600782015561010090910151600890910155505050505050565b60005b82518110156116345760006005600085848151811061145157611451613311565b60200260200101518152602001908152602001600020805480602002602001604051908101604052809291908181526020016000905b828210156115a95760008481526020908190206040805161012081018252600986029092018054835260018101549383019390935260028301549082015260038201546001600160a01b031660608201526004820180549192916080840191906114f0906132ae565b80601f016020809104026020016040519081016040528092919081815260200182805461151c906132ae565b80156115695780601f1061153e57610100808354040283529160200191611569565b820191906000526020600020905b81548152906001019060200180831161154c57829003601f168201915b5050505050815260200160058201548152602001600682015481526020016007820154815260200160088201548152505081526020019060010190611487565b50505050905060005b815181101561161f57838282815181106115ce576115ce613311565b6020026020010151604001510361160d576116078282815181106115f4576115f4613311565b6020026020010151606001516001611639565b5061161f565b8061161781613295565b9150506115b2565b5050808061162c90613295565b915050611430565b505050565b3360009081526020819052604081205482111561165557600080fd5b336000908152602081905260409020546116709083906132e2565b33600090815260208190526040808220929092556001600160a01b0385168152205461169d9083906132f9565b6001600160a01b038416600081815260208181526040918290209390935551848152909133917fddf252ad1be2c89b69c2b068fc378daa952ba7f163c4a11628f55a4df523b3ef9101610493565b6000818152600c60209081526040808320600683528184208054835181860281018601909452808452919493909190849084015b828210156118415760008481526020908190206040805161012081018252600986029092018054835260018101549383019390935260028301549082015260038201546001600160a01b03166060820152600482018054919291608084019190611788906132ae565b80601f01602080910402602001604051908101604052809291908181526020018280546117b4906132ae565b80156118015780601f106117d657610100808354040283529160200191611801565b820191906000526020600020905b8154815290600101906020018083116117e457829003601f168201915b505050505081526020016005820154815260200160068201548152602001600782015481526020016008820154815250508152602001906001019061171f565b50505060128401805460ff191660011790555090506000805b82518110156118c957600084600a015484838151811061187c5761187c613311565b602002602001015160a0015160646118949190613327565b61189e9190613346565b9050605081106118b657826118b281613295565b9350505b50806118c181613295565b91505061185a565b5081516050906118da836064613327565b6118e49190613346565b10610ad3576000600b60008560030154815260200190815260200160002060405180608001604052908160008201548152602001600182018054611927906132ae565b80601f0160208091040260200160405190810160405280929190818152602001828054611953906132ae565b80156119a05780601f10611975576101008083540402835291602001916119a0565b820191906000526020600020905b81548152906001019060200180831161198357829003601f168201915b505050918352505060028201546001600160a01b031660208201526003820180546040909201916119d0906132ae565b80601f01602080910402602001604051908101604052809291908181526020018280546119fc906132ae565b8015611a495780601f10611a1e57610100808354040283529160200191611a49565b820191906000526020600020905b815481529060010190602001808311611a2c57829003601f168201915b5050509190925250505060128501805461ff001916610100179055905060005b8351811015611aa7576000848281518110611a8657611a86613311565b602090810291909101015160e0015280611a9f81613295565b915050611a69565b506040808201516011860154915190916001600160a01b0383169181156108fc0291906000818181858888f19350505050158015611ae9573d6000803e3d6000fd5b50505050505050565b6000818152600860209081526040808320600683528184208054835181860281018601909452808452919493909190849084015b82821015611c485760008481526020908190206040805161012081018252600986029092018054835260018101549383019390935260028301549082015260038201546001600160a01b03166060820152600482018054919291608084019190611b8f906132ae565b80601f0160208091040260200160405190810160405280929190818152602001828054611bbb906132ae565b8015611c085780601f10611bdd57610100808354040283529160200191611c08565b820191906000526020600020905b815481529060010190602001808311611beb57829003601f168201915b5050505050815260200160058201548152602001600682015481526020016007820154815260200160088201548152505081526020019060010190611b26565b50505060118401805460ff19166001179055509050600080805b83518110156121105760008560080154858381518110611c8457611c84613311565b602002602001015160a001516064611c9c9190613327565b611ca69190613346565b9050848281518110611cba57611cba613311565b602002602001015160a00151866008015403611ce25782611cda81613295565b935050611de5565b60508110611d14576000858381518110611cfe57611cfe613311565b6020026020010151610100018181525050611de5565b60288110611daf5760648187600f0154611d2e9190613327565b611d389190613346565b858381518110611d4a57611d4a613311565b602002602001015160e00151611d6091906132e2565b611d6a90856132f9565b935060648187600f0154611d7e9190613327565b611d889190613346565b858381518110611d9a57611d9a613311565b602002602001015160e0018181525050611de5565b600f860154611dbe90856132f9565b93506000858381518110611dd457611dd4613311565b602002602001015160e00181815250505b848281518110611df757611df7613311565b6020026020010151600660008981526020019081526020016000208381548110611e2357611e23613311565b60009182526020918290208351600992909202019081558282015160018201556040830151600282015560608301516003820180546001600160a01b0319166001600160a01b03909216919091179055608083015180519192611e8e9260048501929091019061286c565b5060a0820151816005015560c0820151816006015560e082015181600701556101008201518160080155905050848281518110611ecd57611ecd613311565b602002602001015160046000878581518110611eeb57611eeb613311565b602002602001015160000151815260200190815260200160002060008201518160000155602082015181600101556040820151816002015560608201518160030160006101000a8154816001600160a01b0302191690836001600160a01b031602179055506080820151816004019080519060200190611f6c92919061286c565b5060a0820151816005015560c0820151816006015560e0820151816007015561010082015181600801559050506000858381518110611fad57611fad613311565b602002602001015160200151905060005b6000828152600560205260409020548110156120fa57600082815260056020526040902080548a919083908110611ff757611ff7613311565b906000526020600020906009020160020154036120e85786848151811061202057612020613311565b602002602001015160056000848152602001908152602001600020828154811061204c5761204c613311565b60009182526020918290208351600992909202019081558282015160018201556040830151600282015560608301516003820180546001600160a01b0319166001600160a01b039092169190911790556080830151805191926120b79260048501929091019061286c565b5060a0820151600582015560c0820151600682015560e08201516007820155610100909101516008909101556120fa565b806120f281613295565b915050611fbe565b505050808061210890613295565b915050611c62565b5060005b83518110156124985783818151811061212f5761212f613311565b602002602001015160a001518560080154036124865761214f8284613346565b84828151811061216157612161613311565b602002602001015161010001818152505083818151811061218457612184613311565b60200260200101516006600088815260200190815260200160002082815481106121b0576121b0613311565b60009182526020918290208351600992909202019081558282015160018201556040830151600282015560608301516003820180546001600160a01b0319166001600160a01b0390921691909117905560808301518051919261221b9260048501929091019061286c565b5060a0820151816005015560c0820151816006015560e08201518160070155610100820151816008015590505083818151811061225a5761225a613311565b60200260200101516004600086848151811061227857612278613311565b602002602001015160000151815260200190815260200160002060008201518160000155602082015181600101556040820151816002015560608201518160030160006101000a8154816001600160a01b0302191690836001600160a01b0316021790555060808201518160040190805190602001906122f992919061286c565b5060a0820151816005015560c0820151816006015560e082015181600701556101008201518160080155905050600084828151811061233a5761233a613311565b602002602001015160200151905060005b60008281526005602052604090205481101561248357600082815260056020526040902080548991908390811061238457612384613311565b90600052602060002090600902016002015403612471578583815181106123ad576123ad613311565b60200260200101516005600084815260200190815260200160002082815481106123d9576123d9613311565b60009182526020918290208351600992909202019081558282015160018201556040830151600282015560608301516003820180546001600160a01b0319166001600160a01b039092169190911790556080830151805191926124449260048501929091019061286c565b5060a0820151600582015560c0820151600682015560e08201516007820155610100909101516008909101555b8061247b81613295565b91505061234b565b50505b8061249081613295565b915050612114565b505050505050565b600a80548083528291600b91600091826124b983613295565b9091555081526020808201929092526040016000208251815582820151805191926124ec9260018501929091019061286c565b5060408201516002820180546001600160a01b0319166001600160a01b0390921691909117905560608201518051610ad391600384019160209091019061286c565b60008381526004602081815260408084208151610120810183528154815260018201549381019390935260028101549183019190915260038101546001600160a01b03166060830152918201805491929160808401919061258e906132ae565b80601f01602080910402602001604051908101604052809291908181526020018280546125ba906132ae565b80156126075780601f106125dc57610100808354040283529160200191612607565b820191906000526020600020905b8154815290600101906020018083116125ea57829003601f168201915b50505050508152602001600582015481526020016006820154815260200160078201548152602001600882015481525050905060018160a00181815161264d91906132f9565b905250600085815260056020526040902080548291908590811061267357612673613311565b60009182526020918290208351600992909202019081558282015160018201556040830151600282015560608301516003820180546001600160a01b0319166001600160a01b039092169190911790556080830151805191926126de9260048501929091019061286c565b5060a0820151816005015560c0820151816006015560e0820151816007015561010082015181600801559050508060066000888152602001908152602001600020838154811061273057612730613311565b60009182526020918290208351600992909202019081558282015160018201556040830151600282015560608301516003820180546001600160a01b0319166001600160a01b0390921691909117905560808301518051919261279b9260048501929091019061286c565b5060a0820151600582015560c0820151600682015560e082015160078201556101009091015160089091015580516000908152600460208181526040928390208451815581850151600182015592840151600284015560608401516003840180546001600160a01b0319166001600160a01b03909216919091179055608084015180518594936128309390850192019061286c565b5060a0820151600582015560c0820151600682015560e08201516007820155610100909101516008909101556060810151611ae9816001610ad9565b828054612878906132ae565b90600052602060002090601f01602090048101928261289a57600085556128e0565b82601f106128b357805160ff19168380011785556128e0565b828001600101855582156128e0579182015b828111156128e05782518255916020019190600101906128c5565b506128ec92915061296b565b5090565b8280546128fc906132ae565b90600052602060002090601f01602090048101928261291e57600085556128e0565b82601f1061292f57805485556128e0565b828001600101855582156128e057600052602060002091601f016020900482015b828111156128e0578254825591600101919060010190612950565b5b808211156128ec576000815560010161296c565b6000815180845260005b818110156129a65760208185018101518683018201520161298a565b818111156129b8576000602083870101525b50601f01601f19169290920160200192915050565b6020815260006129e06020830184612980565b9392505050565b80356001600160a01b03811681146129fe57600080fd5b919050565b60008060408385031215612a1657600080fd5b612a1f836129e7565b946020939093013593505050565b634e487b7160e01b600052604160045260246000fd5b604051610280810167ffffffffffffffff81118282101715612a6757612a67612a2d565b60405290565b604051610240810167ffffffffffffffff81118282101715612a6757612a67612a2d565b6040516080810167ffffffffffffffff81118282101715612a6757612a67612a2d565b604051601f8201601f1916810167ffffffffffffffff81118282101715612add57612add612a2d565b604052919050565b600082601f830112612af657600080fd5b813567ffffffffffffffff811115612b1057612b10612a2d565b612b23601f8201601f1916602001612ab4565b818152846020838601011115612b3857600080fd5b816020850160208301376000918101602001919091529392505050565b803580151581146129fe57600080fd5b600060208284031215612b7757600080fd5b813567ffffffffffffffff80821115612b8f57600080fd5b908301906102808286031215612ba457600080fd5b612bac612a43565b82358152602083013560208201526040830135604082015260608301356060820152608083013582811115612be057600080fd5b612bec87828601612ae5565b60808301525060a083013582811115612c0457600080fd5b612c1087828601612ae5565b60a08301525060c083013560c082015260e083013582811115612c3257600080fd5b612c3e87828601612ae5565b60e0830152506101008084013583811115612c5857600080fd5b612c6488828701612ae5565b8284015250506101208084013583811115612c7e57600080fd5b612c8a88828701612ae5565b91830191909152506101408381013590820152610160808401359082015261018080840135908201526101a080840135908201526101c08084013583811115612cd257600080fd5b612cde88828701612ae5565b8284015250506101e08084013583811115612cf857600080fd5b612d0488828701612ae5565b9183019190915250610200838101359082015261022080840135908201526102409150612d32828401612b55565b828201526102609150612d46828401612b55565b91810191909152949350505050565b600080600060608486031215612d6a57600080fd5b612d73846129e7565b9250612d81602085016129e7565b9150604084013590509250925092565b600060208284031215612da357600080fd5b5035919050565b60006020808301818452808551808352604092508286019150828160051b87010184880160005b83811015612e4257603f19898403018552815160808151855288820151818a870152612dff82870182612980565b838a01516001600160a01b0316878b0152606093840151878203948801949094529150612e2e90508183612980565b968901969450505090860190600101612dd1565b509098975050505050505050565b6020815281516020820152602082015160408201526040820151606082015260006060830151612e8b60808401826001600160a01b03169052565b5060808301516101208060a0850152612ea8610140850183612980565b915060a085015160c085015260c085015160e085015260e0850151610100818187015280870151838701525050508091505092915050565b600060208284031215612ef257600080fd5b813567ffffffffffffffff80821115612f0a57600080fd5b908301906102408286031215612f1f57600080fd5b612f27612a6d565b823581526020830135602082015260408301356040820152606083013582811115612f5157600080fd5b612f5d87828601612ae5565b606083015250608083013582811115612f7557600080fd5b612f8187828601612ae5565b60808301525060a083013582811115612f9957600080fd5b612fa587828601612ae5565b60a08301525060c083013582811115612fbd57600080fd5b612fc987828601612ae5565b60c08301525060e083013582811115612fe157600080fd5b612fed87828601612ae5565b60e0830152506101008381013590820152610120808401359082015261014080840135908201526101608084013590820152610180808401358381111561303357600080fd5b61303f88828701612ae5565b8284015250506101a0808401358381111561305957600080fd5b61306588828701612ae5565b91830191909152506101c083810135908201526101e0808401359082015261020080840135908201526102209150612d46828401612b55565b6000602082840312156130b057600080fd5b6129e0826129e7565b600080600080600060a086880312156130d157600080fd5b505083359560208501359550604085013594606081013594506080013592509050565b6000806040838503121561310757600080fd5b823567ffffffffffffffff8082111561311f57600080fd5b818501915085601f83011261313357600080fd5b813560208282111561314757613147612a2d565b8160051b9250613158818401612ab4565b828152928401810192818101908985111561317257600080fd5b948201945b8486101561319057853582529482019490820190613177565b9997909101359750505050505050565b6000602082840312156131b257600080fd5b813567ffffffffffffffff808211156131ca57600080fd5b90830190608082860312156131de57600080fd5b6131e6612a91565b823581526020830135828111156131fc57600080fd5b61320887828601612ae5565b60208301525061321a604084016129e7565b604082015260608301358281111561323157600080fd5b61323d87828601612ae5565b60608301525095945050505050565b6000806040838503121561325f57600080fd5b613268836129e7565b9150613276602084016129e7565b90509250929050565b634e487b7160e01b600052601160045260246000fd5b6000600182016132a7576132a761327f565b5060010190565b600181811c908216806132c257607f821691505b602082108103610da657634e487b7160e01b600052602260045260246000fd5b6000828210156132f4576132f461327f565b500390565b6000821982111561330c5761330c61327f565b500190565b634e487b7160e01b600052603260045260246000fd5b60008160001904831182151516156133415761334161327f565b500290565b60008261336357634e487b7160e01b600052601260045260246000fd5b50049056fea2646970667358221220cd1fae0408fd1df3a2e888669264ab7a619fe1eaeab731e01c74e0396f6f84a264736f6c634300080e0033",
  "immutableReferences": {},
  "source": "// SPDX-License-Identifier: MIT\r\npragma solidity ^0.8.0;\r\npragma abicoder v2;\r\n\r\nimport \"./DailyChallengeContract.sol\";\r\nimport \"./DonationContract.sol\";\r\ncontract DonationChallengeContract is DailyChallengeContract,DonationContract{\r\n\r\n    struct DonationChallenge {\r\n        // pk\r\n        uint challengeId;\r\n        //  fk\r\n        uint interestId;\r\n        //   fk\r\n        uint ownerId;\r\n        //  fk\r\n        uint donationId;\r\n        string name;\r\n        string desc;\r\n        \r\n        //  \r\n        uint setDonation;\r\n        //   \r\n        string mainPicURL;\r\n        string goodPicURL;\r\n        string badPicURL;\r\n        //  \r\n        uint authTotalTimes;\r\n        uint authDayTimes;\r\n        // \r\n        uint startTime;\r\n        uint endTime;\r\n        //  \r\n        string startDate;\r\n        string endDate;\r\n        //   (  int(-1)    )\r\n        uint personnel;\r\n        uint256 totalDonation;\r\n\r\n        //   \r\n        bool complete;\r\n\r\n        bool success;\r\n    }\r\n    mapping(uint => DonationChallenge) donationChallengeMap;\r\n    DonationChallenge[] donationChallenges;\r\n\r\n    function createDonationChallenge(DonationChallenge memory donationChallenge) public payable\r\n    {\r\n        donationChallenge.challengeId=challengeSequence;\r\n        donationChallenge.setDonation=msg.value;\r\n        donationChallenge.totalDonation=msg.value;\r\n        donationChallengeMap[challengeSequence++]=donationChallenge ;\r\n\r\n        /*     */\r\n        //  \r\n        Challenger storage challenger=challengerMap[challengerSequence];\r\n        challenger.id=challengerSequence;\r\n        challenger.userId=donationChallenge.ownerId;\r\n        challenger.challengeId=donationChallenge.challengeId;\r\n        challenger.userAddress=msg.sender;\r\n        challenger.today=donationChallenge.startDate;\r\n        challenger.userDeposit=msg.value;\r\n\r\n        //    \r\n        findByUserIdChallenger[donationChallenge.ownerId].push(challenger);\r\n        findByChallengeIdChallenger[donationChallenge.challengeId].push(challenger);\r\n        challengerSequence++;\r\n    }\r\n\r\n    //  \r\n    function endDonationChallenge(uint challengeId) public payable{\r\n        DonationChallenge storage challenge=donationChallengeMap[challengeId];\r\n        Challenger[] memory challengers=findByChallengeIdChallenger[challengeId];\r\n        challenge.complete=true;\r\n        uint count=0;\r\n        for(uint i=0;i<challengers.length;i++){\r\n            uint rate=(challengers[i].totalCount*100)/challenge.authTotalTimes;\r\n            if(rate>=80) count++;\r\n        }\r\n        if((count*100)/challengers.length>=80){\r\n            Donation memory donation =donationMap[challenge.donationId];\r\n            challenge.success=true;\r\n            for(uint i=0;i<challengers.length;i++){\r\n                challengers[i].userDeposit=0;\r\n            }\r\n        \r\n            address donationAddress=donation.donationAddress;\r\n            payable(donationAddress).transfer(challenge.totalDonation);\r\n        }\r\n\r\n    }\r\n}",
  "sourcePath": "c:\\Users\\multicampus\\Desktop\\ssafy\\S07P22B106\\truffle\\contracts\\DonationChallengeContract.sol",
  "compiler": {
    "name": "solc",
    "version": "0.8.14+commit.80d49f37.Emscripten.clang"
  },
  "schemaVersion": "3.4.10",
  "updatedAt": "2022-09-30T07:13:34.968Z",
  "devdoc": {
    "kind": "dev",
    "methods": {},
    "version": 1
  },
  "userdoc": {
    "kind": "user",
    "methods": {},
    "version": 1
  }
}