{
  "contractName": "DonationChallengeContract",
  "abi": [
    {
      "anonymous": false,
      "inputs": [
        {
          "indexed": true,
          "internalType": "address",
          "name": "owner",
          "type": "address"
        },
        {
          "indexed": true,
          "internalType": "address",
          "name": "spender",
          "type": "address"
        },
        {
          "indexed": false,
          "internalType": "uint256",
          "name": "value",
          "type": "uint256"
        }
      ],
      "name": "Approval",
      "type": "event"
    },
    {
      "anonymous": false,
      "inputs": [
        {
          "indexed": true,
          "internalType": "address",
          "name": "from",
          "type": "address"
        },
        {
          "indexed": true,
          "internalType": "address",
          "name": "to",
          "type": "address"
        },
        {
          "indexed": false,
          "internalType": "uint256",
          "name": "value",
          "type": "uint256"
        }
      ],
      "name": "Transfer",
      "type": "event"
    },
    {
      "anonymous": false,
      "inputs": [
        {
          "indexed": false,
          "internalType": "uint256",
          "name": "challengeId",
          "type": "uint256"
        }
      ],
      "name": "returnChallengeId",
      "type": "event"
    },
    {
      "inputs": [
        {
          "components": [
            {
              "internalType": "uint256",
              "name": "id",
              "type": "uint256"
            },
            {
              "internalType": "string",
              "name": "name",
              "type": "string"
            },
            {
              "internalType": "address",
              "name": "donationAddress",
              "type": "address"
            },
            {
              "internalType": "string",
              "name": "donationURL",
              "type": "string"
            }
          ],
          "internalType": "struct DonationContract.Donation",
          "name": "donation",
          "type": "tuple"
        }
      ],
      "name": "addDonation",
      "outputs": [],
      "stateMutability": "nonpayable",
      "type": "function"
    },
    {
      "inputs": [
        {
          "internalType": "address",
          "name": "owner",
          "type": "address"
        },
        {
          "internalType": "address",
          "name": "delegate",
          "type": "address"
        }
      ],
      "name": "allowance",
      "outputs": [
        {
          "internalType": "uint256",
          "name": "",
          "type": "uint256"
        }
      ],
      "stateMutability": "view",
      "type": "function"
    },
    {
      "inputs": [
        {
          "internalType": "uint256",
          "name": "challengeId",
          "type": "uint256"
        },
        {
          "internalType": "uint256",
          "name": "userId",
          "type": "uint256"
        },
        {
          "internalType": "uint256",
          "name": "challengerId",
          "type": "uint256"
        },
        {
          "internalType": "uint256",
          "name": "userIdIndex",
          "type": "uint256"
        },
        {
          "internalType": "uint256",
          "name": "challengeIdIndex",
          "type": "uint256"
        }
      ],
      "name": "applyVoteResult",
      "outputs": [],
      "stateMutability": "nonpayable",
      "type": "function"
    },
    {
      "inputs": [
        {
          "internalType": "address",
          "name": "delegate",
          "type": "address"
        },
        {
          "internalType": "uint256",
          "name": "numTokens",
          "type": "uint256"
        }
      ],
      "name": "approve",
      "outputs": [
        {
          "internalType": "bool",
          "name": "",
          "type": "bool"
        }
      ],
      "stateMutability": "nonpayable",
      "type": "function"
    },
    {
      "inputs": [
        {
          "internalType": "address",
          "name": "tokenOwner",
          "type": "address"
        }
      ],
      "name": "balanceOf",
      "outputs": [
        {
          "internalType": "uint256",
          "name": "",
          "type": "uint256"
        }
      ],
      "stateMutability": "view",
      "type": "function"
    },
    {
      "inputs": [
        {
          "components": [
            {
              "internalType": "uint256",
              "name": "challengeId",
              "type": "uint256"
            },
            {
              "internalType": "uint256",
              "name": "interestId",
              "type": "uint256"
            },
            {
              "internalType": "uint256",
              "name": "ownerId",
              "type": "uint256"
            },
            {
              "internalType": "string",
              "name": "name",
              "type": "string"
            },
            {
              "internalType": "string",
              "name": "desc",
              "type": "string"
            },
            {
              "internalType": "string",
              "name": "mainPicURL",
              "type": "string"
            },
            {
              "internalType": "string",
              "name": "goodPicURL",
              "type": "string"
            },
            {
              "internalType": "string",
              "name": "badPicURL",
              "type": "string"
            },
            {
              "internalType": "uint256",
              "name": "authTotalTimes",
              "type": "uint256"
            },
            {
              "internalType": "uint256",
              "name": "authWeekTimes",
              "type": "uint256"
            },
            {
              "internalType": "uint256",
              "name": "authDayTimes",
              "type": "uint256"
            },
            {
              "internalType": "int256",
              "name": "startTime",
              "type": "int256"
            },
            {
              "internalType": "int256",
              "name": "endTime",
              "type": "int256"
            },
            {
              "internalType": "string",
              "name": "startDate",
              "type": "string"
            },
            {
              "internalType": "string",
              "name": "endDate",
              "type": "string"
            },
            {
              "internalType": "uint256",
              "name": "personnel",
              "type": "uint256"
            },
            {
              "internalType": "uint256",
              "name": "deposit",
              "type": "uint256"
            },
            {
              "internalType": "uint256",
              "name": "totalDeposit",
              "type": "uint256"
            },
            {
              "internalType": "bool",
              "name": "complete",
              "type": "bool"
            }
          ],
          "internalType": "struct DailyChallengeContract.DailyChallenge",
          "name": "dailyChallenge",
          "type": "tuple"
        }
      ],
      "name": "createDailyChallenge",
      "outputs": [],
      "stateMutability": "payable",
      "type": "function"
    },
    {
      "inputs": [],
      "name": "decimals",
      "outputs": [
        {
          "internalType": "uint8",
          "name": "",
          "type": "uint8"
        }
      ],
      "stateMutability": "view",
      "type": "function"
    },
    {
      "inputs": [
        {
          "internalType": "uint256",
          "name": "challengeId",
          "type": "uint256"
        }
      ],
      "name": "endDailyChallenge",
      "outputs": [],
      "stateMutability": "nonpayable",
      "type": "function"
    },
    {
      "inputs": [
        {
          "internalType": "uint256",
          "name": "challengerId",
          "type": "uint256"
        }
      ],
      "name": "findByChallengerId",
      "outputs": [
        {
          "components": [
            {
              "internalType": "uint256",
              "name": "id",
              "type": "uint256"
            },
            {
              "internalType": "uint256",
              "name": "userId",
              "type": "uint256"
            },
            {
              "internalType": "uint256",
              "name": "challengeId",
              "type": "uint256"
            },
            {
              "internalType": "address",
              "name": "userAddress",
              "type": "address"
            },
            {
              "internalType": "uint256",
              "name": "today",
              "type": "uint256"
            },
            {
              "internalType": "uint256",
              "name": "totalCount",
              "type": "uint256"
            },
            {
              "internalType": "uint256",
              "name": "weekCount",
              "type": "uint256"
            },
            {
              "internalType": "uint256",
              "name": "dailyCount",
              "type": "uint256"
            },
            {
              "internalType": "uint256",
              "name": "userDeposit",
              "type": "uint256"
            },
            {
              "internalType": "uint256",
              "name": "reward",
              "type": "uint256"
            },
            {
              "internalType": "bool",
              "name": "receiveRefund",
              "type": "bool"
            }
          ],
          "internalType": "struct ChallengerContract.Challenger",
          "name": "",
          "type": "tuple"
        }
      ],
      "stateMutability": "view",
      "type": "function"
    },
    {
      "inputs": [],
      "name": "getAllDonation",
      "outputs": [
        {
          "components": [
            {
              "internalType": "uint256",
              "name": "id",
              "type": "uint256"
            },
            {
              "internalType": "string",
              "name": "name",
              "type": "string"
            },
            {
              "internalType": "address",
              "name": "donationAddress",
              "type": "address"
            },
            {
              "internalType": "string",
              "name": "donationURL",
              "type": "string"
            }
          ],
          "internalType": "struct DonationContract.Donation[]",
          "name": "",
          "type": "tuple[]"
        }
      ],
      "stateMutability": "view",
      "type": "function"
    },
    {
      "inputs": [],
      "name": "name",
      "outputs": [
        {
          "internalType": "string",
          "name": "",
          "type": "string"
        }
      ],
      "stateMutability": "view",
      "type": "function"
    },
    {
      "inputs": [
        {
          "internalType": "uint256[]",
          "name": "userIdList",
          "type": "uint256[]"
        },
        {
          "internalType": "uint256",
          "name": "challengeId",
          "type": "uint256"
        }
      ],
      "name": "receivePasscoin",
      "outputs": [],
      "stateMutability": "nonpayable",
      "type": "function"
    },
    {
      "inputs": [
        {
          "internalType": "uint256",
          "name": "challengeId",
          "type": "uint256"
        },
        {
          "internalType": "uint256",
          "name": "userId",
          "type": "uint256"
        },
        {
          "internalType": "uint256",
          "name": "challengerId",
          "type": "uint256"
        },
        {
          "internalType": "uint256",
          "name": "userIdIndex",
          "type": "uint256"
        },
        {
          "internalType": "uint256",
          "name": "challengeIdIndex",
          "type": "uint256"
        }
      ],
      "name": "refund",
      "outputs": [],
      "stateMutability": "payable",
      "type": "function"
    },
    {
      "inputs": [],
      "name": "symbol",
      "outputs": [
        {
          "internalType": "string",
          "name": "",
          "type": "string"
        }
      ],
      "stateMutability": "view",
      "type": "function"
    },
    {
      "inputs": [],
      "name": "totalSupply",
      "outputs": [
        {
          "internalType": "uint256",
          "name": "",
          "type": "uint256"
        }
      ],
      "stateMutability": "view",
      "type": "function"
    },
    {
      "inputs": [
        {
          "internalType": "address",
          "name": "receiver",
          "type": "address"
        },
        {
          "internalType": "uint256",
          "name": "numTokens",
          "type": "uint256"
        }
      ],
      "name": "transfer",
      "outputs": [
        {
          "internalType": "bool",
          "name": "",
          "type": "bool"
        }
      ],
      "stateMutability": "nonpayable",
      "type": "function"
    },
    {
      "inputs": [
        {
          "internalType": "address",
          "name": "owner",
          "type": "address"
        },
        {
          "internalType": "address",
          "name": "buyer",
          "type": "address"
        },
        {
          "internalType": "uint256",
          "name": "numTokens",
          "type": "uint256"
        }
      ],
      "name": "transferFrom",
      "outputs": [
        {
          "internalType": "bool",
          "name": "",
          "type": "bool"
        }
      ],
      "stateMutability": "nonpayable",
      "type": "function"
    },
    {
      "inputs": [
        {
          "internalType": "address",
          "name": "user",
          "type": "address"
        },
        {
          "internalType": "uint256",
          "name": "numTokens",
          "type": "uint256"
        }
      ],
      "name": "useCoin",
      "outputs": [],
      "stateMutability": "nonpayable",
      "type": "function"
    },
    {
      "inputs": [
        {
          "internalType": "uint256",
          "name": "challengeId",
          "type": "uint256"
        },
        {
          "internalType": "uint256",
          "name": "userId",
          "type": "uint256"
        },
        {
          "internalType": "uint256",
          "name": "challengerId",
          "type": "uint256"
        },
        {
          "internalType": "uint256",
          "name": "userIdIndex",
          "type": "uint256"
        },
        {
          "internalType": "uint256",
          "name": "challengeIdIndex",
          "type": "uint256"
        }
      ],
      "name": "usePasscoin",
      "outputs": [],
      "stateMutability": "nonpayable",
      "type": "function"
    },
    {
      "inputs": [
        {
          "components": [
            {
              "internalType": "uint256",
              "name": "challengeId",
              "type": "uint256"
            },
            {
              "internalType": "uint256",
              "name": "interestId",
              "type": "uint256"
            },
            {
              "internalType": "uint256",
              "name": "ownerId",
              "type": "uint256"
            },
            {
              "internalType": "uint256",
              "name": "donationId",
              "type": "uint256"
            },
            {
              "internalType": "string",
              "name": "name",
              "type": "string"
            },
            {
              "internalType": "string",
              "name": "desc",
              "type": "string"
            },
            {
              "internalType": "uint256",
              "name": "setDonation",
              "type": "uint256"
            },
            {
              "internalType": "string",
              "name": "mainPicURL",
              "type": "string"
            },
            {
              "internalType": "string",
              "name": "goodPicURL",
              "type": "string"
            },
            {
              "internalType": "string",
              "name": "badPicURL",
              "type": "string"
            },
            {
              "internalType": "uint256",
              "name": "authTotalTimes",
              "type": "uint256"
            },
            {
              "internalType": "uint256",
              "name": "authWeekTimes",
              "type": "uint256"
            },
            {
              "internalType": "uint256",
              "name": "authDayTimes",
              "type": "uint256"
            },
            {
              "internalType": "uint256",
              "name": "startTime",
              "type": "uint256"
            },
            {
              "internalType": "uint256",
              "name": "endTime",
              "type": "uint256"
            },
            {
              "internalType": "string",
              "name": "startDate",
              "type": "string"
            },
            {
              "internalType": "string",
              "name": "endDate",
              "type": "string"
            },
            {
              "internalType": "uint256",
              "name": "personnel",
              "type": "uint256"
            },
            {
              "internalType": "uint256",
              "name": "totalDonation",
              "type": "uint256"
            },
            {
              "internalType": "bool",
              "name": "complete",
              "type": "bool"
            },
            {
              "internalType": "bool",
              "name": "success",
              "type": "bool"
            }
          ],
          "internalType": "struct DonationChallengeContract.DonationChallenge",
          "name": "donationChallenge",
          "type": "tuple"
        }
      ],
      "name": "createDonationChallenge",
      "outputs": [],
      "stateMutability": "payable",
      "type": "function"
    },
    {
      "inputs": [
        {
          "internalType": "uint256",
          "name": "challengeId",
          "type": "uint256"
        }
      ],
      "name": "endDonationChallenge",
      "outputs": [],
      "stateMutability": "payable",
      "type": "function"
    }
  ],
  "bytecode": "0x60806040526305f5e100600255600160035560016007556001600a5534801561002757600080fd5b506002543360009081526020819052604090205561348a8061004a6000396000f3fe60806040526004361061012a5760003560e01c806370a08231116100ab578063b098d41a1161006f578063b098d41a1461036c578063c78a57b91461037f578063d60cdc291461039f578063dd62ed3e146103bf578063f5a8024514610405578063fb81a8a91461042557600080fd5b806370a08231146102a6578063740c162a146102dc57806385d0dd60146102fc57806395d89b411461031c578063a9059cbb1461034c57600080fd5b806323b872dd116100f257806323b872dd146101f0578063313ce567146102105780633f7118511461023757806352e9a1a0146102575780635b77573b1461027957600080fd5b80630303f2e01461012f57806306fdde0314610144578063095ea7b31461018e57806318160ddd146101be5780631d41860d146101dd575b600080fd5b61014261013d366004612a4e565b610438565b005b34801561015057600080fd5b50610178604051806040016040528060088152602001672830b9b9a1b7b4b760c11b81525081565b6040516101859190612ad6565b60405180910390f35b34801561019a57600080fd5b506101ae6101a9366004612b0c565b61078b565b6040519015158152602001610185565b3480156101ca57600080fd5b506002545b604051908152602001610185565b6101426101eb366004612c6e565b6107f7565b3480156101fc57600080fd5b506101ae61020b366004612e46565b610c5f565b34801561021c57600080fd5b50610225600081565b60405160ff9091168152602001610185565b34801561024357600080fd5b50610142610252366004612b0c565b610daa565b34801561026357600080fd5b5061026c610e2e565b6040516101859190612e82565b34801561028557600080fd5b50610299610294366004612f28565b61107d565b6040516101859190612f41565b3480156102b257600080fd5b506101cf6102c1366004612fd9565b6001600160a01b031660009081526020819052604090205490565b3480156102e857600080fd5b506101426102f7366004612a4e565b611181565b34801561030857600080fd5b50610142610317366004612ff4565b6114a3565b34801561032857600080fd5b50610178604051806040016040528060048152602001635041535360e01b81525081565b34801561035857600080fd5b506101ae610367366004612b0c565b611639565b61014261037a366004612f28565b6116eb565b34801561038b57600080fd5b5061014261039a366004612f28565b611a7e565b3480156103ab57600080fd5b506101426103ba3660046130a0565b612411565b3480156103cb57600080fd5b506101cf6103da36600461314c565b6001600160a01b03918216600090815260016020908152604080832093909416825291909152205490565b34801561041157600080fd5b50610142610420366004612a4e565b61249f565b61014261043336600461317f565b6127cd565b6000838152600460208181526040808420815161016081018352815481526001808301548286015260028301548285015260038301546001600160a01b0316606083015294820154608082015260058083015460a0830152600683015460c0830152600783015460e083015260088301546101008301526009909201546101208201526101408101949094528885529091529091208054829190859081106104e2576104e261336b565b600091825260208083208451600b9390930201918255838101516001830155604080850151600284015560608501516003840180546001600160a01b0319166001600160a01b039092169190911790556080850151600484015560a0850151600584015560c085015160068085019190915560e086015160078501556101008601516008850155610120860151600985015561014090950151600a909301805460ff19169315159390931790925589835292909252208054829190849081106105ad576105ad61336b565b90600052602060002090600b020160008201518160000155602082015181600101556040820151816002015560608201518160030160006101000a8154816001600160a01b0302191690836001600160a01b031602179055506080820151816004015560a0820151816005015560c0820151816006015560e082015181600701556101008201518160080155610120820151816009015561014082015181600a0160006101000a81548160ff02191690831515021790555090505080600460008360000151815260200190815260200160002060008201518160000155602082015181600101556040820151816002015560608201518160030160006101000a8154816001600160a01b0302191690836001600160a01b031602179055506080820151816004015560a0820151816005015560c0820151816006015560e082015181600701556101008201518160080155610120820151816009015561014082015181600a0160006101000a81548160ff021916908315150217905550905050600081606001519050806001600160a01b03166108fc8361012001518461010001516107599190613397565b6040518115909202916000818181858888f19350505050158015610781573d6000803e3d6000fd5b5050505050505050565b3360008181526001602090815260408083206001600160a01b038716808552925280832085905551919290917f8c5be1e5ebec7d5bd14f71427d1e84f3dd0314c0f7b2291e5b200ac8c7c3b925906107e69086815260200190565b60405180910390a350600192915050565b6007805480835234610200840181905261022084015282916008916000918261081f836133af565b919050558152602001908152602001600020600082015181600001556020820151816001015560408201518160020155606082015181600301908051906020019061086b9291906129b5565b50608082015180516108879160048401916020909101906129b5565b5060a082015180516108a39160058401916020909101906129b5565b5060c082015180516108bf9160068401916020909101906129b5565b5060e082015180516108db9160078401916020909101906129b5565b5061010082015160088201556101208201516009820155610140820151600a820155610160820151600b820155610180820151600c8201556101a0820151805161092f91600d8401916020909101906129b5565b506101c0820151805161094c91600e8401916020909101906129b5565b506101e0820151600f82015561020082015160108201556102208201516011820155610240909101516012909101805460ff191691151591909117905580516040519081527f76fbc58aaedcbb39f7190db541de17575eeaaf17cf3facf5bd11ad55ca479ed1906020015b60405180910390a16000600460006003548152602001908152602001600020905060035481600001819055508160400151816001018190555081600001518160020181905550338160030160006101000a8154816001600160a01b0302191690836001600160a01b0316021790555034816008018190555060056000836040015181526020019081526020016000208190806001815401808255809150506001900390600052602060002090600b02016000909190919091506000820154816000015560018201548160010155600282015481600201556003820160009054906101000a90046001600160a01b03168160030160006101000a8154816001600160a01b0302191690836001600160a01b03160217905550600482015481600401556005820154816005015560068201548160060155600782015481600701556008820154816008015560098201548160090155600a820160009054906101000a900460ff1681600a0160006101000a81548160ff021916908315150217905550505060066000836000015181526020019081526020016000208190806001815401808255809150506001900390600052602060002090600b02016000909190919091506000820154816000015560018201548160010155600282015481600201556003820160009054906101000a90046001600160a01b03168160030160006101000a8154816001600160a01b0302191690836001600160a01b03160217905550600482015481600401556005820154816005015560068201548160060155600782015481600701556008820154816008015560098201548160090155600a820160009054906101000a900460ff1681600a0160006101000a81548160ff021916908315150217905550505060036000815480929190610c56906133af565b91905055505050565b6001600160a01b038316600090815260208190526040812054821115610c8457600080fd5b6001600160a01b0384166000908152600160209081526040808320338452909152902054821115610cb457600080fd5b6001600160a01b038416600090815260208190526040902054610cd89083906133c8565b6001600160a01b038516600090815260208181526040808320939093556001815282822033835290522054610d0e9083906133c8565b6001600160a01b0380861660009081526001602090815260408083203384528252808320949094559186168152908190522054610d4c908390613397565b6001600160a01b038481166000818152602081815260409182902094909455518581529092918716917fddf252ad1be2c89b69c2b068fc378daa952ba7f163c4a11628f55a4df523b3ef910160405180910390a35060019392505050565b33600090815260208190526040902054811115610dc657600080fd5b33600090815260208190526040902054610de1908290613397565b33600090815260208190526040808220929092556001600160a01b03841681522054610e0e9082906133c8565b6001600160a01b0390921660009081526020819052604090209190915550565b606060006001600a54610e4191906133c8565b67ffffffffffffffff811115610e5957610e59612b36565b604051908082528060200260200182016040528015610ebe57816020015b610eab6040518060800160405280600081526020016060815260200160006001600160a01b03168152602001606081525090565b815260200190600190039081610e775790505b50905060005b6001600a54610ed391906133c8565b81101561107757600b6000610ee9836001613397565b815260200190815260200160002060405180608001604052908160008201548152602001600182018054610f1c906133df565b80601f0160208091040260200160405190810160405280929190818152602001828054610f48906133df565b8015610f955780601f10610f6a57610100808354040283529160200191610f95565b820191906000526020600020905b815481529060010190602001808311610f7857829003601f168201915b505050918352505060028201546001600160a01b03166020820152600382018054604090920191610fc5906133df565b80601f0160208091040260200160405190810160405280929190818152602001828054610ff1906133df565b801561103e5780601f106110135761010080835404028352916020019161103e565b820191906000526020600020905b81548152906001019060200180831161102157829003601f168201915b5050505050815250508282815181106110595761105961336b565b6020026020010181905250808061106f906133af565b915050610ec4565b50919050565b6110e560405180610160016040528060008152602001600081526020016000815260200160006001600160a01b031681526020016000815260200160008152602001600081526020016000815260200160008152602001600081526020016000151581525090565b506000908152600460208181526040928390208351610160810185528154815260018201549281019290925260028101549382019390935260038301546001600160a01b03166060820152908201546080820152600582015460a0820152600682015460c0820152600782015460e082015260088201546101008201526009820154610120820152600a9091015460ff16151561014082015290565b600083815260046020818152604092839020835161016081018552815481526001808301549382019390935260028201549481019490945260038101546001600160a01b03166060850152918201546080840152600582015460a08401818152600684015460c0860152600784015460e086015260088401546101008601526009840154610120860152600a9093015460ff16151561014085015290919061122a9083906133c8565b90525060008581526005602052604090208054829190859081106112505761125061336b565b600091825260208083208451600b9390930201918255838101516001830155604080850151600284015560608501516003840180546001600160a01b0319166001600160a01b039092169190911790556080850151600484015560a0850151600584015560c085015160068085019190915560e086015160078501556101008601516008850155610120860151600985015561014090950151600a909301805460ff191693151593909317909255898352929092522080548291908490811061131b5761131b61336b565b90600052602060002090600b020160008201518160000155602082015181600101556040820151816002015560608201518160030160006101000a8154816001600160a01b0302191690836001600160a01b031602179055506080820151816004015560a0820151816005015560c0820151816006015560e082015181600701556101008201518160080155610120820151816009015561014082015181600a0160006101000a81548160ff02191690831515021790555090505080600460008360000151815260200190815260200160002060008201518160000155602082015181600101556040820151816002015560608201518160030160006101000a8154816001600160a01b0302191690836001600160a01b031602179055506080820151816004015560a0820151816005015560c0820151816006015560e082015181600701556101008201518160080155610120820151816009015561014082015181600a0160006101000a81548160ff021916908315150217905550905050505050505050565b60005b8251811015611634576000600560008584815181106114c7576114c761336b565b60200260200101518152602001908152602001600020805480602002602001604051908101604052809291908181526020016000905b828210156115a95760008481526020908190206040805161016081018252600b8602909201805483526001808201548486015260028201549284019290925260038101546001600160a01b0316606084015260048101546080840152600581015460a0840152600681015460c0840152600781015460e084015260088101546101008401526009810154610120840152600a015460ff16151561014083015290835290920191016114fd565b50505050905060005b815181101561161f57838282815181106115ce576115ce61336b565b6020026020010151604001510361160d576116078282815181106115f4576115f461336b565b6020026020010151606001516001611639565b5061161f565b80611617816133af565b9150506115b2565b5050808061162c906133af565b9150506114a6565b505050565b3360009081526020819052604081205482111561165557600080fd5b336000908152602081905260409020546116709083906133c8565b33600090815260208190526040808220929092556001600160a01b0385168152205461169d908390613397565b6001600160a01b038416600081815260208181526040918290209390935551848152909133917fddf252ad1be2c89b69c2b068fc378daa952ba7f163c4a11628f55a4df523b3ef91016107e6565b6000818152600c60209081526040808320600683528184208054835181860281018601909452808452919493909190849084015b828210156117cb5760008481526020908190206040805161016081018252600b8602909201805483526001808201548486015260028201549284019290925260038101546001600160a01b0316606084015260048101546080840152600581015460a0840152600681015460c0840152600781015460e084015260088101546101008401526009810154610120840152600a015460ff161515610140830152908352909201910161171f565b50505060138401805460ff191660011790555090506000805b825181101561185357600084600a01548483815181106118065761180661336b565b602002602001015160a00151606461181e9190613413565b6118289190613432565b905060508110611840578261183c816133af565b9350505b508061184b816133af565b9150506117e4565b508151605090611864836064613413565b61186e9190613432565b10611a78576000600b600085600301548152602001908152602001600020604051806080016040529081600082015481526020016001820180546118b1906133df565b80601f01602080910402602001604051908101604052809291908181526020018280546118dd906133df565b801561192a5780601f106118ff5761010080835404028352916020019161192a565b820191906000526020600020905b81548152906001019060200180831161190d57829003601f168201915b505050918352505060028201546001600160a01b0316602082015260038201805460409092019161195a906133df565b80601f0160208091040260200160405190810160405280929190818152602001828054611986906133df565b80156119d35780601f106119a8576101008083540402835291602001916119d3565b820191906000526020600020905b8154815290600101906020018083116119b657829003601f168201915b5050509190925250505060138501805461ff001916610100179055905060005b8351811015611a32576000848281518110611a1057611a1061336b565b6020908102919091010151610100015280611a2a816133af565b9150506119f3565b506040808201516012860154915190916001600160a01b0383169181156108fc0291906000818181858888f19350505050158015611a74573d6000803e3d6000fd5b5050505b50505050565b6000818152600860209081526040808320600683528184208054835181860281018601909452808452919493909190849084015b82821015611b5e5760008481526020908190206040805161016081018252600b8602909201805483526001808201548486015260028201549284019290925260038101546001600160a01b0316606084015260048101546080840152600581015460a0840152600681015460c0840152600781015460e084015260088101546101008401526009810154610120840152600a015460ff1615156101408301529083529092019101611ab2565b50505060128401805460ff19166001179055509050600080805b83518110156120555760008560080154858381518110611b9a57611b9a61336b565b602002602001015160a001516064611bb29190613413565b611bbc9190613432565b9050848281518110611bd057611bd061336b565b602002602001015160a00151866008015403611bf85782611bf0816133af565b935050611cfe565b60508110611c2a576000858381518110611c1457611c1461336b565b6020026020010151610120018181525050611cfe565b60288110611cc7576064818760100154611c449190613413565b611c4e9190613432565b858381518110611c6057611c6061336b565b60200260200101516101000151611c7791906133c8565b611c819085613397565b93506064818760100154611c959190613413565b611c9f9190613432565b858381518110611cb157611cb161336b565b6020026020010151610100018181525050611cfe565b6010860154611cd69085613397565b93506000858381518110611cec57611cec61336b565b60200260200101516101000181815250505b848281518110611d1057611d1061336b565b6020026020010151600660008981526020019081526020016000208381548110611d3c57611d3c61336b565b60009182526020918290208351600b92909202019081559082015160018201556040820151600282015560608201516003820180546001600160a01b0319166001600160a01b039092169190911790556080820151600482015560a0820151600582015560c0820151600682015560e082015160078201556101008201516008820155610120820151600982015561014090910151600a909101805460ff19169115159190911790558451859083908110611df957611df961336b565b602002602001015160046000878581518110611e1757611e1761336b565b60209081029190910181015151825281810192909252604090810160009081208451815592840151600184015590830151600283015560608301516003830180546001600160a01b0319166001600160a01b039092169190911790556080830151600483015560a0830151600583015560c0830151600683015560e083015160078301556101008301516008830155610120830151600983015561014090920151600a909101805460ff19169115159190911790558551869084908110611ee057611ee061336b565b602002602001015160200151905060005b60008281526005602052604090205481101561203f57600082815260056020526040902080548a919083908110611f2a57611f2a61336b565b90600052602060002090600b0201600201540361202d57868481518110611f5357611f5361336b565b6020026020010151600560008481526020019081526020016000208281548110611f7f57611f7f61336b565b60009182526020918290208351600b92909202019081559082015160018201556040820151600282015560608201516003820180546001600160a01b0319166001600160a01b039092169190911790556080820151600482015560a0820151600582015560c0820151600682015560e082015160078201556101008201516008820155610120820151600982015561014090910151600a909101805460ff191691151591909117905561203f565b80612037816133af565b915050611ef1565b505050808061204d906133af565b915050611b78565b5060005b8351811015612409578381815181106120745761207461336b565b602002602001015160a001518560080154036123f7576120948284613432565b8482815181106120a6576120a661336b565b60200260200101516101200181815250508381815181106120c9576120c961336b565b60200260200101516006600088815260200190815260200160002082815481106120f5576120f561336b565b60009182526020918290208351600b92909202019081559082015160018201556040820151600282015560608201516003820180546001600160a01b0319166001600160a01b039092169190911790556080820151600482015560a0820151600582015560c0820151600682015560e082015160078201556101008201516008820155610120820151600982015561014090910151600a909101805460ff191691151591909117905583518490829081106121b2576121b261336b565b6020026020010151600460008684815181106121d0576121d061336b565b60209081029190910181015151825281810192909252604090810160009081208451815592840151600184015590830151600283015560608301516003830180546001600160a01b0319166001600160a01b039092169190911790556080830151600483015560a0830151600583015560c0830151600683015560e083015160078301556101008301516008830155610120830151600983015561014090920151600a909101805460ff191691151591909117905584518590839081106122995761229961336b565b602002602001015160200151905060005b6000828152600560205260409020548110156123f45760008281526005602052604090208054899190839081106122e3576122e361336b565b90600052602060002090600b020160020154036123e25785838151811061230c5761230c61336b565b60200260200101516005600084815260200190815260200160002082815481106123385761233861336b565b60009182526020918290208351600b92909202019081559082015160018201556040820151600282015560608201516003820180546001600160a01b0319166001600160a01b039092169190911790556080820151600482015560a0820151600582015560c0820151600682015560e082015160078201556101008201516008820155610120820151600982015561014090910151600a909101805460ff19169115159190911790555b806123ec816133af565b9150506122aa565b50505b80612401816133af565b915050612059565b505050505050565b600a80548083528291600b916000918261242a836133af565b90915550815260208082019290925260400160002082518155828201518051919261245d926001850192909101906129b5565b5060408201516002820180546001600160a01b0319166001600160a01b0390921691909117905560608201518051611a789160038401916020909101906129b5565b600083815260046020818152604092839020835161016081018552815481526001808301549382019390935260028201549481019490945260038101546001600160a01b03166060850152918201546080840152600582015460a08401818152600684015460c0860152600784015460e086015260088401546101008601526009840154610120860152600a9093015460ff161515610140850152909190612548908390613397565b905250600085815260056020526040902080548291908590811061256e5761256e61336b565b600091825260208083208451600b9390930201918255838101516001830155604080850151600284015560608501516003840180546001600160a01b0319166001600160a01b039092169190911790556080850151600484015560a0850151600584015560c085015160068085019190915560e086015160078501556101008601516008850155610120860151600985015561014090950151600a909301805460ff19169315159390931790925589835292909252208054829190849081106126395761263961336b565b90600052602060002090600b020160008201518160000155602082015181600101556040820151816002015560608201518160030160006101000a8154816001600160a01b0302191690836001600160a01b031602179055506080820151816004015560a0820151816005015560c0820151816006015560e082015181600701556101008201518160080155610120820151816009015561014082015181600a0160006101000a81548160ff02191690831515021790555090505080600460008360000151815260200190815260200160002060008201518160000155602082015181600101556040820151816002015560608201518160030160006101000a8154816001600160a01b0302191690836001600160a01b031602179055506080820151816004015560a0820151816005015560c0820151816006015560e082015181600701556101008201518160080155610120820151816009015561014082015181600a0160006101000a81548160ff021916908315150217905550905050600081606001519050611a74816001610daa565b600780548083523460c084018190526102408401528291600c91600091826127f4836133af565b91905055815260200190815260200160002060008201518160000155602082015181600101556040820151816002015560608201518160030155608082015181600401908051906020019061284a9291906129b5565b5060a082015180516128669160058401916020909101906129b5565b5060c0820151600682015560e0820151805161288c9160078401916020909101906129b5565b5061010082015180516128a99160088401916020909101906129b5565b5061012082015180516128c69160098401916020909101906129b5565b50610140820151600a820155610160820151600b820155610180820151600c8201556101a0820151600d8201556101c0820151600e8201556101e0820151805161291a91600f8401916020909101906129b5565b5061020082015180516129379160108401916020909101906129b5565b5061022082015160118201556102408201516012820155610260820151601390910180546102809093015115156101000261ff00199215159290921661ffff199093169290921717905580516040517f76fbc58aaedcbb39f7190db541de17575eeaaf17cf3facf5bd11ad55ca479ed1916109b79190815260200190565b8280546129c1906133df565b90600052602060002090601f0160209004810192826129e35760008555612a29565b82601f106129fc57805160ff1916838001178555612a29565b82800160010185558215612a29579182015b82811115612a29578251825591602001919060010190612a0e565b50612a35929150612a39565b5090565b5b80821115612a355760008155600101612a3a565b600080600080600060a08688031215612a6657600080fd5b505083359560208501359550604085013594606081013594506080013592509050565b6000815180845260005b81811015612aaf57602081850181015186830182015201612a93565b81811115612ac1576000602083870101525b50601f01601f19169290920160200192915050565b602081526000612ae96020830184612a89565b9392505050565b80356001600160a01b0381168114612b0757600080fd5b919050565b60008060408385031215612b1f57600080fd5b612b2883612af0565b946020939093013593505050565b634e487b7160e01b600052604160045260246000fd5b604051610260810167ffffffffffffffff81118282101715612b7057612b70612b36565b60405290565b6040516080810167ffffffffffffffff81118282101715612b7057612b70612b36565b6040516102a0810167ffffffffffffffff81118282101715612b7057612b70612b36565b604051601f8201601f1916810167ffffffffffffffff81118282101715612be657612be6612b36565b604052919050565b600082601f830112612bff57600080fd5b813567ffffffffffffffff811115612c1957612c19612b36565b612c2c601f8201601f1916602001612bbd565b818152846020838601011115612c4157600080fd5b816020850160208301376000918101602001919091529392505050565b80358015158114612b0757600080fd5b600060208284031215612c8057600080fd5b813567ffffffffffffffff80821115612c9857600080fd5b908301906102608286031215612cad57600080fd5b612cb5612b4c565b823581526020830135602082015260408301356040820152606083013582811115612cdf57600080fd5b612ceb87828601612bee565b606083015250608083013582811115612d0357600080fd5b612d0f87828601612bee565b60808301525060a083013582811115612d2757600080fd5b612d3387828601612bee565b60a08301525060c083013582811115612d4b57600080fd5b612d5787828601612bee565b60c08301525060e083013582811115612d6f57600080fd5b612d7b87828601612bee565b60e083015250610100838101359082015261012080840135908201526101408084013590820152610160808401359082015261018080840135908201526101a08084013583811115612dcc57600080fd5b612dd888828701612bee565b8284015250506101c08084013583811115612df257600080fd5b612dfe88828701612bee565b91830191909152506101e08381013590820152610200808401359082015261022080840135908201526102409150612e37828401612c5e565b91810191909152949350505050565b600080600060608486031215612e5b57600080fd5b612e6484612af0565b9250612e7260208501612af0565b9150604084013590509250925092565b60006020808301818452808551808352604092508286019150828160051b87010184880160005b83811015612f1a57603f19898403018552815160808151855288820151818a870152612ed782870182612a89565b838a01516001600160a01b0316878b0152606093840151878203948801949094529150612f0690508183612a89565b968901969450505090860190600101612ea9565b509098975050505050505050565b600060208284031215612f3a57600080fd5b5035919050565b6000610160820190508251825260208301516020830152604083015160408301526060830151612f7c60608401826001600160a01b03169052565b506080830151608083015260a083015160a083015260c083015160c083015260e083015160e083015261010080840151818401525061012080840151818401525061014080840151612fd18285018215159052565b505092915050565b600060208284031215612feb57600080fd5b612ae982612af0565b6000806040838503121561300757600080fd5b823567ffffffffffffffff8082111561301f57600080fd5b818501915085601f83011261303357600080fd5b813560208282111561304757613047612b36565b8160051b9250613058818401612bbd565b828152928401810192818101908985111561307257600080fd5b948201945b8486101561309057853582529482019490820190613077565b9997909101359750505050505050565b6000602082840312156130b257600080fd5b813567ffffffffffffffff808211156130ca57600080fd5b90830190608082860312156130de57600080fd5b6130e6612b76565b823581526020830135828111156130fc57600080fd5b61310887828601612bee565b60208301525061311a60408401612af0565b604082015260608301358281111561313157600080fd5b61313d87828601612bee565b60608301525095945050505050565b6000806040838503121561315f57600080fd5b61316883612af0565b915061317660208401612af0565b90509250929050565b60006020828403121561319157600080fd5b813567ffffffffffffffff808211156131a957600080fd5b908301906102a082860312156131be57600080fd5b6131c6612b99565b823581526020830135602082015260408301356040820152606083013560608201526080830135828111156131fa57600080fd5b61320687828601612bee565b60808301525060a08301358281111561321e57600080fd5b61322a87828601612bee565b60a08301525060c083013560c082015260e08301358281111561324c57600080fd5b61325887828601612bee565b60e083015250610100808401358381111561327257600080fd5b61327e88828701612bee565b828401525050610120808401358381111561329857600080fd5b6132a488828701612bee565b91830191909152506101408381013590820152610160808401359082015261018080840135908201526101a080840135908201526101c080840135908201526101e080840135838111156132f757600080fd5b61330388828701612bee565b828401525050610200808401358381111561331d57600080fd5b61332988828701612bee565b9183019190915250610220838101359082015261024080840135908201526102609150613357828401612c5e565b828201526102809150612e37828401612c5e565b634e487b7160e01b600052603260045260246000fd5b634e487b7160e01b600052601160045260246000fd5b600082198211156133aa576133aa613381565b500190565b6000600182016133c1576133c1613381565b5060010190565b6000828210156133da576133da613381565b500390565b600181811c908216806133f357607f821691505b60208210810361107757634e487b7160e01b600052602260045260246000fd5b600081600019048311821515161561342d5761342d613381565b500290565b60008261344f57634e487b7160e01b600052601260045260246000fd5b50049056fea2646970667358221220f1bb8a1b81bdaa44b9734f9ad891e9d65f2c0ac327ad6e88a668634af5ba2b3164736f6c634300080e0033",
  "immutableReferences": {},
  "source": "// SPDX-License-Identifier: MIT\r\npragma solidity ^0.8.0;\r\npragma abicoder v2;\r\n\r\nimport \"./DailyChallengeContract.sol\";\r\nimport \"./DonationContract.sol\";\r\ncontract DonationChallengeContract is DailyChallengeContract,DonationContract{\r\n\r\n    struct DonationChallenge {\r\n        // pk\r\n        uint challengeId;\r\n        //  fk\r\n        uint interestId;\r\n        //   fk\r\n        uint ownerId;\r\n        //  fk\r\n        uint donationId;\r\n        string name;\r\n        string desc;\r\n        \r\n        //  \r\n        uint setDonation;\r\n        //   \r\n        string mainPicURL;\r\n        string goodPicURL;\r\n        string badPicURL;\r\n        //  \r\n        uint authTotalTimes;\r\n        uint authWeekTimes;\r\n        uint authDayTimes;\r\n        // \r\n        uint startTime;\r\n        uint endTime;\r\n        //  \r\n        string startDate;\r\n        string endDate;\r\n        //   (  int(-1)    )\r\n        uint personnel;\r\n        uint256 totalDonation;\r\n\r\n        //   \r\n        bool complete;\r\n\r\n        bool success;\r\n    }\r\n    mapping(uint => DonationChallenge) donationChallengeMap;\r\n    DonationChallenge[] donationChallenges;\r\n\r\n    function createDonationChallenge(DonationChallenge memory donationChallenge) public payable\r\n    {\r\n        donationChallenge.challengeId=challengeSequence;\r\n        donationChallenge.setDonation=msg.value;\r\n        donationChallenge.totalDonation=msg.value;\r\n        donationChallengeMap[challengeSequence++]=donationChallenge ;\r\n        emit returnChallengeId(donationChallenge.challengeId);\r\n        /*     */\r\n        //  \r\n        Challenger storage challenger=challengerMap[challengerSequence];\r\n        challenger.id=challengerSequence;\r\n        challenger.userId=donationChallenge.ownerId;\r\n        challenger.challengeId=donationChallenge.challengeId;\r\n        challenger.userAddress=msg.sender;\r\n        challenger.userDeposit=msg.value;\r\n\r\n        //    \r\n        findByUserIdChallenger[donationChallenge.ownerId].push(challenger);\r\n        findByChallengeIdChallenger[donationChallenge.challengeId].push(challenger);\r\n        challengerSequence++;\r\n    }\r\n\r\n    //  \r\n    function endDonationChallenge(uint challengeId) public payable{\r\n        DonationChallenge storage challenge=donationChallengeMap[challengeId];\r\n        Challenger[] memory challengers=findByChallengeIdChallenger[challengeId];\r\n        challenge.complete=true;\r\n        uint count=0;\r\n        for(uint i=0;i<challengers.length;i++){\r\n            uint rate=(challengers[i].totalCount*100)/challenge.authTotalTimes;\r\n            if(rate>=80) count++;\r\n        }\r\n        if((count*100)/challengers.length>=80){\r\n            Donation memory donation =donationMap[challenge.donationId];\r\n            challenge.success=true;\r\n            for(uint i=0;i<challengers.length;i++){\r\n                challengers[i].userDeposit=0;\r\n            }\r\n        \r\n            address donationAddress=donation.donationAddress;\r\n            payable(donationAddress).transfer(challenge.totalDonation);\r\n        }\r\n\r\n    }\r\n}",
  "sourcePath": "c:\\Users\\multicampus\\Desktop\\ssafy\\S07P22B106\\truffle\\contracts\\DonationChallengeContract.sol",
  "compiler": {
    "name": "solc",
    "version": "0.8.14+commit.80d49f37.Emscripten.clang"
  },
  "schemaVersion": "3.4.10",
  "updatedAt": "2022-10-02T10:44:42.614Z",
  "devdoc": {
    "kind": "dev",
    "methods": {},
    "version": 1
  },
  "userdoc": {
    "kind": "user",
    "methods": {},
    "version": 1
  }
}