{
  "contractName": "DonationChallengeContract",
  "abi": [
    {
      "anonymous": false,
      "inputs": [
        {
          "indexed": true,
          "internalType": "address",
          "name": "owner",
          "type": "address"
        },
        {
          "indexed": true,
          "internalType": "address",
          "name": "spender",
          "type": "address"
        },
        {
          "indexed": false,
          "internalType": "uint256",
          "name": "value",
          "type": "uint256"
        }
      ],
      "name": "Approval",
      "type": "event"
    },
    {
      "anonymous": false,
      "inputs": [
        {
          "indexed": true,
          "internalType": "address",
          "name": "from",
          "type": "address"
        },
        {
          "indexed": true,
          "internalType": "address",
          "name": "to",
          "type": "address"
        },
        {
          "indexed": false,
          "internalType": "uint256",
          "name": "value",
          "type": "uint256"
        }
      ],
      "name": "Transfer",
      "type": "event"
    },
    {
      "anonymous": false,
      "inputs": [
        {
          "indexed": false,
          "internalType": "uint256",
          "name": "challengeId",
          "type": "uint256"
        }
      ],
      "name": "returnChallengeId",
      "type": "event"
    },
    {
      "inputs": [
        {
          "components": [
            {
              "internalType": "uint256",
              "name": "id",
              "type": "uint256"
            },
            {
              "internalType": "string",
              "name": "name",
              "type": "string"
            },
            {
              "internalType": "address",
              "name": "donationAddress",
              "type": "address"
            },
            {
              "internalType": "string",
              "name": "donationURL",
              "type": "string"
            }
          ],
          "internalType": "struct DonationContract.Donation",
          "name": "donation",
          "type": "tuple"
        }
      ],
      "name": "addDonation",
      "outputs": [],
      "stateMutability": "nonpayable",
      "type": "function"
    },
    {
      "inputs": [
        {
          "internalType": "address",
          "name": "owner",
          "type": "address"
        },
        {
          "internalType": "address",
          "name": "delegate",
          "type": "address"
        }
      ],
      "name": "allowance",
      "outputs": [
        {
          "internalType": "uint256",
          "name": "",
          "type": "uint256"
        }
      ],
      "stateMutability": "view",
      "type": "function"
    },
    {
      "inputs": [
        {
          "internalType": "uint256",
          "name": "challengeId",
          "type": "uint256"
        },
        {
          "internalType": "uint256",
          "name": "userId",
          "type": "uint256"
        },
        {
          "internalType": "uint256",
          "name": "challengerId",
          "type": "uint256"
        },
        {
          "internalType": "uint256",
          "name": "userIdIndex",
          "type": "uint256"
        },
        {
          "internalType": "uint256",
          "name": "challengeIdIndex",
          "type": "uint256"
        }
      ],
      "name": "applyVoteResult",
      "outputs": [],
      "stateMutability": "nonpayable",
      "type": "function"
    },
    {
      "inputs": [
        {
          "internalType": "address",
          "name": "delegate",
          "type": "address"
        },
        {
          "internalType": "uint256",
          "name": "numTokens",
          "type": "uint256"
        }
      ],
      "name": "approve",
      "outputs": [
        {
          "internalType": "bool",
          "name": "",
          "type": "bool"
        }
      ],
      "stateMutability": "nonpayable",
      "type": "function"
    },
    {
      "inputs": [
        {
          "internalType": "address",
          "name": "tokenOwner",
          "type": "address"
        }
      ],
      "name": "balanceOf",
      "outputs": [
        {
          "internalType": "uint256",
          "name": "",
          "type": "uint256"
        }
      ],
      "stateMutability": "view",
      "type": "function"
    },
    {
      "inputs": [
        {
          "components": [
            {
              "internalType": "uint256",
              "name": "challengeId",
              "type": "uint256"
            },
            {
              "internalType": "uint256",
              "name": "interestId",
              "type": "uint256"
            },
            {
              "internalType": "uint256",
              "name": "ownerId",
              "type": "uint256"
            },
            {
              "internalType": "string",
              "name": "name",
              "type": "string"
            },
            {
              "internalType": "string",
              "name": "desc",
              "type": "string"
            },
            {
              "internalType": "string",
              "name": "mainPicURL",
              "type": "string"
            },
            {
              "internalType": "string",
              "name": "goodPicURL",
              "type": "string"
            },
            {
              "internalType": "string",
              "name": "badPicURL",
              "type": "string"
            },
            {
              "internalType": "uint256",
              "name": "authTotalTimes",
              "type": "uint256"
            },
            {
              "internalType": "uint256",
              "name": "authWeekTimes",
              "type": "uint256"
            },
            {
              "internalType": "uint256",
              "name": "authDayTimes",
              "type": "uint256"
            },
            {
              "internalType": "int256",
              "name": "startTime",
              "type": "int256"
            },
            {
              "internalType": "int256",
              "name": "endTime",
              "type": "int256"
            },
            {
              "internalType": "string",
              "name": "startDate",
              "type": "string"
            },
            {
              "internalType": "string",
              "name": "endDate",
              "type": "string"
            },
            {
              "internalType": "uint256",
              "name": "personnel",
              "type": "uint256"
            },
            {
              "internalType": "uint256",
              "name": "deposit",
              "type": "uint256"
            },
            {
              "internalType": "uint256",
              "name": "totalDeposit",
              "type": "uint256"
            },
            {
              "internalType": "bool",
              "name": "complete",
              "type": "bool"
            }
          ],
          "internalType": "struct DailyChallengeContract.DailyChallenge",
          "name": "dailyChallenge",
          "type": "tuple"
        }
      ],
      "name": "createDailyChallenge",
      "outputs": [],
      "stateMutability": "payable",
      "type": "function"
    },
    {
      "inputs": [],
      "name": "decimals",
      "outputs": [
        {
          "internalType": "uint8",
          "name": "",
          "type": "uint8"
        }
      ],
      "stateMutability": "view",
      "type": "function"
    },
    {
      "inputs": [
        {
          "internalType": "uint256",
          "name": "challengeId",
          "type": "uint256"
        }
      ],
      "name": "endDailyChallenge",
      "outputs": [],
      "stateMutability": "nonpayable",
      "type": "function"
    },
    {
      "inputs": [
        {
          "internalType": "uint256",
          "name": "challengerId",
          "type": "uint256"
        }
      ],
      "name": "findByChallengerId",
      "outputs": [
        {
          "components": [
            {
              "internalType": "uint256",
              "name": "id",
              "type": "uint256"
            },
            {
              "internalType": "uint256",
              "name": "userId",
              "type": "uint256"
            },
            {
              "internalType": "uint256",
              "name": "challengeId",
              "type": "uint256"
            },
            {
              "internalType": "address",
              "name": "userAddress",
              "type": "address"
            },
            {
              "internalType": "uint256",
              "name": "today",
              "type": "uint256"
            },
            {
              "internalType": "uint256",
              "name": "totalCount",
              "type": "uint256"
            },
            {
              "internalType": "uint256",
              "name": "weekCount",
              "type": "uint256"
            },
            {
              "internalType": "uint256",
              "name": "dailyCount",
              "type": "uint256"
            },
            {
              "internalType": "uint256",
              "name": "userDeposit",
              "type": "uint256"
            },
            {
              "internalType": "uint256",
              "name": "reward",
              "type": "uint256"
            }
          ],
          "internalType": "struct ChallengerContract.Challenger",
          "name": "",
          "type": "tuple"
        }
      ],
      "stateMutability": "view",
      "type": "function"
    },
    {
      "inputs": [],
      "name": "getAllDonation",
      "outputs": [
        {
          "components": [
            {
              "internalType": "uint256",
              "name": "id",
              "type": "uint256"
            },
            {
              "internalType": "string",
              "name": "name",
              "type": "string"
            },
            {
              "internalType": "address",
              "name": "donationAddress",
              "type": "address"
            },
            {
              "internalType": "string",
              "name": "donationURL",
              "type": "string"
            }
          ],
          "internalType": "struct DonationContract.Donation[]",
          "name": "",
          "type": "tuple[]"
        }
      ],
      "stateMutability": "view",
      "type": "function"
    },
    {
      "inputs": [],
      "name": "name",
      "outputs": [
        {
          "internalType": "string",
          "name": "",
          "type": "string"
        }
      ],
      "stateMutability": "view",
      "type": "function"
    },
    {
      "inputs": [
        {
          "internalType": "uint256[]",
          "name": "userIdList",
          "type": "uint256[]"
        },
        {
          "internalType": "uint256",
          "name": "challengeId",
          "type": "uint256"
        }
      ],
      "name": "receivePasscoin",
      "outputs": [],
      "stateMutability": "nonpayable",
      "type": "function"
    },
    {
      "inputs": [
        {
          "internalType": "uint256",
          "name": "challengerId",
          "type": "uint256"
        }
      ],
      "name": "refund",
      "outputs": [],
      "stateMutability": "payable",
      "type": "function"
    },
    {
      "inputs": [],
      "name": "symbol",
      "outputs": [
        {
          "internalType": "string",
          "name": "",
          "type": "string"
        }
      ],
      "stateMutability": "view",
      "type": "function"
    },
    {
      "inputs": [],
      "name": "totalSupply",
      "outputs": [
        {
          "internalType": "uint256",
          "name": "",
          "type": "uint256"
        }
      ],
      "stateMutability": "view",
      "type": "function"
    },
    {
      "inputs": [
        {
          "internalType": "address",
          "name": "receiver",
          "type": "address"
        },
        {
          "internalType": "uint256",
          "name": "numTokens",
          "type": "uint256"
        }
      ],
      "name": "transfer",
      "outputs": [
        {
          "internalType": "bool",
          "name": "",
          "type": "bool"
        }
      ],
      "stateMutability": "nonpayable",
      "type": "function"
    },
    {
      "inputs": [
        {
          "internalType": "address",
          "name": "owner",
          "type": "address"
        },
        {
          "internalType": "address",
          "name": "buyer",
          "type": "address"
        },
        {
          "internalType": "uint256",
          "name": "numTokens",
          "type": "uint256"
        }
      ],
      "name": "transferFrom",
      "outputs": [
        {
          "internalType": "bool",
          "name": "",
          "type": "bool"
        }
      ],
      "stateMutability": "nonpayable",
      "type": "function"
    },
    {
      "inputs": [
        {
          "internalType": "address",
          "name": "user",
          "type": "address"
        },
        {
          "internalType": "uint256",
          "name": "numTokens",
          "type": "uint256"
        }
      ],
      "name": "useCoin",
      "outputs": [],
      "stateMutability": "nonpayable",
      "type": "function"
    },
    {
      "inputs": [
        {
          "internalType": "uint256",
          "name": "challengeId",
          "type": "uint256"
        },
        {
          "internalType": "uint256",
          "name": "userId",
          "type": "uint256"
        },
        {
          "internalType": "uint256",
          "name": "challengerId",
          "type": "uint256"
        },
        {
          "internalType": "uint256",
          "name": "userIdIndex",
          "type": "uint256"
        },
        {
          "internalType": "uint256",
          "name": "challengeIdIndex",
          "type": "uint256"
        }
      ],
      "name": "usePasscoin",
      "outputs": [],
      "stateMutability": "nonpayable",
      "type": "function"
    },
    {
      "inputs": [
        {
          "components": [
            {
              "internalType": "uint256",
              "name": "challengeId",
              "type": "uint256"
            },
            {
              "internalType": "uint256",
              "name": "interestId",
              "type": "uint256"
            },
            {
              "internalType": "uint256",
              "name": "ownerId",
              "type": "uint256"
            },
            {
              "internalType": "uint256",
              "name": "donationId",
              "type": "uint256"
            },
            {
              "internalType": "string",
              "name": "name",
              "type": "string"
            },
            {
              "internalType": "string",
              "name": "desc",
              "type": "string"
            },
            {
              "internalType": "uint256",
              "name": "setDonation",
              "type": "uint256"
            },
            {
              "internalType": "string",
              "name": "mainPicURL",
              "type": "string"
            },
            {
              "internalType": "string",
              "name": "goodPicURL",
              "type": "string"
            },
            {
              "internalType": "string",
              "name": "badPicURL",
              "type": "string"
            },
            {
              "internalType": "uint256",
              "name": "authTotalTimes",
              "type": "uint256"
            },
            {
              "internalType": "uint256",
              "name": "authWeekTimes",
              "type": "uint256"
            },
            {
              "internalType": "uint256",
              "name": "authDayTimes",
              "type": "uint256"
            },
            {
              "internalType": "uint256",
              "name": "startTime",
              "type": "uint256"
            },
            {
              "internalType": "uint256",
              "name": "endTime",
              "type": "uint256"
            },
            {
              "internalType": "string",
              "name": "startDate",
              "type": "string"
            },
            {
              "internalType": "string",
              "name": "endDate",
              "type": "string"
            },
            {
              "internalType": "uint256",
              "name": "personnel",
              "type": "uint256"
            },
            {
              "internalType": "uint256",
              "name": "totalDonation",
              "type": "uint256"
            },
            {
              "internalType": "bool",
              "name": "complete",
              "type": "bool"
            },
            {
              "internalType": "bool",
              "name": "success",
              "type": "bool"
            }
          ],
          "internalType": "struct DonationChallengeContract.DonationChallenge",
          "name": "donationChallenge",
          "type": "tuple"
        }
      ],
      "name": "createDonationChallenge",
      "outputs": [],
      "stateMutability": "payable",
      "type": "function"
    },
    {
      "inputs": [
        {
          "internalType": "uint256",
          "name": "challengeId",
          "type": "uint256"
        }
      ],
      "name": "endDonationChallenge",
      "outputs": [],
      "stateMutability": "payable",
      "type": "function"
    }
  ],
  "bytecode": "0x60806040526305f5e100600255600160035560016007556001600a5534801561002757600080fd5b506002543360009081526020819052604090205561300d8061004a6000396000f3fe60806040526004361061012a5760003560e01c806370a08231116100ab578063b098d41a1161006f578063b098d41a1461036c578063c78a57b91461037f578063d60cdc291461039f578063dd62ed3e146103bf578063f5a8024514610405578063fb81a8a91461042557600080fd5b806370a08231146102a6578063740c162a146102dc57806385d0dd60146102fc57806395d89b411461031c578063a9059cbb1461034c57600080fd5b8063278ecde1116100f2578063278ecde1146101fd578063313ce567146102105780633f7118511461023757806352e9a1a0146102575780635b77573b1461027957600080fd5b806306fdde031461012f578063095ea7b31461017957806318160ddd146101a95780631d41860d146101c857806323b872dd146101dd575b600080fd5b34801561013b57600080fd5b50610163604051806040016040528060088152602001672830b9b9a1b7b4b760c11b81525081565b6040516101709190612634565b60405180910390f35b34801561018557600080fd5b5061019961019436600461266a565b610438565b6040519015158152602001610170565b3480156101b557600080fd5b506002545b604051908152602001610170565b6101db6101d63660046127cc565b6104a4565b005b3480156101e957600080fd5b506101996101f83660046129a4565b6108b2565b6101db61020b3660046129e0565b6109fd565b34801561021c57600080fd5b50610225600081565b60405160ff9091168152602001610170565b34801561024357600080fd5b506101db61025236600461266a565b610acb565b34801561026357600080fd5b5061026c610b4f565b60405161017091906129f9565b34801561028557600080fd5b506102996102943660046129e0565b610d9e565b6040516101709190612a9f565b3480156102b257600080fd5b506101ba6102c1366004612b21565b6001600160a01b031660009081526020819052604090205490565b3480156102e857600080fd5b506101db6102f7366004612b3c565b610e89565b34801561030857600080fd5b506101db610317366004612b77565b61114d565b34801561032857600080fd5b50610163604051806040016040528060048152602001635041535360e01b81525081565b34801561035857600080fd5b5061019961036736600461266a565b6112d3565b6101db61037a3660046129e0565b611385565b34801561038b57600080fd5b506101db61039a3660046129e0565b611707565b3480156103ab57600080fd5b506101db6103ba366004612c23565b612008565b3480156103cb57600080fd5b506101ba6103da366004612ccf565b6001600160a01b03918216600090815260016020908152604080832093909416825291909152205490565b34801561041157600080fd5b506101db610420366004612b3c565b612096565b6101db610433366004612d02565b612366565b3360008181526001602090815260408083206001600160a01b038716808552925280832085905551919290917f8c5be1e5ebec7d5bd14f71427d1e84f3dd0314c0f7b2291e5b200ac8c7c3b925906104939086815260200190565b60405180910390a350600192915050565b600780548083523461020084018190526102208401528291600891600091826104cc83612f04565b919050558152602001908152602001600020600082015181600001556020820151816001015560408201518160020155606082015181600301908051906020019061051892919061254e565b506080820151805161053491600484019160209091019061254e565b5060a0820151805161055091600584019160209091019061254e565b5060c0820151805161056c91600684019160209091019061254e565b5060e0820151805161058891600784019160209091019061254e565b5061010082015160088201556101208201516009820155610140820151600a820155610160820151600b820155610180820151600c8201556101a082015180516105dc91600d84019160209091019061254e565b506101c082015180516105f991600e84019160209091019061254e565b506101e0820151600f82015561020082015160108201556102208201516011820155610240909101516012909101805460ff191691151591909117905580516040519081527f76fbc58aaedcbb39f7190db541de17575eeaaf17cf3facf5bd11ad55ca479ed1906020015b60405180910390a16000600460006003548152602001908152602001600020905060035481600001819055508160400151816001018190555081600001518160020181905550338160030160006101000a8154816001600160a01b0302191690836001600160a01b0316021790555034816008018190555060056000836040015181526020019081526020016000208190806001815401808255809150506001900390600052602060002090600a02016000909190919091506000820154816000015560018201548160010155600282015481600201556003820160009054906101000a90046001600160a01b03168160030160006101000a8154816001600160a01b0302191690836001600160a01b03160217905550600482015481600401556005820154816005015560068201548160060155600782015481600701556008820154816008015560098201548160090155505060066000836000015181526020019081526020016000208190806001815401808255809150506001900390600052602060002090600a02016000909190919091506000820154816000015560018201548160010155600282015481600201556003820160009054906101000a90046001600160a01b03168160030160006101000a8154816001600160a01b0302191690836001600160a01b031602179055506004820154816004015560058201548160050155600682015481600601556007820154816007015560088201548160080155600982015481600901555050600360008154809291906108a990612f04565b91905055505050565b6001600160a01b0383166000908152602081905260408120548211156108d757600080fd5b6001600160a01b038416600090815260016020908152604080832033845290915290205482111561090757600080fd5b6001600160a01b03841660009081526020819052604090205461092b908390612f1d565b6001600160a01b038516600090815260208181526040808320939093556001815282822033835290522054610961908390612f1d565b6001600160a01b038086166000908152600160209081526040808320338452825280832094909455918616815290819052205461099f908390612f34565b6001600160a01b038481166000818152602081815260409182902094909455518581529092918716917fddf252ad1be2c89b69c2b068fc378daa952ba7f163c4a11628f55a4df523b3ef910160405180910390a35060019392505050565b6000818152600460208181526040928390208351610140810185528154815260018201549281019290925260028101549382019390935260038301546001600160a01b031660608201819052918301546080820152600583015460a0820152600683015460c0820152600783015460e0820152600883015461010082018190526009909301546101208201819052909282916108fc91610a9d9190612f34565b6040518115909202916000818181858888f19350505050158015610ac5573d6000803e3d6000fd5b50505050565b33600090815260208190526040902054811115610ae757600080fd5b33600090815260208190526040902054610b02908290612f34565b33600090815260208190526040808220929092556001600160a01b03841681522054610b2f908290612f1d565b6001600160a01b0390921660009081526020819052604090209190915550565b606060006001600a54610b629190612f1d565b67ffffffffffffffff811115610b7a57610b7a612694565b604051908082528060200260200182016040528015610bdf57816020015b610bcc6040518060800160405280600081526020016060815260200160006001600160a01b03168152602001606081525090565b815260200190600190039081610b985790505b50905060005b6001600a54610bf49190612f1d565b811015610d9857600b6000610c0a836001612f34565b815260200190815260200160002060405180608001604052908160008201548152602001600182018054610c3d90612f4c565b80601f0160208091040260200160405190810160405280929190818152602001828054610c6990612f4c565b8015610cb65780601f10610c8b57610100808354040283529160200191610cb6565b820191906000526020600020905b815481529060010190602001808311610c9957829003601f168201915b505050918352505060028201546001600160a01b03166020820152600382018054604090920191610ce690612f4c565b80601f0160208091040260200160405190810160405280929190818152602001828054610d1290612f4c565b8015610d5f5780601f10610d3457610100808354040283529160200191610d5f565b820191906000526020600020905b815481529060010190602001808311610d4257829003601f168201915b505050505081525050828281518110610d7a57610d7a612f80565b60200260200101819052508080610d9090612f04565b915050610be5565b50919050565b610dfd60405180610140016040528060008152602001600081526020016000815260200160006001600160a01b031681526020016000815260200160008152602001600081526020016000815260200160008152602001600081525090565b506000908152600460208181526040928390208351610140810185528154815260018201549281019290925260028101549382019390935260038301546001600160a01b03166060820152908201546080820152600582015460a0820152600682015460c0820152600782015460e0820152600882015461010082015260099091015461012082015290565b600083815260046020818152604092839020835161014081018552815481526001808301549382019390935260028201549481019490945260038101546001600160a01b03166060850152918201546080840152600582015460a08401818152600684015460c0860152600784015460e08601526008840154610100860152600990930154610120850152909190610f22908390612f1d565b9052506000858152600560205260409020805482919085908110610f4857610f48612f80565b90600052602060002090600a020160008201518160000155602082015181600101556040820151816002015560608201518160030160006101000a8154816001600160a01b0302191690836001600160a01b031602179055506080820151816004015560a0820151816005015560c0820151816006015560e08201518160070155610100820151816008015561012082015181600901559050508060066000888152602001908152602001600020838154811061100757611007612f80565b90600052602060002090600a020160008201518160000155602082015181600101556040820151816002015560608201518160030160006101000a8154816001600160a01b0302191690836001600160a01b031602179055506080820151816004015560a0820151816005015560c0820151816006015560e082015181600701556101008201518160080155610120820151816009015590505080600460008360000151815260200190815260200160002060008201518160000155602082015181600101556040820151816002015560608201518160030160006101000a8154816001600160a01b0302191690836001600160a01b031602179055506080820151816004015560a0820151816005015560c0820151816006015560e0820151816007015561010082015181600801556101208201518160090155905050505050505050565b60005b82518110156112ce5760006005600085848151811061117157611171612f80565b60200260200101518152602001908152602001600020805480602002602001604051908101604052809291908181526020016000905b828210156112435760008481526020908190206040805161014081018252600a8602909201805483526001808201548486015260028201549284019290925260038101546001600160a01b0316606084015260048101546080840152600581015460a0840152600681015460c0840152600781015460e084015260088101546101008401526009015461012083015290835290920191016111a7565b50505050905060005b81518110156112b9578382828151811061126857611268612f80565b602002602001015160400151036112a7576112a182828151811061128e5761128e612f80565b60200260200101516060015160016112d3565b506112b9565b806112b181612f04565b91505061124c565b505080806112c690612f04565b915050611150565b505050565b336000908152602081905260408120548211156112ef57600080fd5b3360009081526020819052604090205461130a908390612f1d565b33600090815260208190526040808220929092556001600160a01b03851681522054611337908390612f34565b6001600160a01b038416600081815260208181526040918290209390935551848152909133917fddf252ad1be2c89b69c2b068fc378daa952ba7f163c4a11628f55a4df523b3ef9101610493565b6000818152600c60209081526040808320600683528184208054835181860281018601909452808452919493909190849084015b828210156114555760008481526020908190206040805161014081018252600a8602909201805483526001808201548486015260028201549284019290925260038101546001600160a01b0316606084015260048101546080840152600581015460a0840152600681015460c0840152600781015460e084015260088101546101008401526009015461012083015290835290920191016113b9565b50505060138401805460ff191660011790555090506000805b82518110156114dd57600084600a015484838151811061149057611490612f80565b602002602001015160a0015160646114a89190612f96565b6114b29190612fb5565b9050605081106114ca57826114c681612f04565b9350505b50806114d581612f04565b91505061146e565b5081516050906114ee836064612f96565b6114f89190612fb5565b10610ac5576000600b6000856003015481526020019081526020016000206040518060800160405290816000820154815260200160018201805461153b90612f4c565b80601f016020809104026020016040519081016040528092919081815260200182805461156790612f4c565b80156115b45780601f10611589576101008083540402835291602001916115b4565b820191906000526020600020905b81548152906001019060200180831161159757829003601f168201915b505050918352505060028201546001600160a01b031660208201526003820180546040909201916115e490612f4c565b80601f016020809104026020016040519081016040528092919081815260200182805461161090612f4c565b801561165d5780601f106116325761010080835404028352916020019161165d565b820191906000526020600020905b81548152906001019060200180831161164057829003601f168201915b5050509190925250505060138501805461ff001916610100179055905060005b83518110156116bc57600084828151811061169a5761169a612f80565b60209081029190910101516101000152806116b481612f04565b91505061167d565b506040808201516012860154915190916001600160a01b0383169181156108fc0291906000818181858888f193505050501580156116fe573d6000803e3d6000fd5b50505050505050565b6000818152600860209081526040808320600683528184208054835181860281018601909452808452919493909190849084015b828210156117d75760008481526020908190206040805161014081018252600a8602909201805483526001808201548486015260028201549284019290925260038101546001600160a01b0316606084015260048101546080840152600581015460a0840152600681015460c0840152600781015460e0840152600881015461010084015260090154610120830152908352909201910161173b565b50505060128401805460ff19166001179055509050600080805b8351811015611c8d576000856008015485838151811061181357611813612f80565b602002602001015160a00151606461182b9190612f96565b6118359190612fb5565b905084828151811061184957611849612f80565b602002602001015160a00151866008015403611871578261186981612f04565b935050611977565b605081106118a357600085838151811061188d5761188d612f80565b6020026020010151610120018181525050611977565b602881106119405760648187601001546118bd9190612f96565b6118c79190612fb5565b8583815181106118d9576118d9612f80565b602002602001015161010001516118f09190612f1d565b6118fa9085612f34565b9350606481876010015461190e9190612f96565b6119189190612fb5565b85838151811061192a5761192a612f80565b6020026020010151610100018181525050611977565b601086015461194f9085612f34565b9350600085838151811061196557611965612f80565b60200260200101516101000181815250505b84828151811061198957611989612f80565b60200260200101516006600089815260200190815260200160002083815481106119b5576119b5612f80565b60009182526020918290208351600a92909202019081559082015160018201556040820151600282015560608201516003820180546001600160a01b0319166001600160a01b039092169190911790556080820151600482015560a0820151600582015560c0820151600682015560e082015160078201556101008201516008820155610120909101516009909101558451859083908110611a5957611a59612f80565b602002602001015160046000878581518110611a7757611a77612f80565b602002602001015160000151815260200190815260200160002060008201518160000155602082015181600101556040820151816002015560608201518160030160006101000a8154816001600160a01b0302191690836001600160a01b031602179055506080820151816004015560a0820151816005015560c0820151816006015560e08201518160070155610100820151816008015561012082015181600901559050506000858381518110611b3157611b31612f80565b602002602001015160200151905060005b600082815260056020526040902054811015611c7757600082815260056020526040902080548a919083908110611b7b57611b7b612f80565b90600052602060002090600a02016002015403611c6557868481518110611ba457611ba4612f80565b6020026020010151600560008481526020019081526020016000208281548110611bd057611bd0612f80565b60009182526020918290208351600a92909202019081559082015160018201556040820151600282015560608201516003820180546001600160a01b0319166001600160a01b039092169190911790556080820151600482015560a0820151600582015560c0820151600682015560e08201516007820155610100820151600882015561012090910151600990910155611c77565b80611c6f81612f04565b915050611b42565b5050508080611c8590612f04565b9150506117f1565b5060005b835181101561200057838181518110611cac57611cac612f80565b602002602001015160a00151856008015403611fee57611ccc8284612fb5565b848281518110611cde57611cde612f80565b6020026020010151610120018181525050838181518110611d0157611d01612f80565b6020026020010151600660008881526020019081526020016000208281548110611d2d57611d2d612f80565b60009182526020918290208351600a92909202019081559082015160018201556040820151600282015560608201516003820180546001600160a01b0319166001600160a01b039092169190911790556080820151600482015560a0820151600582015560c0820151600682015560e082015160078201556101008201516008820155610120909101516009909101558351849082908110611dd157611dd1612f80565b602002602001015160046000868481518110611def57611def612f80565b602002602001015160000151815260200190815260200160002060008201518160000155602082015181600101556040820151816002015560608201518160030160006101000a8154816001600160a01b0302191690836001600160a01b031602179055506080820151816004015560a0820151816005015560c0820151816006015560e08201518160070155610100820151816008015561012082015181600901559050506000848281518110611ea957611ea9612f80565b602002602001015160200151905060005b600082815260056020526040902054811015611feb576000828152600560205260409020805489919083908110611ef357611ef3612f80565b90600052602060002090600a02016002015403611fd957858381518110611f1c57611f1c612f80565b6020026020010151600560008481526020019081526020016000208281548110611f4857611f48612f80565b60009182526020918290208351600a92909202019081559082015160018201556040820151600282015560608201516003820180546001600160a01b0319166001600160a01b039092169190911790556080820151600482015560a0820151600582015560c0820151600682015560e082015160078201556101008201516008820155610120909101516009909101555b80611fe381612f04565b915050611eba565b50505b80611ff881612f04565b915050611c91565b505050505050565b600a80548083528291600b916000918261202183612f04565b9091555081526020808201929092526040016000208251815582820151805191926120549260018501929091019061254e565b5060408201516002820180546001600160a01b0319166001600160a01b0390921691909117905560608201518051610ac591600384019160209091019061254e565b600083815260046020818152604092839020835161014081018552815481526001808301549382019390935260028201549481019490945260038101546001600160a01b03166060850152918201546080840152600582015460a08401818152600684015460c0860152600784015460e0860152600884015461010086015260099093015461012085015290919061212f908390612f34565b905250600085815260056020526040902080548291908590811061215557612155612f80565b90600052602060002090600a020160008201518160000155602082015181600101556040820151816002015560608201518160030160006101000a8154816001600160a01b0302191690836001600160a01b031602179055506080820151816004015560a0820151816005015560c0820151816006015560e08201518160070155610100820151816008015561012082015181600901559050508060066000888152602001908152602001600020838154811061221457612214612f80565b90600052602060002090600a020160008201518160000155602082015181600101556040820151816002015560608201518160030160006101000a8154816001600160a01b0302191690836001600160a01b031602179055506080820151816004015560a0820151816005015560c0820151816006015560e082015181600701556101008201518160080155610120820151816009015590505080600460008360000151815260200190815260200160002060008201518160000155602082015181600101556040820151816002015560608201518160030160006101000a8154816001600160a01b0302191690836001600160a01b031602179055506080820151816004015560a0820151816005015560c0820151816006015560e08201518160070155610100820151816008015561012082015181600901559050506000816060015190506116fe816001610acb565b600780548083523460c084018190526102408401528291600c916000918261238d83612f04565b9190505581526020019081526020016000206000820151816000015560208201518160010155604082015181600201556060820151816003015560808201518160040190805190602001906123e392919061254e565b5060a082015180516123ff91600584019160209091019061254e565b5060c0820151600682015560e0820151805161242591600784019160209091019061254e565b50610100820151805161244291600884019160209091019061254e565b50610120820151805161245f91600984019160209091019061254e565b50610140820151600a820155610160820151600b820155610180820151600c8201556101a0820151600d8201556101c0820151600e8201556101e082015180516124b391600f84019160209091019061254e565b5061020082015180516124d091601084019160209091019061254e565b5061022082015160118201556102408201516012820155610260820151601390910180546102809093015115156101000261ff00199215159290921661ffff199093169290921717905580516040517f76fbc58aaedcbb39f7190db541de17575eeaaf17cf3facf5bd11ad55ca479ed1916106649190815260200190565b82805461255a90612f4c565b90600052602060002090601f01602090048101928261257c57600085556125c2565b82601f1061259557805160ff19168380011785556125c2565b828001600101855582156125c2579182015b828111156125c25782518255916020019190600101906125a7565b506125ce9291506125d2565b5090565b5b808211156125ce57600081556001016125d3565b6000815180845260005b8181101561260d576020818501810151868301820152016125f1565b8181111561261f576000602083870101525b50601f01601f19169290920160200192915050565b60208152600061264760208301846125e7565b9392505050565b80356001600160a01b038116811461266557600080fd5b919050565b6000806040838503121561267d57600080fd5b6126868361264e565b946020939093013593505050565b634e487b7160e01b600052604160045260246000fd5b604051610260810167ffffffffffffffff811182821017156126ce576126ce612694565b60405290565b6040516080810167ffffffffffffffff811182821017156126ce576126ce612694565b6040516102a0810167ffffffffffffffff811182821017156126ce576126ce612694565b604051601f8201601f1916810167ffffffffffffffff8111828210171561274457612744612694565b604052919050565b600082601f83011261275d57600080fd5b813567ffffffffffffffff81111561277757612777612694565b61278a601f8201601f191660200161271b565b81815284602083860101111561279f57600080fd5b816020850160208301376000918101602001919091529392505050565b8035801515811461266557600080fd5b6000602082840312156127de57600080fd5b813567ffffffffffffffff808211156127f657600080fd5b90830190610260828603121561280b57600080fd5b6128136126aa565b82358152602083013560208201526040830135604082015260608301358281111561283d57600080fd5b6128498782860161274c565b60608301525060808301358281111561286157600080fd5b61286d8782860161274c565b60808301525060a08301358281111561288557600080fd5b6128918782860161274c565b60a08301525060c0830135828111156128a957600080fd5b6128b58782860161274c565b60c08301525060e0830135828111156128cd57600080fd5b6128d98782860161274c565b60e083015250610100838101359082015261012080840135908201526101408084013590820152610160808401359082015261018080840135908201526101a0808401358381111561292a57600080fd5b6129368882870161274c565b8284015250506101c0808401358381111561295057600080fd5b61295c8882870161274c565b91830191909152506101e083810135908201526102008084013590820152610220808401359082015261024091506129958284016127bc565b91810191909152949350505050565b6000806000606084860312156129b957600080fd5b6129c28461264e565b92506129d06020850161264e565b9150604084013590509250925092565b6000602082840312156129f257600080fd5b5035919050565b60006020808301818452808551808352604092508286019150828160051b87010184880160005b83811015612a9157603f19898403018552815160808151855288820151818a870152612a4e828701826125e7565b838a01516001600160a01b0316878b0152606093840151878203948801949094529150612a7d905081836125e7565b968901969450505090860190600101612a20565b509098975050505050505050565b6000610140820190508251825260208301516020830152604083015160408301526060830151612ada60608401826001600160a01b03169052565b506080830151608083015260a083015160a083015260c083015160c083015260e083015160e083015261010080840151818401525061012080840151818401525092915050565b600060208284031215612b3357600080fd5b6126478261264e565b600080600080600060a08688031215612b5457600080fd5b505083359560208501359550604085013594606081013594506080013592509050565b60008060408385031215612b8a57600080fd5b823567ffffffffffffffff80821115612ba257600080fd5b818501915085601f830112612bb657600080fd5b8135602082821115612bca57612bca612694565b8160051b9250612bdb81840161271b565b8281529284018101928181019089851115612bf557600080fd5b948201945b84861015612c1357853582529482019490820190612bfa565b9997909101359750505050505050565b600060208284031215612c3557600080fd5b813567ffffffffffffffff80821115612c4d57600080fd5b9083019060808286031215612c6157600080fd5b612c696126d4565b82358152602083013582811115612c7f57600080fd5b612c8b8782860161274c565b602083015250612c9d6040840161264e565b6040820152606083013582811115612cb457600080fd5b612cc08782860161274c565b60608301525095945050505050565b60008060408385031215612ce257600080fd5b612ceb8361264e565b9150612cf96020840161264e565b90509250929050565b600060208284031215612d1457600080fd5b813567ffffffffffffffff80821115612d2c57600080fd5b908301906102a08286031215612d4157600080fd5b612d496126f7565b82358152602083013560208201526040830135604082015260608301356060820152608083013582811115612d7d57600080fd5b612d898782860161274c565b60808301525060a083013582811115612da157600080fd5b612dad8782860161274c565b60a08301525060c083013560c082015260e083013582811115612dcf57600080fd5b612ddb8782860161274c565b60e0830152506101008084013583811115612df557600080fd5b612e018882870161274c565b8284015250506101208084013583811115612e1b57600080fd5b612e278882870161274c565b91830191909152506101408381013590820152610160808401359082015261018080840135908201526101a080840135908201526101c080840135908201526101e08084013583811115612e7a57600080fd5b612e868882870161274c565b8284015250506102008084013583811115612ea057600080fd5b612eac8882870161274c565b9183019190915250610220838101359082015261024080840135908201526102609150612eda8284016127bc565b8282015261028091506129958284016127bc565b634e487b7160e01b600052601160045260246000fd5b600060018201612f1657612f16612eee565b5060010190565b600082821015612f2f57612f2f612eee565b500390565b60008219821115612f4757612f47612eee565b500190565b600181811c90821680612f6057607f821691505b602082108103610d9857634e487b7160e01b600052602260045260246000fd5b634e487b7160e01b600052603260045260246000fd5b6000816000190483118215151615612fb057612fb0612eee565b500290565b600082612fd257634e487b7160e01b600052601260045260246000fd5b50049056fea26469706673582212200306e33d09b662b5357969c29b3c84ca8a2aa76dc19dedbf069f978d9a4d8d4b64736f6c634300080e0033",
  "immutableReferences": {},
  "source": "// SPDX-License-Identifier: MIT\r\npragma solidity ^0.8.0;\r\npragma abicoder v2;\r\n\r\nimport \"./DailyChallengeContract.sol\";\r\nimport \"./DonationContract.sol\";\r\ncontract DonationChallengeContract is DailyChallengeContract,DonationContract{\r\n\r\n    struct DonationChallenge {\r\n        // pk\r\n        uint challengeId;\r\n        //  fk\r\n        uint interestId;\r\n        //   fk\r\n        uint ownerId;\r\n        //  fk\r\n        uint donationId;\r\n        string name;\r\n        string desc;\r\n        \r\n        //  \r\n        uint setDonation;\r\n        //   \r\n        string mainPicURL;\r\n        string goodPicURL;\r\n        string badPicURL;\r\n        //  \r\n        uint authTotalTimes;\r\n        uint authWeekTimes;\r\n        uint authDayTimes;\r\n        // \r\n        uint startTime;\r\n        uint endTime;\r\n        //  \r\n        string startDate;\r\n        string endDate;\r\n        //   (  int(-1)    )\r\n        uint personnel;\r\n        uint256 totalDonation;\r\n\r\n        //   \r\n        bool complete;\r\n\r\n        bool success;\r\n    }\r\n    mapping(uint => DonationChallenge) donationChallengeMap;\r\n    DonationChallenge[] donationChallenges;\r\n\r\n    function createDonationChallenge(DonationChallenge memory donationChallenge) public payable\r\n    {\r\n        donationChallenge.challengeId=challengeSequence;\r\n        donationChallenge.setDonation=msg.value;\r\n        donationChallenge.totalDonation=msg.value;\r\n        donationChallengeMap[challengeSequence++]=donationChallenge ;\r\n        emit returnChallengeId(donationChallenge.challengeId);\r\n        /*     */\r\n        //  \r\n        Challenger storage challenger=challengerMap[challengerSequence];\r\n        challenger.id=challengerSequence;\r\n        challenger.userId=donationChallenge.ownerId;\r\n        challenger.challengeId=donationChallenge.challengeId;\r\n        challenger.userAddress=msg.sender;\r\n        challenger.userDeposit=msg.value;\r\n\r\n        //    \r\n        findByUserIdChallenger[donationChallenge.ownerId].push(challenger);\r\n        findByChallengeIdChallenger[donationChallenge.challengeId].push(challenger);\r\n        challengerSequence++;\r\n    }\r\n\r\n    //  \r\n    function endDonationChallenge(uint challengeId) public payable{\r\n        DonationChallenge storage challenge=donationChallengeMap[challengeId];\r\n        Challenger[] memory challengers=findByChallengeIdChallenger[challengeId];\r\n        challenge.complete=true;\r\n        uint count=0;\r\n        for(uint i=0;i<challengers.length;i++){\r\n            uint rate=(challengers[i].totalCount*100)/challenge.authTotalTimes;\r\n            if(rate>=80) count++;\r\n        }\r\n        if((count*100)/challengers.length>=80){\r\n            Donation memory donation =donationMap[challenge.donationId];\r\n            challenge.success=true;\r\n            for(uint i=0;i<challengers.length;i++){\r\n                challengers[i].userDeposit=0;\r\n            }\r\n        \r\n            address donationAddress=donation.donationAddress;\r\n            payable(donationAddress).transfer(challenge.totalDonation);\r\n        }\r\n\r\n    }\r\n}",
  "sourcePath": "c:\\Users\\multicampus\\Desktop\\S07P22B106\\truffle\\contracts\\DonationChallengeContract.sol",
  "compiler": {
    "name": "solc",
    "version": "0.8.14+commit.80d49f37.Emscripten.clang"
  },
  "schemaVersion": "3.4.10",
  "updatedAt": "2022-10-02T10:23:05.987Z",
  "devdoc": {
    "kind": "dev",
    "methods": {},
    "version": 1
  },
  "userdoc": {
    "kind": "user",
    "methods": {},
    "version": 1
  }
}