{
  "contractName": "DonationContract",
  "abi": [
    {
      "inputs": [
        {
          "components": [
            {
              "internalType": "uint256",
              "name": "id",
              "type": "uint256"
            },
            {
              "internalType": "string",
              "name": "name",
              "type": "string"
            },
            {
              "internalType": "address",
              "name": "donationAddress",
              "type": "address"
            },
            {
              "internalType": "string",
              "name": "donationURL",
              "type": "string"
            }
          ],
          "internalType": "struct DonationContract.Donation",
          "name": "donation",
          "type": "tuple"
        }
      ],
      "name": "addDonation",
      "outputs": [],
      "stateMutability": "nonpayable",
      "type": "function"
    },
    {
      "inputs": [],
      "name": "getAllDonation",
      "outputs": [
        {
          "components": [
            {
              "internalType": "uint256",
              "name": "id",
              "type": "uint256"
            },
            {
              "internalType": "string",
              "name": "name",
              "type": "string"
            },
            {
              "internalType": "address",
              "name": "donationAddress",
              "type": "address"
            },
            {
              "internalType": "string",
              "name": "donationURL",
              "type": "string"
            }
          ],
          "internalType": "struct DonationContract.Donation[]",
          "name": "",
          "type": "tuple[]"
        }
      ],
      "stateMutability": "view",
      "type": "function"
    }
  ],
  "bytecode": "0x6080604052600160005534801561001557600080fd5b5061073e806100256000396000f3fe608060405234801561001057600080fd5b50600436106100365760003560e01c806352e9a1a01461003b578063d60cdc2914610059575b600080fd5b61004361006e565b6040516100509190610434565b60405180910390f35b61006c6100673660046105a6565b6102bc565b005b6060600060016000546100819190610676565b67ffffffffffffffff811115610099576100996104da565b6040519080825280602002602001820160405280156100fe57816020015b6100eb6040518060800160405280600081526020016060815260200160006001600160a01b03168152602001606081525090565b8152602001906001900390816100b75790505b50905060005b60016000546101139190610676565b8110156102b65760016000610128838361068d565b81526020019081526020016000206040518060800160405290816000820154815260200160018201805461015b906106a5565b80601f0160208091040260200160405190810160405280929190818152602001828054610187906106a5565b80156101d45780601f106101a9576101008083540402835291602001916101d4565b820191906000526020600020905b8154815290600101906020018083116101b757829003601f168201915b505050918352505060028201546001600160a01b03166020820152600382018054604090920191610204906106a5565b80601f0160208091040260200160405190810160405280929190818152602001828054610230906106a5565b801561027d5780601f106102525761010080835404028352916020019161027d565b820191906000526020600020905b81548152906001019060200180831161026057829003601f168201915b505050505081525050828281518110610298576102986106d9565b602002602001018190525080806102ae906106ef565b915050610104565b50919050565b60008054808352829160019181806102d3836106ef565b9091555081526020808201929092526040016000208251815582820151805191926103069260018501929091019061034e565b5060408201516002820180546001600160a01b0319166001600160a01b039092169190911790556060820151805161034891600384019160209091019061034e565b50505050565b82805461035a906106a5565b90600052602060002090601f01602090048101928261037c57600085556103c2565b82601f1061039557805160ff19168380011785556103c2565b828001600101855582156103c2579182015b828111156103c25782518255916020019190600101906103a7565b506103ce9291506103d2565b5090565b5b808211156103ce57600081556001016103d3565b6000815180845260005b8181101561040d576020818501810151868301820152016103f1565b8181111561041f576000602083870101525b50601f01601f19169290920160200192915050565b60006020808301818452808551808352604092508286019150828160051b87010184880160005b838110156104cc57603f19898403018552815160808151855288820151818a870152610489828701826103e7565b838a01516001600160a01b0316878b01526060938401518782039488019490945291506104b8905081836103e7565b96890196945050509086019060010161045b565b509098975050505050505050565b634e487b7160e01b600052604160045260246000fd5b6040516080810167ffffffffffffffff81118282101715610513576105136104da565b60405290565b600082601f83011261052a57600080fd5b813567ffffffffffffffff80821115610545576105456104da565b604051601f8301601f19908116603f0116810190828211818310171561056d5761056d6104da565b8160405283815286602085880101111561058657600080fd5b836020870160208301376000602085830101528094505050505092915050565b6000602082840312156105b857600080fd5b813567ffffffffffffffff808211156105d057600080fd5b90830190608082860312156105e457600080fd5b6105ec6104f0565b8235815260208301358281111561060257600080fd5b61060e87828601610519565b60208301525060408301356001600160a01b038116811461062e57600080fd5b604082015260608301358281111561064557600080fd5b61065187828601610519565b60608301525095945050505050565b634e487b7160e01b600052601160045260246000fd5b60008282101561068857610688610660565b500390565b600082198211156106a0576106a0610660565b500190565b600181811c908216806106b957607f821691505b6020821081036102b657634e487b7160e01b600052602260045260246000fd5b634e487b7160e01b600052603260045260246000fd5b60006001820161070157610701610660565b506001019056fea2646970667358221220779b46ff51dff65380262c7ffcbb557bd60ae2b4ebf14dc37945853bf539a61d64736f6c634300080e0033",
  "immutableReferences": {},
  "source": "// SPDX-License-Identifier: MIT\r\npragma solidity ^0.8.0;\r\npragma abicoder v2;\r\n\r\ncontract DonationContract{\r\n    struct Donation{\r\n        // pk\r\n        uint id;\r\n\r\n        //  \r\n        string name;\r\n\r\n        //  \r\n        address donationAddress;\r\n\r\n        //  \r\n        string donationURL;\r\n    }\r\n    uint donationSequence=1;\r\n    mapping(uint => Donation) donationMap;\r\n\r\n     //  \r\n    function addDonation(Donation memory donation) public {\r\n        donation.id=donationSequence;\r\n        donationMap[donationSequence++]=donation;\r\n    }\r\n\r\n    //   \r\n    function getAllDonation() public view returns(Donation[] memory) {\r\n        Donation[] memory donationList=new Donation[](donationSequence-1);\r\n\r\n        for(uint i=0;i<donationSequence-1;i++){\r\n            donationList[i]=donationMap[i+1];\r\n        }\r\n        return donationList;\r\n    }\r\n}",
  "sourcePath": "c:\\Users\\multicampus\\Desktop\\ssafy\\S07P22B106\\truffle\\contracts\\DonationContract.sol",
  "compiler": {
    "name": "solc",
    "version": "0.8.14+commit.80d49f37.Emscripten.clang"
  },
  "schemaVersion": "3.4.10",
  "updatedAt": "2022-10-04T11:49:47.404Z",
  "devdoc": {
    "kind": "dev",
    "methods": {},
    "version": 1
  },
  "userdoc": {
    "kind": "user",
    "methods": {},
    "version": 1
  }
}