{
  "contractName": "PassCoinContract",
  "abi": [
    {
      "inputs": [],
      "stateMutability": "nonpayable",
      "type": "constructor"
    },
    {
      "anonymous": false,
      "inputs": [
        {
          "indexed": true,
          "internalType": "address",
          "name": "owner",
          "type": "address"
        },
        {
          "indexed": true,
          "internalType": "address",
          "name": "spender",
          "type": "address"
        },
        {
          "indexed": false,
          "internalType": "uint256",
          "name": "value",
          "type": "uint256"
        }
      ],
      "name": "Approval",
      "type": "event"
    },
    {
      "anonymous": false,
      "inputs": [
        {
          "indexed": true,
          "internalType": "address",
          "name": "from",
          "type": "address"
        },
        {
          "indexed": true,
          "internalType": "address",
          "name": "to",
          "type": "address"
        },
        {
          "indexed": false,
          "internalType": "uint256",
          "name": "value",
          "type": "uint256"
        }
      ],
      "name": "Transfer",
      "type": "event"
    },
    {
      "inputs": [],
      "name": "decimals",
      "outputs": [
        {
          "internalType": "uint8",
          "name": "",
          "type": "uint8"
        }
      ],
      "stateMutability": "view",
      "type": "function"
    },
    {
      "inputs": [],
      "name": "name",
      "outputs": [
        {
          "internalType": "string",
          "name": "",
          "type": "string"
        }
      ],
      "stateMutability": "view",
      "type": "function"
    },
    {
      "inputs": [],
      "name": "symbol",
      "outputs": [
        {
          "internalType": "string",
          "name": "",
          "type": "string"
        }
      ],
      "stateMutability": "view",
      "type": "function"
    },
    {
      "inputs": [],
      "name": "totalSupply",
      "outputs": [
        {
          "internalType": "uint256",
          "name": "",
          "type": "uint256"
        }
      ],
      "stateMutability": "view",
      "type": "function"
    },
    {
      "inputs": [
        {
          "internalType": "address",
          "name": "tokenOwner",
          "type": "address"
        }
      ],
      "name": "balanceOf",
      "outputs": [
        {
          "internalType": "uint256",
          "name": "",
          "type": "uint256"
        }
      ],
      "stateMutability": "view",
      "type": "function"
    },
    {
      "inputs": [
        {
          "internalType": "address",
          "name": "receiver",
          "type": "address"
        },
        {
          "internalType": "uint256",
          "name": "numTokens",
          "type": "uint256"
        }
      ],
      "name": "transfer",
      "outputs": [
        {
          "internalType": "bool",
          "name": "",
          "type": "bool"
        }
      ],
      "stateMutability": "nonpayable",
      "type": "function"
    },
    {
      "inputs": [
        {
          "internalType": "address",
          "name": "delegate",
          "type": "address"
        },
        {
          "internalType": "uint256",
          "name": "numTokens",
          "type": "uint256"
        }
      ],
      "name": "approve",
      "outputs": [
        {
          "internalType": "bool",
          "name": "",
          "type": "bool"
        }
      ],
      "stateMutability": "nonpayable",
      "type": "function"
    },
    {
      "inputs": [
        {
          "internalType": "address",
          "name": "owner",
          "type": "address"
        },
        {
          "internalType": "address",
          "name": "delegate",
          "type": "address"
        }
      ],
      "name": "allowance",
      "outputs": [
        {
          "internalType": "uint256",
          "name": "",
          "type": "uint256"
        }
      ],
      "stateMutability": "view",
      "type": "function"
    },
    {
      "inputs": [
        {
          "internalType": "address",
          "name": "owner",
          "type": "address"
        },
        {
          "internalType": "address",
          "name": "buyer",
          "type": "address"
        },
        {
          "internalType": "uint256",
          "name": "numTokens",
          "type": "uint256"
        }
      ],
      "name": "transferFrom",
      "outputs": [
        {
          "internalType": "bool",
          "name": "",
          "type": "bool"
        }
      ],
      "stateMutability": "nonpayable",
      "type": "function"
    },
    {
      "inputs": [
        {
          "internalType": "address",
          "name": "user",
          "type": "address"
        },
        {
          "internalType": "uint256",
          "name": "numTokens",
          "type": "uint256"
        }
      ],
      "name": "useCoin",
      "outputs": [],
      "stateMutability": "nonpayable",
      "type": "function"
    }
  ],
  "bytecode": "0x60806040526305f5e10060035534801561001857600080fd5b506003543360008181526001602052604081209290925581546001600160a01b0319161790556106a68061004d6000396000f3fe608060405234801561001057600080fd5b506004361061009e5760003560e01c80633f711851116100665780633f7118511461014257806370a082311461015757806395d89b4114610180578063a9059cbb146101a3578063dd62ed3e146101b657600080fd5b806306fdde03146100a3578063095ea7b3146100e057806318160ddd1461010357806323b872dd14610115578063313ce56714610128575b600080fd5b6100ca604051806040016040528060088152602001672830b9b9a1b7b4b760c11b81525081565b6040516100d791906104ff565b60405180910390f35b6100f36100ee366004610570565b6101ef565b60405190151581526020016100d7565b6003545b6040519081526020016100d7565b6100f361012336600461059a565b61025b565b610130600081565b60405160ff90911681526020016100d7565b610155610150366004610570565b6103b1565b005b6101076101653660046105d6565b6001600160a01b031660009081526001602052604090205490565b6100ca604051806040016040528060048152602001635041535360e01b81525081565b6100f36101b1366004610570565b61044a565b6101076101c43660046105f8565b6001600160a01b03918216600090815260026020908152604080832093909416825291909152205490565b3360008181526002602090815260408083206001600160a01b038716808552925280832085905551919290917f8c5be1e5ebec7d5bd14f71427d1e84f3dd0314c0f7b2291e5b200ac8c7c3b9259061024a9086815260200190565b60405180910390a350600192915050565b6001600160a01b03831660009081526001602052604081205482111561028057600080fd5b6001600160a01b03841660009081526002602090815260408083203384529091529020548211156102b057600080fd5b6001600160a01b0384166000908152600160205260409020546102d4908390610641565b6001600160a01b038516600090815260016020908152604080832093909355600281528282203383529052205461030c908390610641565b6001600160a01b03808616600090815260026020908152604080832033845282528083209490945591861681526001909152205461034b908390610658565b6001600160a01b0380851660008181526001602052604090819020939093559151908616907fddf252ad1be2c89b69c2b068fc378daa952ba7f163c4a11628f55a4df523b3ef9061039f9086815260200190565b60405180910390a35060019392505050565b600080546001600160a01b03168152600160205260409020548111156103d657600080fd5b600080546001600160a01b03168152600160205260409020546103fa908290610658565b600080546001600160a01b039081168252600160205260408083209390935584168152205461042a908290610641565b6001600160a01b0390921660009081526001602052604090209190915550565b3360009081526001602052604081205482111561046657600080fd5b33600090815260016020526040902054610481908390610641565b33600090815260016020526040808220929092556001600160a01b038516815220546104ae908390610658565b6001600160a01b0384166000818152600160205260409081902092909255905133907fddf252ad1be2c89b69c2b068fc378daa952ba7f163c4a11628f55a4df523b3ef9061024a9086815260200190565b600060208083528351808285015260005b8181101561052c57858101830151858201604001528201610510565b8181111561053e576000604083870101525b50601f01601f1916929092016040019392505050565b80356001600160a01b038116811461056b57600080fd5b919050565b6000806040838503121561058357600080fd5b61058c83610554565b946020939093013593505050565b6000806000606084860312156105af57600080fd5b6105b884610554565b92506105c660208501610554565b9150604084013590509250925092565b6000602082840312156105e857600080fd5b6105f182610554565b9392505050565b6000806040838503121561060b57600080fd5b61061483610554565b915061062260208401610554565b90509250929050565b634e487b7160e01b600052601160045260246000fd5b6000828210156106535761065361062b565b500390565b6000821982111561066b5761066b61062b565b50019056fea26469706673582212206deb95d3b72df1f58165777d010f9a20818f372ee625d5a1146ca81a70bf1a0864736f6c634300080e0033",
  "immutableReferences": {},
  "source": "// SPDX-License-Identifier: MIT\r\npragma solidity ^0.8.0;\r\n\r\ninterface IERC20 {\r\n\r\n    function totalSupply() external view returns (uint256);\r\n    function balanceOf(address account) external view returns (uint256);\r\n    function allowance(address owner, address spender) external view returns (uint256);\r\n    function transfer(address recipient, uint256 amount) external returns (bool);\r\n    function approve(address spender, uint256 amount) external returns (bool);\r\n    function transferFrom(address sender, address recipient, uint256 amount) external returns (bool);\r\n\r\n    event Transfer(address indexed from, address indexed to, uint256 value);\r\n    event Approval(address indexed owner, address indexed spender, uint256 value);\r\n}\r\n\r\n\r\ncontract PassCoinContract is IERC20 {\r\n\r\n    string public constant name = \"PassCoin\"; // \r\n    string public constant symbol = \"PASS\"; //  \r\n    uint8 public constant decimals = 0; //  \r\n\r\n    address owner;\r\n    //     \r\n    mapping(address => uint256) balances;\r\n\r\n    //  A   B        \r\n    mapping(address => mapping (address => uint256)) allowed;\r\n\r\n    //   \r\n    uint256 totalSupply_ = 100000000; \r\n\r\n    constructor() {\r\n        balances[msg.sender] = totalSupply_;\r\n        owner=msg.sender;\r\n    }\r\n\r\n    //     \r\n    function totalSupply() public override view returns (uint256) {\r\n        return totalSupply_;\r\n    }\r\n\r\n    // tokenOwner    \r\n    function balanceOf(address tokenOwner) public override view returns (uint256) {\r\n        return balances[tokenOwner];\r\n    }\r\n\r\n    // receiver  numTokens   \r\n    function transfer(address receiver, uint256 numTokens) public override returns (bool) {\r\n        require(numTokens <= balances[msg.sender]);\r\n        balances[msg.sender] = balances[msg.sender]-numTokens;\r\n        balances[receiver] = balances[receiver]+numTokens;\r\n        emit Transfer(msg.sender, receiver, numTokens);\r\n        return true;\r\n    }\r\n\r\n    // delegate      ( : - )\r\n    function approve(address delegate, uint256 numTokens) public override returns (bool) {\r\n        allowed[msg.sender][delegate] = numTokens;\r\n        emit Approval(msg.sender, delegate, numTokens);\r\n        return true;\r\n    }\r\n\r\n    // owner delegate    \r\n    function allowance(address owner, address delegate) public override view returns (uint) {\r\n        return allowed[owner][delegate];\r\n    }\r\n\r\n    // owner  buyer  numTokens   \r\n    function transferFrom(address owner, address buyer, uint256 numTokens) public override returns (bool) {\r\n        require(numTokens <= balances[owner]);\r\n        require(numTokens <= allowed[owner][msg.sender]);\r\n\r\n        balances[owner] = balances[owner]-numTokens;\r\n        allowed[owner][msg.sender] = allowed[owner][msg.sender]-numTokens;\r\n        balances[buyer] = balances[buyer]+numTokens;\r\n        emit Transfer(owner, buyer, numTokens);\r\n        return true;\r\n    }\r\n\r\n    function useCoin(address user, uint256 numTokens) public {\r\n        require(numTokens <= balances[owner]);\r\n        balances[owner] = balances[owner]+numTokens;\r\n        balances[user] = balances[user]-numTokens;\r\n    }\r\n}\r\n",
  "sourcePath": "c:\\Users\\multicampus\\Desktop\\ssafy\\S07P22B106\\truffle\\contracts\\PassCoinContract.sol",
  "compiler": {
    "name": "solc",
    "version": "0.8.14+commit.80d49f37.Emscripten.clang"
  },
  "schemaVersion": "3.4.10",
  "updatedAt": "2022-10-05T18:52:25.949Z",
  "devdoc": {
    "kind": "dev",
    "methods": {},
    "version": 1
  },
  "userdoc": {
    "kind": "user",
    "methods": {},
    "version": 1
  }
}