{
  "contractName": "PassCoinContract",
  "abi": [
    {
      "inputs": [],
      "stateMutability": "nonpayable",
      "type": "constructor"
    },
    {
      "anonymous": false,
      "inputs": [
        {
          "indexed": true,
          "internalType": "address",
          "name": "owner",
          "type": "address"
        },
        {
          "indexed": true,
          "internalType": "address",
          "name": "spender",
          "type": "address"
        },
        {
          "indexed": false,
          "internalType": "uint256",
          "name": "value",
          "type": "uint256"
        }
      ],
      "name": "Approval",
      "type": "event"
    },
    {
      "anonymous": false,
      "inputs": [
        {
          "indexed": true,
          "internalType": "address",
          "name": "from",
          "type": "address"
        },
        {
          "indexed": true,
          "internalType": "address",
          "name": "to",
          "type": "address"
        },
        {
          "indexed": false,
          "internalType": "uint256",
          "name": "value",
          "type": "uint256"
        }
      ],
      "name": "Transfer",
      "type": "event"
    },
    {
      "inputs": [],
      "name": "decimals",
      "outputs": [
        {
          "internalType": "uint8",
          "name": "",
          "type": "uint8"
        }
      ],
      "stateMutability": "view",
      "type": "function"
    },
    {
      "inputs": [],
      "name": "name",
      "outputs": [
        {
          "internalType": "string",
          "name": "",
          "type": "string"
        }
      ],
      "stateMutability": "view",
      "type": "function"
    },
    {
      "inputs": [],
      "name": "symbol",
      "outputs": [
        {
          "internalType": "string",
          "name": "",
          "type": "string"
        }
      ],
      "stateMutability": "view",
      "type": "function"
    },
    {
      "inputs": [],
      "name": "totalSupply",
      "outputs": [
        {
          "internalType": "uint256",
          "name": "",
          "type": "uint256"
        }
      ],
      "stateMutability": "view",
      "type": "function"
    },
    {
      "inputs": [
        {
          "internalType": "address",
          "name": "tokenOwner",
          "type": "address"
        }
      ],
      "name": "balanceOf",
      "outputs": [
        {
          "internalType": "uint256",
          "name": "",
          "type": "uint256"
        }
      ],
      "stateMutability": "view",
      "type": "function"
    },
    {
      "inputs": [
        {
          "internalType": "address",
          "name": "receiver",
          "type": "address"
        },
        {
          "internalType": "uint256",
          "name": "numTokens",
          "type": "uint256"
        }
      ],
      "name": "transfer",
      "outputs": [
        {
          "internalType": "bool",
          "name": "",
          "type": "bool"
        }
      ],
      "stateMutability": "nonpayable",
      "type": "function"
    },
    {
      "inputs": [
        {
          "internalType": "address",
          "name": "delegate",
          "type": "address"
        },
        {
          "internalType": "uint256",
          "name": "numTokens",
          "type": "uint256"
        }
      ],
      "name": "approve",
      "outputs": [
        {
          "internalType": "bool",
          "name": "",
          "type": "bool"
        }
      ],
      "stateMutability": "nonpayable",
      "type": "function"
    },
    {
      "inputs": [
        {
          "internalType": "address",
          "name": "owner",
          "type": "address"
        },
        {
          "internalType": "address",
          "name": "delegate",
          "type": "address"
        }
      ],
      "name": "allowance",
      "outputs": [
        {
          "internalType": "uint256",
          "name": "",
          "type": "uint256"
        }
      ],
      "stateMutability": "view",
      "type": "function"
    },
    {
      "inputs": [
        {
          "internalType": "address",
          "name": "owner",
          "type": "address"
        },
        {
          "internalType": "address",
          "name": "buyer",
          "type": "address"
        },
        {
          "internalType": "uint256",
          "name": "numTokens",
          "type": "uint256"
        }
      ],
      "name": "transferFrom",
      "outputs": [
        {
          "internalType": "bool",
          "name": "",
          "type": "bool"
        }
      ],
      "stateMutability": "nonpayable",
      "type": "function"
    },
    {
      "inputs": [
        {
          "internalType": "address",
          "name": "user",
          "type": "address"
        },
        {
          "internalType": "uint256",
          "name": "numTokens",
          "type": "uint256"
        }
      ],
      "name": "useCoin",
      "outputs": [],
      "stateMutability": "nonpayable",
      "type": "function"
    }
  ],
  "bytecode": "0x60806040526305f5e10060025534801561001857600080fd5b50600254336000908152602081905260409020556106838061003b6000396000f3fe608060405234801561001057600080fd5b506004361061009e5760003560e01c80633f711851116100665780633f7118511461014257806370a082311461015757806395d89b4114610180578063a9059cbb146101a3578063dd62ed3e146101b657600080fd5b806306fdde03146100a3578063095ea7b3146100e057806318160ddd1461010357806323b872dd14610115578063313ce56714610128575b600080fd5b6100ca604051806040016040528060088152602001672830b9b9a1b7b4b760c11b81525081565b6040516100d791906104dc565b60405180910390f35b6100f36100ee36600461054d565b6101ef565b60405190151581526020016100d7565b6002545b6040519081526020016100d7565b6100f3610123366004610577565b61025b565b610130600081565b60405160ff90911681526020016100d7565b61015561015036600461054d565b6103a6565b005b6101076101653660046105b3565b6001600160a01b031660009081526020819052604090205490565b6100ca604051806040016040528060048152602001635041535360e01b81525081565b6100f36101b136600461054d565b61042a565b6101076101c43660046105d5565b6001600160a01b03918216600090815260016020908152604080832093909416825291909152205490565b3360008181526001602090815260408083206001600160a01b038716808552925280832085905551919290917f8c5be1e5ebec7d5bd14f71427d1e84f3dd0314c0f7b2291e5b200ac8c7c3b9259061024a9086815260200190565b60405180910390a350600192915050565b6001600160a01b03831660009081526020819052604081205482111561028057600080fd5b6001600160a01b03841660009081526001602090815260408083203384529091529020548211156102b057600080fd5b6001600160a01b0384166000908152602081905260409020546102d490839061061e565b6001600160a01b03851660009081526020818152604080832093909355600181528282203383529052205461030a90839061061e565b6001600160a01b0380861660009081526001602090815260408083203384528252808320949094559186168152908190522054610348908390610635565b6001600160a01b038481166000818152602081815260409182902094909455518581529092918716917fddf252ad1be2c89b69c2b068fc378daa952ba7f163c4a11628f55a4df523b3ef910160405180910390a35060019392505050565b336000908152602081905260409020548111156103c257600080fd5b336000908152602081905260409020546103dd908290610635565b33600090815260208190526040808220929092556001600160a01b0384168152205461040a90829061061e565b6001600160a01b0390921660009081526020819052604090209190915550565b3360009081526020819052604081205482111561044657600080fd5b3360009081526020819052604090205461046190839061061e565b33600090815260208190526040808220929092556001600160a01b0385168152205461048e908390610635565b6001600160a01b038416600081815260208181526040918290209390935551848152909133917fddf252ad1be2c89b69c2b068fc378daa952ba7f163c4a11628f55a4df523b3ef910161024a565b600060208083528351808285015260005b81811015610509578581018301518582016040015282016104ed565b8181111561051b576000604083870101525b50601f01601f1916929092016040019392505050565b80356001600160a01b038116811461054857600080fd5b919050565b6000806040838503121561056057600080fd5b61056983610531565b946020939093013593505050565b60008060006060848603121561058c57600080fd5b61059584610531565b92506105a360208501610531565b9150604084013590509250925092565b6000602082840312156105c557600080fd5b6105ce82610531565b9392505050565b600080604083850312156105e857600080fd5b6105f183610531565b91506105ff60208401610531565b90509250929050565b634e487b7160e01b600052601160045260246000fd5b60008282101561063057610630610608565b500390565b6000821982111561064857610648610608565b50019056fea26469706673582212200056f9c8f4335ae535cf3599bcd9a74d607e7f38f8449b020a47ac28a059e6ca64736f6c634300080e0033",
  "immutableReferences": {},
  "source": "// SPDX-License-Identifier: MIT\r\npragma solidity ^0.8.0;\r\n\r\ninterface IERC20 {\r\n\r\n    function totalSupply() external view returns (uint256);\r\n    function balanceOf(address account) external view returns (uint256);\r\n    function allowance(address owner, address spender) external view returns (uint256);\r\n    function transfer(address recipient, uint256 amount) external returns (bool);\r\n    function approve(address spender, uint256 amount) external returns (bool);\r\n    function transferFrom(address sender, address recipient, uint256 amount) external returns (bool);\r\n\r\n    event Transfer(address indexed from, address indexed to, uint256 value);\r\n    event Approval(address indexed owner, address indexed spender, uint256 value);\r\n}\r\n\r\n\r\ncontract PassCoinContract is IERC20 {\r\n\r\n    string public constant name = \"PassCoin\"; // \r\n    string public constant symbol = \"PASS\"; //  \r\n    uint8 public constant decimals = 0; //  \r\n\r\n    //     \r\n    mapping(address => uint256) balances;\r\n\r\n    //  A   B        \r\n    mapping(address => mapping (address => uint256)) allowed;\r\n\r\n    //   \r\n    uint256 totalSupply_ = 100000000; \r\n\r\n    constructor() {\r\n        balances[msg.sender] = totalSupply_;\r\n    }\r\n\r\n    //     \r\n    function totalSupply() public override view returns (uint256) {\r\n        return totalSupply_;\r\n    }\r\n\r\n    // tokenOwner    \r\n    function balanceOf(address tokenOwner) public override view returns (uint256) {\r\n        return balances[tokenOwner];\r\n    }\r\n\r\n    // receiver  numTokens   \r\n    function transfer(address receiver, uint256 numTokens) public override returns (bool) {\r\n        require(numTokens <= balances[msg.sender]);\r\n        balances[msg.sender] = balances[msg.sender]-numTokens;\r\n        balances[receiver] = balances[receiver]+numTokens;\r\n        emit Transfer(msg.sender, receiver, numTokens);\r\n        return true;\r\n    }\r\n\r\n    // delegate      ( : - )\r\n    function approve(address delegate, uint256 numTokens) public override returns (bool) {\r\n        allowed[msg.sender][delegate] = numTokens;\r\n        emit Approval(msg.sender, delegate, numTokens);\r\n        return true;\r\n    }\r\n\r\n    // owner delegate    \r\n    function allowance(address owner, address delegate) public override view returns (uint) {\r\n        return allowed[owner][delegate];\r\n    }\r\n\r\n    // owner  buyer  numTokens   \r\n    function transferFrom(address owner, address buyer, uint256 numTokens) public override returns (bool) {\r\n        require(numTokens <= balances[owner]);\r\n        require(numTokens <= allowed[owner][msg.sender]);\r\n\r\n        balances[owner] = balances[owner]-numTokens;\r\n        allowed[owner][msg.sender] = allowed[owner][msg.sender]-numTokens;\r\n        balances[buyer] = balances[buyer]+numTokens;\r\n        emit Transfer(owner, buyer, numTokens);\r\n        return true;\r\n    }\r\n\r\n    function useCoin(address user, uint256 numTokens) public {\r\n        require(numTokens <= balances[msg.sender]);\r\n        balances[msg.sender] = balances[msg.sender]+numTokens;\r\n        balances[user] = balances[user]-numTokens;\r\n    }\r\n}\r\n",
  "sourcePath": "c:\\Users\\multicampus\\Desktop\\Git\\S07P22B106\\truffle\\contracts\\PassCoinContract.sol",
  "compiler": {
    "name": "solc",
    "version": "0.8.14+commit.80d49f37.Emscripten.clang"
  },
  "schemaVersion": "3.4.9",
  "updatedAt": "2022-10-03T07:02:13.364Z",
  "devdoc": {
    "kind": "dev",
    "methods": {},
    "version": 1
  },
  "userdoc": {
    "kind": "user",
    "methods": {},
    "version": 1
  }
}