{
  "contractName": "PhotoContract",
  "abi": [
    {
      "inputs": [
        {
          "internalType": "uint256",
          "name": "challengerId",
          "type": "uint256"
        },
        {
          "internalType": "uint256",
          "name": "userId",
          "type": "uint256"
        },
        {
          "internalType": "string",
          "name": "picURL",
          "type": "string"
        },
        {
          "internalType": "string",
          "name": "today",
          "type": "string"
        }
      ],
      "name": "addPhoto",
      "outputs": [],
      "stateMutability": "nonpayable",
      "type": "function"
    },
    {
      "inputs": [
        {
          "internalType": "uint256",
          "name": "challengerId",
          "type": "uint256"
        },
        {
          "internalType": "uint256",
          "name": "photoId",
          "type": "uint256"
        }
      ],
      "name": "deletePhoto",
      "outputs": [],
      "stateMutability": "nonpayable",
      "type": "function"
    },
    {
      "inputs": [
        {
          "internalType": "uint256",
          "name": "challengerId",
          "type": "uint256"
        }
      ],
      "name": "getChallengerPhoto",
      "outputs": [
        {
          "components": [
            {
              "internalType": "uint256",
              "name": "id",
              "type": "uint256"
            },
            {
              "internalType": "uint256",
              "name": "userId",
              "type": "uint256"
            },
            {
              "internalType": "uint256",
              "name": "challengerId",
              "type": "uint256"
            },
            {
              "internalType": "bool",
              "name": "report",
              "type": "bool"
            },
            {
              "internalType": "string",
              "name": "picURL",
              "type": "string"
            },
            {
              "internalType": "string",
              "name": "timestamp",
              "type": "string"
            }
          ],
          "internalType": "struct PhotoContract.Photo[]",
          "name": "",
          "type": "tuple[]"
        }
      ],
      "stateMutability": "view",
      "type": "function"
    }
  ],
  "bytecode": "0x6080604052600160005534801561001557600080fd5b50610911806100256000396000f3fe608060405234801561001057600080fd5b50600436106100415760003560e01c80636854ad6514610046578063d20b03c51461006f578063ef3d13f314610084575b600080fd5b61005961005436600461060e565b610097565b6040516100669190610674565b60405180910390f35b61008261007d3660046107cb565b610266565b005b610082610092366004610842565b610373565b606060026000838152602001908152602001600020805480602002602001604051908101604052809291908181526020016000905b8282101561025b57838290600052602060002090600602016040518060c00160405290816000820154815260200160018201548152602001600282015481526020016003820160009054906101000a900460ff1615151515815260200160048201805461013890610864565b80601f016020809104026020016040519081016040528092919081815260200182805461016490610864565b80156101b15780601f10610186576101008083540402835291602001916101b1565b820191906000526020600020905b81548152906001019060200180831161019457829003601f168201915b505050505081526020016005820180546101ca90610864565b80601f01602080910402602001604051908101604052809291908181526020018280546101f690610864565b80156102435780601f1061021857610100808354040283529160200191610243565b820191906000526020600020905b81548152906001019060200180831161022657829003601f168201915b505050505081525050815260200190600101906100cc565b505050509050919050565b6000805480825260016020526040822091806102818361089e565b909155508155600181018490556002810185905560038101805460ff1916905582516102b690600483019060208601906104fa565b5081516102cc90600583019060208501906104fa565b506000858152600260208181526040832080546001808201835591855291909320845460069092020190815583830154928101929092558281015490820155600380830154908201805460ff191660ff9092161515919091179055600480830180548493928301919061033e90610864565b61034992919061057e565b50600582018160050190805461035e90610864565b61036992919061057e565b5050505050505050565b60008181526001602081815260408084208481559283018490556002830184905560038301805460ff191690558051918201908190529083905290916103bd9160048401916104fa565b506040805160208101918290526000908190526103de9160058401916104fa565b5060005b6000848152600260205260409020548110156104f457600084815260026020526040902080548491908390811061041b5761041b6108c5565b906000526020600020906006020160000154036104e2576000848152600260205260409020805483919083908110610455576104556108c5565b6000918252602090912082546006909202019081556001808301549082015560028083015490820155600380830154908201805460ff191660ff909216151591909117905560048083018054918301916104ae90610864565b6104b992919061057e565b5060058201816005019080546104ce90610864565b6104d992919061057e565b509050506104f4565b806104ec8161089e565b9150506103e2565b50505050565b82805461050690610864565b90600052602060002090601f016020900481019282610528576000855561056e565b82601f1061054157805160ff191683800117855561056e565b8280016001018555821561056e579182015b8281111561056e578251825591602001919060010190610553565b5061057a9291506105f9565b5090565b82805461058a90610864565b90600052602060002090601f0160209004810192826105ac576000855561056e565b82601f106105bd578054855561056e565b8280016001018555821561056e57600052602060002091601f016020900482015b8281111561056e5782548255916001019190600101906105de565b5b8082111561057a57600081556001016105fa565b60006020828403121561062057600080fd5b5035919050565b6000815180845260005b8181101561064d57602081850181015186830182015201610631565b8181111561065f576000602083870101525b50601f01601f19169290920160200192915050565b60006020808301818452808551808352604092508286019150828160051b87010184880160005b8381101561071a57603f19898403018552815160c081518552888201518986015287820151888601526060808301511515818701525060808083015182828801526106e883880182610627565b9250505060a080830151925085820381870152506107068183610627565b96890196945050509086019060010161069b565b509098975050505050505050565b634e487b7160e01b600052604160045260246000fd5b600082601f83011261074f57600080fd5b813567ffffffffffffffff8082111561076a5761076a610728565b604051601f8301601f19908116603f0116810190828211818310171561079257610792610728565b816040528381528660208588010111156107ab57600080fd5b836020870160208301376000602085830101528094505050505092915050565b600080600080608085870312156107e157600080fd5b8435935060208501359250604085013567ffffffffffffffff8082111561080757600080fd5b6108138883890161073e565b9350606087013591508082111561082957600080fd5b506108368782880161073e565b91505092959194509250565b6000806040838503121561085557600080fd5b50508035926020909101359150565b600181811c9082168061087857607f821691505b60208210810361089857634e487b7160e01b600052602260045260246000fd5b50919050565b6000600182016108be57634e487b7160e01b600052601160045260246000fd5b5060010190565b634e487b7160e01b600052603260045260246000fdfea2646970667358221220c88a7794456425fa6961fc486f0c8f73ca9b0d8dd303878945fe5ad8f977eb5564736f6c634300080e0033",
  "immutableReferences": {},
  "source": "// SPDX-License-Identifier: MIT\r\npragma solidity ^0.8.0;\r\npragma abicoder v2;\r\n\r\ncontract PhotoContract{\r\n    struct Photo {\r\n        uint id;\r\n        uint userId;\r\n        uint challengerId;\r\n        bool report;\r\n        string picURL;\r\n        string timestamp;\r\n    }\r\n    uint photoSequence = 1;\r\n    mapping(uint => Photo) photoMap;\r\n\r\n    //  \r\n    mapping(uint => Photo[]) findByChallengerIdPhoto;\r\n\r\n    //  \r\n    function addPhoto(uint challengerId,uint userId,string memory picURL,string memory today) public {\r\n        // challengr url       \r\n        Photo storage photo=photoMap[photoSequence];\r\n        photo.id=photoSequence++;\r\n        photo.userId=userId;\r\n        photo.challengerId=challengerId;\r\n        photo.report=false;\r\n        photo.picURL=picURL;\r\n        photo.timestamp=today;\r\n        findByChallengerIdPhoto[challengerId].push(photo);\r\n    }\r\n\r\n    function deletePhoto(uint challengerId, uint photoId) public {\r\n        Photo storage photo = photoMap[photoId];\r\n        photo.id = 0;\r\n        photo.userId = 0;\r\n        photo.challengerId = 0;\r\n        photo.report = false;\r\n        photo.picURL = \"\";\r\n        photo.timestamp = \"\";\r\n\r\n        for(uint i=0; i<findByChallengerIdPhoto[challengerId].length; i++){\r\n            if(findByChallengerIdPhoto[challengerId][i].id == photoId){\r\n                findByChallengerIdPhoto[challengerId][i] = photo;\r\n                break;\r\n            }\r\n        }\r\n    }\r\n\r\n    //  \r\n    function getChallengerPhoto(uint challengerId) public view returns(Photo[] memory){\r\n        return findByChallengerIdPhoto[challengerId];\r\n    }\r\n}",
  "sourcePath": "c:\\Users\\multicampus\\Desktop\\Git\\S07P22B106\\truffle\\contracts\\PhotoContract.sol",
  "compiler": {
    "name": "solc",
    "version": "0.8.14+commit.80d49f37.Emscripten.clang"
  },
  "schemaVersion": "3.4.9",
  "updatedAt": "2022-10-04T12:52:13.564Z",
  "devdoc": {
    "kind": "dev",
    "methods": {},
    "version": 1
  },
  "userdoc": {
    "kind": "user",
    "methods": {},
    "version": 1
  }
}