{
  "contractName": "PhotoContract",
  "abi": [
    {
      "inputs": [
        {
          "internalType": "uint256",
          "name": "challengerId",
          "type": "uint256"
        },
        {
          "internalType": "uint256",
          "name": "userId",
          "type": "uint256"
        },
        {
          "internalType": "string",
          "name": "picURL",
          "type": "string"
        },
        {
          "internalType": "string",
          "name": "today",
          "type": "string"
        }
      ],
      "name": "addPhoto",
      "outputs": [],
      "stateMutability": "nonpayable",
      "type": "function"
    },
    {
      "inputs": [
        {
          "internalType": "uint256",
          "name": "challengerId",
          "type": "uint256"
        }
      ],
      "name": "getChallengerPhoto",
      "outputs": [
        {
          "components": [
            {
              "internalType": "uint256",
              "name": "id",
              "type": "uint256"
            },
            {
              "internalType": "uint256",
              "name": "userId",
              "type": "uint256"
            },
            {
              "internalType": "uint256",
              "name": "challengerId",
              "type": "uint256"
            },
            {
              "internalType": "string",
              "name": "picURL",
              "type": "string"
            },
            {
              "internalType": "string",
              "name": "timestamp",
              "type": "string"
            }
          ],
          "internalType": "struct PhotoContract.Photo[]",
          "name": "",
          "type": "tuple[]"
        }
      ],
      "stateMutability": "view",
      "type": "function"
    }
  ],
  "bytecode": "0x6080604052600160005534801561001557600080fd5b506106e4806100256000396000f3fe608060405234801561001057600080fd5b50600436106100365760003560e01c80636854ad651461003b578063d20b03c514610064575b600080fd5b61004e610049366004610426565b610079565b60405161005b919061048c565b60405180910390f35b6100776100723660046105d6565b61022d565b005b606060026000838152602001908152602001600020805480602002602001604051908101604052809291908181526020016000905b8282101561022257838290600052602060002090600502016040518060a00160405290816000820154815260200160018201548152602001600282015481526020016003820180546100ff9061064d565b80601f016020809104026020016040519081016040528092919081815260200182805461012b9061064d565b80156101785780601f1061014d57610100808354040283529160200191610178565b820191906000526020600020905b81548152906001019060200180831161015b57829003601f168201915b505050505081526020016004820180546101919061064d565b80601f01602080910402602001604051908101604052809291908181526020018280546101bd9061064d565b801561020a5780601f106101df5761010080835404028352916020019161020a565b820191906000526020600020905b8154815290600101906020018083116101ed57829003601f168201915b505050505081525050815260200190600101906100ae565b505050509050919050565b60008054808252600160205260408220918061024883610687565b909155508155600181018490556002810185905582516102719060038301906020860190610312565b5081516102879060048301906020850190610312565b50600085815260026020818152604083208054600181810183559185529190932084546005909202019081558284015492810192909255828101549082015560038083018054849392830191906102dd9061064d565b6102e8929190610396565b5060048201816004019080546102fd9061064d565b610308929190610396565b5050505050505050565b82805461031e9061064d565b90600052602060002090601f0160209004810192826103405760008555610386565b82601f1061035957805160ff1916838001178555610386565b82800160010185558215610386579182015b8281111561038657825182559160200191906001019061036b565b50610392929150610411565b5090565b8280546103a29061064d565b90600052602060002090601f0160209004810192826103c45760008555610386565b82601f106103d55780548555610386565b8280016001018555821561038657600052602060002091601f016020900482015b828111156103865782548255916001019190600101906103f6565b5b808211156103925760008155600101610412565b60006020828403121561043857600080fd5b5035919050565b6000815180845260005b8181101561046557602081850181015186830182015201610449565b81811115610477576000602083870101525b50601f01601f19169290920160200192915050565b60006020808301818452808551808352604092508286019150828160051b87010184880160005b8381101561052557603f19898403018552815160a0815185528882015189860152878201518886015260608083015182828801526104f38388018261043f565b9250505060808083015192508582038187015250610511818361043f565b9689019694505050908601906001016104b3565b509098975050505050505050565b634e487b7160e01b600052604160045260246000fd5b600082601f83011261055a57600080fd5b813567ffffffffffffffff8082111561057557610575610533565b604051601f8301601f19908116603f0116810190828211818310171561059d5761059d610533565b816040528381528660208588010111156105b657600080fd5b836020870160208301376000602085830101528094505050505092915050565b600080600080608085870312156105ec57600080fd5b8435935060208501359250604085013567ffffffffffffffff8082111561061257600080fd5b61061e88838901610549565b9350606087013591508082111561063457600080fd5b5061064187828801610549565b91505092959194509250565b600181811c9082168061066157607f821691505b60208210810361068157634e487b7160e01b600052602260045260246000fd5b50919050565b6000600182016106a757634e487b7160e01b600052601160045260246000fd5b506001019056fea2646970667358221220fb6c517254a1a090dd26ad905b022a15c5576c64e9a120a66eabacccccc068eb64736f6c634300080e0033",
  "immutableReferences": {},
  "source": "// SPDX-License-Identifier: MIT\r\npragma solidity ^0.8.0;\r\npragma abicoder v2;\r\n\r\ncontract PhotoContract{\r\n    struct Photo {\r\n        uint id;\r\n        uint userId;\r\n        uint challengerId;\r\n\r\n        string picURL;\r\n        string timestamp;\r\n    }\r\n    uint photoSequence = 1;\r\n    mapping(uint => Photo) photoMap;\r\n\r\n    //  \r\n    mapping(uint => Photo[]) findByChallengerIdPhoto;\r\n\r\n    //  \r\n    function addPhoto(uint challengerId,uint userId,string memory picURL,string memory today) public {\r\n        // challengr url       \r\n        Photo storage photo=photoMap[photoSequence];\r\n        photo.id=photoSequence++;\r\n        photo.userId=userId;\r\n        photo.challengerId=challengerId;\r\n        photo.picURL=picURL;\r\n        photo.timestamp=today;\r\n\r\n        findByChallengerIdPhoto[challengerId].push(photo);\r\n    }\r\n\r\n    //  \r\n    function getChallengerPhoto(uint challengerId) public view returns(Photo[] memory){\r\n        return findByChallengerIdPhoto[challengerId];\r\n    }\r\n}",
  "sourcePath": "c:\\Users\\multicampus\\Desktop\\S07P22B106\\truffle\\contracts\\PhotoContract.sol",
  "compiler": {
    "name": "solc",
    "version": "0.8.14+commit.80d49f37.Emscripten.clang"
  },
  "schemaVersion": "3.4.10",
  "updatedAt": "2022-10-02T10:23:06.025Z",
  "devdoc": {
    "kind": "dev",
    "methods": {},
    "version": 1
  },
  "userdoc": {
    "kind": "user",
    "methods": {},
    "version": 1
  }
}