{
  "contractName": "PhotoContract",
  "abi": [
    {
      "inputs": [
        {
          "internalType": "uint256",
          "name": "challengerId",
          "type": "uint256"
        },
        {
          "internalType": "uint256",
          "name": "userId",
          "type": "uint256"
        },
        {
          "internalType": "string",
          "name": "picURL",
          "type": "string"
        },
        {
          "internalType": "string",
          "name": "today",
          "type": "string"
        }
      ],
      "name": "addPhoto",
      "outputs": [],
      "stateMutability": "nonpayable",
      "type": "function"
    },
    {
      "inputs": [
        {
          "internalType": "uint256",
          "name": "challengerId",
          "type": "uint256"
        }
      ],
      "name": "getChallengerPhoto",
      "outputs": [
        {
          "components": [
            {
              "internalType": "uint256",
              "name": "id",
              "type": "uint256"
            },
            {
              "internalType": "uint256",
              "name": "userId",
              "type": "uint256"
            },
            {
              "internalType": "uint256",
              "name": "challengerId",
              "type": "uint256"
            },
            {
              "internalType": "bool",
              "name": "report",
              "type": "bool"
            },
            {
              "internalType": "string",
              "name": "picURL",
              "type": "string"
            },
            {
              "internalType": "string",
              "name": "timestamp",
              "type": "string"
            }
          ],
          "internalType": "struct PhotoContract.Photo[]",
          "name": "",
          "type": "tuple[]"
        }
      ],
      "stateMutability": "view",
      "type": "function"
    }
  ],
  "bytecode": "0x6080604052600160005534801561001557600080fd5b50610734806100256000396000f3fe608060405234801561001057600080fd5b50600436106100365760003560e01c80636854ad651461003b578063d20b03c514610064575b600080fd5b61004e610049366004610469565b610079565b60405161005b91906104cf565b60405180910390f35b610077610072366004610626565b610248565b005b606060026000838152602001908152602001600020805480602002602001604051908101604052809291908181526020016000905b8282101561023d57838290600052602060002090600602016040518060c00160405290816000820154815260200160018201548152602001600282015481526020016003820160009054906101000a900460ff1615151515815260200160048201805461011a9061069d565b80601f01602080910402602001604051908101604052809291908181526020018280546101469061069d565b80156101935780601f1061016857610100808354040283529160200191610193565b820191906000526020600020905b81548152906001019060200180831161017657829003601f168201915b505050505081526020016005820180546101ac9061069d565b80601f01602080910402602001604051908101604052809291908181526020018280546101d89061069d565b80156102255780601f106101fa57610100808354040283529160200191610225565b820191906000526020600020905b81548152906001019060200180831161020857829003601f168201915b505050505081525050815260200190600101906100ae565b505050509050919050565b600080548082526001602052604082209180610263836106d7565b909155508155600181018490556002810185905560038101805460ff1916905582516102989060048301906020860190610355565b5081516102ae9060058301906020850190610355565b506000858152600260208181526040832080546001808201835591855291909320845460069092020190815583830154928101929092558281015490820155600380830154908201805460ff191660ff909216151591909117905560048083018054849392830191906103209061069d565b61032b9291906103d9565b5060058201816005019080546103409061069d565b61034b9291906103d9565b5050505050505050565b8280546103619061069d565b90600052602060002090601f01602090048101928261038357600085556103c9565b82601f1061039c57805160ff19168380011785556103c9565b828001600101855582156103c9579182015b828111156103c95782518255916020019190600101906103ae565b506103d5929150610454565b5090565b8280546103e59061069d565b90600052602060002090601f01602090048101928261040757600085556103c9565b82601f1061041857805485556103c9565b828001600101855582156103c957600052602060002091601f016020900482015b828111156103c9578254825591600101919060010190610439565b5b808211156103d55760008155600101610455565b60006020828403121561047b57600080fd5b5035919050565b6000815180845260005b818110156104a85760208185018101518683018201520161048c565b818111156104ba576000602083870101525b50601f01601f19169290920160200192915050565b60006020808301818452808551808352604092508286019150828160051b87010184880160005b8381101561057557603f19898403018552815160c0815185528882015189860152878201518886015260608083015115158187015250608080830151828288015261054383880182610482565b9250505060a080830151925085820381870152506105618183610482565b9689019694505050908601906001016104f6565b509098975050505050505050565b634e487b7160e01b600052604160045260246000fd5b600082601f8301126105aa57600080fd5b813567ffffffffffffffff808211156105c5576105c5610583565b604051601f8301601f19908116603f011681019082821181831017156105ed576105ed610583565b8160405283815286602085880101111561060657600080fd5b836020870160208301376000602085830101528094505050505092915050565b6000806000806080858703121561063c57600080fd5b8435935060208501359250604085013567ffffffffffffffff8082111561066257600080fd5b61066e88838901610599565b9350606087013591508082111561068457600080fd5b5061069187828801610599565b91505092959194509250565b600181811c908216806106b157607f821691505b6020821081036106d157634e487b7160e01b600052602260045260246000fd5b50919050565b6000600182016106f757634e487b7160e01b600052601160045260246000fd5b506001019056fea2646970667358221220d5861edcc6d679a127bb8bb5e32e01afb580e395c7f8065bfca45e7f6862282164736f6c634300080e0033",
  "immutableReferences": {},
  "source": "// SPDX-License-Identifier: MIT\r\npragma solidity ^0.8.0;\r\npragma abicoder v2;\r\n\r\ncontract PhotoContract{\r\n    struct Photo {\r\n        uint id;\r\n        uint userId;\r\n        uint challengerId;\r\n        bool report;\r\n        string picURL;\r\n        string timestamp;\r\n    }\r\n    uint photoSequence = 1;\r\n    mapping(uint => Photo) photoMap;\r\n\r\n    //  \r\n    mapping(uint => Photo[]) findByChallengerIdPhoto;\r\n\r\n    //  \r\n    function addPhoto(uint challengerId,uint userId,string memory picURL,string memory today) public {\r\n        // challengr url       \r\n        Photo storage photo=photoMap[photoSequence];\r\n        photo.id=photoSequence++;\r\n        photo.userId=userId;\r\n        photo.challengerId=challengerId;\r\n        photo.report=false;\r\n        photo.picURL=picURL;\r\n        photo.timestamp=today;\r\n        findByChallengerIdPhoto[challengerId].push(photo);\r\n    }\r\n\r\n    //  \r\n    function getChallengerPhoto(uint challengerId) public view returns(Photo[] memory){\r\n        return findByChallengerIdPhoto[challengerId];\r\n    }\r\n}",
  "sourcePath": "c:\\SSAFY\\second\\workspace\\teukhwa\\S07P22B106\\truffle\\contracts\\PhotoContract.sol",
  "compiler": {
    "name": "solc",
    "version": "0.8.14+commit.80d49f37.Emscripten.clang"
  },
  "schemaVersion": "3.4.9",
  "updatedAt": "2022-10-04T08:19:59.909Z",
  "devdoc": {
    "kind": "dev",
    "methods": {},
    "version": 1
  },
  "userdoc": {
    "kind": "user",
    "methods": {},
    "version": 1
  }
}