{
  "contractName": "VoteContract",
  "abi": [
    {
      "anonymous": false,
      "inputs": [
        {
          "indexed": false,
          "internalType": "uint256",
          "name": "voteId",
          "type": "uint256"
        }
      ],
      "name": "returnVoteId",
      "type": "event"
    },
    {
      "inputs": [
        {
          "internalType": "uint256",
          "name": "challengerId",
          "type": "uint256"
        },
        {
          "internalType": "uint256",
          "name": "userId",
          "type": "uint256"
        },
        {
          "internalType": "string",
          "name": "picURL",
          "type": "string"
        },
        {
          "internalType": "string",
          "name": "today",
          "type": "string"
        }
      ],
      "name": "addPhoto",
      "outputs": [],
      "stateMutability": "nonpayable",
      "type": "function"
    },
    {
      "inputs": [
        {
          "internalType": "uint256",
          "name": "challengerId",
          "type": "uint256"
        },
        {
          "internalType": "uint256",
          "name": "photoId",
          "type": "uint256"
        }
      ],
      "name": "deletePhoto",
      "outputs": [],
      "stateMutability": "nonpayable",
      "type": "function"
    },
    {
      "inputs": [
        {
          "internalType": "uint256",
          "name": "challengerId",
          "type": "uint256"
        }
      ],
      "name": "getChallengerPhoto",
      "outputs": [
        {
          "components": [
            {
              "internalType": "uint256",
              "name": "id",
              "type": "uint256"
            },
            {
              "internalType": "uint256",
              "name": "userId",
              "type": "uint256"
            },
            {
              "internalType": "uint256",
              "name": "challengerId",
              "type": "uint256"
            },
            {
              "internalType": "bool",
              "name": "report",
              "type": "bool"
            },
            {
              "internalType": "string",
              "name": "picURL",
              "type": "string"
            },
            {
              "internalType": "string",
              "name": "timestamp",
              "type": "string"
            }
          ],
          "internalType": "struct PhotoContract.Photo[]",
          "name": "",
          "type": "tuple[]"
        }
      ],
      "stateMutability": "view",
      "type": "function"
    },
    {
      "inputs": [
        {
          "internalType": "uint256",
          "name": "challengeId",
          "type": "uint256"
        },
        {
          "internalType": "uint256",
          "name": "photoId",
          "type": "uint256"
        },
        {
          "internalType": "uint256",
          "name": "userId",
          "type": "uint256"
        },
        {
          "internalType": "uint256",
          "name": "challengerId",
          "type": "uint256"
        }
      ],
      "name": "report",
      "outputs": [],
      "stateMutability": "nonpayable",
      "type": "function"
    },
    {
      "inputs": [
        {
          "internalType": "uint256",
          "name": "challengeId",
          "type": "uint256"
        },
        {
          "internalType": "uint256",
          "name": "userId",
          "type": "uint256"
        },
        {
          "internalType": "uint256",
          "name": "voteId",
          "type": "uint256"
        },
        {
          "internalType": "bool",
          "name": "pass",
          "type": "bool"
        }
      ],
      "name": "voting",
      "outputs": [],
      "stateMutability": "nonpayable",
      "type": "function"
    },
    {
      "inputs": [
        {
          "internalType": "uint256",
          "name": "voteId",
          "type": "uint256"
        }
      ],
      "name": "endVote",
      "outputs": [
        {
          "internalType": "bool",
          "name": "",
          "type": "bool"
        },
        {
          "internalType": "uint256[]",
          "name": "",
          "type": "uint256[]"
        }
      ],
      "stateMutability": "view",
      "type": "function"
    },
    {
      "inputs": [
        {
          "internalType": "uint256",
          "name": "challengeId",
          "type": "uint256"
        }
      ],
      "name": "getChallengeVote",
      "outputs": [
        {
          "components": [
            {
              "internalType": "uint256",
              "name": "id",
              "type": "uint256"
            },
            {
              "internalType": "uint256",
              "name": "challengeId",
              "type": "uint256"
            },
            {
              "components": [
                {
                  "internalType": "uint256",
                  "name": "id",
                  "type": "uint256"
                },
                {
                  "internalType": "uint256",
                  "name": "userId",
                  "type": "uint256"
                },
                {
                  "internalType": "uint256",
                  "name": "challengerId",
                  "type": "uint256"
                },
                {
                  "internalType": "bool",
                  "name": "report",
                  "type": "bool"
                },
                {
                  "internalType": "string",
                  "name": "picURL",
                  "type": "string"
                },
                {
                  "internalType": "string",
                  "name": "timestamp",
                  "type": "string"
                }
              ],
              "internalType": "struct PhotoContract.Photo",
              "name": "photo",
              "type": "tuple"
            },
            {
              "internalType": "uint256",
              "name": "pass",
              "type": "uint256"
            },
            {
              "internalType": "uint256",
              "name": "fail",
              "type": "uint256"
            },
            {
              "internalType": "uint256",
              "name": "startTimestamp",
              "type": "uint256"
            },
            {
              "internalType": "uint256[]",
              "name": "userIdList",
              "type": "uint256[]"
            },
            {
              "internalType": "bool[]",
              "name": "userVoteList",
              "type": "bool[]"
            }
          ],
          "internalType": "struct VoteContract.Vote[]",
          "name": "",
          "type": "tuple[]"
        }
      ],
      "stateMutability": "view",
      "type": "function"
    },
    {
      "inputs": [
        {
          "internalType": "uint256",
          "name": "voteId",
          "type": "uint256"
        }
      ],
      "name": "getVote",
      "outputs": [
        {
          "components": [
            {
              "internalType": "uint256",
              "name": "id",
              "type": "uint256"
            },
            {
              "internalType": "uint256",
              "name": "challengeId",
              "type": "uint256"
            },
            {
              "components": [
                {
                  "internalType": "uint256",
                  "name": "id",
                  "type": "uint256"
                },
                {
                  "internalType": "uint256",
                  "name": "userId",
                  "type": "uint256"
                },
                {
                  "internalType": "uint256",
                  "name": "challengerId",
                  "type": "uint256"
                },
                {
                  "internalType": "bool",
                  "name": "report",
                  "type": "bool"
                },
                {
                  "internalType": "string",
                  "name": "picURL",
                  "type": "string"
                },
                {
                  "internalType": "string",
                  "name": "timestamp",
                  "type": "string"
                }
              ],
              "internalType": "struct PhotoContract.Photo",
              "name": "photo",
              "type": "tuple"
            },
            {
              "internalType": "uint256",
              "name": "pass",
              "type": "uint256"
            },
            {
              "internalType": "uint256",
              "name": "fail",
              "type": "uint256"
            },
            {
              "internalType": "uint256",
              "name": "startTimestamp",
              "type": "uint256"
            },
            {
              "internalType": "uint256[]",
              "name": "userIdList",
              "type": "uint256[]"
            },
            {
              "internalType": "bool[]",
              "name": "userVoteList",
              "type": "bool[]"
            }
          ],
          "internalType": "struct VoteContract.Vote",
          "name": "",
          "type": "tuple"
        }
      ],
      "stateMutability": "view",
      "type": "function"
    }
  ],
  "bytecode": "0x60806040526001600055600160035534801561001a57600080fd5b50611e648061002a6000396000f3fe608060405234801561001057600080fd5b50600436106100885760003560e01c8063c7a097b71161005b578063c7a097b71461010c578063d20b03c51461011f578063e8a9e2eb14610132578063ef3d13f31461015257600080fd5b80635a55c1f01461008d5780636854ad65146100b65780636ffac65d146100d6578063865df0ad146100eb575b600080fd5b6100a061009b36600461192c565b610165565b6040516100ad9190611ae2565b60405180910390f35b6100c96100c436600461192c565b6103f3565b6040516100ad9190611afc565b6100e96100e4366004611b5e565b6105c2565b005b6100fe6100f936600461192c565b610ab1565b6040516100ad929190611b90565b6100e961011a366004611be0565b610f72565b6100e961012d366004611cc9565b61119f565b61014561014036600461192c565b6112ac565b6040516100ad9190611d40565b6100e9610160366004611d95565b611587565b61016d61170e565b60008281526004602081815260409283902083516101008101855281548152600182015481840152845160c08101865260028301805482526003840154948201949094529382015484860152600582015460ff16151560608501526006820180549195929492860193916080840191906101e690611db7565b80601f016020809104026020016040519081016040528092919081815260200182805461021290611db7565b801561025f5780601f106102345761010080835404028352916020019161025f565b820191906000526020600020905b81548152906001019060200180831161024257829003601f168201915b5050505050815260200160058201805461027890611db7565b80601f01602080910402602001604051908101604052809291908181526020018280546102a490611db7565b80156102f15780601f106102c6576101008083540402835291602001916102f1565b820191906000526020600020905b8154815290600101906020018083116102d457829003601f168201915b50505050508152505081526020016008820154815260200160098201548152602001600a8201548152602001600b820180548060200260200160405190810160405280929190818152602001828054801561036b57602002820191906000526020600020905b815481526020019060010190808311610357575b50505050508152602001600c82018054806020026020016040519081016040528092919081815260200182805480156103e357602002820191906000526020600020906000905b825461010083900a900460ff1615158152602060019283018181049485019490930390920291018084116103b25790505b5050505050815250509050919050565b606060026000838152602001908152602001600020805480602002602001604051908101604052809291908181526020016000905b828210156105b757838290600052602060002090600602016040518060c00160405290816000820154815260200160018201548152602001600282015481526020016003820160009054906101000a900460ff1615151515815260200160048201805461049490611db7565b80601f01602080910402602001604051908101604052809291908181526020018280546104c090611db7565b801561050d5780601f106104e25761010080835404028352916020019161050d565b820191906000526020600020905b8154815290600101906020018083116104f057829003601f168201915b5050505050815260200160058201805461052690611db7565b80601f016020809104026020016040519081016040528092919081815260200182805461055290611db7565b801561059f5780601f106105745761010080835404028352916020019161059f565b820191906000526020600020905b81548152906001019060200180831161058257829003601f168201915b50505050508152505081526020019060010190610428565b505050509050919050565b6000838152600160208181526040808420815160c081018352815481529381015492840192909252600282015490830152600381015460ff161515606083015260048101805460808401919061061790611db7565b80601f016020809104026020016040519081016040528092919081815260200182805461064390611db7565b80156106905780601f1061066557610100808354040283529160200191610690565b820191906000526020600020905b81548152906001019060200180831161067357829003601f168201915b505050505081526020016005820180546106a990611db7565b80601f01602080910402602001604051908101604052809291908181526020018280546106d590611db7565b80156107225780601f106106f757610100808354040283529160200191610722565b820191906000526020600020905b81548152906001019060200180831161070557829003601f168201915b50505091909252505060016060830181815260008881526020838152604091829020865181558187015194810194909455908501516002840155905160038301805460ff1916911515919091179055608084015180519495508594929350610793926004850192919091019061178c565b5060a082015180516107af91600584019160209091019061178c565b5090505060005b6000838152600260205260409020548110156108bd5760008381526002602052604090208054869190839081106107ef576107ef611df1565b906000526020600020906006020160000154036108ab57600083815260026020526040902080548391908390811061082957610829611df1565b600091825260209182902083516006929092020190815582820151600182015560408301516002820155606083015160038201805460ff19169115159190911790556080830151805191926108869260048501929091019061178c565b5060a082015180516108a291600584019160209091019061178c565b509050506108bd565b806108b581611e07565b9150506107b6565b5060038054600081815260046020526040812092906108db83611e07565b90915550815560018101869055815160028201908155602080840151600384015560408401516004840155606084015160058401805460ff19169115159190911790556080840151805185939261093992600687019291019061178c565b5060a0820151805161095591600584019160209091019061178c565b505042600a8301555060008681526005602081815260408320805460018082018355918552919093208454600d90920201908155828401549281019290925560028084018054918401918255600380860154908501556004808601549085015582850154928401805460ff191660ff909416151593909317909255600680850180548695949392850191906109e990611db7565b6109f4929190611810565b506005820181600501908054610a0990611db7565b610a14929190611810565b5050506008820154816008015560098201548160090155600a82015481600a0155600b820181600b01908054610a4b92919061188b565b50600c8281018054610a6092840191906118ca565b505081546040519081527f0e34776b3e53847697fd48f25578583a5357960363194d06436db5c5bdf71b8e915060200160405180910390a1610aa9868583600001546000610f72565b505050505050565b600081815260046020818152604080842081516101008101835281548152600182015481850152825160c08101845260028301805482526003840154958201959095529482015485840152600582015460ff161515606086810191909152600683018054919688969395860193909290916080840191610b3090611db7565b80601f0160208091040260200160405190810160405280929190818152602001828054610b5c90611db7565b8015610ba95780601f10610b7e57610100808354040283529160200191610ba9565b820191906000526020600020905b815481529060010190602001808311610b8c57829003601f168201915b50505050508152602001600582018054610bc290611db7565b80601f0160208091040260200160405190810160405280929190818152602001828054610bee90611db7565b8015610c3b5780601f10610c1057610100808354040283529160200191610c3b565b820191906000526020600020905b815481529060010190602001808311610c1e57829003601f168201915b50505050508152505081526020016008820154815260200160098201548152602001600a8201548152602001600b8201805480602002602001604051908101604052809291908181526020018280548015610cb557602002820191906000526020600020905b815481526020019060010190808311610ca1575b50505050508152602001600c8201805480602002602001604051908101604052809291908181526020018280548015610d2d57602002820191906000526020600020906000905b825461010083900a900460ff161515815260206001928301818104948501949093039092029101808411610cfc5790505b50505050508152505090506000805b8260c0015151811015610de85782608001518360600151118015610d7a57508260e001518181518110610d7157610d71611df1565b60200260200101515b15610d915781610d8981611e07565b925050610dd6565b82608001518360600151108015610dc357508260e001518181518110610db957610db9611df1565b6020026020010151155b15610dd65781610dd281611e07565b9250505b80610de081611e07565b915050610d3c565b5060008167ffffffffffffffff811115610e0457610e04611c26565b604051908082528060200260200182016040528015610e2d578160200160208202803683370190505b5090506000915060005b8360c0015151811015610f595783608001518460600151118015610e7557508360e001518181518110610e6c57610e6c611df1565b60200260200101515b15610ec7578360c001518181518110610e9057610e90611df1565b6020026020010151828480610ea490611e07565b955081518110610eb657610eb6611df1565b602002602001018181525050610f47565b83608001518460600151108015610ef957508360e001518181518110610eef57610eef611df1565b6020026020010151155b15610f47578360c001518181518110610f1457610f14611df1565b6020026020010151828480610f2890611e07565b955081518110610f3a57610f3a611df1565b6020026020010181815250505b80610f5181611e07565b915050610e37565b5082608001518360600151118194509450505050915091565b60008281526004602090815260408220600b8101805460018101825590845291909220018490558115610fef57600881018054906000610fb183611e07565b9091555050600c810180546001810182556000918252602091829020918104909101805460ff601f9093166101000a92830219169091179055611038565b60098101805490600061100183611e07565b9091555050600c8101805460018101825560009182526020918290209181049091018054601f9092166101000a60ff021990911690555b60005b600086815260056020526040902080548591908390811061105e5761105e611df1565b90600052602060002090600d02016000015414611087578061107f81611e07565b91505061103b565b60008681526005602052604090208054839190839081106110aa576110aa611df1565b600091825260209091208254600d9092020190815560018083015490820155600280830180549183019182556003808501549084015560048085015490840155600580850154908401805460ff191660ff9092161515919091179055600680850180549293929185019161111d90611db7565b611128929190611810565b50600582018160050190805461113d90611db7565b611148929190611810565b5050506008820154816008015560098201548160090155600a82015481600a0155600b820181600b0190805461117f92919061188b565b50600c828101805461119492840191906118ca565b505050505050505050565b6000805480825260016020526040822091806111ba83611e07565b909155508155600181018490556002810185905560038101805460ff1916905582516111ef906004830190602086019061178c565b508151611205906005830190602085019061178c565b506000858152600260208181526040832080546001808201835591855291909320845460069092020190815583830154928101929092558281015490820155600380830154908201805460ff191660ff9092161515919091179055600480830180548493928301919061127790611db7565b611282929190611810565b50600582018160050190805461129790611db7565b6112a2929190611810565b5050505050505050565b606060056000838152602001908152602001600020805480602002602001604051908101604052809291908181526020016000905b828210156105b757838290600052602060002090600d0201604051806101000160405290816000820154815260200160018201548152602001600282016040518060c00160405290816000820154815260200160018201548152602001600282015481526020016003820160009054906101000a900460ff1615151515815260200160048201805461137290611db7565b80601f016020809104026020016040519081016040528092919081815260200182805461139e90611db7565b80156113eb5780601f106113c0576101008083540402835291602001916113eb565b820191906000526020600020905b8154815290600101906020018083116113ce57829003601f168201915b5050505050815260200160058201805461140490611db7565b80601f016020809104026020016040519081016040528092919081815260200182805461143090611db7565b801561147d5780601f106114525761010080835404028352916020019161147d565b820191906000526020600020905b81548152906001019060200180831161146057829003601f168201915b50505050508152505081526020016008820154815260200160098201548152602001600a8201548152602001600b82018054806020026020016040519081016040528092919081815260200182805480156114f757602002820191906000526020600020905b8154815260200190600101908083116114e3575b50505050508152602001600c820180548060200260200160405190810160405280929190818152602001828054801561156f57602002820191906000526020600020906000905b825461010083900a900460ff16151581526020600192830181810494850194909303909202910180841161153e5790505b505050505081525050815260200190600101906112e1565b60008181526001602081815260408084208481559283018490556002830184905560038301805460ff191690558051918201908190529083905290916115d191600484019161178c565b506040805160208101918290526000908190526115f291600584019161178c565b5060005b60008481526002602052604090205481101561170857600084815260026020526040902080548491908390811061162f5761162f611df1565b906000526020600020906006020160000154036116f657600084815260026020526040902080548391908390811061166957611669611df1565b6000918252602090912082546006909202019081556001808301549082015560028083015490820155600380830154908201805460ff191660ff909216151591909117905560048083018054918301916116c290611db7565b6116cd929190611810565b5060058201816005019080546116e290611db7565b6116ed929190611810565b50905050611708565b8061170081611e07565b9150506115f6565b50505050565b60405180610100016040528060008152602001600081526020016117636040518060c0016040528060008152602001600081526020016000815260200160001515815260200160608152602001606081525090565b815260200160008152602001600081526020016000815260200160608152602001606081525090565b82805461179890611db7565b90600052602060002090601f0160209004810192826117ba5760008555611800565b82601f106117d357805160ff1916838001178555611800565b82800160010185558215611800579182015b828111156118005782518255916020019190600101906117e5565b5061180c929150611917565b5090565b82805461181c90611db7565b90600052602060002090601f01602090048101928261183e5760008555611800565b82601f1061184f5780548555611800565b8280016001018555821561180057600052602060002091601f016020900482015b82811115611800578254825591600101919060010190611870565b82805482825590600052602060002090810192821561180057600052602060002091820182811115611800578254825591600101919060010190611870565b82805482825590600052602060002090601f0160209004810192821561180057600052602060002091601f0160209004820182811115611800578254825591600101919060010190611870565b5b8082111561180c5760008155600101611918565b60006020828403121561193e57600080fd5b5035919050565b6000815180845260005b8181101561196b5760208185018101518683018201520161194f565b8181111561197d576000602083870101525b50601f01601f19169290920160200192915050565b8051825260208101516020830152604081015160408301526060810151151560608301526000608082015160c060808501526119d160c0850182611945565b905060a083015184820360a08601526119ea8282611945565b95945050505050565b600081518084526020808501945080840160005b83811015611a25578151151587529582019590820190600101611a07565b509495945050505050565b600061010082518452602080840151818601526040840151826040870152611a5a83870182611992565b925050606084015160608601526080840151608086015260a084015160a086015260c084015185830360c087015282815180855283850191508383019450600092505b80831015611abd5784518252938301936001929092019190830190611a9d565b5060e0860151935086810360e0880152611ad781856119f3565b979650505050505050565b602081526000611af56020830184611a30565b9392505050565b6000602080830181845280855180835260408601915060408160051b870101925083870160005b82811015611b5157603f19888603018452611b3f858351611992565b94509285019290850190600101611b23565b5092979650505050505050565b60008060008060808587031215611b7457600080fd5b5050823594602084013594506040840135936060013592509050565b60006040820184151583526020604081850152818551808452606086019150828701935060005b81811015611bd357845183529383019391830191600101611bb7565b5090979650505050505050565b60008060008060808587031215611bf657600080fd5b84359350602085013592506040850135915060608501358015158114611c1b57600080fd5b939692955090935050565b634e487b7160e01b600052604160045260246000fd5b600082601f830112611c4d57600080fd5b813567ffffffffffffffff80821115611c6857611c68611c26565b604051601f8301601f19908116603f01168101908282118183101715611c9057611c90611c26565b81604052838152866020858801011115611ca957600080fd5b836020870160208301376000602085830101528094505050505092915050565b60008060008060808587031215611cdf57600080fd5b8435935060208501359250604085013567ffffffffffffffff80821115611d0557600080fd5b611d1188838901611c3c565b93506060870135915080821115611d2757600080fd5b50611d3487828801611c3c565b91505092959194509250565b6000602080830181845280855180835260408601915060408160051b870101925083870160005b82811015611b5157603f19888603018452611d83858351611a30565b94509285019290850190600101611d67565b60008060408385031215611da857600080fd5b50508035926020909101359150565b600181811c90821680611dcb57607f821691505b602082108103611deb57634e487b7160e01b600052602260045260246000fd5b50919050565b634e487b7160e01b600052603260045260246000fd5b600060018201611e2757634e487b7160e01b600052601160045260246000fd5b506001019056fea2646970667358221220fdbff2f551ff9a05522a4c439b631269aa816371d77a52ba77a67d8c97905f6d64736f6c634300080e0033",
  "immutableReferences": {},
  "source": "// SPDX-License-Identifier: MIT\r\npragma solidity ^0.8.0;\r\npragma abicoder v2;\r\n\r\nimport \"./PhotoContract.sol\";\r\n\r\ncontract VoteContract is PhotoContract{\r\n    struct Vote{\r\n        // pk\r\n        uint id;\r\n\r\n        uint challengeId;\r\n        Photo photo;\r\n        // \r\n        uint pass;\r\n        uint fail;\r\n\r\n        // \r\n        uint startTimestamp;\r\n        //   \r\n        uint[] userIdList;\r\n        bool[] userVoteList;\r\n    }\r\n    uint voteSequence = 1;\r\n    mapping(uint => Vote) voteMap;\r\n\r\n    //  \r\n    mapping(uint => Vote[]) findByChallengeIdVote;\r\n    event returnVoteId(uint voteId);\r\n     // \r\n    function report(uint challengeId,uint photoId,uint userId, uint challengerId) public{\r\n        Photo memory findPhoto=photoMap[photoId];\r\n        findPhoto.report = true;\r\n        photoMap[photoId] = findPhoto;\r\n        for(uint i=0; i<findByChallengerIdPhoto[challengerId].length; i++){\r\n            if(findByChallengerIdPhoto[challengerId][i].id == photoId){\r\n                findByChallengerIdPhoto[challengerId][i] = findPhoto;\r\n                break;\r\n            }\r\n        }\r\n\r\n        Vote storage vote=voteMap[voteSequence];\r\n        vote.id=voteSequence++;\r\n        vote.challengeId=challengeId;\r\n        vote.photo=findPhoto;\r\n        vote.startTimestamp=block.timestamp;\r\n\r\n        findByChallengeIdVote[challengeId].push(vote);\r\n        emit returnVoteId(vote.id);\r\n        voting(challengeId,userId, vote.id, false); //     \r\n    }\r\n    //  \r\n    function voting(uint challengeId,uint userId, uint voteId, bool pass) public{\r\n        Vote storage findVote=voteMap[voteId];\r\n\r\n        findVote.userIdList.push(userId);\r\n        if(pass){\r\n            findVote.pass++;\r\n            findVote.userVoteList.push(true);\r\n        }\r\n        else{\r\n            findVote.fail++;\r\n            findVote.userVoteList.push(false);\r\n        }\r\n\r\n        uint voteIndex = 0;\r\n        while(findByChallengeIdVote[challengeId][voteIndex].id!=voteId) \r\n            voteIndex++;\r\n        \r\n        findByChallengeIdVote[challengeId][voteIndex] = findVote;\r\n    }\r\n\r\n    //  \r\n    function endVote(uint voteId) public view returns(bool,uint[] memory){\r\n        Vote memory vote=voteMap[voteId];\r\n\r\n        //    \r\n        uint count=0;\r\n        for (uint256 i = 0; i < vote.userIdList.length; i++) {\r\n            if(vote.pass>vote.fail&&vote.userVoteList[i]) count++; \r\n            else if (vote.pass<vote.fail&&!vote.userVoteList[i]) count++;\r\n        }\r\n        \r\n        uint[] memory userIdList=new uint[](count);\r\n        count=0;\r\n        for (uint256 i = 0; i < vote.userIdList.length; i++) {\r\n            if(vote.pass>vote.fail&&vote.userVoteList[i]) {\r\n                userIdList[count++]=vote.userIdList[i];             \r\n            }\r\n            else if (vote.pass<vote.fail&&!vote.userVoteList[i]){\r\n                userIdList[count++]=vote.userIdList[i];   \r\n            }\r\n        }\r\n        \r\n        //     \r\n        return (vote.pass>vote.fail,userIdList);\r\n    }\r\n\r\n    //    \r\n    function getChallengeVote(uint challengeId)public view returns(Vote[] memory){\r\n        return findByChallengeIdVote[challengeId];\r\n    }\r\n\r\n    function getVote(uint voteId) public view returns(Vote memory){\r\n        return voteMap[voteId];\r\n    }\r\n}",
  "sourcePath": "c:\\Users\\multicampus\\Desktop\\ssafy\\S07P22B106\\truffle\\contracts\\VoteContract.sol",
  "compiler": {
    "name": "solc",
    "version": "0.8.14+commit.80d49f37.Emscripten.clang"
  },
  "schemaVersion": "3.4.10",
  "updatedAt": "2022-10-05T18:52:25.967Z",
  "devdoc": {
    "kind": "dev",
    "methods": {},
    "version": 1
  },
  "userdoc": {
    "kind": "user",
    "methods": {},
    "version": 1
  }
}