{
  "contractName": "VoteContract",
  "abi": [
    {
      "anonymous": false,
      "inputs": [
        {
          "indexed": false,
          "internalType": "uint256",
          "name": "voteId",
          "type": "uint256"
        }
      ],
      "name": "returnVoteId",
      "type": "event"
    },
    {
      "inputs": [
        {
          "internalType": "uint256",
          "name": "challengerId",
          "type": "uint256"
        },
        {
          "internalType": "uint256",
          "name": "userId",
          "type": "uint256"
        },
        {
          "internalType": "string",
          "name": "picURL",
          "type": "string"
        },
        {
          "internalType": "string",
          "name": "today",
          "type": "string"
        }
      ],
      "name": "addPhoto",
      "outputs": [],
      "stateMutability": "nonpayable",
      "type": "function"
    },
    {
      "inputs": [
        {
          "internalType": "uint256",
          "name": "challengerId",
          "type": "uint256"
        }
      ],
      "name": "getChallengerPhoto",
      "outputs": [
        {
          "components": [
            {
              "internalType": "uint256",
              "name": "id",
              "type": "uint256"
            },
            {
              "internalType": "uint256",
              "name": "userId",
              "type": "uint256"
            },
            {
              "internalType": "uint256",
              "name": "challengerId",
              "type": "uint256"
            },
            {
              "internalType": "bool",
              "name": "report",
              "type": "bool"
            },
            {
              "internalType": "string",
              "name": "picURL",
              "type": "string"
            },
            {
              "internalType": "string",
              "name": "timestamp",
              "type": "string"
            }
          ],
          "internalType": "struct PhotoContract.Photo[]",
          "name": "",
          "type": "tuple[]"
        }
      ],
      "stateMutability": "view",
      "type": "function",
      "constant": true
    },
    {
      "inputs": [
        {
          "internalType": "uint256",
          "name": "challengeId",
          "type": "uint256"
        },
        {
          "internalType": "uint256",
          "name": "photoId",
          "type": "uint256"
        },
        {
          "internalType": "uint256",
          "name": "userId",
          "type": "uint256"
        },
        {
          "internalType": "uint256",
          "name": "challengerId",
          "type": "uint256"
        }
      ],
      "name": "report",
      "outputs": [],
      "stateMutability": "nonpayable",
      "type": "function"
    },
    {
      "inputs": [
        {
          "internalType": "uint256",
          "name": "challengeId",
          "type": "uint256"
        },
        {
          "internalType": "uint256",
          "name": "userId",
          "type": "uint256"
        },
        {
          "internalType": "uint256",
          "name": "voteId",
          "type": "uint256"
        },
        {
          "internalType": "bool",
          "name": "pass",
          "type": "bool"
        }
      ],
      "name": "voting",
      "outputs": [],
      "stateMutability": "nonpayable",
      "type": "function"
    },
    {
      "inputs": [
        {
          "internalType": "uint256",
          "name": "voteId",
          "type": "uint256"
        }
      ],
      "name": "endVote",
      "outputs": [
        {
          "internalType": "bool",
          "name": "",
          "type": "bool"
        },
        {
          "internalType": "uint256[]",
          "name": "",
          "type": "uint256[]"
        }
      ],
      "stateMutability": "view",
      "type": "function",
      "constant": true
    },
    {
      "inputs": [
        {
          "internalType": "uint256",
          "name": "challengeId",
          "type": "uint256"
        }
      ],
      "name": "getChallengeVote",
      "outputs": [
        {
          "components": [
            {
              "internalType": "uint256",
              "name": "id",
              "type": "uint256"
            },
            {
              "internalType": "uint256",
              "name": "challengeId",
              "type": "uint256"
            },
            {
              "components": [
                {
                  "internalType": "uint256",
                  "name": "id",
                  "type": "uint256"
                },
                {
                  "internalType": "uint256",
                  "name": "userId",
                  "type": "uint256"
                },
                {
                  "internalType": "uint256",
                  "name": "challengerId",
                  "type": "uint256"
                },
                {
                  "internalType": "bool",
                  "name": "report",
                  "type": "bool"
                },
                {
                  "internalType": "string",
                  "name": "picURL",
                  "type": "string"
                },
                {
                  "internalType": "string",
                  "name": "timestamp",
                  "type": "string"
                }
              ],
              "internalType": "struct PhotoContract.Photo",
              "name": "photo",
              "type": "tuple"
            },
            {
              "internalType": "uint256",
              "name": "pass",
              "type": "uint256"
            },
            {
              "internalType": "uint256",
              "name": "fail",
              "type": "uint256"
            },
            {
              "internalType": "uint256",
              "name": "startTimestamp",
              "type": "uint256"
            },
            {
              "internalType": "uint256[]",
              "name": "userIdList",
              "type": "uint256[]"
            },
            {
              "internalType": "bool[]",
              "name": "userVoteList",
              "type": "bool[]"
            }
          ],
          "internalType": "struct VoteContract.Vote[]",
          "name": "",
          "type": "tuple[]"
        }
      ],
      "stateMutability": "view",
      "type": "function",
      "constant": true
    }
  ],
  "bytecode": "0x60806040526001600055600160035534801561001a57600080fd5b5061193d8061002a6000396000f3fe608060405234801561001057600080fd5b50600436106100625760003560e01c80636854ad65146100675780636ffac65d14610090578063865df0ad146100a5578063c7a097b7146100c6578063d20b03c5146100d9578063e8a9e2eb146100ec575b600080fd5b61007a610075366004611440565b61010c565b6040516100879190611507565b60405180910390f35b6100a361009e366004611569565b6102db565b005b6100b86100b3366004611440565b6107ca565b60405161008792919061159b565b6100a36100d43660046115eb565b610c8b565b6100a36100e73660046116d4565b610eb8565b6100ff6100fa366004611440565b610fc5565b60405161008791906117b8565b606060026000838152602001908152602001600020805480602002602001604051908101604052809291908181526020016000905b828210156102d057838290600052602060002090600602016040518060c00160405290816000820154815260200160018201548152602001600282015481526020016003820160009054906101000a900460ff161515151581526020016004820180546101ad90611890565b80601f01602080910402602001604051908101604052809291908181526020018280546101d990611890565b80156102265780601f106101fb57610100808354040283529160200191610226565b820191906000526020600020905b81548152906001019060200180831161020957829003601f168201915b5050505050815260200160058201805461023f90611890565b80601f016020809104026020016040519081016040528092919081815260200182805461026b90611890565b80156102b85780601f1061028d576101008083540402835291602001916102b8565b820191906000526020600020905b81548152906001019060200180831161029b57829003601f168201915b50505050508152505081526020019060010190610141565b505050509050919050565b6000838152600160208181526040808420815160c081018352815481529381015492840192909252600282015490830152600381015460ff161515606083015260048101805460808401919061033090611890565b80601f016020809104026020016040519081016040528092919081815260200182805461035c90611890565b80156103a95780601f1061037e576101008083540402835291602001916103a9565b820191906000526020600020905b81548152906001019060200180831161038c57829003601f168201915b505050505081526020016005820180546103c290611890565b80601f01602080910402602001604051908101604052809291908181526020018280546103ee90611890565b801561043b5780601f106104105761010080835404028352916020019161043b565b820191906000526020600020905b81548152906001019060200180831161041e57829003601f168201915b50505091909252505060016060830181815260008881526020838152604091829020865181558187015194810194909455908501516002840155905160038301805460ff19169115159190911790556080840151805194955085949293506104ac92600485019291909101906112a0565b5060a082015180516104c89160058401916020909101906112a0565b5090505060005b6000838152600260205260409020548110156105d6576000838152600260205260409020805486919083908110610508576105086118ca565b906000526020600020906006020160000154036105c4576000838152600260205260409020805483919083908110610542576105426118ca565b600091825260209182902083516006929092020190815582820151600182015560408301516002820155606083015160038201805460ff191691151591909117905560808301518051919261059f926004850192909101906112a0565b5060a082015180516105bb9160058401916020909101906112a0565b509050506105d6565b806105ce816118e0565b9150506104cf565b5060038054600081815260046020526040812092906105f4836118e0565b90915550815560018101869055815160028201908155602080840151600384015560408401516004840155606084015160058401805460ff1916911515919091179055608084015180518593926106529260068701929101906112a0565b5060a0820151805161066e9160058401916020909101906112a0565b505042600a8301555060008681526005602081815260408320805460018082018355918552919093208454600d90920201908155828401549281019290925560028084018054918401918255600380860154908501556004808601549085015582850154928401805460ff191660ff9094161515939093179092556006808501805486959493928501919061070290611890565b61070d929190611324565b50600582018160050190805461072290611890565b61072d929190611324565b5050506008820154816008015560098201548160090155600a82015481600a0155600b820181600b0190805461076492919061139f565b50600c828101805461077992840191906113de565b505081546040519081527f0e34776b3e53847697fd48f25578583a5357960363194d06436db5c5bdf71b8e915060200160405180910390a16107c2868583600001546000610c8b565b505050505050565b600081815260046020818152604080842081516101008101835281548152600182015481850152825160c08101845260028301805482526003840154958201959095529482015485840152600582015460ff16151560608681019190915260068301805491968896939586019390929091608084019161084990611890565b80601f016020809104026020016040519081016040528092919081815260200182805461087590611890565b80156108c25780601f10610897576101008083540402835291602001916108c2565b820191906000526020600020905b8154815290600101906020018083116108a557829003601f168201915b505050505081526020016005820180546108db90611890565b80601f016020809104026020016040519081016040528092919081815260200182805461090790611890565b80156109545780601f1061092957610100808354040283529160200191610954565b820191906000526020600020905b81548152906001019060200180831161093757829003601f168201915b50505050508152505081526020016008820154815260200160098201548152602001600a8201548152602001600b82018054806020026020016040519081016040528092919081815260200182805480156109ce57602002820191906000526020600020905b8154815260200190600101908083116109ba575b50505050508152602001600c8201805480602002602001604051908101604052809291908181526020018280548015610a4657602002820191906000526020600020906000905b825461010083900a900460ff161515815260206001928301818104948501949093039092029101808411610a155790505b50505050508152505090506000805b8260c0015151811015610b015782608001518360600151118015610a9357508260e001518181518110610a8a57610a8a6118ca565b60200260200101515b15610aaa5781610aa2816118e0565b925050610aef565b82608001518360600151108015610adc57508260e001518181518110610ad257610ad26118ca565b6020026020010151155b15610aef5781610aeb816118e0565b9250505b80610af9816118e0565b915050610a55565b5060008167ffffffffffffffff811115610b1d57610b1d611631565b604051908082528060200260200182016040528015610b46578160200160208202803683370190505b5090506000915060005b8360c0015151811015610c725783608001518460600151118015610b8e57508360e001518181518110610b8557610b856118ca565b60200260200101515b15610be0578360c001518181518110610ba957610ba96118ca565b6020026020010151828480610bbd906118e0565b955081518110610bcf57610bcf6118ca565b602002602001018181525050610c60565b83608001518460600151108015610c1257508360e001518181518110610c0857610c086118ca565b6020026020010151155b15610c60578360c001518181518110610c2d57610c2d6118ca565b6020026020010151828480610c41906118e0565b955081518110610c5357610c536118ca565b6020026020010181815250505b80610c6a816118e0565b915050610b50565b5082608001518360600151118194509450505050915091565b60008281526004602090815260408220600b8101805460018101825590845291909220018490558115610d0857600881018054906000610cca836118e0565b9091555050600c810180546001810182556000918252602091829020918104909101805460ff601f9093166101000a92830219169091179055610d51565b600981018054906000610d1a836118e0565b9091555050600c8101805460018101825560009182526020918290209181049091018054601f9092166101000a60ff021990911690555b60005b6000868152600560205260409020805485919083908110610d7757610d776118ca565b90600052602060002090600d02016000015414610da05780610d98816118e0565b915050610d54565b6000868152600560205260409020805483919083908110610dc357610dc36118ca565b600091825260209091208254600d9092020190815560018083015490820155600280830180549183019182556003808501549084015560048085015490840155600580850154908401805460ff191660ff90921615159190911790556006808501805492939291850191610e3690611890565b610e41929190611324565b506005820181600501908054610e5690611890565b610e61929190611324565b5050506008820154816008015560098201548160090155600a82015481600a0155600b820181600b01908054610e9892919061139f565b50600c8281018054610ead92840191906113de565b505050505050505050565b600080548082526001602052604082209180610ed3836118e0565b909155508155600181018490556002810185905560038101805460ff191690558251610f0890600483019060208601906112a0565b508151610f1e90600583019060208501906112a0565b506000858152600260208181526040832080546001808201835591855291909320845460069092020190815583830154928101929092558281015490820155600380830154908201805460ff191660ff90921615159190911790556004808301805484939283019190610f9090611890565b610f9b929190611324565b506005820181600501908054610fb090611890565b610fbb929190611324565b5050505050505050565b606060056000838152602001908152602001600020805480602002602001604051908101604052809291908181526020016000905b828210156102d057838290600052602060002090600d0201604051806101000160405290816000820154815260200160018201548152602001600282016040518060c00160405290816000820154815260200160018201548152602001600282015481526020016003820160009054906101000a900460ff1615151515815260200160048201805461108b90611890565b80601f01602080910402602001604051908101604052809291908181526020018280546110b790611890565b80156111045780601f106110d957610100808354040283529160200191611104565b820191906000526020600020905b8154815290600101906020018083116110e757829003601f168201915b5050505050815260200160058201805461111d90611890565b80601f016020809104026020016040519081016040528092919081815260200182805461114990611890565b80156111965780601f1061116b57610100808354040283529160200191611196565b820191906000526020600020905b81548152906001019060200180831161117957829003601f168201915b50505050508152505081526020016008820154815260200160098201548152602001600a8201548152602001600b820180548060200260200160405190810160405280929190818152602001828054801561121057602002820191906000526020600020905b8154815260200190600101908083116111fc575b50505050508152602001600c820180548060200260200160405190810160405280929190818152602001828054801561128857602002820191906000526020600020906000905b825461010083900a900460ff1615158152602060019283018181049485019490930390920291018084116112575790505b50505050508152505081526020019060010190610ffa565b8280546112ac90611890565b90600052602060002090601f0160209004810192826112ce5760008555611314565b82601f106112e757805160ff1916838001178555611314565b82800160010185558215611314579182015b828111156113145782518255916020019190600101906112f9565b5061132092915061142b565b5090565b82805461133090611890565b90600052602060002090601f0160209004810192826113525760008555611314565b82601f106113635780548555611314565b8280016001018555821561131457600052602060002091601f016020900482015b82811115611314578254825591600101919060010190611384565b82805482825590600052602060002090810192821561131457600052602060002091820182811115611314578254825591600101919060010190611384565b82805482825590600052602060002090601f0160209004810192821561131457600052602060002091601f0160209004820182811115611314578254825591600101919060010190611384565b5b80821115611320576000815560010161142c565b60006020828403121561145257600080fd5b5035919050565b6000815180845260005b8181101561147f57602081850181015186830182015201611463565b81811115611491576000602083870101525b50601f01601f19169290920160200192915050565b8051825260208101516020830152604081015160408301526060810151151560608301526000608082015160c060808501526114e560c0850182611459565b905060a083015184820360a08601526114fe8282611459565b95945050505050565b6000602080830181845280855180835260408601915060408160051b870101925083870160005b8281101561155c57603f1988860301845261154a8583516114a6565b9450928501929085019060010161152e565b5092979650505050505050565b6000806000806080858703121561157f57600080fd5b5050823594602084013594506040840135936060013592509050565b60006040820184151583526020604081850152818551808452606086019150828701935060005b818110156115de578451835293830193918301916001016115c2565b5090979650505050505050565b6000806000806080858703121561160157600080fd5b8435935060208501359250604085013591506060850135801515811461162657600080fd5b939692955090935050565b634e487b7160e01b600052604160045260246000fd5b600082601f83011261165857600080fd5b813567ffffffffffffffff8082111561167357611673611631565b604051601f8301601f19908116603f0116810190828211818310171561169b5761169b611631565b816040528381528660208588010111156116b457600080fd5b836020870160208301376000602085830101528094505050505092915050565b600080600080608085870312156116ea57600080fd5b8435935060208501359250604085013567ffffffffffffffff8082111561171057600080fd5b61171c88838901611647565b9350606087013591508082111561173257600080fd5b5061173f87828801611647565b91505092959194509250565b600081518084526020808501945080840160005b8381101561177b5781518752958201959082019060010161175f565b509495945050505050565b600081518084526020808501945080840160005b8381101561177b57815115158752958201959082019060010161179a565b60006020808301818452808551808352604092508286019150828160051b87010184880160005b8381101561188257603f198984030185528151610100815185528882015189860152878201518189870152611816828701826114a6565b606084810151908801526080808501519088015260a0808501519088015260c080850151888303828a01529193509150611850838261174b565b9250505060e0808301519250858203818701525061186e8183611786565b9689019694505050908601906001016117df565b509098975050505050505050565b600181811c908216806118a457607f821691505b6020821081036118c457634e487b7160e01b600052602260045260246000fd5b50919050565b634e487b7160e01b600052603260045260246000fd5b60006001820161190057634e487b7160e01b600052601160045260246000fd5b506001019056fea26469706673582212209e35f2447bf69035319213d2c47a249ab6a8c5cf80572109685d96568c50b1d264736f6c634300080e0033",
  "immutableReferences": {},
  "source": "// SPDX-License-Identifier: MIT\r\npragma solidity ^0.8.0;\r\npragma abicoder v2;\r\n\r\nimport \"./PhotoContract.sol\";\r\n\r\ncontract VoteContract is PhotoContract{\r\n    struct Vote{\r\n        // pk\r\n        uint id;\r\n\r\n        uint challengeId;\r\n        Photo photo;\r\n        // \r\n        uint pass;\r\n        uint fail;\r\n\r\n        // \r\n        uint startTimestamp;\r\n        //   \r\n        uint[] userIdList;\r\n        bool[] userVoteList;\r\n    }\r\n    uint voteSequence = 1;\r\n    mapping(uint => Vote) voteMap;\r\n\r\n    //  \r\n    mapping(uint => Vote[]) findByChallengeIdVote;\r\n    event returnVoteId(uint voteId);\r\n     // \r\n    function report(uint challengeId,uint photoId,uint userId, uint challengerId) public{\r\n        Photo memory findPhoto=photoMap[photoId];\r\n        findPhoto.report = true;\r\n        photoMap[photoId] = findPhoto;\r\n        for(uint i=0; i<findByChallengerIdPhoto[challengerId].length; i++){\r\n            if(findByChallengerIdPhoto[challengerId][i].id == photoId){\r\n                findByChallengerIdPhoto[challengerId][i] = findPhoto;\r\n                break;\r\n            }\r\n        }\r\n\r\n        Vote storage vote=voteMap[voteSequence];\r\n        vote.id=voteSequence++;\r\n        vote.challengeId=challengeId;\r\n        vote.photo=findPhoto;\r\n        vote.startTimestamp=block.timestamp;\r\n\r\n        findByChallengeIdVote[challengeId].push(vote);\r\n        emit returnVoteId(vote.id);\r\n        voting(challengeId,userId, vote.id, false); //     \r\n    }\r\n    //  \r\n    function voting(uint challengeId,uint userId, uint voteId, bool pass) public{\r\n        Vote storage findVote=voteMap[voteId];\r\n\r\n        findVote.userIdList.push(userId);\r\n        if(pass){\r\n            findVote.pass++;\r\n            findVote.userVoteList.push(true);\r\n        }\r\n        else{\r\n            findVote.fail++;\r\n            findVote.userVoteList.push(false);\r\n        }\r\n\r\n        uint voteIndex = 0;\r\n        while(findByChallengeIdVote[challengeId][voteIndex].id!=voteId) \r\n            voteIndex++;\r\n        \r\n        findByChallengeIdVote[challengeId][voteIndex] = findVote;\r\n    }\r\n\r\n    //  \r\n    function endVote(uint voteId) public view returns(bool,uint[] memory){\r\n        Vote memory vote=voteMap[voteId];\r\n\r\n        //    \r\n        uint count=0;\r\n        for (uint256 i = 0; i < vote.userIdList.length; i++) {\r\n            if(vote.pass>vote.fail&&vote.userVoteList[i]) count++; \r\n            else if (vote.pass<vote.fail&&!vote.userVoteList[i]) count++;\r\n        }\r\n        \r\n        uint[] memory userIdList=new uint[](count);\r\n        count=0;\r\n        for (uint256 i = 0; i < vote.userIdList.length; i++) {\r\n            if(vote.pass>vote.fail&&vote.userVoteList[i]) {\r\n                userIdList[count++]=vote.userIdList[i];             \r\n            }\r\n            else if (vote.pass<vote.fail&&!vote.userVoteList[i]){\r\n                userIdList[count++]=vote.userIdList[i];   \r\n            }\r\n        }\r\n        \r\n        //     \r\n        return (vote.pass>vote.fail,userIdList);\r\n    }\r\n\r\n    //    \r\n    function getChallengeVote(uint challengeId)public view returns(Vote[] memory){\r\n        return findByChallengeIdVote[challengeId];\r\n    }\r\n}",
  "sourcePath": "c:\\SSAFY\\second\\workspace\\teukhwa\\S07P22B106\\truffle\\contracts\\VoteContract.sol",
  "compiler": {
    "name": "solc",
    "version": "0.8.14+commit.80d49f37.Emscripten.clang"
  },
  "schemaVersion": "3.4.9",
  "updatedAt": "2022-10-04T08:20:14.276Z",
  "networkType": "ethereum",
  "devdoc": {
    "kind": "dev",
    "methods": {},
    "version": 1
  },
  "userdoc": {
    "kind": "user",
    "methods": {},
    "version": 1
  }
}