{
  "contractName": "VoteContract",
  "abi": [
    {
      "anonymous": false,
      "inputs": [
        {
          "indexed": false,
          "internalType": "uint256",
          "name": "voteId",
          "type": "uint256"
        }
      ],
      "name": "returnVoteId",
      "type": "event"
    },
    {
      "inputs": [
        {
          "internalType": "uint256",
          "name": "challengerId",
          "type": "uint256"
        },
        {
          "internalType": "uint256",
          "name": "userId",
          "type": "uint256"
        },
        {
          "internalType": "string",
          "name": "picURL",
          "type": "string"
        },
        {
          "internalType": "string",
          "name": "today",
          "type": "string"
        }
      ],
      "name": "addPhoto",
      "outputs": [],
      "stateMutability": "nonpayable",
      "type": "function"
    },
    {
      "inputs": [
        {
          "internalType": "uint256",
          "name": "challengerId",
          "type": "uint256"
        },
        {
          "internalType": "uint256",
          "name": "photoId",
          "type": "uint256"
        }
      ],
      "name": "deletePhoto",
      "outputs": [],
      "stateMutability": "nonpayable",
      "type": "function"
    },
    {
      "inputs": [
        {
          "internalType": "uint256",
          "name": "challengerId",
          "type": "uint256"
        }
      ],
      "name": "getChallengerPhoto",
      "outputs": [
        {
          "components": [
            {
              "internalType": "uint256",
              "name": "id",
              "type": "uint256"
            },
            {
              "internalType": "uint256",
              "name": "userId",
              "type": "uint256"
            },
            {
              "internalType": "uint256",
              "name": "challengerId",
              "type": "uint256"
            },
            {
              "internalType": "bool",
              "name": "report",
              "type": "bool"
            },
            {
              "internalType": "string",
              "name": "picURL",
              "type": "string"
            },
            {
              "internalType": "string",
              "name": "timestamp",
              "type": "string"
            }
          ],
          "internalType": "struct PhotoContract.Photo[]",
          "name": "",
          "type": "tuple[]"
        }
      ],
      "stateMutability": "view",
      "type": "function",
      "constant": true
    },
    {
      "inputs": [
        {
          "internalType": "uint256",
          "name": "challengeId",
          "type": "uint256"
        },
        {
          "internalType": "uint256",
          "name": "photoId",
          "type": "uint256"
        },
        {
          "internalType": "uint256",
          "name": "userId",
          "type": "uint256"
        },
        {
          "internalType": "uint256",
          "name": "challengerId",
          "type": "uint256"
        }
      ],
      "name": "report",
      "outputs": [],
      "stateMutability": "nonpayable",
      "type": "function"
    },
    {
      "inputs": [
        {
          "internalType": "uint256",
          "name": "challengeId",
          "type": "uint256"
        },
        {
          "internalType": "uint256",
          "name": "userId",
          "type": "uint256"
        },
        {
          "internalType": "uint256",
          "name": "voteId",
          "type": "uint256"
        },
        {
          "internalType": "bool",
          "name": "pass",
          "type": "bool"
        }
      ],
      "name": "voting",
      "outputs": [],
      "stateMutability": "nonpayable",
      "type": "function"
    },
    {
      "inputs": [
        {
          "internalType": "uint256",
          "name": "voteId",
          "type": "uint256"
        }
      ],
      "name": "endVote",
      "outputs": [
        {
          "internalType": "bool",
          "name": "",
          "type": "bool"
        },
        {
          "internalType": "uint256[]",
          "name": "",
          "type": "uint256[]"
        }
      ],
      "stateMutability": "view",
      "type": "function",
      "constant": true
    },
    {
      "inputs": [
        {
          "internalType": "uint256",
          "name": "challengeId",
          "type": "uint256"
        }
      ],
      "name": "getChallengeVote",
      "outputs": [
        {
          "components": [
            {
              "internalType": "uint256",
              "name": "id",
              "type": "uint256"
            },
            {
              "internalType": "uint256",
              "name": "challengeId",
              "type": "uint256"
            },
            {
              "components": [
                {
                  "internalType": "uint256",
                  "name": "id",
                  "type": "uint256"
                },
                {
                  "internalType": "uint256",
                  "name": "userId",
                  "type": "uint256"
                },
                {
                  "internalType": "uint256",
                  "name": "challengerId",
                  "type": "uint256"
                },
                {
                  "internalType": "bool",
                  "name": "report",
                  "type": "bool"
                },
                {
                  "internalType": "string",
                  "name": "picURL",
                  "type": "string"
                },
                {
                  "internalType": "string",
                  "name": "timestamp",
                  "type": "string"
                }
              ],
              "internalType": "struct PhotoContract.Photo",
              "name": "photo",
              "type": "tuple"
            },
            {
              "internalType": "uint256",
              "name": "pass",
              "type": "uint256"
            },
            {
              "internalType": "uint256",
              "name": "fail",
              "type": "uint256"
            },
            {
              "internalType": "uint256",
              "name": "startTimestamp",
              "type": "uint256"
            },
            {
              "internalType": "uint256[]",
              "name": "userIdList",
              "type": "uint256[]"
            },
            {
              "internalType": "bool[]",
              "name": "userVoteList",
              "type": "bool[]"
            }
          ],
          "internalType": "struct VoteContract.Vote[]",
          "name": "",
          "type": "tuple[]"
        }
      ],
      "stateMutability": "view",
      "type": "function",
      "constant": true
    }
  ],
  "bytecode": "0x60806040526001600055600160035534801561001a57600080fd5b50611b148061002a6000396000f3fe608060405234801561001057600080fd5b506004361061007d5760003560e01c8063c7a097b71161005b578063c7a097b7146100e1578063d20b03c5146100f4578063e8a9e2eb14610107578063ef3d13f31461012757600080fd5b80636854ad65146100825780636ffac65d146100ab578063865df0ad146100c0575b600080fd5b6100956100903660046115f5565b61013a565b6040516100a291906116bc565b60405180910390f35b6100be6100b936600461171e565b610309565b005b6100d36100ce3660046115f5565b6107f8565b6040516100a2929190611750565b6100be6100ef3660046117a0565b610cb9565b6100be610102366004611889565b610ee6565b61011a6101153660046115f5565b610ff3565b6040516100a2919061196d565b6100be610135366004611a45565b6112ce565b606060026000838152602001908152602001600020805480602002602001604051908101604052809291908181526020016000905b828210156102fe57838290600052602060002090600602016040518060c00160405290816000820154815260200160018201548152602001600282015481526020016003820160009054906101000a900460ff161515151581526020016004820180546101db90611a67565b80601f016020809104026020016040519081016040528092919081815260200182805461020790611a67565b80156102545780601f1061022957610100808354040283529160200191610254565b820191906000526020600020905b81548152906001019060200180831161023757829003601f168201915b5050505050815260200160058201805461026d90611a67565b80601f016020809104026020016040519081016040528092919081815260200182805461029990611a67565b80156102e65780601f106102bb576101008083540402835291602001916102e6565b820191906000526020600020905b8154815290600101906020018083116102c957829003601f168201915b5050505050815250508152602001906001019061016f565b505050509050919050565b6000838152600160208181526040808420815160c081018352815481529381015492840192909252600282015490830152600381015460ff161515606083015260048101805460808401919061035e90611a67565b80601f016020809104026020016040519081016040528092919081815260200182805461038a90611a67565b80156103d75780601f106103ac576101008083540402835291602001916103d7565b820191906000526020600020905b8154815290600101906020018083116103ba57829003601f168201915b505050505081526020016005820180546103f090611a67565b80601f016020809104026020016040519081016040528092919081815260200182805461041c90611a67565b80156104695780601f1061043e57610100808354040283529160200191610469565b820191906000526020600020905b81548152906001019060200180831161044c57829003601f168201915b50505091909252505060016060830181815260008881526020838152604091829020865181558187015194810194909455908501516002840155905160038301805460ff19169115159190911790556080840151805194955085949293506104da9260048501929190910190611455565b5060a082015180516104f6916005840191602090910190611455565b5090505060005b60008381526002602052604090205481101561060457600083815260026020526040902080548691908390811061053657610536611aa1565b906000526020600020906006020160000154036105f257600083815260026020526040902080548391908390811061057057610570611aa1565b600091825260209182902083516006929092020190815582820151600182015560408301516002820155606083015160038201805460ff19169115159190911790556080830151805191926105cd92600485019290910190611455565b5060a082015180516105e9916005840191602090910190611455565b50905050610604565b806105fc81611ab7565b9150506104fd565b50600380546000818152600460205260408120929061062283611ab7565b90915550815560018101869055815160028201908155602080840151600384015560408401516004840155606084015160058401805460ff191691151591909117905560808401518051859392610680926006870192910190611455565b5060a0820151805161069c916005840191602090910190611455565b505042600a8301555060008681526005602081815260408320805460018082018355918552919093208454600d90920201908155828401549281019290925560028084018054918401918255600380860154908501556004808601549085015582850154928401805460ff191660ff9094161515939093179092556006808501805486959493928501919061073090611a67565b61073b9291906114d9565b50600582018160050190805461075090611a67565b61075b9291906114d9565b5050506008820154816008015560098201548160090155600a82015481600a0155600b820181600b01908054610792929190611554565b50600c82810180546107a79284019190611593565b505081546040519081527f0e34776b3e53847697fd48f25578583a5357960363194d06436db5c5bdf71b8e915060200160405180910390a16107f0868583600001546000610cb9565b505050505050565b600081815260046020818152604080842081516101008101835281548152600182015481850152825160c08101845260028301805482526003840154958201959095529482015485840152600582015460ff16151560608681019190915260068301805491968896939586019390929091608084019161087790611a67565b80601f01602080910402602001604051908101604052809291908181526020018280546108a390611a67565b80156108f05780601f106108c5576101008083540402835291602001916108f0565b820191906000526020600020905b8154815290600101906020018083116108d357829003601f168201915b5050505050815260200160058201805461090990611a67565b80601f016020809104026020016040519081016040528092919081815260200182805461093590611a67565b80156109825780601f1061095757610100808354040283529160200191610982565b820191906000526020600020905b81548152906001019060200180831161096557829003601f168201915b50505050508152505081526020016008820154815260200160098201548152602001600a8201548152602001600b82018054806020026020016040519081016040528092919081815260200182805480156109fc57602002820191906000526020600020905b8154815260200190600101908083116109e8575b50505050508152602001600c8201805480602002602001604051908101604052809291908181526020018280548015610a7457602002820191906000526020600020906000905b825461010083900a900460ff161515815260206001928301818104948501949093039092029101808411610a435790505b50505050508152505090506000805b8260c0015151811015610b2f5782608001518360600151118015610ac157508260e001518181518110610ab857610ab8611aa1565b60200260200101515b15610ad85781610ad081611ab7565b925050610b1d565b82608001518360600151108015610b0a57508260e001518181518110610b0057610b00611aa1565b6020026020010151155b15610b1d5781610b1981611ab7565b9250505b80610b2781611ab7565b915050610a83565b5060008167ffffffffffffffff811115610b4b57610b4b6117e6565b604051908082528060200260200182016040528015610b74578160200160208202803683370190505b5090506000915060005b8360c0015151811015610ca05783608001518460600151118015610bbc57508360e001518181518110610bb357610bb3611aa1565b60200260200101515b15610c0e578360c001518181518110610bd757610bd7611aa1565b6020026020010151828480610beb90611ab7565b955081518110610bfd57610bfd611aa1565b602002602001018181525050610c8e565b83608001518460600151108015610c4057508360e001518181518110610c3657610c36611aa1565b6020026020010151155b15610c8e578360c001518181518110610c5b57610c5b611aa1565b6020026020010151828480610c6f90611ab7565b955081518110610c8157610c81611aa1565b6020026020010181815250505b80610c9881611ab7565b915050610b7e565b5082608001518360600151118194509450505050915091565b60008281526004602090815260408220600b8101805460018101825590845291909220018490558115610d3657600881018054906000610cf883611ab7565b9091555050600c810180546001810182556000918252602091829020918104909101805460ff601f9093166101000a92830219169091179055610d7f565b600981018054906000610d4883611ab7565b9091555050600c8101805460018101825560009182526020918290209181049091018054601f9092166101000a60ff021990911690555b60005b6000868152600560205260409020805485919083908110610da557610da5611aa1565b90600052602060002090600d02016000015414610dce5780610dc681611ab7565b915050610d82565b6000868152600560205260409020805483919083908110610df157610df1611aa1565b600091825260209091208254600d9092020190815560018083015490820155600280830180549183019182556003808501549084015560048085015490840155600580850154908401805460ff191660ff90921615159190911790556006808501805492939291850191610e6490611a67565b610e6f9291906114d9565b506005820181600501908054610e8490611a67565b610e8f9291906114d9565b5050506008820154816008015560098201548160090155600a82015481600a0155600b820181600b01908054610ec6929190611554565b50600c8281018054610edb9284019190611593565b505050505050505050565b600080548082526001602052604082209180610f0183611ab7565b909155508155600181018490556002810185905560038101805460ff191690558251610f369060048301906020860190611455565b508151610f4c9060058301906020850190611455565b506000858152600260208181526040832080546001808201835591855291909320845460069092020190815583830154928101929092558281015490820155600380830154908201805460ff191660ff90921615159190911790556004808301805484939283019190610fbe90611a67565b610fc99291906114d9565b506005820181600501908054610fde90611a67565b610fe99291906114d9565b5050505050505050565b606060056000838152602001908152602001600020805480602002602001604051908101604052809291908181526020016000905b828210156102fe57838290600052602060002090600d0201604051806101000160405290816000820154815260200160018201548152602001600282016040518060c00160405290816000820154815260200160018201548152602001600282015481526020016003820160009054906101000a900460ff161515151581526020016004820180546110b990611a67565b80601f01602080910402602001604051908101604052809291908181526020018280546110e590611a67565b80156111325780601f1061110757610100808354040283529160200191611132565b820191906000526020600020905b81548152906001019060200180831161111557829003601f168201915b5050505050815260200160058201805461114b90611a67565b80601f016020809104026020016040519081016040528092919081815260200182805461117790611a67565b80156111c45780601f10611199576101008083540402835291602001916111c4565b820191906000526020600020905b8154815290600101906020018083116111a757829003601f168201915b50505050508152505081526020016008820154815260200160098201548152602001600a8201548152602001600b820180548060200260200160405190810160405280929190818152602001828054801561123e57602002820191906000526020600020905b81548152602001906001019080831161122a575b50505050508152602001600c82018054806020026020016040519081016040528092919081815260200182805480156112b657602002820191906000526020600020906000905b825461010083900a900460ff1615158152602060019283018181049485019490930390920291018084116112855790505b50505050508152505081526020019060010190611028565b60008181526001602081815260408084208481559283018490556002830184905560038301805460ff19169055805191820190819052908390529091611318916004840191611455565b50604080516020810191829052600090819052611339916005840191611455565b5060005b60008481526002602052604090205481101561144f57600084815260026020526040902080548491908390811061137657611376611aa1565b9060005260206000209060060201600001540361143d5760008481526002602052604090208054839190839081106113b0576113b0611aa1565b6000918252602090912082546006909202019081556001808301549082015560028083015490820155600380830154908201805460ff191660ff9092161515919091179055600480830180549183019161140990611a67565b6114149291906114d9565b50600582018160050190805461142990611a67565b6114349291906114d9565b5090505061144f565b8061144781611ab7565b91505061133d565b50505050565b82805461146190611a67565b90600052602060002090601f01602090048101928261148357600085556114c9565b82601f1061149c57805160ff19168380011785556114c9565b828001600101855582156114c9579182015b828111156114c95782518255916020019190600101906114ae565b506114d59291506115e0565b5090565b8280546114e590611a67565b90600052602060002090601f01602090048101928261150757600085556114c9565b82601f1061151857805485556114c9565b828001600101855582156114c957600052602060002091601f016020900482015b828111156114c9578254825591600101919060010190611539565b8280548282559060005260206000209081019282156114c9576000526020600020918201828111156114c9578254825591600101919060010190611539565b82805482825590600052602060002090601f016020900481019282156114c957600052602060002091601f01602090048201828111156114c9578254825591600101919060010190611539565b5b808211156114d557600081556001016115e1565b60006020828403121561160757600080fd5b5035919050565b6000815180845260005b8181101561163457602081850181015186830182015201611618565b81811115611646576000602083870101525b50601f01601f19169290920160200192915050565b8051825260208101516020830152604081015160408301526060810151151560608301526000608082015160c0608085015261169a60c085018261160e565b905060a083015184820360a08601526116b3828261160e565b95945050505050565b6000602080830181845280855180835260408601915060408160051b870101925083870160005b8281101561171157603f198886030184526116ff85835161165b565b945092850192908501906001016116e3565b5092979650505050505050565b6000806000806080858703121561173457600080fd5b5050823594602084013594506040840135936060013592509050565b60006040820184151583526020604081850152818551808452606086019150828701935060005b8181101561179357845183529383019391830191600101611777565b5090979650505050505050565b600080600080608085870312156117b657600080fd5b843593506020850135925060408501359150606085013580151581146117db57600080fd5b939692955090935050565b634e487b7160e01b600052604160045260246000fd5b600082601f83011261180d57600080fd5b813567ffffffffffffffff80821115611828576118286117e6565b604051601f8301601f19908116603f01168101908282118183101715611850576118506117e6565b8160405283815286602085880101111561186957600080fd5b836020870160208301376000602085830101528094505050505092915050565b6000806000806080858703121561189f57600080fd5b8435935060208501359250604085013567ffffffffffffffff808211156118c557600080fd5b6118d1888389016117fc565b935060608701359150808211156118e757600080fd5b506118f4878288016117fc565b91505092959194509250565b600081518084526020808501945080840160005b8381101561193057815187529582019590820190600101611914565b509495945050505050565b600081518084526020808501945080840160005b8381101561193057815115158752958201959082019060010161194f565b60006020808301818452808551808352604092508286019150828160051b87010184880160005b83811015611a3757603f1989840301855281516101008151855288820151898601528782015181898701526119cb8287018261165b565b606084810151908801526080808501519088015260a0808501519088015260c080850151888303828a01529193509150611a058382611900565b9250505060e08083015192508582038187015250611a23818361193b565b968901969450505090860190600101611994565b509098975050505050505050565b60008060408385031215611a5857600080fd5b50508035926020909101359150565b600181811c90821680611a7b57607f821691505b602082108103611a9b57634e487b7160e01b600052602260045260246000fd5b50919050565b634e487b7160e01b600052603260045260246000fd5b600060018201611ad757634e487b7160e01b600052601160045260246000fd5b506001019056fea2646970667358221220d6b3ebc97dcd87e624981134f299d892803be0a8aa7335f1ae69188e72bc4f4264736f6c634300080e0033",
  "immutableReferences": {},
  "source": "// SPDX-License-Identifier: MIT\r\npragma solidity ^0.8.0;\r\npragma abicoder v2;\r\n\r\nimport \"./PhotoContract.sol\";\r\n\r\ncontract VoteContract is PhotoContract{\r\n    struct Vote{\r\n        // pk\r\n        uint id;\r\n\r\n        uint challengeId;\r\n        Photo photo;\r\n        // \r\n        uint pass;\r\n        uint fail;\r\n\r\n        // \r\n        uint startTimestamp;\r\n        //   \r\n        uint[] userIdList;\r\n        bool[] userVoteList;\r\n    }\r\n    uint voteSequence = 1;\r\n    mapping(uint => Vote) voteMap;\r\n\r\n    //  \r\n    mapping(uint => Vote[]) findByChallengeIdVote;\r\n    event returnVoteId(uint voteId);\r\n     // \r\n    function report(uint challengeId,uint photoId,uint userId, uint challengerId) public{\r\n        Photo memory findPhoto=photoMap[photoId];\r\n        findPhoto.report = true;\r\n        photoMap[photoId] = findPhoto;\r\n        for(uint i=0; i<findByChallengerIdPhoto[challengerId].length; i++){\r\n            if(findByChallengerIdPhoto[challengerId][i].id == photoId){\r\n                findByChallengerIdPhoto[challengerId][i] = findPhoto;\r\n                break;\r\n            }\r\n        }\r\n\r\n        Vote storage vote=voteMap[voteSequence];\r\n        vote.id=voteSequence++;\r\n        vote.challengeId=challengeId;\r\n        vote.photo=findPhoto;\r\n        vote.startTimestamp=block.timestamp;\r\n\r\n        findByChallengeIdVote[challengeId].push(vote);\r\n        emit returnVoteId(vote.id);\r\n        voting(challengeId,userId, vote.id, false); //     \r\n    }\r\n    //  \r\n    function voting(uint challengeId,uint userId, uint voteId, bool pass) public{\r\n        Vote storage findVote=voteMap[voteId];\r\n\r\n        findVote.userIdList.push(userId);\r\n        if(pass){\r\n            findVote.pass++;\r\n            findVote.userVoteList.push(true);\r\n        }\r\n        else{\r\n            findVote.fail++;\r\n            findVote.userVoteList.push(false);\r\n        }\r\n\r\n        uint voteIndex = 0;\r\n        while(findByChallengeIdVote[challengeId][voteIndex].id!=voteId) \r\n            voteIndex++;\r\n        \r\n        findByChallengeIdVote[challengeId][voteIndex] = findVote;\r\n    }\r\n\r\n    //  \r\n    function endVote(uint voteId) public view returns(bool,uint[] memory){\r\n        Vote memory vote=voteMap[voteId];\r\n\r\n        //    \r\n        uint count=0;\r\n        for (uint256 i = 0; i < vote.userIdList.length; i++) {\r\n            if(vote.pass>vote.fail&&vote.userVoteList[i]) count++; \r\n            else if (vote.pass<vote.fail&&!vote.userVoteList[i]) count++;\r\n        }\r\n        \r\n        uint[] memory userIdList=new uint[](count);\r\n        count=0;\r\n        for (uint256 i = 0; i < vote.userIdList.length; i++) {\r\n            if(vote.pass>vote.fail&&vote.userVoteList[i]) {\r\n                userIdList[count++]=vote.userIdList[i];             \r\n            }\r\n            else if (vote.pass<vote.fail&&!vote.userVoteList[i]){\r\n                userIdList[count++]=vote.userIdList[i];   \r\n            }\r\n        }\r\n        \r\n        //     \r\n        return (vote.pass>vote.fail,userIdList);\r\n    }\r\n\r\n    //    \r\n    function getChallengeVote(uint challengeId)public view returns(Vote[] memory){\r\n        return findByChallengeIdVote[challengeId];\r\n    }\r\n}",
  "sourcePath": "c:\\Users\\multicampus\\Desktop\\Git\\S07P22B106\\truffle\\contracts\\VoteContract.sol",
  "compiler": {
    "name": "solc",
    "version": "0.8.14+commit.80d49f37.Emscripten.clang"
  },
  "schemaVersion": "3.4.9",
  "updatedAt": "2022-10-04T12:53:00.076Z",
  "networkType": "ethereum",
  "devdoc": {
    "kind": "dev",
    "methods": {},
    "version": 1
  },
  "userdoc": {
    "kind": "user",
    "methods": {},
    "version": 1
  }
}