{
  "contractName": "VoteContract",
  "abi": [
    {
      "inputs": [
        {
          "internalType": "uint256",
          "name": "challengerId",
          "type": "uint256"
        },
        {
          "internalType": "uint256",
          "name": "userId",
          "type": "uint256"
        },
        {
          "internalType": "string",
          "name": "picURL",
          "type": "string"
        },
        {
          "internalType": "string",
          "name": "today",
          "type": "string"
        }
      ],
      "name": "addPhoto",
      "outputs": [],
      "stateMutability": "nonpayable",
      "type": "function"
    },
    {
      "inputs": [
        {
          "internalType": "uint256",
          "name": "challengerId",
          "type": "uint256"
        }
      ],
      "name": "getChallengerPhoto",
      "outputs": [
        {
          "components": [
            {
              "internalType": "uint256",
              "name": "id",
              "type": "uint256"
            },
            {
              "internalType": "uint256",
              "name": "userId",
              "type": "uint256"
            },
            {
              "internalType": "uint256",
              "name": "challengerId",
              "type": "uint256"
            },
            {
              "internalType": "string",
              "name": "picURL",
              "type": "string"
            },
            {
              "internalType": "string",
              "name": "timestamp",
              "type": "string"
            }
          ],
          "internalType": "struct PhotoContract.Photo[]",
          "name": "",
          "type": "tuple[]"
        }
      ],
      "stateMutability": "view",
      "type": "function",
      "constant": true
    },
    {
      "inputs": [
        {
          "internalType": "uint256",
          "name": "challengeId",
          "type": "uint256"
        },
        {
          "internalType": "uint256",
          "name": "photoId",
          "type": "uint256"
        },
        {
          "internalType": "uint256",
          "name": "userId",
          "type": "uint256"
        }
      ],
      "name": "report",
      "outputs": [],
      "stateMutability": "nonpayable",
      "type": "function"
    },
    {
      "inputs": [
        {
          "internalType": "uint256",
          "name": "challengeId",
          "type": "uint256"
        },
        {
          "internalType": "uint256",
          "name": "userId",
          "type": "uint256"
        },
        {
          "internalType": "uint256",
          "name": "voteId",
          "type": "uint256"
        },
        {
          "internalType": "bool",
          "name": "pass",
          "type": "bool"
        }
      ],
      "name": "voting",
      "outputs": [],
      "stateMutability": "nonpayable",
      "type": "function"
    },
    {
      "inputs": [
        {
          "internalType": "uint256",
          "name": "voteId",
          "type": "uint256"
        }
      ],
      "name": "endVote",
      "outputs": [
        {
          "internalType": "bool",
          "name": "",
          "type": "bool"
        },
        {
          "internalType": "uint256[]",
          "name": "",
          "type": "uint256[]"
        }
      ],
      "stateMutability": "view",
      "type": "function",
      "constant": true
    },
    {
      "inputs": [
        {
          "internalType": "uint256",
          "name": "challengeId",
          "type": "uint256"
        }
      ],
      "name": "getChallengeVote",
      "outputs": [
        {
          "components": [
            {
              "internalType": "uint256",
              "name": "id",
              "type": "uint256"
            },
            {
              "internalType": "uint256",
              "name": "challengeId",
              "type": "uint256"
            },
            {
              "components": [
                {
                  "internalType": "uint256",
                  "name": "id",
                  "type": "uint256"
                },
                {
                  "internalType": "uint256",
                  "name": "userId",
                  "type": "uint256"
                },
                {
                  "internalType": "uint256",
                  "name": "challengerId",
                  "type": "uint256"
                },
                {
                  "internalType": "string",
                  "name": "picURL",
                  "type": "string"
                },
                {
                  "internalType": "string",
                  "name": "timestamp",
                  "type": "string"
                }
              ],
              "internalType": "struct PhotoContract.Photo",
              "name": "photo",
              "type": "tuple"
            },
            {
              "internalType": "uint256",
              "name": "pass",
              "type": "uint256"
            },
            {
              "internalType": "uint256",
              "name": "fail",
              "type": "uint256"
            },
            {
              "internalType": "uint256",
              "name": "startTimestamp",
              "type": "uint256"
            },
            {
              "internalType": "uint256[]",
              "name": "userIdList",
              "type": "uint256[]"
            },
            {
              "internalType": "bool[]",
              "name": "userVoteList",
              "type": "bool[]"
            }
          ],
          "internalType": "struct VoteContract.Vote[]",
          "name": "",
          "type": "tuple[]"
        }
      ],
      "stateMutability": "view",
      "type": "function",
      "constant": true
    }
  ],
  "bytecode": "0x60806040526001600055600160035534801561001a57600080fd5b506116ae8061002a6000396000f3fe608060405234801561001057600080fd5b50600436106100625760003560e01c80636854ad6514610067578063865df0ad14610090578063a1d9bafc146100b1578063c7a097b7146100c6578063d20b03c5146100d9578063e8a9e2eb146100ec575b600080fd5b61007a6100753660046111c3565b61010c565b604051610087919061127e565b60405180910390f35b6100a361009e3660046111c3565b6102c0565b6040516100879291906112e0565b6100c46100bf366004611330565b610779565b005b6100c46100d436600461135c565b610a68565b6100c46100e7366004611445565b610c7e565b6100ff6100fa3660046111c3565b610d63565b6040516100879190611529565b606060026000838152602001908152602001600020805480602002602001604051908101604052809291908181526020016000905b828210156102b557838290600052602060002090600502016040518060a001604052908160008201548152602001600182015481526020016002820154815260200160038201805461019290611601565b80601f01602080910402602001604051908101604052809291908181526020018280546101be90611601565b801561020b5780601f106101e05761010080835404028352916020019161020b565b820191906000526020600020905b8154815290600101906020018083116101ee57829003601f168201915b5050505050815260200160048201805461022490611601565b80601f016020809104026020016040519081016040528092919081815260200182805461025090611601565b801561029d5780601f106102725761010080835404028352916020019161029d565b820191906000526020600020905b81548152906001019060200180831161028057829003601f168201915b50505050508152505081526020019060010190610141565b505050509050919050565b60006060600060046000858152602001908152602001600020604051806101000160405290816000820154815260200160018201548152602001600282016040518060a001604052908160008201548152602001600182015481526020016002820154815260200160038201805461033790611601565b80601f016020809104026020016040519081016040528092919081815260200182805461036390611601565b80156103b05780601f10610385576101008083540402835291602001916103b0565b820191906000526020600020905b81548152906001019060200180831161039357829003601f168201915b505050505081526020016004820180546103c990611601565b80601f01602080910402602001604051908101604052809291908181526020018280546103f590611601565b80156104425780601f1061041757610100808354040283529160200191610442565b820191906000526020600020905b81548152906001019060200180831161042557829003601f168201915b5050505050815250508152602001600782015481526020016008820154815260200160098201548152602001600a82018054806020026020016040519081016040528092919081815260200182805480156104bc57602002820191906000526020600020905b8154815260200190600101908083116104a8575b50505050508152602001600b820180548060200260200160405190810160405280929190818152602001828054801561053457602002820191906000526020600020906000905b825461010083900a900460ff1615158152602060019283018181049485019490930390920291018084116105035790505b50505050508152505090506000805b8260c00151518110156105ef578260800151836060015111801561058157508260e0015181815181106105785761057861163b565b60200260200101515b15610598578161059081611651565b9250506105dd565b826080015183606001511080156105ca57508260e0015181815181106105c0576105c061163b565b6020026020010151155b156105dd57816105d981611651565b9250505b806105e781611651565b915050610543565b5060008167ffffffffffffffff81111561060b5761060b6113a2565b604051908082528060200260200182016040528015610634578160200160208202803683370190505b5090506000915060005b8360c0015151811015610760578360800151846060015111801561067c57508360e0015181815181106106735761067361163b565b60200260200101515b156106ce578360c0015181815181106106975761069761163b565b60200260200101518284806106ab90611651565b9550815181106106bd576106bd61163b565b60200260200101818152505061074e565b8360800151846060015110801561070057508360e0015181815181106106f6576106f661163b565b6020026020010151155b1561074e578360c00151818151811061071b5761071b61163b565b602002602001015182848061072f90611651565b9550815181106107415761074161163b565b6020026020010181815250505b8061075881611651565b91505061063e565b5082608001518360600151118194509450505050915091565b6000600160008481526020019081526020016000206040518060a00160405290816000820154815260200160018201548152602001600282015481526020016003820180546107c790611601565b80601f01602080910402602001604051908101604052809291908181526020018280546107f390611601565b80156108405780601f1061081557610100808354040283529160200191610840565b820191906000526020600020905b81548152906001019060200180831161082357829003601f168201915b5050505050815260200160048201805461085990611601565b80601f016020809104026020016040519081016040528092919081815260200182805461088590611601565b80156108d25780601f106108a7576101008083540402835291602001916108d2565b820191906000526020600020905b8154815290600101906020018083116108b557829003601f168201915b5050509190925250506003805460008181526004602052604081209495509092506108fc83611651565b9091555081556001810185905581516002820190815560208084015160038401556040840151600484015560608401518051859392610942926005870192910190611023565b506080820151805161095e916004840191602090910190611023565b50504260098301555060008581526005602081815260408320805460018181018355918552919093208454600c9092020190815582840154928101929092556002808401805491840191825560038086015490850155600480860154908501558285018054869594929392850191906109d690611601565b6109e19291906110a7565b5060048201816004019080546109f690611601565b610a019291906110a7565b505050600782015481600701556008820154816008015560098201548160090155600a820181600a01908054610a38929190611122565b50600b8281018054610a4d9284019190611161565b505050610a61858483600001546000610a68565b5050505050565b60008281526004602090815260408220600a8101805460018101825590845291909220018490558115610ae557600781018054906000610aa783611651565b9091555050600b810180546001810182556000918252602091829020918104909101805460ff601f9093166101000a92830219169091179055610b2e565b600881018054906000610af783611651565b9091555050600b8101805460018101825560009182526020918290209181049091018054601f9092166101000a60ff021990911690555b60005b6000868152600560205260409020805485919083908110610b5457610b5461163b565b90600052602060002090600c02016000015414610b7d5780610b7581611651565b915050610b31565b6000868152600560205260409020805483919083908110610ba057610ba061163b565b90600052602060002090600c0201600082015481600001556001820154816001015560028201816002016000820154816000015560018201548160010155600282015481600201556003820181600301908054610bfc90611601565b610c079291906110a7565b506004820181600401908054610c1c90611601565b610c279291906110a7565b505050600782015481600701556008820154816008015560098201548160090155600a820181600a01908054610c5e929190611122565b50600b8281018054610c739284019190611161565b505050505050505050565b600080548082526001602052604082209180610c9983611651565b90915550815560018101849055600281018590558251610cc29060038301906020860190611023565b508151610cd89060048301906020850190611023565b5060008581526002602081815260408320805460018181018355918552919093208454600590920201908155828401549281019290925582810154908201556003808301805484939283019190610d2e90611601565b610d399291906110a7565b506004820181600401908054610d4e90611601565b610d599291906110a7565b5050505050505050565b606060056000838152602001908152602001600020805480602002602001604051908101604052809291908181526020016000905b828210156102b557838290600052602060002090600c0201604051806101000160405290816000820154815260200160018201548152602001600282016040518060a0016040529081600082015481526020016001820154815260200160028201548152602001600382018054610e0e90611601565b80601f0160208091040260200160405190810160405280929190818152602001828054610e3a90611601565b8015610e875780601f10610e5c57610100808354040283529160200191610e87565b820191906000526020600020905b815481529060010190602001808311610e6a57829003601f168201915b50505050508152602001600482018054610ea090611601565b80601f0160208091040260200160405190810160405280929190818152602001828054610ecc90611601565b8015610f195780601f10610eee57610100808354040283529160200191610f19565b820191906000526020600020905b815481529060010190602001808311610efc57829003601f168201915b5050505050815250508152602001600782015481526020016008820154815260200160098201548152602001600a8201805480602002602001604051908101604052809291908181526020018280548015610f9357602002820191906000526020600020905b815481526020019060010190808311610f7f575b50505050508152602001600b820180548060200260200160405190810160405280929190818152602001828054801561100b57602002820191906000526020600020906000905b825461010083900a900460ff161515815260206001928301818104948501949093039092029101808411610fda5790505b50505050508152505081526020019060010190610d98565b82805461102f90611601565b90600052602060002090601f0160209004810192826110515760008555611097565b82601f1061106a57805160ff1916838001178555611097565b82800160010185558215611097579182015b8281111561109757825182559160200191906001019061107c565b506110a39291506111ae565b5090565b8280546110b390611601565b90600052602060002090601f0160209004810192826110d55760008555611097565b82601f106110e65780548555611097565b8280016001018555821561109757600052602060002091601f016020900482015b82811115611097578254825591600101919060010190611107565b82805482825590600052602060002090810192821561109757600052602060002091820182811115611097578254825591600101919060010190611107565b82805482825590600052602060002090601f0160209004810192821561109757600052602060002091601f0160209004820182811115611097578254825591600101919060010190611107565b5b808211156110a357600081556001016111af565b6000602082840312156111d557600080fd5b5035919050565b6000815180845260005b81811015611202576020818501810151868301820152016111e6565b81811115611214576000602083870101525b50601f01601f19169290920160200192915050565b8051825260208101516020830152604081015160408301526000606082015160a0606085015261125c60a08501826111dc565b90506080830151848203608086015261127582826111dc565b95945050505050565b6000602080830181845280855180835260408601915060408160051b870101925083870160005b828110156112d357603f198886030184526112c1858351611229565b945092850192908501906001016112a5565b5092979650505050505050565b60006040820184151583526020604081850152818551808452606086019150828701935060005b8181101561132357845183529383019391830191600101611307565b5090979650505050505050565b60008060006060848603121561134557600080fd5b505081359360208301359350604090920135919050565b6000806000806080858703121561137257600080fd5b8435935060208501359250604085013591506060850135801515811461139757600080fd5b939692955090935050565b634e487b7160e01b600052604160045260246000fd5b600082601f8301126113c957600080fd5b813567ffffffffffffffff808211156113e4576113e46113a2565b604051601f8301601f19908116603f0116810190828211818310171561140c5761140c6113a2565b8160405283815286602085880101111561142557600080fd5b836020870160208301376000602085830101528094505050505092915050565b6000806000806080858703121561145b57600080fd5b8435935060208501359250604085013567ffffffffffffffff8082111561148157600080fd5b61148d888389016113b8565b935060608701359150808211156114a357600080fd5b506114b0878288016113b8565b91505092959194509250565b600081518084526020808501945080840160005b838110156114ec578151875295820195908201906001016114d0565b509495945050505050565b600081518084526020808501945080840160005b838110156114ec57815115158752958201959082019060010161150b565b60006020808301818452808551808352604092508286019150828160051b87010184880160005b838110156115f357603f19898403018552815161010081518552888201518986015287820151818987015261158782870182611229565b606084810151908801526080808501519088015260a0808501519088015260c080850151888303828a015291935091506115c183826114bc565b9250505060e080830151925085820381870152506115df81836114f7565b968901969450505090860190600101611550565b509098975050505050505050565b600181811c9082168061161557607f821691505b60208210810361163557634e487b7160e01b600052602260045260246000fd5b50919050565b634e487b7160e01b600052603260045260246000fd5b60006001820161167157634e487b7160e01b600052601160045260246000fd5b506001019056fea2646970667358221220e01ef2b74f35dded3528cd0f58ea753ae9ac0068ad07bd44096fb248242a12a564736f6c634300080e0033",
  "immutableReferences": {},
  "source": "// SPDX-License-Identifier: MIT\r\npragma solidity ^0.8.0;\r\npragma abicoder v2;\r\n\r\nimport \"./PhotoContract.sol\";\r\n\r\ncontract VoteContract is PhotoContract{\r\n    struct Vote{\r\n        // pk\r\n        uint id;\r\n\r\n        uint challengeId;\r\n        Photo photo;\r\n        // \r\n        uint pass;\r\n        uint fail;\r\n\r\n        // \r\n        uint startTimestamp;\r\n        //   \r\n        uint[] userIdList;\r\n        bool[] userVoteList;\r\n    }\r\n    uint voteSequence = 1;\r\n    mapping(uint => Vote) voteMap;\r\n\r\n    //  \r\n    mapping(uint => Vote[]) findByChallengeIdVote;\r\n\r\n     // \r\n    function report(uint challengeId,uint photoId,uint userId) public{\r\n        Photo memory findPhoto=photoMap[photoId];\r\n        \r\n        Vote storage vote=voteMap[voteSequence];\r\n        vote.id=voteSequence++;\r\n        vote.challengeId=challengeId;\r\n        vote.photo=findPhoto;\r\n        vote.startTimestamp=block.timestamp;\r\n\r\n        findByChallengeIdVote[challengeId].push(vote);\r\n\r\n        voting(challengeId,userId, vote.id, false); //     \r\n    }\r\n    //  \r\n    function voting(uint challengeId,uint userId, uint voteId, bool pass) public{\r\n        Vote storage findVote=voteMap[voteId];\r\n\r\n        findVote.userIdList.push(userId);\r\n        if(pass){\r\n            findVote.pass++;\r\n            findVote.userVoteList.push(true);\r\n        }\r\n        else{\r\n            findVote.fail++;\r\n            findVote.userVoteList.push(false);\r\n        }\r\n\r\n        uint voteIndex = 0;\r\n        while(findByChallengeIdVote[challengeId][voteIndex].id!=voteId) \r\n            voteIndex++;\r\n        \r\n        findByChallengeIdVote[challengeId][voteIndex] = findVote;\r\n    }\r\n\r\n    //  \r\n    function endVote(uint voteId) public view returns(bool,uint[] memory){\r\n        Vote memory vote=voteMap[voteId];\r\n\r\n        //    \r\n        uint count=0;\r\n        for (uint256 i = 0; i < vote.userIdList.length; i++) {\r\n            if(vote.pass>vote.fail&&vote.userVoteList[i]) count++; \r\n            else if (vote.pass<vote.fail&&!vote.userVoteList[i]) count++;\r\n        }\r\n        \r\n        uint[] memory userIdList=new uint[](count);\r\n        count=0;\r\n        for (uint256 i = 0; i < vote.userIdList.length; i++) {\r\n            if(vote.pass>vote.fail&&vote.userVoteList[i]) {\r\n                userIdList[count++]=vote.userIdList[i];             \r\n            }\r\n            else if (vote.pass<vote.fail&&!vote.userVoteList[i]){\r\n                userIdList[count++]=vote.userIdList[i];   \r\n            }\r\n        }\r\n        \r\n        //     \r\n        return (vote.pass>vote.fail,userIdList);\r\n    }\r\n\r\n    //    \r\n    function getChallengeVote(uint challengeId)public view returns(Vote[] memory){\r\n        return findByChallengeIdVote[challengeId];\r\n    }\r\n}",
  "sourcePath": "c:\\Users\\multicampus\\Desktop\\ssafy\\S07P22B106\\truffle\\contracts\\VoteContract.sol",
  "compiler": {
    "name": "solc",
    "version": "0.8.14+commit.80d49f37.Emscripten.clang"
  },
  "schemaVersion": "3.4.10",
  "updatedAt": "2022-09-30T07:13:37.893Z",
  "networkType": "ethereum",
  "devdoc": {
    "kind": "dev",
    "methods": {},
    "version": 1
  },
  "userdoc": {
    "kind": "user",
    "methods": {},
    "version": 1
  }
}