{
  "contractName": "VoteContract",
  "abi": [
    {
      "anonymous": false,
      "inputs": [
        {
          "indexed": false,
          "internalType": "uint256",
          "name": "voteId",
          "type": "uint256"
        }
      ],
      "name": "returnVoteId",
      "type": "event"
    },
    {
      "inputs": [
        {
          "internalType": "uint256",
          "name": "challengerId",
          "type": "uint256"
        },
        {
          "internalType": "uint256",
          "name": "userId",
          "type": "uint256"
        },
        {
          "internalType": "string",
          "name": "picURL",
          "type": "string"
        },
        {
          "internalType": "string",
          "name": "today",
          "type": "string"
        }
      ],
      "name": "addPhoto",
      "outputs": [],
      "stateMutability": "nonpayable",
      "type": "function"
    },
    {
      "inputs": [
        {
          "internalType": "uint256",
          "name": "challengerId",
          "type": "uint256"
        }
      ],
      "name": "getChallengerPhoto",
      "outputs": [
        {
          "components": [
            {
              "internalType": "uint256",
              "name": "id",
              "type": "uint256"
            },
            {
              "internalType": "uint256",
              "name": "userId",
              "type": "uint256"
            },
            {
              "internalType": "uint256",
              "name": "challengerId",
              "type": "uint256"
            },
            {
              "internalType": "string",
              "name": "picURL",
              "type": "string"
            },
            {
              "internalType": "string",
              "name": "timestamp",
              "type": "string"
            }
          ],
          "internalType": "struct PhotoContract.Photo[]",
          "name": "",
          "type": "tuple[]"
        }
      ],
      "stateMutability": "view",
      "type": "function",
      "constant": true
    },
    {
      "inputs": [
        {
          "internalType": "uint256",
          "name": "challengeId",
          "type": "uint256"
        },
        {
          "internalType": "uint256",
          "name": "photoId",
          "type": "uint256"
        },
        {
          "internalType": "uint256",
          "name": "userId",
          "type": "uint256"
        }
      ],
      "name": "report",
      "outputs": [],
      "stateMutability": "nonpayable",
      "type": "function"
    },
    {
      "inputs": [
        {
          "internalType": "uint256",
          "name": "challengeId",
          "type": "uint256"
        },
        {
          "internalType": "uint256",
          "name": "userId",
          "type": "uint256"
        },
        {
          "internalType": "uint256",
          "name": "voteId",
          "type": "uint256"
        },
        {
          "internalType": "bool",
          "name": "pass",
          "type": "bool"
        }
      ],
      "name": "voting",
      "outputs": [],
      "stateMutability": "nonpayable",
      "type": "function"
    },
    {
      "inputs": [
        {
          "internalType": "uint256",
          "name": "voteId",
          "type": "uint256"
        }
      ],
      "name": "endVote",
      "outputs": [
        {
          "internalType": "bool",
          "name": "",
          "type": "bool"
        },
        {
          "internalType": "uint256[]",
          "name": "",
          "type": "uint256[]"
        }
      ],
      "stateMutability": "view",
      "type": "function",
      "constant": true
    },
    {
      "inputs": [
        {
          "internalType": "uint256",
          "name": "challengeId",
          "type": "uint256"
        }
      ],
      "name": "getChallengeVote",
      "outputs": [
        {
          "components": [
            {
              "internalType": "uint256",
              "name": "id",
              "type": "uint256"
            },
            {
              "internalType": "uint256",
              "name": "challengeId",
              "type": "uint256"
            },
            {
              "components": [
                {
                  "internalType": "uint256",
                  "name": "id",
                  "type": "uint256"
                },
                {
                  "internalType": "uint256",
                  "name": "userId",
                  "type": "uint256"
                },
                {
                  "internalType": "uint256",
                  "name": "challengerId",
                  "type": "uint256"
                },
                {
                  "internalType": "string",
                  "name": "picURL",
                  "type": "string"
                },
                {
                  "internalType": "string",
                  "name": "timestamp",
                  "type": "string"
                }
              ],
              "internalType": "struct PhotoContract.Photo",
              "name": "photo",
              "type": "tuple"
            },
            {
              "internalType": "uint256",
              "name": "pass",
              "type": "uint256"
            },
            {
              "internalType": "uint256",
              "name": "fail",
              "type": "uint256"
            },
            {
              "internalType": "uint256",
              "name": "startTimestamp",
              "type": "uint256"
            },
            {
              "internalType": "uint256[]",
              "name": "userIdList",
              "type": "uint256[]"
            },
            {
              "internalType": "bool[]",
              "name": "userVoteList",
              "type": "bool[]"
            }
          ],
          "internalType": "struct VoteContract.Vote[]",
          "name": "",
          "type": "tuple[]"
        }
      ],
      "stateMutability": "view",
      "type": "function",
      "constant": true
    }
  ],
  "bytecode": "0x60806040526001600055600160035534801561001a57600080fd5b506116e38061002a6000396000f3fe608060405234801561001057600080fd5b50600436106100625760003560e01c80636854ad6514610067578063865df0ad14610090578063a1d9bafc146100b1578063c7a097b7146100c6578063d20b03c5146100d9578063e8a9e2eb146100ec575b600080fd5b61007a6100753660046111f8565b61010c565b60405161008791906112b3565b60405180910390f35b6100a361009e3660046111f8565b6102c0565b604051610087929190611315565b6100c46100bf366004611365565b610779565b005b6100c46100d4366004611391565b610a9d565b6100c46100e736600461147a565b610cb3565b6100ff6100fa3660046111f8565b610d98565b604051610087919061155e565b606060026000838152602001908152602001600020805480602002602001604051908101604052809291908181526020016000905b828210156102b557838290600052602060002090600502016040518060a001604052908160008201548152602001600182015481526020016002820154815260200160038201805461019290611636565b80601f01602080910402602001604051908101604052809291908181526020018280546101be90611636565b801561020b5780601f106101e05761010080835404028352916020019161020b565b820191906000526020600020905b8154815290600101906020018083116101ee57829003601f168201915b5050505050815260200160048201805461022490611636565b80601f016020809104026020016040519081016040528092919081815260200182805461025090611636565b801561029d5780601f106102725761010080835404028352916020019161029d565b820191906000526020600020905b81548152906001019060200180831161028057829003601f168201915b50505050508152505081526020019060010190610141565b505050509050919050565b60006060600060046000858152602001908152602001600020604051806101000160405290816000820154815260200160018201548152602001600282016040518060a001604052908160008201548152602001600182015481526020016002820154815260200160038201805461033790611636565b80601f016020809104026020016040519081016040528092919081815260200182805461036390611636565b80156103b05780601f10610385576101008083540402835291602001916103b0565b820191906000526020600020905b81548152906001019060200180831161039357829003601f168201915b505050505081526020016004820180546103c990611636565b80601f01602080910402602001604051908101604052809291908181526020018280546103f590611636565b80156104425780601f1061041757610100808354040283529160200191610442565b820191906000526020600020905b81548152906001019060200180831161042557829003601f168201915b5050505050815250508152602001600782015481526020016008820154815260200160098201548152602001600a82018054806020026020016040519081016040528092919081815260200182805480156104bc57602002820191906000526020600020905b8154815260200190600101908083116104a8575b50505050508152602001600b820180548060200260200160405190810160405280929190818152602001828054801561053457602002820191906000526020600020906000905b825461010083900a900460ff1615158152602060019283018181049485019490930390920291018084116105035790505b50505050508152505090506000805b8260c00151518110156105ef578260800151836060015111801561058157508260e00151818151811061057857610578611670565b60200260200101515b15610598578161059081611686565b9250506105dd565b826080015183606001511080156105ca57508260e0015181815181106105c0576105c0611670565b6020026020010151155b156105dd57816105d981611686565b9250505b806105e781611686565b915050610543565b5060008167ffffffffffffffff81111561060b5761060b6113d7565b604051908082528060200260200182016040528015610634578160200160208202803683370190505b5090506000915060005b8360c0015151811015610760578360800151846060015111801561067c57508360e00151818151811061067357610673611670565b60200260200101515b156106ce578360c00151818151811061069757610697611670565b60200260200101518284806106ab90611686565b9550815181106106bd576106bd611670565b60200260200101818152505061074e565b8360800151846060015110801561070057508360e0015181815181106106f6576106f6611670565b6020026020010151155b1561074e578360c00151818151811061071b5761071b611670565b602002602001015182848061072f90611686565b95508151811061074157610741611670565b6020026020010181815250505b8061075881611686565b91505061063e565b5082608001518360600151118194509450505050915091565b6000600160008481526020019081526020016000206040518060a00160405290816000820154815260200160018201548152602001600282015481526020016003820180546107c790611636565b80601f01602080910402602001604051908101604052809291908181526020018280546107f390611636565b80156108405780601f1061081557610100808354040283529160200191610840565b820191906000526020600020905b81548152906001019060200180831161082357829003601f168201915b5050505050815260200160048201805461085990611636565b80601f016020809104026020016040519081016040528092919081815260200182805461088590611636565b80156108d25780601f106108a7576101008083540402835291602001916108d2565b820191906000526020600020905b8154815290600101906020018083116108b557829003601f168201915b5050509190925250506003805460008181526004602052604081209495509092506108fc83611686565b9091555081556001810185905581516002820190815560208084015160038401556040840151600484015560608401518051859392610942926005870192910190611058565b506080820151805161095e916004840191602090910190611058565b50504260098301555060008581526005602081815260408320805460018181018355918552919093208454600c9092020190815582840154928101929092556002808401805491840191825560038086015490850155600480860154908501558285018054869594929392850191906109d690611636565b6109e19291906110dc565b5060048201816004019080546109f690611636565b610a019291906110dc565b505050600782015481600701556008820154816008015560098201548160090155600a820181600a01908054610a38929190611157565b50600b8281018054610a4d9284019190611196565b505081546040519081527f0e34776b3e53847697fd48f25578583a5357960363194d06436db5c5bdf71b8e915060200160405180910390a1610a96858483600001546000610a9d565b5050505050565b60008281526004602090815260408220600a8101805460018101825590845291909220018490558115610b1a57600781018054906000610adc83611686565b9091555050600b810180546001810182556000918252602091829020918104909101805460ff601f9093166101000a92830219169091179055610b63565b600881018054906000610b2c83611686565b9091555050600b8101805460018101825560009182526020918290209181049091018054601f9092166101000a60ff021990911690555b60005b6000868152600560205260409020805485919083908110610b8957610b89611670565b90600052602060002090600c02016000015414610bb25780610baa81611686565b915050610b66565b6000868152600560205260409020805483919083908110610bd557610bd5611670565b90600052602060002090600c0201600082015481600001556001820154816001015560028201816002016000820154816000015560018201548160010155600282015481600201556003820181600301908054610c3190611636565b610c3c9291906110dc565b506004820181600401908054610c5190611636565b610c5c9291906110dc565b505050600782015481600701556008820154816008015560098201548160090155600a820181600a01908054610c93929190611157565b50600b8281018054610ca89284019190611196565b505050505050505050565b600080548082526001602052604082209180610cce83611686565b90915550815560018101849055600281018590558251610cf79060038301906020860190611058565b508151610d0d9060048301906020850190611058565b5060008581526002602081815260408320805460018181018355918552919093208454600590920201908155828401549281019290925582810154908201556003808301805484939283019190610d6390611636565b610d6e9291906110dc565b506004820181600401908054610d8390611636565b610d8e9291906110dc565b5050505050505050565b606060056000838152602001908152602001600020805480602002602001604051908101604052809291908181526020016000905b828210156102b557838290600052602060002090600c0201604051806101000160405290816000820154815260200160018201548152602001600282016040518060a0016040529081600082015481526020016001820154815260200160028201548152602001600382018054610e4390611636565b80601f0160208091040260200160405190810160405280929190818152602001828054610e6f90611636565b8015610ebc5780601f10610e9157610100808354040283529160200191610ebc565b820191906000526020600020905b815481529060010190602001808311610e9f57829003601f168201915b50505050508152602001600482018054610ed590611636565b80601f0160208091040260200160405190810160405280929190818152602001828054610f0190611636565b8015610f4e5780601f10610f2357610100808354040283529160200191610f4e565b820191906000526020600020905b815481529060010190602001808311610f3157829003601f168201915b5050505050815250508152602001600782015481526020016008820154815260200160098201548152602001600a8201805480602002602001604051908101604052809291908181526020018280548015610fc857602002820191906000526020600020905b815481526020019060010190808311610fb4575b50505050508152602001600b820180548060200260200160405190810160405280929190818152602001828054801561104057602002820191906000526020600020906000905b825461010083900a900460ff16151581526020600192830181810494850194909303909202910180841161100f5790505b50505050508152505081526020019060010190610dcd565b82805461106490611636565b90600052602060002090601f01602090048101928261108657600085556110cc565b82601f1061109f57805160ff19168380011785556110cc565b828001600101855582156110cc579182015b828111156110cc5782518255916020019190600101906110b1565b506110d89291506111e3565b5090565b8280546110e890611636565b90600052602060002090601f01602090048101928261110a57600085556110cc565b82601f1061111b57805485556110cc565b828001600101855582156110cc57600052602060002091601f016020900482015b828111156110cc57825482559160010191906001019061113c565b8280548282559060005260206000209081019282156110cc576000526020600020918201828111156110cc57825482559160010191906001019061113c565b82805482825590600052602060002090601f016020900481019282156110cc57600052602060002091601f01602090048201828111156110cc57825482559160010191906001019061113c565b5b808211156110d857600081556001016111e4565b60006020828403121561120a57600080fd5b5035919050565b6000815180845260005b818110156112375760208185018101518683018201520161121b565b81811115611249576000602083870101525b50601f01601f19169290920160200192915050565b8051825260208101516020830152604081015160408301526000606082015160a0606085015261129160a0850182611211565b9050608083015184820360808601526112aa8282611211565b95945050505050565b6000602080830181845280855180835260408601915060408160051b870101925083870160005b8281101561130857603f198886030184526112f685835161125e565b945092850192908501906001016112da565b5092979650505050505050565b60006040820184151583526020604081850152818551808452606086019150828701935060005b818110156113585784518352938301939183019160010161133c565b5090979650505050505050565b60008060006060848603121561137a57600080fd5b505081359360208301359350604090920135919050565b600080600080608085870312156113a757600080fd5b843593506020850135925060408501359150606085013580151581146113cc57600080fd5b939692955090935050565b634e487b7160e01b600052604160045260246000fd5b600082601f8301126113fe57600080fd5b813567ffffffffffffffff80821115611419576114196113d7565b604051601f8301601f19908116603f01168101908282118183101715611441576114416113d7565b8160405283815286602085880101111561145a57600080fd5b836020870160208301376000602085830101528094505050505092915050565b6000806000806080858703121561149057600080fd5b8435935060208501359250604085013567ffffffffffffffff808211156114b657600080fd5b6114c2888389016113ed565b935060608701359150808211156114d857600080fd5b506114e5878288016113ed565b91505092959194509250565b600081518084526020808501945080840160005b8381101561152157815187529582019590820190600101611505565b509495945050505050565b600081518084526020808501945080840160005b83811015611521578151151587529582019590820190600101611540565b60006020808301818452808551808352604092508286019150828160051b87010184880160005b8381101561162857603f1989840301855281516101008151855288820151898601528782015181898701526115bc8287018261125e565b606084810151908801526080808501519088015260a0808501519088015260c080850151888303828a015291935091506115f683826114f1565b9250505060e08083015192508582038187015250611614818361152c565b968901969450505090860190600101611585565b509098975050505050505050565b600181811c9082168061164a57607f821691505b60208210810361166a57634e487b7160e01b600052602260045260246000fd5b50919050565b634e487b7160e01b600052603260045260246000fd5b6000600182016116a657634e487b7160e01b600052601160045260246000fd5b506001019056fea264697066735822122094ab4d6180cf85098c987448e4ad65dfdde309e2d175f78f3436835f5ff9a0fc64736f6c634300080e0033",
  "immutableReferences": {},
  "source": "// SPDX-License-Identifier: MIT\r\npragma solidity ^0.8.0;\r\npragma abicoder v2;\r\n\r\nimport \"./PhotoContract.sol\";\r\n\r\ncontract VoteContract is PhotoContract{\r\n    struct Vote{\r\n        // pk\r\n        uint id;\r\n\r\n        uint challengeId;\r\n        Photo photo;\r\n        // \r\n        uint pass;\r\n        uint fail;\r\n\r\n        // \r\n        uint startTimestamp;\r\n        //   \r\n        uint[] userIdList;\r\n        bool[] userVoteList;\r\n    }\r\n    uint voteSequence = 1;\r\n    mapping(uint => Vote) voteMap;\r\n\r\n    //  \r\n    mapping(uint => Vote[]) findByChallengeIdVote;\r\n    event returnVoteId(uint voteId);\r\n     // \r\n    function report(uint challengeId,uint photoId,uint userId) public{\r\n        Photo memory findPhoto=photoMap[photoId];\r\n        \r\n        Vote storage vote=voteMap[voteSequence];\r\n        vote.id=voteSequence++;\r\n        vote.challengeId=challengeId;\r\n        vote.photo=findPhoto;\r\n        vote.startTimestamp=block.timestamp;\r\n\r\n        findByChallengeIdVote[challengeId].push(vote);\r\n        emit returnVoteId(vote.id);\r\n        voting(challengeId,userId, vote.id, false); //     \r\n    }\r\n    //  \r\n    function voting(uint challengeId,uint userId, uint voteId, bool pass) public{\r\n        Vote storage findVote=voteMap[voteId];\r\n\r\n        findVote.userIdList.push(userId);\r\n        if(pass){\r\n            findVote.pass++;\r\n            findVote.userVoteList.push(true);\r\n        }\r\n        else{\r\n            findVote.fail++;\r\n            findVote.userVoteList.push(false);\r\n        }\r\n\r\n        uint voteIndex = 0;\r\n        while(findByChallengeIdVote[challengeId][voteIndex].id!=voteId) \r\n            voteIndex++;\r\n        \r\n        findByChallengeIdVote[challengeId][voteIndex] = findVote;\r\n    }\r\n\r\n    //  \r\n    function endVote(uint voteId) public view returns(bool,uint[] memory){\r\n        Vote memory vote=voteMap[voteId];\r\n\r\n        //    \r\n        uint count=0;\r\n        for (uint256 i = 0; i < vote.userIdList.length; i++) {\r\n            if(vote.pass>vote.fail&&vote.userVoteList[i]) count++; \r\n            else if (vote.pass<vote.fail&&!vote.userVoteList[i]) count++;\r\n        }\r\n        \r\n        uint[] memory userIdList=new uint[](count);\r\n        count=0;\r\n        for (uint256 i = 0; i < vote.userIdList.length; i++) {\r\n            if(vote.pass>vote.fail&&vote.userVoteList[i]) {\r\n                userIdList[count++]=vote.userIdList[i];             \r\n            }\r\n            else if (vote.pass<vote.fail&&!vote.userVoteList[i]){\r\n                userIdList[count++]=vote.userIdList[i];   \r\n            }\r\n        }\r\n        \r\n        //     \r\n        return (vote.pass>vote.fail,userIdList);\r\n    }\r\n\r\n    //    \r\n    function getChallengeVote(uint challengeId)public view returns(Vote[] memory){\r\n        return findByChallengeIdVote[challengeId];\r\n    }\r\n}",
  "sourcePath": "c:\\Users\\multicampus\\Desktop\\ssafy\\S07P22B106\\truffle\\contracts\\VoteContract.sol",
  "compiler": {
    "name": "solc",
    "version": "0.8.14+commit.80d49f37.Emscripten.clang"
  },
  "schemaVersion": "3.4.10",
  "updatedAt": "2022-10-02T06:41:42.922Z",
  "networkType": "ethereum",
  "devdoc": {
    "kind": "dev",
    "methods": {},
    "version": 1
  },
  "userdoc": {
    "kind": "user",
    "methods": {},
    "version": 1
  }
}